{
  "contractName": "AccessControlCrossChainMock",
  "abi": [
    {
      "inputs": [],
      "name": "NotCrossChainCall",
      "type": "error"
    },
    {
      "anonymous": false,
      "inputs": [
        {
          "indexed": true,
          "internalType": "bytes32",
          "name": "role",
          "type": "bytes32"
        },
        {
          "indexed": true,
          "internalType": "bytes32",
          "name": "previousAdminRole",
          "type": "bytes32"
        },
        {
          "indexed": true,
          "internalType": "bytes32",
          "name": "newAdminRole",
          "type": "bytes32"
        }
      ],
      "name": "RoleAdminChanged",
      "type": "event"
    },
    {
      "anonymous": false,
      "inputs": [
        {
          "indexed": true,
          "internalType": "bytes32",
          "name": "role",
          "type": "bytes32"
        },
        {
          "indexed": true,
          "internalType": "address",
          "name": "account",
          "type": "address"
        },
        {
          "indexed": true,
          "internalType": "address",
          "name": "sender",
          "type": "address"
        }
      ],
      "name": "RoleGranted",
      "type": "event"
    },
    {
      "anonymous": false,
      "inputs": [
        {
          "indexed": true,
          "internalType": "bytes32",
          "name": "role",
          "type": "bytes32"
        },
        {
          "indexed": true,
          "internalType": "address",
          "name": "account",
          "type": "address"
        },
        {
          "indexed": true,
          "internalType": "address",
          "name": "sender",
          "type": "address"
        }
      ],
      "name": "RoleRevoked",
      "type": "event"
    },
    {
      "inputs": [],
      "name": "CROSSCHAIN_ALIAS",
      "outputs": [
        {
          "internalType": "bytes32",
          "name": "",
          "type": "bytes32"
        }
      ],
      "stateMutability": "view",
      "type": "function"
    },
    {
      "inputs": [],
      "name": "DEFAULT_ADMIN_ROLE",
      "outputs": [
        {
          "internalType": "bytes32",
          "name": "",
          "type": "bytes32"
        }
      ],
      "stateMutability": "view",
      "type": "function"
    },
    {
      "inputs": [
        {
          "internalType": "bytes32",
          "name": "role",
          "type": "bytes32"
        }
      ],
      "name": "getRoleAdmin",
      "outputs": [
        {
          "internalType": "bytes32",
          "name": "",
          "type": "bytes32"
        }
      ],
      "stateMutability": "view",
      "type": "function"
    },
    {
      "inputs": [
        {
          "internalType": "bytes32",
          "name": "role",
          "type": "bytes32"
        },
        {
          "internalType": "address",
          "name": "account",
          "type": "address"
        }
      ],
      "name": "grantRole",
      "outputs": [],
      "stateMutability": "nonpayable",
      "type": "function"
    },
    {
      "inputs": [
        {
          "internalType": "bytes32",
          "name": "role",
          "type": "bytes32"
        },
        {
          "internalType": "address",
          "name": "account",
          "type": "address"
        }
      ],
      "name": "hasRole",
      "outputs": [
        {
          "internalType": "bool",
          "name": "",
          "type": "bool"
        }
      ],
      "stateMutability": "view",
      "type": "function"
    },
    {
      "inputs": [
        {
          "internalType": "bytes32",
          "name": "role",
          "type": "bytes32"
        },
        {
          "internalType": "address",
          "name": "account",
          "type": "address"
        }
      ],
      "name": "renounceRole",
      "outputs": [],
      "stateMutability": "nonpayable",
      "type": "function"
    },
    {
      "inputs": [
        {
          "internalType": "bytes32",
          "name": "role",
          "type": "bytes32"
        },
        {
          "internalType": "address",
          "name": "account",
          "type": "address"
        }
      ],
      "name": "revokeRole",
      "outputs": [],
      "stateMutability": "nonpayable",
      "type": "function"
    },
    {
      "inputs": [
        {
          "internalType": "bytes4",
          "name": "interfaceId",
          "type": "bytes4"
        }
      ],
      "name": "supportsInterface",
      "outputs": [
        {
          "internalType": "bool",
          "name": "",
          "type": "bool"
        }
      ],
      "stateMutability": "view",
      "type": "function"
    }
  ],
  "bytecode": "0x608060405234801561001057600080fd5b50611178806100206000396000f3fe608060405234801561001057600080fd5b50600436106100885760003560e01c806391d148541161005b57806391d1485414610125578063a217fddf14610155578063d547741f14610173578063f9d042951461018f57610088565b806301ffc9a71461008d578063248a9ca3146100bd5780632f2ff15d146100ed57806336568abe14610109575b600080fd5b6100a760048036038101906100a29190610b25565b6101ad565b6040516100b49190610b6d565b60405180910390f35b6100d760048036038101906100d29190610bbe565b610227565b6040516100e49190610bfa565b60405180910390f35b61010760048036038101906101029190610c73565b610246565b005b610123600480360381019061011e9190610c73565b610267565b005b61013f600480360381019061013a9190610c73565b6102ea565b60405161014c9190610b6d565b60405180910390f35b61015d610354565b60405161016a9190610bfa565b60405180910390f35b61018d60048036038101906101889190610c73565b61035b565b005b61019761037c565b6040516101a49190610bfa565b60405180910390f35b60007f7965db0b000000000000000000000000000000000000000000000000000000007bffffffffffffffffffffffffffffffffffffffffffffffffffffffff1916827bffffffffffffffffffffffffffffffffffffffffffffffffffffffff19161480610220575061021f826103a0565b5b9050919050565b6000806000838152602001908152602001600020600101549050919050565b61024f82610227565b6102588161040a565b6102628383610442565b505050565b61026f610522565b73ffffffffffffffffffffffffffffffffffffffff168173ffffffffffffffffffffffffffffffffffffffff16146102dc576040517f08c379a00000000000000000000000000000000000000000000000000000000081526004016102d390610d36565b60405180910390fd5b6102e6828261052a565b5050565b600080600084815260200190815260200160002060000160008373ffffffffffffffffffffffffffffffffffffffff1673ffffffffffffffffffffffffffffffffffffffff16815260200190815260200160002060009054906101000a900460ff16905092915050565b6000801b81565b61036482610227565b61036d8161040a565b610377838361052a565b505050565b7fe870e9cffded00b0b933338bc23ae12648d8d2d4829802ab37a0908f14773b4d81565b60007f01ffc9a7000000000000000000000000000000000000000000000000000000007bffffffffffffffffffffffffffffffffffffffffffffffffffffffff1916827bffffffffffffffffffffffffffffffffffffffffffffffffffffffff1916149050919050565b61041261060b565b15610435576104306104238261061c565b61042b610648565b610697565b61043f565b61043e8161071c565b5b50565b61044c82826102ea565b61051e57600160008084815260200190815260200160002060000160008373ffffffffffffffffffffffffffffffffffffffff1673ffffffffffffffffffffffffffffffffffffffff16815260200190815260200160002060006101000a81548160ff0219169083151502179055506104c3610522565b73ffffffffffffffffffffffffffffffffffffffff168173ffffffffffffffffffffffffffffffffffffffff16837f2f8788117e7eff1d82e926ec794901d17c78024a50270940304540a733656f0d60405160405180910390a45b5050565b600033905090565b61053482826102ea565b1561060757600080600084815260200190815260200160002060000160008373ffffffffffffffffffffffffffffffffffffffff1673ffffffffffffffffffffffffffffffffffffffff16815260200190815260200160002060006101000a81548160ff0219169083151502179055506105ac610522565b73ffffffffffffffffffffffffffffffffffffffff168173ffffffffffffffffffffffffffffffffffffffff16837ff6391f5c32d9c69d2a47ea670b442974b53935d1edc7fd64eb21e047a839171b60405160405180910390a45b5050565b60006106176064610730565b905090565b60007fe870e9cffded00b0b933338bc23ae12648d8d2d4829802ab37a0908f14773b4d82189050919050565b600061065261060b565b610688576040517f4a74df9200000000000000000000000000000000000000000000000000000000815260040160405180910390fd5b61069260646107a8565b905090565b6106a182826102ea565b610718576106ae8161085f565b6106bc8360001c602061088c565b6040516020016106cd929190610e5f565b6040516020818303038152906040526040517f08c379a000000000000000000000000000000000000000000000000000000000815260040161070f9190610ee3565b60405180910390fd5b5050565b61072d81610728610522565b610697565b50565b60008173ffffffffffffffffffffffffffffffffffffffff1663175a260b6040518163ffffffff1660e01b8152600401602060405180830381865afa15801561077d573d6000803e3d6000fd5b505050506040513d601f19601f820116820180604052508101906107a19190610f31565b9050919050565b60006107b382610730565b6107e9576040517f4a74df9200000000000000000000000000000000000000000000000000000000815260040160405180910390fd5b8173ffffffffffffffffffffffffffffffffffffffff1663d74523b36040518163ffffffff1660e01b8152600401602060405180830381865afa158015610834573d6000803e3d6000fd5b505050506040513d601f19601f820116820180604052508101906108589190610f73565b9050919050565b60606108858273ffffffffffffffffffffffffffffffffffffffff16601460ff1661088c565b9050919050565b60606000600283600261089f9190610fd9565b6108a9919061101b565b67ffffffffffffffff8111156108c2576108c161104f565b5b6040519080825280601f01601f1916602001820160405280156108f45781602001600182028036833780820191505090505b5090507f30000000000000000000000000000000000000000000000000000000000000008160008151811061092c5761092b61107e565b5b60200101907effffffffffffffffffffffffffffffffffffffffffffffffffffffffffffff1916908160001a9053507f7800000000000000000000000000000000000000000000000000000000000000816001815181106109905761098f61107e565b5b60200101907effffffffffffffffffffffffffffffffffffffffffffffffffffffffffffff1916908160001a905350600060018460026109d09190610fd9565b6109da919061101b565b90505b6001811115610a7a577f3031323334353637383961626364656600000000000000000000000000000000600f861660108110610a1c57610a1b61107e565b5b1a60f81b828281518110610a3357610a3261107e565b5b60200101907effffffffffffffffffffffffffffffffffffffffffffffffffffffffffffff1916908160001a905350600485901c945080610a73906110ad565b90506109dd565b5060008414610abe576040517f08c379a0000000000000000000000000000000000000000000000000000000008152600401610ab590611122565b60405180910390fd5b8091505092915050565b600080fd5b60007fffffffff0000000000000000000000000000000000000000000000000000000082169050919050565b610b0281610acd565b8114610b0d57600080fd5b50565b600081359050610b1f81610af9565b92915050565b600060208284031215610b3b57610b3a610ac8565b5b6000610b4984828501610b10565b91505092915050565b60008115159050919050565b610b6781610b52565b82525050565b6000602082019050610b826000830184610b5e565b92915050565b6000819050919050565b610b9b81610b88565b8114610ba657600080fd5b50565b600081359050610bb881610b92565b92915050565b600060208284031215610bd457610bd3610ac8565b5b6000610be284828501610ba9565b91505092915050565b610bf481610b88565b82525050565b6000602082019050610c0f6000830184610beb565b92915050565b600073ffffffffffffffffffffffffffffffffffffffff82169050919050565b6000610c4082610c15565b9050919050565b610c5081610c35565b8114610c5b57600080fd5b50565b600081359050610c6d81610c47565b92915050565b60008060408385031215610c8a57610c89610ac8565b5b6000610c9885828601610ba9565b9250506020610ca985828601610c5e565b9150509250929050565b600082825260208201905092915050565b7f416363657373436f6e74726f6c3a2063616e206f6e6c792072656e6f756e636560008201527f20726f6c657320666f722073656c660000000000000000000000000000000000602082015250565b6000610d20602f83610cb3565b9150610d2b82610cc4565b604082019050919050565b60006020820190508181036000830152610d4f81610d13565b9050919050565b600081905092915050565b7f416363657373436f6e74726f6c3a206163636f756e7420000000000000000000600082015250565b6000610d97601783610d56565b9150610da282610d61565b601782019050919050565b600081519050919050565b60005b83811015610dd6578082015181840152602081019050610dbb565b60008484015250505050565b6000610ded82610dad565b610df78185610d56565b9350610e07818560208601610db8565b80840191505092915050565b7f206973206d697373696e6720726f6c6520000000000000000000000000000000600082015250565b6000610e49601183610d56565b9150610e5482610e13565b601182019050919050565b6000610e6a82610d8a565b9150610e768285610de2565b9150610e8182610e3c565b9150610e8d8284610de2565b91508190509392505050565b6000601f19601f8301169050919050565b6000610eb582610dad565b610ebf8185610cb3565b9350610ecf818560208601610db8565b610ed881610e99565b840191505092915050565b60006020820190508181036000830152610efd8184610eaa565b905092915050565b610f0e81610b52565b8114610f1957600080fd5b50565b600081519050610f2b81610f05565b92915050565b600060208284031215610f4757610f46610ac8565b5b6000610f5584828501610f1c565b91505092915050565b600081519050610f6d81610c47565b92915050565b600060208284031215610f8957610f88610ac8565b5b6000610f9784828501610f5e565b91505092915050565b6000819050919050565b7f4e487b7100000000000000000000000000000000000000000000000000000000600052601160045260246000fd5b6000610fe482610fa0565b9150610fef83610fa0565b9250828202610ffd81610fa0565b9150828204841483151761101457611013610faa565b5b5092915050565b600061102682610fa0565b915061103183610fa0565b925082820190508082111561104957611048610faa565b5b92915050565b7f4e487b7100000000000000000000000000000000000000000000000000000000600052604160045260246000fd5b7f4e487b7100000000000000000000000000000000000000000000000000000000600052603260045260246000fd5b60006110b882610fa0565b9150600082036110cb576110ca610faa565b5b600182039050919050565b7f537472696e67733a20686578206c656e67746820696e73756666696369656e74600082015250565b600061110c602083610cb3565b9150611117826110d6565b602082019050919050565b6000602082019050818103600083015261113b816110ff565b905091905056fea264697066735822122095a53fc5f144f2c1d4410341a0b3775b459efd615b30a46bae19fc27dde3abed64736f6c63430008130033",
  "immutableReferences": {},
  "source": "// SPDX-License-Identifier: MIT\r\n\r\npragma solidity ^0.8.4;\r\n\r\nimport \"../access/AccessControlCrossChain.sol\";\r\nimport \"../crosschain/arbitrum/CrossChainEnabledArbitrumL2.sol\";\r\n\r\ncontract AccessControlCrossChainMock is AccessControlCrossChain, CrossChainEnabledArbitrumL2 {}\r\n",
  "sourcePath": "C:\\Users\\SSAFY\\Desktop\\S08P22A308\\smart-contracts\\contracts\\mocks\\AccessControlCrossChainMock.sol",
  "compiler": {
    "name": "solc",
    "version": "0.8.19+commit.7dd6d404.Emscripten.clang"
  },
  "schemaVersion": "3.4.13",
  "updatedAt": "2023-03-23T05:45:08.173Z",
  "devdoc": {
    "events": {
      "RoleAdminChanged(bytes32,bytes32,bytes32)": {
        "details": "Emitted when `newAdminRole` is set as ``role``'s admin role, replacing `previousAdminRole` `DEFAULT_ADMIN_ROLE` is the starting admin for all roles, despite {RoleAdminChanged} not being emitted signaling this. _Available since v3.1._"
      },
      "RoleGranted(bytes32,address,address)": {
        "details": "Emitted when `account` is granted `role`. `sender` is the account that originated the contract call, an admin role bearer except when using {AccessControl-_setupRole}."
      },
      "RoleRevoked(bytes32,address,address)": {
        "details": "Emitted when `account` is revoked `role`. `sender` is the account that originated the contract call:   - if using `revokeRole`, it is the admin role bearer   - if using `renounceRole`, it is the role bearer (i.e. `account`)"
      }
    },
    "kind": "dev",
    "methods": {
      "getRoleAdmin(bytes32)": {
        "details": "Returns the admin role that controls `role`. See {grantRole} and {revokeRole}. To change a role's admin, use {_setRoleAdmin}."
      },
      "grantRole(bytes32,address)": {
        "details": "Grants `role` to `account`. If `account` had not been already granted `role`, emits a {RoleGranted} event. Requirements: - the caller must have ``role``'s admin role. May emit a {RoleGranted} event."
      },
      "hasRole(bytes32,address)": {
        "details": "Returns `true` if `account` has been granted `role`."
      },
      "renounceRole(bytes32,address)": {
        "details": "Revokes `role` from the calling account. Roles are often managed via {grantRole} and {revokeRole}: this function's purpose is to provide a mechanism for accounts to lose their privileges if they are compromised (such as when a trusted device is misplaced). If the calling account had been revoked `role`, emits a {RoleRevoked} event. Requirements: - the caller must be `account`. May emit a {RoleRevoked} event."
      },
      "revokeRole(bytes32,address)": {
        "details": "Revokes `role` from `account`. If `account` had been granted `role`, emits a {RoleRevoked} event. Requirements: - the caller must have ``role``'s admin role. May emit a {RoleRevoked} event."
      },
      "supportsInterface(bytes4)": {
        "details": "See {IERC165-supportsInterface}."
      }
    },
    "version": 1
  },
  "userdoc": {
    "kind": "user",
    "methods": {},
    "version": 1
  }
}