{
  "contractName": "BridgePolygonChildMock",
  "abi": [
    {
      "inputs": [
        {
          "internalType": "address",
          "name": "sender",
          "type": "address"
        },
        {
          "internalType": "address",
          "name": "expected",
          "type": "address"
        }
      ],
      "name": "InvalidCrossChainSender",
      "type": "error"
    },
    {
      "inputs": [],
      "name": "NotCrossChainCall",
      "type": "error"
    },
    {
      "inputs": [
        {
          "internalType": "address",
          "name": "target",
          "type": "address"
        },
        {
          "internalType": "bytes",
          "name": "data",
          "type": "bytes"
        },
        {
          "internalType": "address",
          "name": "sender",
          "type": "address"
        }
      ],
      "name": "relayAs",
      "outputs": [],
      "stateMutability": "nonpayable",
      "type": "function"
    }
  ],
  "bytecode": "0x608060405234801561001057600080fd5b50610337806100206000396000f3fe608060405234801561001057600080fd5b506004361061002b5760003560e01c8063fb417a5b14610030575b600080fd5b61004a60048036038101906100459190610191565b61004c565b005b8373ffffffffffffffffffffffffffffffffffffffff16639a7c4b7160008386866040518563ffffffff1660e01b815260040161008c94939291906102c1565b600060405180830381600087803b1580156100a657600080fd5b505af11580156100ba573d6000803e3d6000fd5b5050505050505050565b600080fd5b600080fd5b600073ffffffffffffffffffffffffffffffffffffffff82169050919050565b60006100f9826100ce565b9050919050565b610109816100ee565b811461011457600080fd5b50565b60008135905061012681610100565b92915050565b600080fd5b600080fd5b600080fd5b60008083601f8401126101515761015061012c565b5b8235905067ffffffffffffffff81111561016e5761016d610131565b5b60208301915083600182028301111561018a57610189610136565b5b9250929050565b600080600080606085870312156101ab576101aa6100c4565b5b60006101b987828801610117565b945050602085013567ffffffffffffffff8111156101da576101d96100c9565b5b6101e68782880161013b565b935093505060406101f987828801610117565b91505092959194509250565b6000819050919050565b6000819050919050565b6000819050919050565b600061023e61023961023484610205565b610219565b61020f565b9050919050565b61024e81610223565b82525050565b61025d816100ee565b82525050565b600082825260208201905092915050565b82818337600083830152505050565b6000601f19601f8301169050919050565b60006102a08385610263565b93506102ad838584610274565b6102b683610283565b840190509392505050565b60006060820190506102d66000830187610245565b6102e36020830186610254565b81810360408301526102f6818486610294565b90509594505050505056fea264697066735822122083464c170647c2f8bdae64bb7522b3dc4ee4db67a28658351d6742ec7dbb7b1c64736f6c63430008130033",
  "immutableReferences": {},
  "source": "// SPDX-License-Identifier: MIT\r\n\r\npragma solidity ^0.8.0;\r\n\r\nimport \"../../utils/Address.sol\";\r\nimport \"../../vendor/polygon/IFxMessageProcessor.sol\";\r\n\r\nabstract contract BaseRelayMock {\r\n    // needed to parse custom errors\r\n    error NotCrossChainCall();\r\n    error InvalidCrossChainSender(address sender, address expected);\r\n\r\n    address internal _currentSender;\r\n\r\n    function relayAs(address target, bytes calldata data, address sender) external virtual {\r\n        address previousSender = _currentSender;\r\n\r\n        _currentSender = sender;\r\n\r\n        (bool success, bytes memory returndata) = target.call(data);\r\n        Address.verifyCallResultFromTarget(target, success, returndata, \"low-level call reverted\");\r\n\r\n        _currentSender = previousSender;\r\n    }\r\n}\r\n\r\n/**\r\n * AMB\r\n */\r\ncontract BridgeAMBMock is BaseRelayMock {\r\n    function messageSender() public view returns (address) {\r\n        return _currentSender;\r\n    }\r\n}\r\n\r\n/**\r\n * Arbitrum\r\n */\r\ncontract BridgeArbitrumL1Mock is BaseRelayMock {\r\n    /// @custom:oz-upgrades-unsafe-allow state-variable-immutable state-variable-assignment\r\n    address public immutable inbox = address(new BridgeArbitrumL1Inbox());\r\n    /// @custom:oz-upgrades-unsafe-allow state-variable-immutable state-variable-assignment\r\n    address public immutable outbox = address(new BridgeArbitrumL1Outbox());\r\n\r\n    function activeOutbox() public view returns (address) {\r\n        return outbox;\r\n    }\r\n\r\n    function currentSender() public view returns (address) {\r\n        return _currentSender;\r\n    }\r\n}\r\n\r\ncontract BridgeArbitrumL1Inbox {\r\n    /// @custom:oz-upgrades-unsafe-allow state-variable-immutable state-variable-assignment\r\n    address public immutable bridge = msg.sender;\r\n}\r\n\r\ncontract BridgeArbitrumL1Outbox {\r\n    /// @custom:oz-upgrades-unsafe-allow state-variable-immutable state-variable-assignment\r\n    address public immutable bridge = msg.sender;\r\n\r\n    function l2ToL1Sender() public view returns (address) {\r\n        return BridgeArbitrumL1Mock(bridge).currentSender();\r\n    }\r\n}\r\n\r\ncontract BridgeArbitrumL2Mock is BaseRelayMock {\r\n    function wasMyCallersAddressAliased() public view returns (bool) {\r\n        return _currentSender != address(0);\r\n    }\r\n\r\n    function myCallersAddressWithoutAliasing() public view returns (address) {\r\n        return _currentSender;\r\n    }\r\n}\r\n\r\n/**\r\n * Optimism\r\n */\r\ncontract BridgeOptimismMock is BaseRelayMock {\r\n    function xDomainMessageSender() public view returns (address) {\r\n        return _currentSender;\r\n    }\r\n}\r\n\r\n/**\r\n * Polygon\r\n */\r\ncontract BridgePolygonChildMock is BaseRelayMock {\r\n    function relayAs(address target, bytes calldata data, address sender) external override {\r\n        IFxMessageProcessor(target).processMessageFromRoot(0, sender, data);\r\n    }\r\n}\r\n",
  "sourcePath": "C:\\Users\\SSAFY\\Desktop\\S08P22A308\\smart-contracts\\contracts\\mocks\\crosschain\\bridges.sol",
  "compiler": {
    "name": "solc",
    "version": "0.8.19+commit.7dd6d404.Emscripten.clang"
  },
  "schemaVersion": "3.4.13",
  "updatedAt": "2023-03-23T05:45:08.350Z",
  "devdoc": {
    "kind": "dev",
    "methods": {},
    "version": 1
  },
  "userdoc": {
    "kind": "user",
    "methods": {},
    "notice": "Polygon",
    "version": 1
  }
}