{
  "contractName": "BridgeArbitrumL2Mock",
  "abi": [
    {
      "inputs": [
        {
          "internalType": "address",
          "name": "sender",
          "type": "address"
        },
        {
          "internalType": "address",
          "name": "expected",
          "type": "address"
        }
      ],
      "name": "InvalidCrossChainSender",
      "type": "error"
    },
    {
      "inputs": [],
      "name": "NotCrossChainCall",
      "type": "error"
    },
    {
      "inputs": [
        {
          "internalType": "address",
          "name": "target",
          "type": "address"
        },
        {
          "internalType": "bytes",
          "name": "data",
          "type": "bytes"
        },
        {
          "internalType": "address",
          "name": "sender",
          "type": "address"
        }
      ],
      "name": "relayAs",
      "outputs": [],
      "stateMutability": "nonpayable",
      "type": "function"
    },
    {
      "inputs": [],
      "name": "wasMyCallersAddressAliased",
      "outputs": [
        {
          "internalType": "bool",
          "name": "",
          "type": "bool"
        }
      ],
      "stateMutability": "view",
      "type": "function"
    },
    {
      "inputs": [],
      "name": "myCallersAddressWithoutAliasing",
      "outputs": [
        {
          "internalType": "address",
          "name": "",
          "type": "address"
        }
      ],
      "stateMutability": "view",
      "type": "function"
    }
  ],
  "bytecode": "0x608060405234801561001057600080fd5b506106b5806100206000396000f3fe608060405234801561001057600080fd5b50600436106100415760003560e01c8063175a260b14610046578063d74523b314610064578063fb417a5b14610082575b600080fd5b61004e61009e565b60405161005b9190610383565b60405180910390f35b61006c6100f5565b60405161007991906103df565b60405180910390f35b61009c60048036038101906100979190610495565b61011e565b005b60008073ffffffffffffffffffffffffffffffffffffffff1660008054906101000a900473ffffffffffffffffffffffffffffffffffffffff1673ffffffffffffffffffffffffffffffffffffffff161415905090565b60008060009054906101000a900473ffffffffffffffffffffffffffffffffffffffff16905090565b60008060009054906101000a900473ffffffffffffffffffffffffffffffffffffffff169050816000806101000a81548173ffffffffffffffffffffffffffffffffffffffff021916908373ffffffffffffffffffffffffffffffffffffffff1602179055506000808673ffffffffffffffffffffffffffffffffffffffff1686866040516101ae929190610548565b6000604051808303816000865af19150503d80600081146101eb576040519150601f19603f3d011682016040523d82523d6000602084013e6101f0565b606091505b50915091506102368783836040518060400160405280601781526020017f6c6f772d6c6576656c2063616c6c207265766572746564000000000000000000815250610280565b50826000806101000a81548173ffffffffffffffffffffffffffffffffffffffff021916908373ffffffffffffffffffffffffffffffffffffffff16021790555050505050505050565b606083156102e25760008351036102da5761029a856102f5565b6102d9576040517f08c379a00000000000000000000000000000000000000000000000000000000081526004016102d0906105be565b60405180910390fd5b5b8290506102ed565b6102ec8383610318565b5b949350505050565b6000808273ffffffffffffffffffffffffffffffffffffffff163b119050919050565b60008251111561032b5781518083602001fd5b806040517f08c379a000000000000000000000000000000000000000000000000000000000815260040161035f919061065d565b60405180910390fd5b60008115159050919050565b61037d81610368565b82525050565b60006020820190506103986000830184610374565b92915050565b600073ffffffffffffffffffffffffffffffffffffffff82169050919050565b60006103c98261039e565b9050919050565b6103d9816103be565b82525050565b60006020820190506103f460008301846103d0565b92915050565b600080fd5b600080fd5b61040d816103be565b811461041857600080fd5b50565b60008135905061042a81610404565b92915050565b600080fd5b600080fd5b600080fd5b60008083601f84011261045557610454610430565b5b8235905067ffffffffffffffff81111561047257610471610435565b5b60208301915083600182028301111561048e5761048d61043a565b5b9250929050565b600080600080606085870312156104af576104ae6103fa565b5b60006104bd8782880161041b565b945050602085013567ffffffffffffffff8111156104de576104dd6103ff565b5b6104ea8782880161043f565b935093505060406104fd8782880161041b565b91505092959194509250565b600081905092915050565b82818337600083830152505050565b600061052f8385610509565b935061053c838584610514565b82840190509392505050565b6000610555828486610523565b91508190509392505050565b600082825260208201905092915050565b7f416464726573733a2063616c6c20746f206e6f6e2d636f6e7472616374000000600082015250565b60006105a8601d83610561565b91506105b382610572565b602082019050919050565b600060208201905081810360008301526105d78161059b565b9050919050565b600081519050919050565b60005b838110156106075780820151818401526020810190506105ec565b60008484015250505050565b6000601f19601f8301169050919050565b600061062f826105de565b6106398185610561565b93506106498185602086016105e9565b61065281610613565b840191505092915050565b600060208201905081810360008301526106778184610624565b90509291505056fea2646970667358221220678055e28136c143b15b853622ed75cd668ceba621694fe6d4e230ff2af5eb3564736f6c63430008130033",
  "immutableReferences": {},
  "source": "// SPDX-License-Identifier: MIT\r\n\r\npragma solidity ^0.8.0;\r\n\r\nimport \"../../utils/Address.sol\";\r\nimport \"../../vendor/polygon/IFxMessageProcessor.sol\";\r\n\r\nabstract contract BaseRelayMock {\r\n    // needed to parse custom errors\r\n    error NotCrossChainCall();\r\n    error InvalidCrossChainSender(address sender, address expected);\r\n\r\n    address internal _currentSender;\r\n\r\n    function relayAs(address target, bytes calldata data, address sender) external virtual {\r\n        address previousSender = _currentSender;\r\n\r\n        _currentSender = sender;\r\n\r\n        (bool success, bytes memory returndata) = target.call(data);\r\n        Address.verifyCallResultFromTarget(target, success, returndata, \"low-level call reverted\");\r\n\r\n        _currentSender = previousSender;\r\n    }\r\n}\r\n\r\n/**\r\n * AMB\r\n */\r\ncontract BridgeAMBMock is BaseRelayMock {\r\n    function messageSender() public view returns (address) {\r\n        return _currentSender;\r\n    }\r\n}\r\n\r\n/**\r\n * Arbitrum\r\n */\r\ncontract BridgeArbitrumL1Mock is BaseRelayMock {\r\n    /// @custom:oz-upgrades-unsafe-allow state-variable-immutable state-variable-assignment\r\n    address public immutable inbox = address(new BridgeArbitrumL1Inbox());\r\n    /// @custom:oz-upgrades-unsafe-allow state-variable-immutable state-variable-assignment\r\n    address public immutable outbox = address(new BridgeArbitrumL1Outbox());\r\n\r\n    function activeOutbox() public view returns (address) {\r\n        return outbox;\r\n    }\r\n\r\n    function currentSender() public view returns (address) {\r\n        return _currentSender;\r\n    }\r\n}\r\n\r\ncontract BridgeArbitrumL1Inbox {\r\n    /// @custom:oz-upgrades-unsafe-allow state-variable-immutable state-variable-assignment\r\n    address public immutable bridge = msg.sender;\r\n}\r\n\r\ncontract BridgeArbitrumL1Outbox {\r\n    /// @custom:oz-upgrades-unsafe-allow state-variable-immutable state-variable-assignment\r\n    address public immutable bridge = msg.sender;\r\n\r\n    function l2ToL1Sender() public view returns (address) {\r\n        return BridgeArbitrumL1Mock(bridge).currentSender();\r\n    }\r\n}\r\n\r\ncontract BridgeArbitrumL2Mock is BaseRelayMock {\r\n    function wasMyCallersAddressAliased() public view returns (bool) {\r\n        return _currentSender != address(0);\r\n    }\r\n\r\n    function myCallersAddressWithoutAliasing() public view returns (address) {\r\n        return _currentSender;\r\n    }\r\n}\r\n\r\n/**\r\n * Optimism\r\n */\r\ncontract BridgeOptimismMock is BaseRelayMock {\r\n    function xDomainMessageSender() public view returns (address) {\r\n        return _currentSender;\r\n    }\r\n}\r\n\r\n/**\r\n * Polygon\r\n */\r\ncontract BridgePolygonChildMock is BaseRelayMock {\r\n    function relayAs(address target, bytes calldata data, address sender) external override {\r\n        IFxMessageProcessor(target).processMessageFromRoot(0, sender, data);\r\n    }\r\n}\r\n",
  "sourcePath": "C:\\Users\\akqjq\\Desktop\\S08P22A308\\smart-contracts\\contracts\\mocks\\crosschain\\bridges.sol",
  "compiler": {
    "name": "solc",
    "version": "0.8.19+commit.7dd6d404.Emscripten.clang"
  },
  "schemaVersion": "3.4.13",
  "updatedAt": "2023-03-22T16:34:02.811Z",
  "devdoc": {
    "kind": "dev",
    "methods": {},
    "version": 1
  },
  "userdoc": {
    "kind": "user",
    "methods": {},
    "version": 1
  }
}