{
  "contractName": "ConstructorInitializableMock",
  "abi": [
    {
      "inputs": [],
      "stateMutability": "nonpayable",
      "type": "constructor"
    },
    {
      "anonymous": false,
      "inputs": [
        {
          "indexed": false,
          "internalType": "uint8",
          "name": "version",
          "type": "uint8"
        }
      ],
      "name": "Initialized",
      "type": "event"
    },
    {
      "inputs": [],
      "name": "initializerRan",
      "outputs": [
        {
          "internalType": "bool",
          "name": "",
          "type": "bool"
        }
      ],
      "stateMutability": "view",
      "type": "function"
    },
    {
      "inputs": [],
      "name": "onlyInitializingRan",
      "outputs": [
        {
          "internalType": "bool",
          "name": "",
          "type": "bool"
        }
      ],
      "stateMutability": "view",
      "type": "function"
    },
    {
      "inputs": [],
      "name": "initialize",
      "outputs": [],
      "stateMutability": "nonpayable",
      "type": "function"
    },
    {
      "inputs": [],
      "name": "initializeOnlyInitializing",
      "outputs": [],
      "stateMutability": "nonpayable",
      "type": "function"
    }
  ],
  "bytecode": "0x608060405234801561001057600080fd5b5060008060019054906101000a900460ff161590508080156100425750600160008054906101000a900460ff1660ff16105b8061007557506100573061016c60201b60201c565b1580156100745750600160008054906101000a900460ff1660ff16145b5b6100b4576040517f08c379a00000000000000000000000000000000000000000000000000000000081526004016100ab906103d5565b60405180910390fd5b60016000806101000a81548160ff021916908360ff16021790555080156100f1576001600060016101000a81548160ff0219169083151502179055505b6100ff61018f60201b60201c565b61010d6102e660201b60201c565b80156101665760008060016101000a81548160ff0219169083151502179055507f7f26b83ff96e1f2b6a682f133852f6798a09c465da95921460cefb3847402498600160405161015d9190610447565b60405180910390a15b506104f4565b6000808273ffffffffffffffffffffffffffffffffffffffff163b119050919050565b60008060019054906101000a900460ff161590508080156101c05750600160008054906101000a900460ff1660ff16105b806101f357506101d53061016c60201b60201c565b1580156101f25750600160008054906101000a900460ff1660ff16145b5b610232576040517f08c379a0000000000000000000000000000000000000000000000000000000008152600401610229906103d5565b60405180910390fd5b60016000806101000a81548160ff021916908360ff160217905550801561026f576001600060016101000a81548160ff0219169083151502179055505b6001600060026101000a81548160ff02191690831515021790555080156102e35760008060016101000a81548160ff0219169083151502179055507f7f26b83ff96e1f2b6a682f133852f6798a09c465da95921460cefb384740249860016040516102da9190610447565b60405180910390a15b50565b600060019054906101000a900460ff16610335576040517f08c379a000000000000000000000000000000000000000000000000000000000815260040161032c906104d4565b60405180910390fd5b6001600060036101000a81548160ff021916908315150217905550565b600082825260208201905092915050565b7f496e697469616c697a61626c653a20636f6e747261637420697320616c72656160008201527f647920696e697469616c697a6564000000000000000000000000000000000000602082015250565b60006103bf602e83610352565b91506103ca82610363565b604082019050919050565b600060208201905081810360008301526103ee816103b2565b9050919050565b6000819050919050565b600060ff82169050919050565b6000819050919050565b600061043161042c610427846103f5565b61040c565b6103ff565b9050919050565b61044181610416565b82525050565b600060208201905061045c6000830184610438565b92915050565b7f496e697469616c697a61626c653a20636f6e7472616374206973206e6f74206960008201527f6e697469616c697a696e67000000000000000000000000000000000000000000602082015250565b60006104be602b83610352565b91506104c982610462565b604082019050919050565b600060208201905081810360008301526104ed816104b1565b9050919050565b6104b580620005046000396000f3fe608060405234801561001057600080fd5b506004361061004c5760003560e01c806310065ed2146100515780637cffe97a1461005b5780638129fc1c14610079578063c3b8ef2a14610083575b600080fd5b6100596100a1565b005b61006361010d565b60405161007091906102c2565b60405180910390f35b610081610120565b005b61008b610271565b60405161009891906102c2565b60405180910390f35b600060019054906101000a900460ff166100f0576040517f08c379a00000000000000000000000000000000000000000000000000000000081526004016100e790610360565b60405180910390fd5b6001600060036101000a81548160ff021916908315150217905550565b600060039054906101000a900460ff1681565b60008060019054906101000a900460ff161590508080156101515750600160008054906101000a900460ff1660ff16105b8061017e575061016030610284565b15801561017d5750600160008054906101000a900460ff1660ff16145b5b6101bd576040517f08c379a00000000000000000000000000000000000000000000000000000000081526004016101b4906103f2565b60405180910390fd5b60016000806101000a81548160ff021916908360ff16021790555080156101fa576001600060016101000a81548160ff0219169083151502179055505b6001600060026101000a81548160ff021916908315150217905550801561026e5760008060016101000a81548160ff0219169083151502179055507f7f26b83ff96e1f2b6a682f133852f6798a09c465da95921460cefb384740249860016040516102659190610464565b60405180910390a15b50565b600060029054906101000a900460ff1681565b6000808273ffffffffffffffffffffffffffffffffffffffff163b119050919050565b60008115159050919050565b6102bc816102a7565b82525050565b60006020820190506102d760008301846102b3565b92915050565b600082825260208201905092915050565b7f496e697469616c697a61626c653a20636f6e7472616374206973206e6f74206960008201527f6e697469616c697a696e67000000000000000000000000000000000000000000602082015250565b600061034a602b836102dd565b9150610355826102ee565b604082019050919050565b600060208201905081810360008301526103798161033d565b9050919050565b7f496e697469616c697a61626c653a20636f6e747261637420697320616c72656160008201527f647920696e697469616c697a6564000000000000000000000000000000000000602082015250565b60006103dc602e836102dd565b91506103e782610380565b604082019050919050565b6000602082019050818103600083015261040b816103cf565b9050919050565b6000819050919050565b600060ff82169050919050565b6000819050919050565b600061044e61044961044484610412565b610429565b61041c565b9050919050565b61045e81610433565b82525050565b60006020820190506104796000830184610455565b9291505056fea2646970667358221220e117bbf1ea018a148922808279fa0a7f0f426e28e2f2ea99a25490423d5e025d64736f6c63430008130033",
  "immutableReferences": {},
  "source": "// SPDX-License-Identifier: MIT\r\n\r\npragma solidity ^0.8.0;\r\n\r\nimport \"../proxy/utils/Initializable.sol\";\r\n\r\n/**\r\n * @title InitializableMock\r\n * @dev This contract is a mock to test initializable functionality\r\n */\r\ncontract InitializableMock is Initializable {\r\n    bool public initializerRan;\r\n    bool public onlyInitializingRan;\r\n    uint256 public x;\r\n\r\n    function isInitializing() public view returns (bool) {\r\n        return _isInitializing();\r\n    }\r\n\r\n    function initialize() public initializer {\r\n        initializerRan = true;\r\n    }\r\n\r\n    function initializeOnlyInitializing() public onlyInitializing {\r\n        onlyInitializingRan = true;\r\n    }\r\n\r\n    function initializerNested() public initializer {\r\n        initialize();\r\n    }\r\n\r\n    function onlyInitializingNested() public initializer {\r\n        initializeOnlyInitializing();\r\n    }\r\n\r\n    function initializeWithX(uint256 _x) public payable initializer {\r\n        x = _x;\r\n    }\r\n\r\n    function nonInitializable(uint256 _x) public payable {\r\n        x = _x;\r\n    }\r\n\r\n    function fail() public pure {\r\n        require(false, \"InitializableMock forced failure\");\r\n    }\r\n}\r\n\r\ncontract ConstructorInitializableMock is Initializable {\r\n    bool public initializerRan;\r\n    bool public onlyInitializingRan;\r\n\r\n    constructor() initializer {\r\n        initialize();\r\n        initializeOnlyInitializing();\r\n    }\r\n\r\n    function initialize() public initializer {\r\n        initializerRan = true;\r\n    }\r\n\r\n    function initializeOnlyInitializing() public onlyInitializing {\r\n        onlyInitializingRan = true;\r\n    }\r\n}\r\n\r\ncontract ChildConstructorInitializableMock is ConstructorInitializableMock {\r\n    bool public childInitializerRan;\r\n\r\n    constructor() initializer {\r\n        childInitialize();\r\n    }\r\n\r\n    function childInitialize() public initializer {\r\n        childInitializerRan = true;\r\n    }\r\n}\r\n\r\ncontract ReinitializerMock is Initializable {\r\n    uint256 public counter;\r\n\r\n    function getInitializedVersion() public view returns (uint8) {\r\n        return _getInitializedVersion();\r\n    }\r\n\r\n    function initialize() public initializer {\r\n        doStuff();\r\n    }\r\n\r\n    function reinitialize(uint8 i) public reinitializer(i) {\r\n        doStuff();\r\n    }\r\n\r\n    function nestedReinitialize(uint8 i, uint8 j) public reinitializer(i) {\r\n        reinitialize(j);\r\n    }\r\n\r\n    function chainReinitialize(uint8 i, uint8 j) public {\r\n        reinitialize(i);\r\n        reinitialize(j);\r\n    }\r\n\r\n    function disableInitializers() public {\r\n        _disableInitializers();\r\n    }\r\n\r\n    function doStuff() public onlyInitializing {\r\n        counter++;\r\n    }\r\n}\r\n\r\ncontract DisableNew is Initializable {\r\n    constructor() {\r\n        _disableInitializers();\r\n    }\r\n}\r\n\r\ncontract DisableOld is Initializable {\r\n    constructor() initializer {}\r\n}\r\n\r\ncontract DisableBad1 is DisableNew, DisableOld {}\r\n\r\ncontract DisableBad2 is Initializable {\r\n    constructor() initializer {\r\n        _disableInitializers();\r\n    }\r\n}\r\n\r\ncontract DisableOk is DisableOld, DisableNew {}\r\n",
  "sourcePath": "C:\\Users\\SSAFY\\Desktop\\S08P22A308\\smart-contracts\\contracts\\mocks\\InitializableMock.sol",
  "compiler": {
    "name": "solc",
    "version": "0.8.19+commit.7dd6d404.Emscripten.clang"
  },
  "schemaVersion": "3.4.13",
  "updatedAt": "2023-03-23T05:45:08.242Z",
  "devdoc": {
    "events": {
      "Initialized(uint8)": {
        "details": "Triggered when the contract has been initialized or reinitialized."
      }
    },
    "kind": "dev",
    "methods": {},
    "version": 1
  },
  "userdoc": {
    "kind": "user",
    "methods": {},
    "version": 1
  }
}