{
  "contractName": "CrossChainEnabledAMBMock",
  "abi": [
    {
      "inputs": [
        {
          "internalType": "address",
          "name": "bridge",
          "type": "address"
        }
      ],
      "stateMutability": "nonpayable",
      "type": "constructor"
    },
    {
      "inputs": [
        {
          "internalType": "address",
          "name": "actual",
          "type": "address"
        },
        {
          "internalType": "address",
          "name": "expected",
          "type": "address"
        }
      ],
      "name": "InvalidCrossChainSender",
      "type": "error"
    },
    {
      "inputs": [],
      "name": "NotCrossChainCall",
      "type": "error"
    },
    {
      "inputs": [],
      "name": "crossChainOwnerRestricted",
      "outputs": [],
      "stateMutability": "nonpayable",
      "type": "function"
    },
    {
      "inputs": [],
      "name": "crossChainRestricted",
      "outputs": [],
      "stateMutability": "nonpayable",
      "type": "function"
    },
    {
      "inputs": [],
      "name": "owner",
      "outputs": [
        {
          "internalType": "address",
          "name": "",
          "type": "address"
        }
      ],
      "stateMutability": "view",
      "type": "function"
    }
  ],
  "bytecode": "0x60c06040523373ffffffffffffffffffffffffffffffffffffffff1660809073ffffffffffffffffffffffffffffffffffffffff1681525034801561004357600080fd5b5060405161058738038061058783398181016040528101906100659190610104565b808073ffffffffffffffffffffffffffffffffffffffff1660a08173ffffffffffffffffffffffffffffffffffffffff16815250505050610131565b600080fd5b600073ffffffffffffffffffffffffffffffffffffffff82169050919050565b60006100d1826100a6565b9050919050565b6100e1816100c6565b81146100ec57600080fd5b50565b6000815190506100fe816100d8565b92915050565b60006020828403121561011a576101196100a1565b5b6000610128848285016100ef565b91505092915050565b60805160a0516104256101626000396000818161018601526101f401526000818160ba015260de01526104256000f3fe608060405234801561001057600080fd5b50600436106100415760003560e01c80634b074af5146100465780638da5cb5b14610050578063f97f51891461006e575b600080fd5b61004e610078565b005b6100586100b8565b604051610065919061034d565b60405180910390f35b6100766100dc565b005b61008061017f565b6100b6576040517f4a74df9200000000000000000000000000000000000000000000000000000000815260040160405180910390fd5b565b7f000000000000000000000000000000000000000000000000000000000000000081565b7f000000000000000000000000000000000000000000000000000000000000000060006101076101af565b90508073ffffffffffffffffffffffffffffffffffffffff168273ffffffffffffffffffffffffffffffffffffffff161461017b5780826040517fef25d32b000000000000000000000000000000000000000000000000000000008152600401610172929190610368565b60405180910390fd5b5050565b60006101aa7f000000000000000000000000000000000000000000000000000000000000000061021d565b905090565b60006101b961017f565b6101ef576040517f4a74df9200000000000000000000000000000000000000000000000000000000815260040160405180910390fd5b6102187f0000000000000000000000000000000000000000000000000000000000000000610255565b905090565b60008173ffffffffffffffffffffffffffffffffffffffff163373ffffffffffffffffffffffffffffffffffffffff16149050919050565b60006102608261021d565b610296576040517f4a74df9200000000000000000000000000000000000000000000000000000000815260040160405180910390fd5b8173ffffffffffffffffffffffffffffffffffffffff1663d67bdd256040518163ffffffff1660e01b8152600401602060405180830381865afa1580156102e1573d6000803e3d6000fd5b505050506040513d601f19601f8201168201806040525081019061030591906103c2565b9050919050565b600073ffffffffffffffffffffffffffffffffffffffff82169050919050565b60006103378261030c565b9050919050565b6103478161032c565b82525050565b6000602082019050610362600083018461033e565b92915050565b600060408201905061037d600083018561033e565b61038a602083018461033e565b9392505050565b600080fd5b61039f8161032c565b81146103aa57600080fd5b50565b6000815190506103bc81610396565b92915050565b6000602082840312156103d8576103d7610391565b5b60006103e6848285016103ad565b9150509291505056fea264697066735822122079f241c05489961c3292fdae18f6c5308cfb3cab99b73cbceaac2571d944ca3364736f6c63430008130033",
  "immutableReferences": {
    "1687": [
      {
        "length": 32,
        "start": 390
      },
      {
        "length": 32,
        "start": 500
      }
    ],
    "13327": [
      {
        "length": 32,
        "start": 186
      },
      {
        "length": 32,
        "start": 222
      }
    ]
  },
  "source": "// SPDX-License-Identifier: MIT\r\n\r\npragma solidity ^0.8.4;\r\n\r\nimport \"../../access/Ownable.sol\";\r\nimport \"../../crosschain/amb/CrossChainEnabledAMB.sol\";\r\nimport \"../../crosschain/arbitrum/CrossChainEnabledArbitrumL1.sol\";\r\nimport \"../../crosschain/arbitrum/CrossChainEnabledArbitrumL2.sol\";\r\nimport \"../../crosschain/optimism/CrossChainEnabledOptimism.sol\";\r\nimport \"../../crosschain/polygon/CrossChainEnabledPolygonChild.sol\";\r\n\r\nabstract contract Receiver is CrossChainEnabled {\r\n    // we don't use Ownable because it messes up testing for the upgradeable contracts\r\n    /// @custom:oz-upgrades-unsafe-allow state-variable-immutable state-variable-assignment\r\n    address public immutable owner = msg.sender;\r\n\r\n    function crossChainRestricted() external onlyCrossChain {}\r\n\r\n    function crossChainOwnerRestricted() external onlyCrossChainSender(owner) {}\r\n}\r\n\r\n/**\r\n * AMB\r\n */\r\ncontract CrossChainEnabledAMBMock is Receiver, CrossChainEnabledAMB {\r\n    /// @custom:oz-upgrades-unsafe-allow constructor\r\n    constructor(address bridge) CrossChainEnabledAMB(bridge) {}\r\n}\r\n\r\n/**\r\n * Arbitrum\r\n */\r\ncontract CrossChainEnabledArbitrumL1Mock is Receiver, CrossChainEnabledArbitrumL1 {\r\n    /// @custom:oz-upgrades-unsafe-allow constructor\r\n    constructor(address bridge) CrossChainEnabledArbitrumL1(bridge) {}\r\n}\r\n\r\ncontract CrossChainEnabledArbitrumL2Mock is Receiver, CrossChainEnabledArbitrumL2 {}\r\n\r\n/**\r\n * Optimism\r\n */\r\ncontract CrossChainEnabledOptimismMock is Receiver, CrossChainEnabledOptimism {\r\n    /// @custom:oz-upgrades-unsafe-allow constructor\r\n    constructor(address bridge) CrossChainEnabledOptimism(bridge) {}\r\n}\r\n\r\n/**\r\n * Polygon\r\n */\r\ncontract CrossChainEnabledPolygonChildMock is Receiver, CrossChainEnabledPolygonChild {\r\n    /// @custom:oz-upgrades-unsafe-allow constructor\r\n    constructor(address bridge) CrossChainEnabledPolygonChild(bridge) {}\r\n}\r\n",
  "sourcePath": "C:\\Users\\SSAFY\\Desktop\\S08P22A308\\smart-contracts\\contracts\\mocks\\crosschain\\receivers.sol",
  "compiler": {
    "name": "solc",
    "version": "0.8.19+commit.7dd6d404.Emscripten.clang"
  },
  "schemaVersion": "3.4.13",
  "updatedAt": "2023-03-23T05:45:08.352Z",
  "devdoc": {
    "kind": "dev",
    "methods": {
      "constructor": {
        "custom:oz-upgrades-unsafe-allow": "constructor"
      }
    },
    "version": 1
  },
  "userdoc": {
    "kind": "user",
    "methods": {},
    "notice": "AMB",
    "version": 1
  }
}