{
  "contractName": "CrossChainEnabledPolygonChildMock",
  "abi": [
    {
      "inputs": [
        {
          "internalType": "address",
          "name": "bridge",
          "type": "address"
        }
      ],
      "stateMutability": "nonpayable",
      "type": "constructor"
    },
    {
      "inputs": [
        {
          "internalType": "address",
          "name": "actual",
          "type": "address"
        },
        {
          "internalType": "address",
          "name": "expected",
          "type": "address"
        }
      ],
      "name": "InvalidCrossChainSender",
      "type": "error"
    },
    {
      "inputs": [],
      "name": "NotCrossChainCall",
      "type": "error"
    },
    {
      "inputs": [],
      "name": "crossChainOwnerRestricted",
      "outputs": [],
      "stateMutability": "nonpayable",
      "type": "function"
    },
    {
      "inputs": [],
      "name": "crossChainRestricted",
      "outputs": [],
      "stateMutability": "nonpayable",
      "type": "function"
    },
    {
      "inputs": [],
      "name": "owner",
      "outputs": [
        {
          "internalType": "address",
          "name": "",
          "type": "address"
        }
      ],
      "stateMutability": "view",
      "type": "function"
    },
    {
      "inputs": [
        {
          "internalType": "uint256",
          "name": "",
          "type": "uint256"
        },
        {
          "internalType": "address",
          "name": "rootMessageSender",
          "type": "address"
        },
        {
          "internalType": "bytes",
          "name": "data",
          "type": "bytes"
        }
      ],
      "name": "processMessageFromRoot",
      "outputs": [],
      "stateMutability": "nonpayable",
      "type": "function"
    }
  ],
  "bytecode": "0x60c06040523373ffffffffffffffffffffffffffffffffffffffff1660809073ffffffffffffffffffffffffffffffffffffffff1681525061dead600160006101000a81548173ffffffffffffffffffffffffffffffffffffffff021916908373ffffffffffffffffffffffffffffffffffffffff16021790555034801561008657600080fd5b50604051610b17380380610b1783398181016040528101906100a8919061014f565b8060016000819055508073ffffffffffffffffffffffffffffffffffffffff1660a08173ffffffffffffffffffffffffffffffffffffffff1681525050505061017c565b600080fd5b600073ffffffffffffffffffffffffffffffffffffffff82169050919050565b600061011c826100f1565b9050919050565b61012c81610111565b811461013757600080fd5b50565b60008151905061014981610123565b92915050565b600060208284031215610165576101646100ec565b5b60006101738482850161013a565b91505092915050565b60805160a0516109706101a7600039600061030701526000818160e1015261026201526109706000f3fe608060405234801561001057600080fd5b506004361061004c5760003560e01c80634b074af5146100515780638da5cb5b1461005b5780639a7c4b7114610079578063f97f518914610095575b600080fd5b61005961009f565b005b6100636100df565b60405161007091906105c9565b60405180910390f35b610093600480360381019061008e91906106b5565b610103565b005b61009d610260565b005b6100a7610303565b6100dd576040517f4a74df9200000000000000000000000000000000000000000000000000000000815260040160405180910390fd5b565b7f000000000000000000000000000000000000000000000000000000000000000081565b61010b610359565b610113610303565b610149576040517f4a74df9200000000000000000000000000000000000000000000000000000000815260040160405180910390fd5b82600160006101000a81548173ffffffffffffffffffffffffffffffffffffffff021916908373ffffffffffffffffffffffffffffffffffffffff16021790555061020e3083838080601f016020809104026020016040519081016040528093929190818152602001838380828437600081840152601f19601f820116905080830192505050505050506040518060400160405280601c81526020017f63726f73732d636861696e20657865637574696f6e206661696c6564000000008152506103a8565b5061dead600160006101000a81548173ffffffffffffffffffffffffffffffffffffffff021916908373ffffffffffffffffffffffffffffffffffffffff16021790555061025a61042e565b50505050565b7f0000000000000000000000000000000000000000000000000000000000000000600061028b610438565b90508073ffffffffffffffffffffffffffffffffffffffff168273ffffffffffffffffffffffffffffffffffffffff16146102ff5780826040517fef25d32b0000000000000000000000000000000000000000000000000000000081526004016102f6929190610729565b60405180910390fd5b5050565b60007f000000000000000000000000000000000000000000000000000000000000000073ffffffffffffffffffffffffffffffffffffffff163373ffffffffffffffffffffffffffffffffffffffff1614905090565b60026000540361039e576040517f08c379a0000000000000000000000000000000000000000000000000000000008152600401610395906107af565b60405180910390fd5b6002600081905550565b60606000808573ffffffffffffffffffffffffffffffffffffffff16856040516103d29190610840565b600060405180830381855af49150503d806000811461040d576040519150601f19603f3d011682016040523d82523d6000602084013e610412565b606091505b5091509150610423868383876104a0565b925050509392505050565b6001600081905550565b6000610442610303565b610478576040517f4a74df9200000000000000000000000000000000000000000000000000000000815260040160405180910390fd5b600160009054906101000a900473ffffffffffffffffffffffffffffffffffffffff16905090565b606083156105025760008351036104fa576104ba85610515565b6104f9576040517f08c379a00000000000000000000000000000000000000000000000000000000081526004016104f0906108a3565b60405180910390fd5b5b82905061050d565b61050c8383610538565b5b949350505050565b6000808273ffffffffffffffffffffffffffffffffffffffff163b119050919050565b60008251111561054b5781518083602001fd5b806040517f08c379a000000000000000000000000000000000000000000000000000000000815260040161057f9190610918565b60405180910390fd5b600073ffffffffffffffffffffffffffffffffffffffff82169050919050565b60006105b382610588565b9050919050565b6105c3816105a8565b82525050565b60006020820190506105de60008301846105ba565b92915050565b600080fd5b600080fd5b6000819050919050565b610601816105ee565b811461060c57600080fd5b50565b60008135905061061e816105f8565b92915050565b61062d816105a8565b811461063857600080fd5b50565b60008135905061064a81610624565b92915050565b600080fd5b600080fd5b600080fd5b60008083601f84011261067557610674610650565b5b8235905067ffffffffffffffff81111561069257610691610655565b5b6020830191508360018202830111156106ae576106ad61065a565b5b9250929050565b600080600080606085870312156106cf576106ce6105e4565b5b60006106dd8782880161060f565b94505060206106ee8782880161063b565b935050604085013567ffffffffffffffff81111561070f5761070e6105e9565b5b61071b8782880161065f565b925092505092959194509250565b600060408201905061073e60008301856105ba565b61074b60208301846105ba565b9392505050565b600082825260208201905092915050565b7f5265656e7472616e637947756172643a207265656e7472616e742063616c6c00600082015250565b6000610799601f83610752565b91506107a482610763565b602082019050919050565b600060208201905081810360008301526107c88161078c565b9050919050565b600081519050919050565b600081905092915050565b60005b838110156108035780820151818401526020810190506107e8565b60008484015250505050565b600061081a826107cf565b61082481856107da565b93506108348185602086016107e5565b80840191505092915050565b600061084c828461080f565b915081905092915050565b7f416464726573733a2063616c6c20746f206e6f6e2d636f6e7472616374000000600082015250565b600061088d601d83610752565b915061089882610857565b602082019050919050565b600060208201905081810360008301526108bc81610880565b9050919050565b600081519050919050565b6000601f19601f8301169050919050565b60006108ea826108c3565b6108f48185610752565b93506109048185602086016107e5565b61090d816108ce565b840191505092915050565b6000602082019050818103600083015261093281846108df565b90509291505056fea2646970667358221220b6fc1268252d067d62690656423374435a69198c1a7e74258e2a84e98479c72b64736f6c63430008130033",
  "immutableReferences": {
    "2094": [
      {
        "length": 32,
        "start": 775
      }
    ],
    "13327": [
      {
        "length": 32,
        "start": 225
      },
      {
        "length": 32,
        "start": 610
      }
    ]
  },
  "source": "// SPDX-License-Identifier: MIT\r\n\r\npragma solidity ^0.8.4;\r\n\r\nimport \"../../access/Ownable.sol\";\r\nimport \"../../crosschain/amb/CrossChainEnabledAMB.sol\";\r\nimport \"../../crosschain/arbitrum/CrossChainEnabledArbitrumL1.sol\";\r\nimport \"../../crosschain/arbitrum/CrossChainEnabledArbitrumL2.sol\";\r\nimport \"../../crosschain/optimism/CrossChainEnabledOptimism.sol\";\r\nimport \"../../crosschain/polygon/CrossChainEnabledPolygonChild.sol\";\r\n\r\nabstract contract Receiver is CrossChainEnabled {\r\n    // we don't use Ownable because it messes up testing for the upgradeable contracts\r\n    /// @custom:oz-upgrades-unsafe-allow state-variable-immutable state-variable-assignment\r\n    address public immutable owner = msg.sender;\r\n\r\n    function crossChainRestricted() external onlyCrossChain {}\r\n\r\n    function crossChainOwnerRestricted() external onlyCrossChainSender(owner) {}\r\n}\r\n\r\n/**\r\n * AMB\r\n */\r\ncontract CrossChainEnabledAMBMock is Receiver, CrossChainEnabledAMB {\r\n    /// @custom:oz-upgrades-unsafe-allow constructor\r\n    constructor(address bridge) CrossChainEnabledAMB(bridge) {}\r\n}\r\n\r\n/**\r\n * Arbitrum\r\n */\r\ncontract CrossChainEnabledArbitrumL1Mock is Receiver, CrossChainEnabledArbitrumL1 {\r\n    /// @custom:oz-upgrades-unsafe-allow constructor\r\n    constructor(address bridge) CrossChainEnabledArbitrumL1(bridge) {}\r\n}\r\n\r\ncontract CrossChainEnabledArbitrumL2Mock is Receiver, CrossChainEnabledArbitrumL2 {}\r\n\r\n/**\r\n * Optimism\r\n */\r\ncontract CrossChainEnabledOptimismMock is Receiver, CrossChainEnabledOptimism {\r\n    /// @custom:oz-upgrades-unsafe-allow constructor\r\n    constructor(address bridge) CrossChainEnabledOptimism(bridge) {}\r\n}\r\n\r\n/**\r\n * Polygon\r\n */\r\ncontract CrossChainEnabledPolygonChildMock is Receiver, CrossChainEnabledPolygonChild {\r\n    /// @custom:oz-upgrades-unsafe-allow constructor\r\n    constructor(address bridge) CrossChainEnabledPolygonChild(bridge) {}\r\n}\r\n",
  "sourcePath": "C:\\Users\\SSAFY\\Desktop\\S08P22A308\\smart-contracts\\contracts\\mocks\\crosschain\\receivers.sol",
  "compiler": {
    "name": "solc",
    "version": "0.8.19+commit.7dd6d404.Emscripten.clang"
  },
  "schemaVersion": "3.4.13",
  "updatedAt": "2023-03-23T05:45:08.359Z",
  "devdoc": {
    "kind": "dev",
    "methods": {
      "constructor": {
        "custom:oz-upgrades-unsafe-allow": "constructor"
      },
      "processMessageFromRoot(uint256,address,bytes)": {
        "details": "External entry point to receive and relay messages originating from the fxChild. Non-reentrancy is crucial to avoid a cross-chain call being able to impersonate anyone by just looping through this with user-defined arguments. Note: if _fxChild calls any other function that does a delegate-call, then security could be compromised."
      }
    },
    "version": 1
  },
  "userdoc": {
    "kind": "user",
    "methods": {},
    "notice": "Polygon",
    "version": 1
  }
}