{
  "contractName": "CrossChainEnabledArbitrumL2Mock",
  "abi": [
    {
      "inputs": [
        {
          "internalType": "address",
          "name": "actual",
          "type": "address"
        },
        {
          "internalType": "address",
          "name": "expected",
          "type": "address"
        }
      ],
      "name": "InvalidCrossChainSender",
      "type": "error"
    },
    {
      "inputs": [],
      "name": "NotCrossChainCall",
      "type": "error"
    },
    {
      "inputs": [],
      "name": "crossChainOwnerRestricted",
      "outputs": [],
      "stateMutability": "nonpayable",
      "type": "function"
    },
    {
      "inputs": [],
      "name": "crossChainRestricted",
      "outputs": [],
      "stateMutability": "nonpayable",
      "type": "function"
    },
    {
      "inputs": [],
      "name": "owner",
      "outputs": [
        {
          "internalType": "address",
          "name": "",
          "type": "address"
        }
      ],
      "stateMutability": "view",
      "type": "function"
    }
  ],
  "bytecode": "0x60a06040523373ffffffffffffffffffffffffffffffffffffffff1660809073ffffffffffffffffffffffffffffffffffffffff1681525034801561004357600080fd5b5060805161048c6100646000396000818160ba015260de015261048c6000f3fe608060405234801561001057600080fd5b50600436106100415760003560e01c80634b074af5146100465780638da5cb5b14610050578063f97f51891461006e575b600080fd5b61004e610078565b005b6100586100b8565b604051610065919061034f565b60405180910390f35b6100766100dc565b005b61008061017f565b6100b6576040517f4a74df9200000000000000000000000000000000000000000000000000000000815260040160405180910390fd5b565b7f000000000000000000000000000000000000000000000000000000000000000081565b7f00000000000000000000000000000000000000000000000000000000000000006000610107610190565b90508073ffffffffffffffffffffffffffffffffffffffff168273ffffffffffffffffffffffffffffffffffffffff161461017b5780826040517fef25d32b00000000000000000000000000000000000000000000000000000000815260040161017292919061036a565b60405180910390fd5b5050565b600061018b60646101df565b905090565b600061019a61017f565b6101d0576040517f4a74df9200000000000000000000000000000000000000000000000000000000815260040160405180910390fd5b6101da6064610257565b905090565b60008173ffffffffffffffffffffffffffffffffffffffff1663175a260b6040518163ffffffff1660e01b8152600401602060405180830381865afa15801561022c573d6000803e3d6000fd5b505050506040513d601f19601f8201168201806040525081019061025091906103d0565b9050919050565b6000610262826101df565b610298576040517f4a74df9200000000000000000000000000000000000000000000000000000000815260040160405180910390fd5b8173ffffffffffffffffffffffffffffffffffffffff1663d74523b36040518163ffffffff1660e01b8152600401602060405180830381865afa1580156102e3573d6000803e3d6000fd5b505050506040513d601f19601f820116820180604052508101906103079190610429565b9050919050565b600073ffffffffffffffffffffffffffffffffffffffff82169050919050565b60006103398261030e565b9050919050565b6103498161032e565b82525050565b60006020820190506103646000830184610340565b92915050565b600060408201905061037f6000830185610340565b61038c6020830184610340565b9392505050565b600080fd5b60008115159050919050565b6103ad81610398565b81146103b857600080fd5b50565b6000815190506103ca816103a4565b92915050565b6000602082840312156103e6576103e5610393565b5b60006103f4848285016103bb565b91505092915050565b6104068161032e565b811461041157600080fd5b50565b600081519050610423816103fd565b92915050565b60006020828403121561043f5761043e610393565b5b600061044d84828501610414565b9150509291505056fea26469706673582212205c6e11b23d442282c02d5af70460461d9ec842a0706d9b1743cc7c6ef0b3259c64736f6c63430008130033",
  "immutableReferences": {
    "13213": [
      {
        "length": 32,
        "start": 186
      },
      {
        "length": 32,
        "start": 222
      }
    ]
  },
  "source": "// SPDX-License-Identifier: MIT\r\n\r\npragma solidity ^0.8.4;\r\n\r\nimport \"../../access/Ownable.sol\";\r\nimport \"../../crosschain/amb/CrossChainEnabledAMB.sol\";\r\nimport \"../../crosschain/arbitrum/CrossChainEnabledArbitrumL1.sol\";\r\nimport \"../../crosschain/arbitrum/CrossChainEnabledArbitrumL2.sol\";\r\nimport \"../../crosschain/optimism/CrossChainEnabledOptimism.sol\";\r\nimport \"../../crosschain/polygon/CrossChainEnabledPolygonChild.sol\";\r\n\r\nabstract contract Receiver is CrossChainEnabled {\r\n    // we don't use Ownable because it messes up testing for the upgradeable contracts\r\n    /// @custom:oz-upgrades-unsafe-allow state-variable-immutable state-variable-assignment\r\n    address public immutable owner = msg.sender;\r\n\r\n    function crossChainRestricted() external onlyCrossChain {}\r\n\r\n    function crossChainOwnerRestricted() external onlyCrossChainSender(owner) {}\r\n}\r\n\r\n/**\r\n * AMB\r\n */\r\ncontract CrossChainEnabledAMBMock is Receiver, CrossChainEnabledAMB {\r\n    /// @custom:oz-upgrades-unsafe-allow constructor\r\n    constructor(address bridge) CrossChainEnabledAMB(bridge) {}\r\n}\r\n\r\n/**\r\n * Arbitrum\r\n */\r\ncontract CrossChainEnabledArbitrumL1Mock is Receiver, CrossChainEnabledArbitrumL1 {\r\n    /// @custom:oz-upgrades-unsafe-allow constructor\r\n    constructor(address bridge) CrossChainEnabledArbitrumL1(bridge) {}\r\n}\r\n\r\ncontract CrossChainEnabledArbitrumL2Mock is Receiver, CrossChainEnabledArbitrumL2 {}\r\n\r\n/**\r\n * Optimism\r\n */\r\ncontract CrossChainEnabledOptimismMock is Receiver, CrossChainEnabledOptimism {\r\n    /// @custom:oz-upgrades-unsafe-allow constructor\r\n    constructor(address bridge) CrossChainEnabledOptimism(bridge) {}\r\n}\r\n\r\n/**\r\n * Polygon\r\n */\r\ncontract CrossChainEnabledPolygonChildMock is Receiver, CrossChainEnabledPolygonChild {\r\n    /// @custom:oz-upgrades-unsafe-allow constructor\r\n    constructor(address bridge) CrossChainEnabledPolygonChild(bridge) {}\r\n}\r\n",
  "sourcePath": "C:\\Users\\akqjq\\Desktop\\S08P22A308\\smart-contracts\\contracts\\mocks\\crosschain\\receivers.sol",
  "compiler": {
    "name": "solc",
    "version": "0.8.19+commit.7dd6d404.Emscripten.clang"
  },
  "schemaVersion": "3.4.13",
  "updatedAt": "2023-03-22T16:34:02.822Z",
  "devdoc": {
    "kind": "dev",
    "methods": {},
    "version": 1
  },
  "userdoc": {
    "kind": "user",
    "methods": {},
    "version": 1
  }
}