{
  "contractName": "DummyImplementationV2",
  "abi": [
    {
      "inputs": [],
      "name": "get",
      "outputs": [
        {
          "internalType": "bool",
          "name": "",
          "type": "bool"
        }
      ],
      "stateMutability": "pure",
      "type": "function"
    },
    {
      "inputs": [
        {
          "internalType": "uint256",
          "name": "_value",
          "type": "uint256"
        },
        {
          "internalType": "string",
          "name": "_text",
          "type": "string"
        },
        {
          "internalType": "uint256[]",
          "name": "_values",
          "type": "uint256[]"
        }
      ],
      "name": "initialize",
      "outputs": [],
      "stateMutability": "nonpayable",
      "type": "function"
    },
    {
      "inputs": [],
      "name": "initializeNonPayable",
      "outputs": [],
      "stateMutability": "nonpayable",
      "type": "function"
    },
    {
      "inputs": [
        {
          "internalType": "uint256",
          "name": "_value",
          "type": "uint256"
        }
      ],
      "name": "initializeNonPayableWithValue",
      "outputs": [],
      "stateMutability": "nonpayable",
      "type": "function"
    },
    {
      "inputs": [],
      "name": "initializePayable",
      "outputs": [],
      "stateMutability": "payable",
      "type": "function"
    },
    {
      "inputs": [
        {
          "internalType": "uint256",
          "name": "_value",
          "type": "uint256"
        }
      ],
      "name": "initializePayableWithValue",
      "outputs": [],
      "stateMutability": "payable",
      "type": "function"
    },
    {
      "inputs": [],
      "name": "reverts",
      "outputs": [],
      "stateMutability": "pure",
      "type": "function"
    },
    {
      "inputs": [],
      "name": "text",
      "outputs": [
        {
          "internalType": "string",
          "name": "",
          "type": "string"
        }
      ],
      "stateMutability": "view",
      "type": "function"
    },
    {
      "inputs": [],
      "name": "value",
      "outputs": [
        {
          "internalType": "uint256",
          "name": "",
          "type": "uint256"
        }
      ],
      "stateMutability": "view",
      "type": "function"
    },
    {
      "inputs": [
        {
          "internalType": "uint256",
          "name": "",
          "type": "uint256"
        }
      ],
      "name": "values",
      "outputs": [
        {
          "internalType": "uint256",
          "name": "",
          "type": "uint256"
        }
      ],
      "stateMutability": "view",
      "type": "function"
    },
    {
      "inputs": [
        {
          "internalType": "uint256",
          "name": "newVal",
          "type": "uint256"
        }
      ],
      "name": "migrate",
      "outputs": [],
      "stateMutability": "payable",
      "type": "function"
    },
    {
      "inputs": [],
      "name": "version",
      "outputs": [
        {
          "internalType": "string",
          "name": "",
          "type": "string"
        }
      ],
      "stateMutability": "pure",
      "type": "function"
    }
  ],
  "bytecode": "0x608060405234801561001057600080fd5b50610bf8806100206000396000f3fe6080604052600436106100a75760003560e01c80635e383d21116100645780635e383d21146101775780636d4ce63c146101b4578063763e2831146101df5780639fba1f9a14610208578063d31f8b6b14610212578063e79f5bee1461023b576100a7565b80631f1bd692146100ac578063227367d5146100d75780633bccbbc9146100ee5780633fa4f24514610105578063454b06081461013057806354fd4d501461014c575b600080fd5b3480156100b857600080fd5b506100c1610257565b6040516100ce91906104f7565b60405180910390f35b3480156100e357600080fd5b506100ec6102e5565b005b3480156100fa57600080fd5b506101036102ef565b005b34801561011157600080fd5b5061011a610332565b6040516101279190610532565b60405180910390f35b61014a6004803603810190610145919061058d565b610338565b005b34801561015857600080fd5b50610161610342565b60405161016e91906104f7565b60405180910390f35b34801561018357600080fd5b5061019e6004803603810190610199919061058d565b61037f565b6040516101ab9190610532565b60405180910390f35b3480156101c057600080fd5b506101c96103a3565b6040516101d691906105d5565b60405180910390f35b3480156101eb57600080fd5b506102066004803603810190610201919061058d565b6103ac565b005b6102106103b6565b005b34801561021e57600080fd5b50610239600480360381019061023491906107ed565b6103c0565b005b6102556004803603810190610250919061058d565b6103f3565b005b60018054610264906108a7565b80601f0160208091040260200160405190810160405280929190818152602001828054610290906108a7565b80156102dd5780601f106102b2576101008083540402835291602001916102dd565b820191906000526020600020905b8154815290600101906020018083116102c057829003601f168201915b505050505081565b600a600081905550565b6000610330576040517f08c379a000000000000000000000000000000000000000000000000000000000815260040161032790610924565b60405180910390fd5b565b60005481565b8060008190555050565b60606040518060400160405280600281526020017f5632000000000000000000000000000000000000000000000000000000000000815250905090565b6002818154811061038f57600080fd5b906000526020600020016000915090505481565b60006001905090565b8060008190555050565b6064600081905550565b8260008190555081600190816103d69190610af0565b5080600290805190602001906103ed9291906103fd565b50505050565b8060008190555050565b828054828255906000526020600020908101928215610439579160200282015b8281111561043857825182559160200191906001019061041d565b5b509050610446919061044a565b5090565b5b8082111561046357600081600090555060010161044b565b5090565b600081519050919050565b600082825260208201905092915050565b60005b838110156104a1578082015181840152602081019050610486565b60008484015250505050565b6000601f19601f8301169050919050565b60006104c982610467565b6104d38185610472565b93506104e3818560208601610483565b6104ec816104ad565b840191505092915050565b6000602082019050818103600083015261051181846104be565b905092915050565b6000819050919050565b61052c81610519565b82525050565b60006020820190506105476000830184610523565b92915050565b6000604051905090565b600080fd5b600080fd5b61056a81610519565b811461057557600080fd5b50565b60008135905061058781610561565b92915050565b6000602082840312156105a3576105a2610557565b5b60006105b184828501610578565b91505092915050565b60008115159050919050565b6105cf816105ba565b82525050565b60006020820190506105ea60008301846105c6565b92915050565b600080fd5b600080fd5b7f4e487b7100000000000000000000000000000000000000000000000000000000600052604160045260246000fd5b610632826104ad565b810181811067ffffffffffffffff82111715610651576106506105fa565b5b80604052505050565b600061066461054d565b90506106708282610629565b919050565b600067ffffffffffffffff8211156106905761068f6105fa565b5b610699826104ad565b9050602081019050919050565b82818337600083830152505050565b60006106c86106c384610675565b61065a565b9050828152602081018484840111156106e4576106e36105f5565b5b6106ef8482856106a6565b509392505050565b600082601f83011261070c5761070b6105f0565b5b813561071c8482602086016106b5565b91505092915050565b600067ffffffffffffffff8211156107405761073f6105fa565b5b602082029050602081019050919050565b600080fd5b600061076961076484610725565b61065a565b9050808382526020820190506020840283018581111561078c5761078b610751565b5b835b818110156107b557806107a18882610578565b84526020840193505060208101905061078e565b5050509392505050565b600082601f8301126107d4576107d36105f0565b5b81356107e4848260208601610756565b91505092915050565b60008060006060848603121561080657610805610557565b5b600061081486828701610578565b935050602084013567ffffffffffffffff8111156108355761083461055c565b5b610841868287016106f7565b925050604084013567ffffffffffffffff8111156108625761086161055c565b5b61086e868287016107bf565b9150509250925092565b7f4e487b7100000000000000000000000000000000000000000000000000000000600052602260045260246000fd5b600060028204905060018216806108bf57607f821691505b6020821081036108d2576108d1610878565b5b50919050565b7f44756d6d79496d706c656d656e746174696f6e20726576657274656400000000600082015250565b600061090e601c83610472565b9150610919826108d8565b602082019050919050565b6000602082019050818103600083015261093d81610901565b9050919050565b60008190508160005260206000209050919050565b60006020601f8301049050919050565b600082821b905092915050565b6000600883026109a67fffffffffffffffffffffffffffffffffffffffffffffffffffffffffffffffff82610969565b6109b08683610969565b95508019841693508086168417925050509392505050565b6000819050919050565b60006109ed6109e86109e384610519565b6109c8565b610519565b9050919050565b6000819050919050565b610a07836109d2565b610a1b610a13826109f4565b848454610976565b825550505050565b600090565b610a30610a23565b610a3b8184846109fe565b505050565b5b81811015610a5f57610a54600082610a28565b600181019050610a41565b5050565b601f821115610aa457610a7581610944565b610a7e84610959565b81016020851015610a8d578190505b610aa1610a9985610959565b830182610a40565b50505b505050565b600082821c905092915050565b6000610ac760001984600802610aa9565b1980831691505092915050565b6000610ae08383610ab6565b9150826002028217905092915050565b610af982610467565b67ffffffffffffffff811115610b1257610b116105fa565b5b610b1c82546108a7565b610b27828285610a63565b600060209050601f831160018114610b5a5760008415610b48578287015190505b610b528582610ad4565b865550610bba565b601f198416610b6886610944565b60005b82811015610b9057848901518255600182019150602085019450602081019050610b6b565b86831015610bad5784890151610ba9601f891682610ab6565b8355505b6001600288020188555050505b50505050505056fea2646970667358221220441cd72e0ed59585ba68c2bbc5b0bfc155cc21b8265dd380d3986170f39b969164736f6c63430008130033",
  "immutableReferences": {},
  "source": "// SPDX-License-Identifier: MIT\r\n\r\npragma solidity ^0.8.0;\r\n\r\nabstract contract Impl {\r\n    function version() public pure virtual returns (string memory);\r\n}\r\n\r\ncontract DummyImplementation {\r\n    uint256 public value;\r\n    string public text;\r\n    uint256[] public values;\r\n\r\n    function initializeNonPayable() public {\r\n        value = 10;\r\n    }\r\n\r\n    function initializePayable() public payable {\r\n        value = 100;\r\n    }\r\n\r\n    function initializeNonPayableWithValue(uint256 _value) public {\r\n        value = _value;\r\n    }\r\n\r\n    function initializePayableWithValue(uint256 _value) public payable {\r\n        value = _value;\r\n    }\r\n\r\n    function initialize(uint256 _value, string memory _text, uint256[] memory _values) public {\r\n        value = _value;\r\n        text = _text;\r\n        values = _values;\r\n    }\r\n\r\n    function get() public pure returns (bool) {\r\n        return true;\r\n    }\r\n\r\n    function version() public pure virtual returns (string memory) {\r\n        return \"V1\";\r\n    }\r\n\r\n    function reverts() public pure {\r\n        require(false, \"DummyImplementation reverted\");\r\n    }\r\n}\r\n\r\ncontract DummyImplementationV2 is DummyImplementation {\r\n    function migrate(uint256 newVal) public payable {\r\n        value = newVal;\r\n    }\r\n\r\n    function version() public pure override returns (string memory) {\r\n        return \"V2\";\r\n    }\r\n}\r\n",
  "sourcePath": "C:\\Users\\SSAFY\\Desktop\\S08P22A308\\smart-contracts\\contracts\\mocks\\DummyImplementation.sol",
  "compiler": {
    "name": "solc",
    "version": "0.8.19+commit.7dd6d404.Emscripten.clang"
  },
  "schemaVersion": "3.4.13",
  "updatedAt": "2023-03-23T05:45:08.200Z",
  "devdoc": {
    "kind": "dev",
    "methods": {},
    "version": 1
  },
  "userdoc": {
    "kind": "user",
    "methods": {},
    "version": 1
  }
}