{
  "contractName": "ERC1271MaliciousMock",
  "abi": [
    {
      "inputs": [
        {
          "internalType": "bytes32",
          "name": "",
          "type": "bytes32"
        },
        {
          "internalType": "bytes",
          "name": "",
          "type": "bytes"
        }
      ],
      "name": "isValidSignature",
      "outputs": [
        {
          "internalType": "bytes4",
          "name": "",
          "type": "bytes4"
        }
      ],
      "stateMutability": "pure",
      "type": "function"
    }
  ],
  "bytecode": "0x608060405234801561001057600080fd5b50610304806100206000396000f3fe608060405234801561001057600080fd5b506004361061002b5760003560e01c80631626ba7e14610030575b600080fd5b61004a6004803603810190610045919061021c565b610060565b60405161005791906102b3565b60405180910390f35b60007fffffffffffffffffffffffffffffffffffffffffffffffffffffffffffffffff60005260206000f35b6000604051905090565b600080fd5b600080fd5b6000819050919050565b6100b3816100a0565b81146100be57600080fd5b50565b6000813590506100d0816100aa565b92915050565b600080fd5b600080fd5b6000601f19601f8301169050919050565b7f4e487b7100000000000000000000000000000000000000000000000000000000600052604160045260246000fd5b610129826100e0565b810181811067ffffffffffffffff82111715610148576101476100f1565b5b80604052505050565b600061015b61008c565b90506101678282610120565b919050565b600067ffffffffffffffff821115610187576101866100f1565b5b610190826100e0565b9050602081019050919050565b82818337600083830152505050565b60006101bf6101ba8461016c565b610151565b9050828152602081018484840111156101db576101da6100db565b5b6101e684828561019d565b509392505050565b600082601f830112610203576102026100d6565b5b81356102138482602086016101ac565b91505092915050565b6000806040838503121561023357610232610096565b5b6000610241858286016100c1565b925050602083013567ffffffffffffffff8111156102625761026161009b565b5b61026e858286016101ee565b9150509250929050565b60007fffffffff0000000000000000000000000000000000000000000000000000000082169050919050565b6102ad81610278565b82525050565b60006020820190506102c860008301846102a4565b9291505056fea2646970667358221220a174080d125a4f6cd54d5b034ce9144ffaf750402d706deda3c9a2877264931264736f6c63430008130033",
  "immutableReferences": {},
  "source": "// SPDX-License-Identifier: MIT\r\n\r\npragma solidity ^0.8.0;\r\n\r\nimport \"../access/Ownable.sol\";\r\nimport \"../interfaces/IERC1271.sol\";\r\nimport \"../utils/cryptography/ECDSA.sol\";\r\n\r\ncontract ERC1271WalletMock is Ownable, IERC1271 {\r\n    constructor(address originalOwner) {\r\n        transferOwnership(originalOwner);\r\n    }\r\n\r\n    function isValidSignature(bytes32 hash, bytes memory signature) public view override returns (bytes4 magicValue) {\r\n        return ECDSA.recover(hash, signature) == owner() ? this.isValidSignature.selector : bytes4(0);\r\n    }\r\n}\r\n\r\ncontract ERC1271MaliciousMock is IERC1271 {\r\n    function isValidSignature(bytes32, bytes memory) public pure override returns (bytes4) {\r\n        assembly {\r\n            mstore(0, 0xffffffffffffffffffffffffffffffffffffffffffffffffffffffffffffffff)\r\n            return(0, 32)\r\n        }\r\n    }\r\n}\r\n",
  "sourcePath": "C:\\Users\\SSAFY\\Desktop\\S08P22A308\\smart-contracts\\contracts\\mocks\\ERC1271WalletMock.sol",
  "compiler": {
    "name": "solc",
    "version": "0.8.19+commit.7dd6d404.Emscripten.clang"
  },
  "schemaVersion": "3.4.13",
  "updatedAt": "2023-03-23T05:45:08.206Z",
  "devdoc": {
    "kind": "dev",
    "methods": {},
    "version": 1
  },
  "userdoc": {
    "kind": "user",
    "methods": {},
    "version": 1
  }
}