{
  "contractName": "ERC721ConsecutiveMock",
  "abi": [
    {
      "inputs": [
        {
          "internalType": "string",
          "name": "name",
          "type": "string"
        },
        {
          "internalType": "string",
          "name": "symbol",
          "type": "string"
        },
        {
          "internalType": "address[]",
          "name": "delegates",
          "type": "address[]"
        },
        {
          "internalType": "address[]",
          "name": "receivers",
          "type": "address[]"
        },
        {
          "internalType": "uint96[]",
          "name": "amounts",
          "type": "uint96[]"
        }
      ],
      "stateMutability": "nonpayable",
      "type": "constructor"
    },
    {
      "inputs": [],
      "name": "InvalidShortString",
      "type": "error"
    },
    {
      "inputs": [
        {
          "internalType": "string",
          "name": "str",
          "type": "string"
        }
      ],
      "name": "StringTooLong",
      "type": "error"
    },
    {
      "anonymous": false,
      "inputs": [
        {
          "indexed": true,
          "internalType": "address",
          "name": "owner",
          "type": "address"
        },
        {
          "indexed": true,
          "internalType": "address",
          "name": "approved",
          "type": "address"
        },
        {
          "indexed": true,
          "internalType": "uint256",
          "name": "tokenId",
          "type": "uint256"
        }
      ],
      "name": "Approval",
      "type": "event"
    },
    {
      "anonymous": false,
      "inputs": [
        {
          "indexed": true,
          "internalType": "address",
          "name": "owner",
          "type": "address"
        },
        {
          "indexed": true,
          "internalType": "address",
          "name": "operator",
          "type": "address"
        },
        {
          "indexed": false,
          "internalType": "bool",
          "name": "approved",
          "type": "bool"
        }
      ],
      "name": "ApprovalForAll",
      "type": "event"
    },
    {
      "anonymous": false,
      "inputs": [
        {
          "indexed": true,
          "internalType": "uint256",
          "name": "fromTokenId",
          "type": "uint256"
        },
        {
          "indexed": false,
          "internalType": "uint256",
          "name": "toTokenId",
          "type": "uint256"
        },
        {
          "indexed": true,
          "internalType": "address",
          "name": "fromAddress",
          "type": "address"
        },
        {
          "indexed": true,
          "internalType": "address",
          "name": "toAddress",
          "type": "address"
        }
      ],
      "name": "ConsecutiveTransfer",
      "type": "event"
    },
    {
      "anonymous": false,
      "inputs": [
        {
          "indexed": true,
          "internalType": "address",
          "name": "delegator",
          "type": "address"
        },
        {
          "indexed": true,
          "internalType": "address",
          "name": "fromDelegate",
          "type": "address"
        },
        {
          "indexed": true,
          "internalType": "address",
          "name": "toDelegate",
          "type": "address"
        }
      ],
      "name": "DelegateChanged",
      "type": "event"
    },
    {
      "anonymous": false,
      "inputs": [
        {
          "indexed": true,
          "internalType": "address",
          "name": "delegate",
          "type": "address"
        },
        {
          "indexed": false,
          "internalType": "uint256",
          "name": "previousBalance",
          "type": "uint256"
        },
        {
          "indexed": false,
          "internalType": "uint256",
          "name": "newBalance",
          "type": "uint256"
        }
      ],
      "name": "DelegateVotesChanged",
      "type": "event"
    },
    {
      "anonymous": false,
      "inputs": [],
      "name": "EIP712DomainChanged",
      "type": "event"
    },
    {
      "anonymous": false,
      "inputs": [
        {
          "indexed": false,
          "internalType": "address",
          "name": "account",
          "type": "address"
        }
      ],
      "name": "Paused",
      "type": "event"
    },
    {
      "anonymous": false,
      "inputs": [
        {
          "indexed": true,
          "internalType": "address",
          "name": "from",
          "type": "address"
        },
        {
          "indexed": true,
          "internalType": "address",
          "name": "to",
          "type": "address"
        },
        {
          "indexed": true,
          "internalType": "uint256",
          "name": "tokenId",
          "type": "uint256"
        }
      ],
      "name": "Transfer",
      "type": "event"
    },
    {
      "anonymous": false,
      "inputs": [
        {
          "indexed": false,
          "internalType": "address",
          "name": "account",
          "type": "address"
        }
      ],
      "name": "Unpaused",
      "type": "event"
    },
    {
      "inputs": [],
      "name": "CLOCK_MODE",
      "outputs": [
        {
          "internalType": "string",
          "name": "",
          "type": "string"
        }
      ],
      "stateMutability": "view",
      "type": "function"
    },
    {
      "inputs": [],
      "name": "DOMAIN_SEPARATOR",
      "outputs": [
        {
          "internalType": "bytes32",
          "name": "",
          "type": "bytes32"
        }
      ],
      "stateMutability": "view",
      "type": "function"
    },
    {
      "inputs": [
        {
          "internalType": "address",
          "name": "to",
          "type": "address"
        },
        {
          "internalType": "uint256",
          "name": "tokenId",
          "type": "uint256"
        }
      ],
      "name": "approve",
      "outputs": [],
      "stateMutability": "nonpayable",
      "type": "function"
    },
    {
      "inputs": [
        {
          "internalType": "address",
          "name": "owner",
          "type": "address"
        }
      ],
      "name": "balanceOf",
      "outputs": [
        {
          "internalType": "uint256",
          "name": "",
          "type": "uint256"
        }
      ],
      "stateMutability": "view",
      "type": "function"
    },
    {
      "inputs": [],
      "name": "clock",
      "outputs": [
        {
          "internalType": "uint48",
          "name": "",
          "type": "uint48"
        }
      ],
      "stateMutability": "view",
      "type": "function"
    },
    {
      "inputs": [
        {
          "internalType": "address",
          "name": "delegatee",
          "type": "address"
        }
      ],
      "name": "delegate",
      "outputs": [],
      "stateMutability": "nonpayable",
      "type": "function"
    },
    {
      "inputs": [
        {
          "internalType": "address",
          "name": "delegatee",
          "type": "address"
        },
        {
          "internalType": "uint256",
          "name": "nonce",
          "type": "uint256"
        },
        {
          "internalType": "uint256",
          "name": "expiry",
          "type": "uint256"
        },
        {
          "internalType": "uint8",
          "name": "v",
          "type": "uint8"
        },
        {
          "internalType": "bytes32",
          "name": "r",
          "type": "bytes32"
        },
        {
          "internalType": "bytes32",
          "name": "s",
          "type": "bytes32"
        }
      ],
      "name": "delegateBySig",
      "outputs": [],
      "stateMutability": "nonpayable",
      "type": "function"
    },
    {
      "inputs": [
        {
          "internalType": "address",
          "name": "account",
          "type": "address"
        }
      ],
      "name": "delegates",
      "outputs": [
        {
          "internalType": "address",
          "name": "",
          "type": "address"
        }
      ],
      "stateMutability": "view",
      "type": "function"
    },
    {
      "inputs": [],
      "name": "eip712Domain",
      "outputs": [
        {
          "internalType": "bytes1",
          "name": "fields",
          "type": "bytes1"
        },
        {
          "internalType": "string",
          "name": "name",
          "type": "string"
        },
        {
          "internalType": "string",
          "name": "version",
          "type": "string"
        },
        {
          "internalType": "uint256",
          "name": "chainId",
          "type": "uint256"
        },
        {
          "internalType": "address",
          "name": "verifyingContract",
          "type": "address"
        },
        {
          "internalType": "bytes32",
          "name": "salt",
          "type": "bytes32"
        },
        {
          "internalType": "uint256[]",
          "name": "extensions",
          "type": "uint256[]"
        }
      ],
      "stateMutability": "view",
      "type": "function"
    },
    {
      "inputs": [
        {
          "internalType": "uint256",
          "name": "tokenId",
          "type": "uint256"
        }
      ],
      "name": "getApproved",
      "outputs": [
        {
          "internalType": "address",
          "name": "",
          "type": "address"
        }
      ],
      "stateMutability": "view",
      "type": "function"
    },
    {
      "inputs": [
        {
          "internalType": "uint256",
          "name": "timepoint",
          "type": "uint256"
        }
      ],
      "name": "getPastTotalSupply",
      "outputs": [
        {
          "internalType": "uint256",
          "name": "",
          "type": "uint256"
        }
      ],
      "stateMutability": "view",
      "type": "function"
    },
    {
      "inputs": [
        {
          "internalType": "address",
          "name": "account",
          "type": "address"
        },
        {
          "internalType": "uint256",
          "name": "timepoint",
          "type": "uint256"
        }
      ],
      "name": "getPastVotes",
      "outputs": [
        {
          "internalType": "uint256",
          "name": "",
          "type": "uint256"
        }
      ],
      "stateMutability": "view",
      "type": "function"
    },
    {
      "inputs": [
        {
          "internalType": "address",
          "name": "account",
          "type": "address"
        }
      ],
      "name": "getVotes",
      "outputs": [
        {
          "internalType": "uint256",
          "name": "",
          "type": "uint256"
        }
      ],
      "stateMutability": "view",
      "type": "function"
    },
    {
      "inputs": [
        {
          "internalType": "address",
          "name": "owner",
          "type": "address"
        },
        {
          "internalType": "address",
          "name": "operator",
          "type": "address"
        }
      ],
      "name": "isApprovedForAll",
      "outputs": [
        {
          "internalType": "bool",
          "name": "",
          "type": "bool"
        }
      ],
      "stateMutability": "view",
      "type": "function"
    },
    {
      "inputs": [],
      "name": "name",
      "outputs": [
        {
          "internalType": "string",
          "name": "",
          "type": "string"
        }
      ],
      "stateMutability": "view",
      "type": "function"
    },
    {
      "inputs": [
        {
          "internalType": "address",
          "name": "owner",
          "type": "address"
        }
      ],
      "name": "nonces",
      "outputs": [
        {
          "internalType": "uint256",
          "name": "",
          "type": "uint256"
        }
      ],
      "stateMutability": "view",
      "type": "function"
    },
    {
      "inputs": [
        {
          "internalType": "uint256",
          "name": "tokenId",
          "type": "uint256"
        }
      ],
      "name": "ownerOf",
      "outputs": [
        {
          "internalType": "address",
          "name": "",
          "type": "address"
        }
      ],
      "stateMutability": "view",
      "type": "function"
    },
    {
      "inputs": [],
      "name": "paused",
      "outputs": [
        {
          "internalType": "bool",
          "name": "",
          "type": "bool"
        }
      ],
      "stateMutability": "view",
      "type": "function"
    },
    {
      "inputs": [
        {
          "internalType": "address",
          "name": "from",
          "type": "address"
        },
        {
          "internalType": "address",
          "name": "to",
          "type": "address"
        },
        {
          "internalType": "uint256",
          "name": "tokenId",
          "type": "uint256"
        }
      ],
      "name": "safeTransferFrom",
      "outputs": [],
      "stateMutability": "nonpayable",
      "type": "function"
    },
    {
      "inputs": [
        {
          "internalType": "address",
          "name": "from",
          "type": "address"
        },
        {
          "internalType": "address",
          "name": "to",
          "type": "address"
        },
        {
          "internalType": "uint256",
          "name": "tokenId",
          "type": "uint256"
        },
        {
          "internalType": "bytes",
          "name": "data",
          "type": "bytes"
        }
      ],
      "name": "safeTransferFrom",
      "outputs": [],
      "stateMutability": "nonpayable",
      "type": "function"
    },
    {
      "inputs": [
        {
          "internalType": "address",
          "name": "operator",
          "type": "address"
        },
        {
          "internalType": "bool",
          "name": "approved",
          "type": "bool"
        }
      ],
      "name": "setApprovalForAll",
      "outputs": [],
      "stateMutability": "nonpayable",
      "type": "function"
    },
    {
      "inputs": [
        {
          "internalType": "bytes4",
          "name": "interfaceId",
          "type": "bytes4"
        }
      ],
      "name": "supportsInterface",
      "outputs": [
        {
          "internalType": "bool",
          "name": "",
          "type": "bool"
        }
      ],
      "stateMutability": "view",
      "type": "function"
    },
    {
      "inputs": [],
      "name": "symbol",
      "outputs": [
        {
          "internalType": "string",
          "name": "",
          "type": "string"
        }
      ],
      "stateMutability": "view",
      "type": "function"
    },
    {
      "inputs": [
        {
          "internalType": "uint256",
          "name": "tokenId",
          "type": "uint256"
        }
      ],
      "name": "tokenURI",
      "outputs": [
        {
          "internalType": "string",
          "name": "",
          "type": "string"
        }
      ],
      "stateMutability": "view",
      "type": "function"
    },
    {
      "inputs": [
        {
          "internalType": "address",
          "name": "from",
          "type": "address"
        },
        {
          "internalType": "address",
          "name": "to",
          "type": "address"
        },
        {
          "internalType": "uint256",
          "name": "tokenId",
          "type": "uint256"
        }
      ],
      "name": "transferFrom",
      "outputs": [],
      "stateMutability": "nonpayable",
      "type": "function"
    }
  ],
  "bytecode": "0x6101606040523480156200001257600080fd5b5060405162007af738038062007af7833981810160405281019062000038919062001e76565b846040518060400160405280600181526020017f310000000000000000000000000000000000000000000000000000000000000081525086868160009081620000829190620021e4565b508060019081620000949190620021e4565b5050506000600860006101000a81548160ff021916908315150217905550620000c86009836200024a60201b90919060201c565b60e08181525050620000e5600a826200024a60201b90919060201c565b610100818152505081805190602001206101208181525050808051906020012061014081815250504660a0818152505062000125620002a260201b60201c565b608081815250503073ffffffffffffffffffffffffffffffffffffffff1660c08173ffffffffffffffffffffffffffffffffffffffff1681525050505060005b8351811015620001cf57620001bb848281518110620001895762000188620022cb565b5b6020026020010151858381518110620001a757620001a6620022cb565b5b60200260200101516200030060201b60201c565b80620001c79062002329565b905062000165565b5060005b82518110156200023e5762000229838281518110620001f757620001f6620022cb565b5b6020026020010151838381518110620002155762000214620022cb565b5b60200260200101516200042c60201b60201c565b5080620002369062002329565b9050620001d3565b50505050505062002d4f565b600060208351101562000270576200026883620006cf60201b60201c565b90506200029c565b8262000282836200073c60201b60201c565b6000019081620002939190620021e4565b5060ff60001b90505b92915050565b60007f8b73c3c69bb8fe3d512ecc4cf759cc79239f7b179b0ffacaa9a75d522b39400f61012051610140514630604051602001620002e5959493929190620023b3565b60405160208183030381529060405280519060200120905090565b600062000313836200074660201b60201c565b905081600b60008573ffffffffffffffffffffffffffffffffffffffff1673ffffffffffffffffffffffffffffffffffffffff16815260200190815260200160002060006101000a81548173ffffffffffffffffffffffffffffffffffffffff021916908373ffffffffffffffffffffffffffffffffffffffff1602179055508173ffffffffffffffffffffffffffffffffffffffff168173ffffffffffffffffffffffffffffffffffffffff168473ffffffffffffffffffffffffffffffffffffffff167f3134e8a2e6d97e929a7e54011ea5485d7d196dd5f0ba4d4ef95803e8e3fc257f60405160405180910390a46200042781836200041b86620007af60201b60201c565b620007c960201b60201c565b505050565b6000806200043f62000a8460201b60201c565b90506000836bffffffffffffffffffffffff161115620006c5576200046a3062000ac560201b60201c565b15620004ad576040517f08c379a0000000000000000000000000000000000000000000000000000000008152600401620004a49062002497565b60405180910390fd5b600073ffffffffffffffffffffffffffffffffffffffff168473ffffffffffffffffffffffffffffffffffffffff16036200051f576040517f08c379a000000000000000000000000000000000000000000000000000000000815260040162000516906200252f565b60405180910390fd5b6200052f62000ae860201b60201c565b6bffffffffffffffffffffffff16836bffffffffffffffffffffffff16111562000590576040517f08c379a00000000000000000000000000000000000000000000000000000000081526004016200058790620025c7565b60405180910390fd5b620005c1600085836bffffffffffffffffffffffff16866bffffffffffffffffffffffff1662000af260201b60201c565b600060018483620005d39190620025e9565b620005df919062002630565b9050620005f98186600662000b0c60201b9092919060201c565b50506200061b85856bffffffffffffffffffffffff1662000b3160201b60201c565b8473ffffffffffffffffffffffffffffffffffffffff16600073ffffffffffffffffffffffffffffffffffffffff16836bffffffffffffffffffffffff167fdeaa91b6123d068f5821d0fb0678463d1a8a6079fe8af5de3ce5e896dcf9133d846040516200068a9190620026b0565b60405180910390a4620006c3600086846bffffffffffffffffffffffff16876bffffffffffffffffffffffff1662000b8d60201b60201c565b505b8091505092915050565b600080829050601f815111156200071f57826040517f305a27a90000000000000000000000000000000000000000000000000000000081526004016200071691906200270e565b60405180910390fd5b8051816200072d9062002764565b60001c1760001b915050919050565b6000819050919050565b6000600b60008373ffffffffffffffffffffffffffffffffffffffff1673ffffffffffffffffffffffffffffffffffffffff16815260200190815260200160002060009054906101000a900473ffffffffffffffffffffffffffffffffffffffff169050919050565b6000620007c28262000ba760201b60201c565b9050919050565b8173ffffffffffffffffffffffffffffffffffffffff168373ffffffffffffffffffffffffffffffffffffffff1614158015620008065750600081115b1562000a7f57600073ffffffffffffffffffffffffffffffffffffffff168373ffffffffffffffffffffffffffffffffffffffff16146200094557600080620008b0600c60008773ffffffffffffffffffffffffffffffffffffffff1673ffffffffffffffffffffffffffffffffffffffff16815260200190815260200160002062000c6160201b620010f317620008a48662000c7960201b60201c565b62000ce760201b60201c565b7bffffffffffffffffffffffffffffffffffffffffffffffffffffffff1691507bffffffffffffffffffffffffffffffffffffffffffffffffffffffff1691508473ffffffffffffffffffffffffffffffffffffffff167fdec2bacdd2f05b59de34da9b523dff8be42e5e38e818c82fdb0bae774387a72483836040516200093a929190620027d4565b60405180910390a250505b600073ffffffffffffffffffffffffffffffffffffffff168273ffffffffffffffffffffffffffffffffffffffff161462000a7e57600080620009e9600c60008673ffffffffffffffffffffffffffffffffffffffff1673ffffffffffffffffffffffffffffffffffffffff16815260200190815260200160002062000d4f60201b6200110917620009dd8662000c7960201b60201c565b62000ce760201b60201c565b7bffffffffffffffffffffffffffffffffffffffffffffffffffffffff1691507bffffffffffffffffffffffffffffffffffffffffffffffffffffffff1691508373ffffffffffffffffffffffffffffffffffffffff167fdec2bacdd2f05b59de34da9b523dff8be42e5e38e818c82fdb0bae774387a724838360405162000a73929190620027d4565b60405180910390a250505b5b505050565b600080600062000a9b600662000d6760201b60201c565b50915091508162000aae57600062000abe565b60018162000abd9190620025e9565b5b9250505090565b6000808273ffffffffffffffffffffffffffffffffffffffff163b119050919050565b6000611388905090565b62000b068484848462000e7460201b60201c565b50505050565b60008062000b2585600001858562000ee160201b60201c565b91509150935093915050565b80600360008473ffffffffffffffffffffffffffffffffffffffff1673ffffffffffffffffffffffffffffffffffffffff168152602001908152602001600020600082825462000b82919062002801565b925050819055505050565b62000ba1848484846200129260201b60201c565b50505050565b60008073ffffffffffffffffffffffffffffffffffffffff168273ffffffffffffffffffffffffffffffffffffffff160362000c1a576040517f08c379a000000000000000000000000000000000000000000000000000000000815260040162000c1190620028b2565b60405180910390fd5b600360008373ffffffffffffffffffffffffffffffffffffffff1673ffffffffffffffffffffffffffffffffffffffff168152602001908152602001600020549050919050565b6000818362000c719190620028fc565b905092915050565b60007bffffffffffffffffffffffffffffffffffffffffffffffffffffffff801682111562000cdf576040517f08c379a000000000000000000000000000000000000000000000000000000000815260040162000cd690620029c9565b60405180910390fd5b819050919050565b60008062000d4362000d1662000d02620012bf60201b60201c565b65ffffffffffff16620012d760201b60201c565b62000d3262000d2b886200132d60201b60201c565b868860201c565b87620013a360201b9092919060201c565b91509150935093915050565b6000818362000d5f9190620029eb565b905092915050565b600080600080846000018054905090506000810362000d925760008060009350935093505062000e6d565b600062000db78660000160018462000dab919062002a42565b620013c860201b60201c565b6040518060400160405290816000820160009054906101000a90046bffffffffffffffffffffffff166bffffffffffffffffffffffff166bffffffffffffffffffffffff16815260200160008201600c9054906101000a900473ffffffffffffffffffffffffffffffffffffffff1673ffffffffffffffffffffffffffffffffffffffff1673ffffffffffffffffffffffffffffffffffffffff1681525050905060018160000151826020015194509450945050505b9193909250565b62000e8884848484620013dd60201b60201c565b62000e98620013e360201b60201c565b1562000edb576040517f08c379a000000000000000000000000000000000000000000000000000000000815260040162000ed29062002af3565b60405180910390fd5b50505050565b6000806000858054905090506000811115620011a257600062000f198760018462000f0d919062002a42565b620013c860201b60201c565b6040518060400160405290816000820160009054906101000a90046bffffffffffffffffffffffff166bffffffffffffffffffffffff166bffffffffffffffffffffffff16815260200160008201600c9054906101000a900473ffffffffffffffffffffffffffffffffffffffff1673ffffffffffffffffffffffffffffffffffffffff1673ffffffffffffffffffffffffffffffffffffffff16815250509050856bffffffffffffffffffffffff1681600001516bffffffffffffffffffffffff16111562001020576040517f08c379a0000000000000000000000000000000000000000000000000000000008152600401620010179062002b65565b60405180910390fd5b856bffffffffffffffffffffffff1681600001516bffffffffffffffffffffffff1603620010b0578462001069886001856200105d919062002a42565b620013c860201b60201c565b600001600c6101000a81548173ffffffffffffffffffffffffffffffffffffffff021916908373ffffffffffffffffffffffffffffffffffffffff16021790555062001190565b866040518060400160405280886bffffffffffffffffffffffff1681526020018773ffffffffffffffffffffffffffffffffffffffff168152509080600181540180825580915050600190039060005260206000200160009091909190915060008201518160000160006101000a8154816bffffffffffffffffffffffff02191690836bffffffffffffffffffffffff160217905550602082015181600001600c6101000a81548173ffffffffffffffffffffffffffffffffffffffff021916908373ffffffffffffffffffffffffffffffffffffffff16021790555050505b8060200151859350935050506200128a565b856040518060400160405280876bffffffffffffffffffffffff1681526020018673ffffffffffffffffffffffffffffffffffffffff168152509080600181540180825580915050600190039060005260206000200160009091909190915060008201518160000160006101000a8154816bffffffffffffffffffffffff02191690836bffffffffffffffffffffffff160217905550602082015181600001600c6101000a81548173ffffffffffffffffffffffffffffffffffffffff021916908373ffffffffffffffffffffffffffffffffffffffff160217905550505060008492509250505b935093915050565b620012a5848483620013fa60201b60201c565b620012b9848484846200150060201b60201c565b50505050565b6000620012d243620015f660201b60201c565b905090565b600063ffffffff801682111562001325576040517f08c379a00000000000000000000000000000000000000000000000000000000081526004016200131c9062002bfd565b60405180910390fd5b819050919050565b6000808260000180549050905060008114620013985762001366836000016001836200135a919062002a42565b6200164e60201b60201c565b60000160049054906101000a90047bffffffffffffffffffffffffffffffffffffffffffffffffffffffff166200139b565b60005b915050919050565b600080620013bc8560000185856200166360201b60201c565b91509150935093915050565b60008260005281602060002001905092915050565b50505050565b6000600860009054906101000a900460ff16905090565b600073ffffffffffffffffffffffffffffffffffffffff168373ffffffffffffffffffffffffffffffffffffffff160362001461576200145e600d62000d4f60201b6200110917620014528462000c7960201b60201c565b62000ce760201b60201c565b50505b600073ffffffffffffffffffffffffffffffffffffffff168273ffffffffffffffffffffffffffffffffffffffff1603620014c857620014c5600d62000c6160201b620010f317620014b98462000c7960201b60201c565b62000ce760201b60201c565b50505b620014fb620014dd846200074660201b60201c565b620014ee846200074660201b60201c565b83620007c960201b60201c565b505050565b600073ffffffffffffffffffffffffffffffffffffffff168373ffffffffffffffffffffffffffffffffffffffff161480156200155957506200154862000a8460201b60201c565b6bffffffffffffffffffffffff1682105b80156200157957506200157782600762001a0460201b90919060201c565b155b15620015dc5760018114620015c5576040517f08c379a0000000000000000000000000000000000000000000000000000000008152600401620015bc9062002c95565b60405180910390fd5b620015db82600762001a4060201b90919060201c565b5b620015f08484848462001a7e60201b60201c565b50505050565b600065ffffffffffff801682111562001646576040517f08c379a00000000000000000000000000000000000000000000000000000000081526004016200163d9062002d2d565b60405180910390fd5b819050919050565b60008260005281602060002001905092915050565b6000806000858054905090506000811115620019145760006200169b876001846200168f919062002a42565b6200164e60201b60201c565b6040518060400160405290816000820160009054906101000a900463ffffffff1663ffffffff1663ffffffff1681526020016000820160049054906101000a90047bffffffffffffffffffffffffffffffffffffffffffffffffffffffff167bffffffffffffffffffffffffffffffffffffffffffffffffffffffff167bffffffffffffffffffffffffffffffffffffffffffffffffffffffff168152505090508563ffffffff16816000015163ffffffff16111562001792576040517f08c379a0000000000000000000000000000000000000000000000000000000008152600401620017899062002b65565b60405180910390fd5b8563ffffffff16816000015163ffffffff1603620018225784620017cb88600185620017bf919062002a42565b6200164e60201b60201c565b60000160046101000a8154817bffffffffffffffffffffffffffffffffffffffffffffffffffffffff02191690837bffffffffffffffffffffffffffffffffffffffffffffffffffffffff16021790555062001902565b8660405180604001604052808863ffffffff168152602001877bffffffffffffffffffffffffffffffffffffffffffffffffffffffff168152509080600181540180825580915050600190039060005260206000200160009091909190915060008201518160000160006101000a81548163ffffffff021916908363ffffffff16021790555060208201518160000160046101000a8154817bffffffffffffffffffffffffffffffffffffffffffffffffffffffff02191690837bffffffffffffffffffffffffffffffffffffffffffffffffffffffff16021790555050505b806020015185935093505050620019fc565b8560405180604001604052808763ffffffff168152602001867bffffffffffffffffffffffffffffffffffffffffffffffffffffffff168152509080600181540180825580915050600190039060005260206000200160009091909190915060008201518160000160006101000a81548163ffffffff021916908363ffffffff16021790555060208201518160000160046101000a8154817bffffffffffffffffffffffffffffffffffffffffffffffffffffffff02191690837bffffffffffffffffffffffffffffffffffffffffffffffffffffffff160217905550505060008492509250505b935093915050565b600080600883901c9050600060ff84166001901b9050600081866000016000858152602001908152602001600020541614159250505092915050565b6000600882901c9050600060ff83166001901b9050808460000160008481526020019081526020016000206000828254179250508190555050505050565b50505050565b6000604051905090565b600080fd5b600080fd5b600080fd5b600080fd5b6000601f19601f8301169050919050565b7f4e487b7100000000000000000000000000000000000000000000000000000000600052604160045260246000fd5b62001aed8262001aa2565b810181811067ffffffffffffffff8211171562001b0f5762001b0e62001ab3565b5b80604052505050565b600062001b2462001a84565b905062001b32828262001ae2565b919050565b600067ffffffffffffffff82111562001b555762001b5462001ab3565b5b62001b608262001aa2565b9050602081019050919050565b60005b8381101562001b8d57808201518184015260208101905062001b70565b60008484015250505050565b600062001bb062001baa8462001b37565b62001b18565b90508281526020810184848401111562001bcf5762001bce62001a9d565b5b62001bdc84828562001b6d565b509392505050565b600082601f83011262001bfc5762001bfb62001a98565b5b815162001c0e84826020860162001b99565b91505092915050565b600067ffffffffffffffff82111562001c355762001c3462001ab3565b5b602082029050602081019050919050565b600080fd5b600073ffffffffffffffffffffffffffffffffffffffff82169050919050565b600062001c788262001c4b565b9050919050565b62001c8a8162001c6b565b811462001c9657600080fd5b50565b60008151905062001caa8162001c7f565b92915050565b600062001cc762001cc18462001c17565b62001b18565b9050808382526020820190506020840283018581111562001ced5762001cec62001c46565b5b835b8181101562001d1a578062001d05888262001c99565b84526020840193505060208101905062001cef565b5050509392505050565b600082601f83011262001d3c5762001d3b62001a98565b5b815162001d4e84826020860162001cb0565b91505092915050565b600067ffffffffffffffff82111562001d755762001d7462001ab3565b5b602082029050602081019050919050565b60006bffffffffffffffffffffffff82169050919050565b62001da98162001d86565b811462001db557600080fd5b50565b60008151905062001dc98162001d9e565b92915050565b600062001de662001de08462001d57565b62001b18565b9050808382526020820190506020840283018581111562001e0c5762001e0b62001c46565b5b835b8181101562001e39578062001e24888262001db8565b84526020840193505060208101905062001e0e565b5050509392505050565b600082601f83011262001e5b5762001e5a62001a98565b5b815162001e6d84826020860162001dcf565b91505092915050565b600080600080600060a0868803121562001e955762001e9462001a8e565b5b600086015167ffffffffffffffff81111562001eb65762001eb562001a93565b5b62001ec48882890162001be4565b955050602086015167ffffffffffffffff81111562001ee85762001ee762001a93565b5b62001ef68882890162001be4565b945050604086015167ffffffffffffffff81111562001f1a5762001f1962001a93565b5b62001f288882890162001d24565b935050606086015167ffffffffffffffff81111562001f4c5762001f4b62001a93565b5b62001f5a8882890162001d24565b925050608086015167ffffffffffffffff81111562001f7e5762001f7d62001a93565b5b62001f8c8882890162001e43565b9150509295509295909350565b600081519050919050565b7f4e487b7100000000000000000000000000000000000000000000000000000000600052602260045260246000fd5b6000600282049050600182168062001fec57607f821691505b60208210810362002002576200200162001fa4565b5b50919050565b60008190508160005260206000209050919050565b60006020601f8301049050919050565b600082821b905092915050565b6000600883026200206c7fffffffffffffffffffffffffffffffffffffffffffffffffffffffffffffffff826200202d565b6200207886836200202d565b95508019841693508086168417925050509392505050565b6000819050919050565b6000819050919050565b6000620020c5620020bf620020b98462002090565b6200209a565b62002090565b9050919050565b6000819050919050565b620020e183620020a4565b620020f9620020f082620020cc565b8484546200203a565b825550505050565b600090565b6200211062002101565b6200211d818484620020d6565b505050565b5b8181101562002145576200213960008262002106565b60018101905062002123565b5050565b601f82111562002194576200215e8162002008565b62002169846200201d565b8101602085101562002179578190505b6200219162002188856200201d565b83018262002122565b50505b505050565b600082821c905092915050565b6000620021b96000198460080262002199565b1980831691505092915050565b6000620021d48383620021a6565b9150826002028217905092915050565b620021ef8262001f99565b67ffffffffffffffff8111156200220b576200220a62001ab3565b5b62002217825462001fd3565b6200222482828562002149565b600060209050601f8311600181146200225c576000841562002247578287015190505b620022538582620021c6565b865550620022c3565b601f1984166200226c8662002008565b60005b8281101562002296578489015182556001820191506020850194506020810190506200226f565b86831015620022b65784890151620022b2601f891682620021a6565b8355505b6001600288020188555050505b505050505050565b7f4e487b7100000000000000000000000000000000000000000000000000000000600052603260045260246000fd5b7f4e487b7100000000000000000000000000000000000000000000000000000000600052601160045260246000fd5b6000620023368262002090565b91507fffffffffffffffffffffffffffffffffffffffffffffffffffffffffffffffff82036200236b576200236a620022fa565b5b600182019050919050565b6000819050919050565b6200238b8162002376565b82525050565b6200239c8162002090565b82525050565b620023ad8162001c6b565b82525050565b600060a082019050620023ca600083018862002380565b620023d9602083018762002380565b620023e8604083018662002380565b620023f7606083018562002391565b620024066080830184620023a2565b9695505050505050565b600082825260208201905092915050565b7f455243373231436f6e73656375746976653a206261746368206d696e74696e6760008201527f207265737472696374656420746f20636f6e7374727563746f72000000000000602082015250565b60006200247f603a8362002410565b91506200248c8262002421565b604082019050919050565b60006020820190508181036000830152620024b28162002470565b9050919050565b7f455243373231436f6e73656375746976653a206d696e7420746f20746865207a60008201527f65726f2061646472657373000000000000000000000000000000000000000000602082015250565b600062002517602b8362002410565b91506200252482620024b9565b604082019050919050565b600060208201905081810360008301526200254a8162002508565b9050919050565b7f455243373231436f6e73656375746976653a20626174636820746f6f206c617260008201527f6765000000000000000000000000000000000000000000000000000000000000602082015250565b6000620025af60228362002410565b9150620025bc8262002551565b604082019050919050565b60006020820190508181036000830152620025e281620025a0565b9050919050565b6000620025f68262001d86565b9150620026038362001d86565b925082820190506bffffffffffffffffffffffff8111156200262a5762002629620022fa565b5b92915050565b60006200263d8262001d86565b91506200264a8362001d86565b925082820390506bffffffffffffffffffffffff811115620026715762002670620022fa565b5b92915050565b600062002698620026926200268c8462001d86565b6200209a565b62002090565b9050919050565b620026aa8162002677565b82525050565b6000602082019050620026c760008301846200269f565b92915050565b6000620026da8262001f99565b620026e6818562002410565b9350620026f881856020860162001b6d565b620027038162001aa2565b840191505092915050565b600060208201905081810360008301526200272a8184620026cd565b905092915050565b600081519050919050565b6000819050602082019050919050565b60006200275b825162002376565b80915050919050565b6000620027718262002732565b826200277d846200273d565b90506200278a816200274d565b92506020821015620027cd57620027c87fffffffffffffffffffffffffffffffffffffffffffffffffffffffffffffffff836020036008026200202d565b831692505b5050919050565b6000604082019050620027eb600083018562002391565b620027fa602083018462002391565b9392505050565b60006200280e8262002090565b91506200281b8362002090565b9250828201905080821115620028365762002835620022fa565b5b92915050565b7f4552433732313a2061646472657373207a65726f206973206e6f74206120766160008201527f6c6964206f776e65720000000000000000000000000000000000000000000000602082015250565b60006200289a60298362002410565b9150620028a7826200283c565b604082019050919050565b60006020820190508181036000830152620028cd816200288b565b9050919050565b60007bffffffffffffffffffffffffffffffffffffffffffffffffffffffff82169050919050565b60006200290982620028d4565b91506200291683620028d4565b925082820390507bffffffffffffffffffffffffffffffffffffffffffffffffffffffff8111156200294d576200294c620022fa565b5b92915050565b7f53616665436173743a2076616c756520646f65736e27742066697420696e203260008201527f3234206269747300000000000000000000000000000000000000000000000000602082015250565b6000620029b160278362002410565b9150620029be8262002953565b604082019050919050565b60006020820190508181036000830152620029e481620029a2565b9050919050565b6000620029f882620028d4565b915062002a0583620028d4565b925082820190507bffffffffffffffffffffffffffffffffffffffffffffffffffffffff81111562002a3c5762002a3b620022fa565b5b92915050565b600062002a4f8262002090565b915062002a5c8362002090565b925082820390508181111562002a775762002a76620022fa565b5b92915050565b7f4552433732315061757361626c653a20746f6b656e207472616e73666572207760008201527f68696c6520706175736564000000000000000000000000000000000000000000602082015250565b600062002adb602b8362002410565b915062002ae88262002a7d565b604082019050919050565b6000602082019050818103600083015262002b0e8162002acc565b9050919050565b7f436865636b706f696e743a2064656372656173696e67206b6579730000000000600082015250565b600062002b4d601b8362002410565b915062002b5a8262002b15565b602082019050919050565b6000602082019050818103600083015262002b808162002b3e565b9050919050565b7f53616665436173743a2076616c756520646f65736e27742066697420696e203360008201527f3220626974730000000000000000000000000000000000000000000000000000602082015250565b600062002be560268362002410565b915062002bf28262002b87565b604082019050919050565b6000602082019050818103600083015262002c188162002bd6565b9050919050565b7f455243373231436f6e73656375746976653a206261746368206275726e206e6f60008201527f7420737570706f72746564000000000000000000000000000000000000000000602082015250565b600062002c7d602b8362002410565b915062002c8a8262002c1f565b604082019050919050565b6000602082019050818103600083015262002cb08162002c6e565b9050919050565b7f53616665436173743a2076616c756520646f65736e27742066697420696e203460008201527f3820626974730000000000000000000000000000000000000000000000000000602082015250565b600062002d1560268362002410565b915062002d228262002cb7565b604082019050919050565b6000602082019050818103600083015262002d488162002d06565b9050919050565b60805160a05160c05160e051610100516101205161014051614d4d62002daa6000396000611ec101526000611ea001526000610c1c01526000610be8015260006116270152600061167d015260006116a60152614d4d6000f3fe608060405234801561001057600080fd5b50600436106101735760003560e01c80636352211e116100de57806395d89b4111610097578063b88d4fde11610071578063b88d4fde1461048c578063c3cda520146104a8578063c87b56dd146104c4578063e985e9c5146104f457610173565b806395d89b41146104225780639ab24eb014610440578063a22cb4651461047057610173565b80636352211e1461032057806370a08231146103505780637ecebe001461038057806384b0196e146103b05780638e539e8c146103d457806391ddadf41461040457610173565b80633a46b1a8116101305780633a46b1a81461024c57806342842e0e1461027c5780634bf5d7e914610298578063587cde1e146102b65780635c19a95c146102e65780635c975abb1461030257610173565b806301ffc9a71461017857806306fdde03146101a8578063081812fc146101c6578063095ea7b3146101f657806323b872dd146102125780633644e5151461022e575b600080fd5b610192600480360381019061018d9190613522565b610524565b60405161019f919061356a565b60405180910390f35b6101b0610606565b6040516101bd9190613615565b60405180910390f35b6101e060048036038101906101db919061366d565b610698565b6040516101ed91906136db565b60405180910390f35b610210600480360381019061020b9190613722565b6106de565b005b61022c60048036038101906102279190613762565b6107f5565b005b610236610855565b60405161024391906137ce565b60405180910390f35b61026660048036038101906102619190613722565b610864565b60405161027391906137f8565b60405180910390f35b61029660048036038101906102919190613762565b610936565b005b6102a0610956565b6040516102ad9190613615565b60405180910390f35b6102d060048036038101906102cb9190613813565b6109ae565b6040516102dd91906136db565b60405180910390f35b61030060048036038101906102fb9190613813565b610a17565b005b61030a610a31565b604051610317919061356a565b60405180910390f35b61033a6004803603810190610335919061366d565b610a48565b60405161034791906136db565b60405180910390f35b61036a60048036038101906103659190613813565b610ace565b60405161037791906137f8565b60405180910390f35b61039a60048036038101906103959190613813565b610b85565b6040516103a791906137f8565b60405180910390f35b6103b8610bd5565b6040516103cb9796959493929190613939565b60405180910390f35b6103ee60048036038101906103e9919061366d565b610cd7565b6040516103fb91906137f8565b60405180910390f35b61040c610d6b565b60405161041991906139de565b60405180910390f35b61042a610d7b565b6040516104379190613615565b60405180910390f35b61045a60048036038101906104559190613813565b610e0d565b60405161046791906137f8565b60405180910390f35b61048a60048036038101906104859190613a25565b610e7b565b005b6104a660048036038101906104a19190613b9a565b610e91565b005b6104c260048036038101906104bd9190613c82565b610ef3565b005b6104de60048036038101906104d9919061366d565b610ff7565b6040516104eb9190613615565b60405180910390f35b61050e60048036038101906105099190613d0f565b61105f565b60405161051b919061356a565b60405180910390f35b60007f80ac58cd000000000000000000000000000000000000000000000000000000007bffffffffffffffffffffffffffffffffffffffffffffffffffffffff1916827bffffffffffffffffffffffffffffffffffffffffffffffffffffffff191614806105ef57507f5b5e139f000000000000000000000000000000000000000000000000000000007bffffffffffffffffffffffffffffffffffffffffffffffffffffffff1916827bffffffffffffffffffffffffffffffffffffffffffffffffffffffff1916145b806105ff57506105fe8261111f565b5b9050919050565b60606000805461061590613d7e565b80601f016020809104026020016040519081016040528092919081815260200182805461064190613d7e565b801561068e5780601f106106635761010080835404028352916020019161068e565b820191906000526020600020905b81548152906001019060200180831161067157829003601f168201915b5050505050905090565b60006106a382611189565b6004600083815260200190815260200160002060009054906101000a900473ffffffffffffffffffffffffffffffffffffffff169050919050565b60006106e982610a48565b90508073ffffffffffffffffffffffffffffffffffffffff168373ffffffffffffffffffffffffffffffffffffffff1603610759576040517f08c379a000000000000000000000000000000000000000000000000000000000815260040161075090613e21565b60405180910390fd5b8073ffffffffffffffffffffffffffffffffffffffff166107786111d4565b73ffffffffffffffffffffffffffffffffffffffff1614806107a757506107a6816107a16111d4565b61105f565b5b6107e6576040517f08c379a00000000000000000000000000000000000000000000000000000000081526004016107dd90613eb3565b60405180910390fd5b6107f083836111dc565b505050565b6108066108006111d4565b82611295565b610845576040517f08c379a000000000000000000000000000000000000000000000000000000000815260040161083c90613f45565b60405180910390fd5b61085083838361132a565b505050565b600061085f611623565b905090565b600061086e610d6b565b65ffffffffffff1682106108b7576040517f08c379a00000000000000000000000000000000000000000000000000000000081526004016108ae90613fb1565b60405180910390fd5b6109106108c3836116da565b600c60008673ffffffffffffffffffffffffffffffffffffffff1673ffffffffffffffffffffffffffffffffffffffff16815260200190815260200160002061172d90919063ffffffff16565b7bffffffffffffffffffffffffffffffffffffffffffffffffffffffff16905092915050565b61095183838360405180602001604052806000815250610e91565b505050565b606043610961610d6b565b65ffffffffffff161461097357600080fd5b6040518060400160405280601d81526020017f6d6f64653d626c6f636b6e756d6265722666726f6d3d64656661756c74000000815250905090565b6000600b60008373ffffffffffffffffffffffffffffffffffffffff1673ffffffffffffffffffffffffffffffffffffffff16815260200190815260200160002060009054906101000a900473ffffffffffffffffffffffffffffffffffffffff169050919050565b6000610a216111d4565b9050610a2d8183611823565b5050565b6000600860009054906101000a900460ff16905090565b600080610a5483611937565b9050600073ffffffffffffffffffffffffffffffffffffffff168173ffffffffffffffffffffffffffffffffffffffff1603610ac5576040517f08c379a0000000000000000000000000000000000000000000000000000000008152600401610abc9061401d565b60405180910390fd5b80915050919050565b60008073ffffffffffffffffffffffffffffffffffffffff168273ffffffffffffffffffffffffffffffffffffffff1603610b3e576040517f08c379a0000000000000000000000000000000000000000000000000000000008152600401610b35906140af565b60405180910390fd5b600360008373ffffffffffffffffffffffffffffffffffffffff1673ffffffffffffffffffffffffffffffffffffffff168152602001908152602001600020549050919050565b6000610bce600e60008473ffffffffffffffffffffffffffffffffffffffff1673ffffffffffffffffffffffffffffffffffffffff168152602001908152602001600020611949565b9050919050565b600060608060008060006060610c1560097f000000000000000000000000000000000000000000000000000000000000000061195790919063ffffffff16565b610c49600a7f000000000000000000000000000000000000000000000000000000000000000061195790919063ffffffff16565b46306000801b600067ffffffffffffffff811115610c6a57610c69613a6f565b5b604051908082528060200260200182016040528015610c985781602001602082028036833780820191505090505b507f0f00000000000000000000000000000000000000000000000000000000000000959493929190965096509650965096509650965090919293949596565b6000610ce1610d6b565b65ffffffffffff168210610d2a576040517f08c379a0000000000000000000000000000000000000000000000000000000008152600401610d2190613fb1565b60405180910390fd5b610d46610d36836116da565b600d61172d90919063ffffffff16565b7bffffffffffffffffffffffffffffffffffffffffffffffffffffffff169050919050565b6000610d7643611a07565b905090565b606060018054610d8a90613d7e565b80601f0160208091040260200160405190810160405280929190818152602001828054610db690613d7e565b8015610e035780601f10610dd857610100808354040283529160200191610e03565b820191906000526020600020905b815481529060010190602001808311610de657829003601f168201915b5050505050905090565b6000610e56600c60008473ffffffffffffffffffffffffffffffffffffffff1673ffffffffffffffffffffffffffffffffffffffff168152602001908152602001600020611a5c565b7bffffffffffffffffffffffffffffffffffffffffffffffffffffffff169050919050565b610e8d610e866111d4565b8383611ac6565b5050565b610ea2610e9c6111d4565b83611295565b610ee1576040517f08c379a0000000000000000000000000000000000000000000000000000000008152600401610ed890613f45565b60405180910390fd5b610eed84848484611c32565b50505050565b83421115610f36576040517f08c379a0000000000000000000000000000000000000000000000000000000008152600401610f2d9061411b565b60405180910390fd5b6000610f98610f907fe48329057bfd03d55e49b547132e39cffd9c1820ad7b9d4c5307691425d15adf898989604051602001610f75949392919061413b565b60405160208183030381529060405280519060200120611c8e565b858585611ca8565b9050610fa381611cd3565b8614610fe4576040517f08c379a0000000000000000000000000000000000000000000000000000000008152600401610fdb906141cc565b60405180910390fd5b610fee8188611823565b50505050505050565b606061100282611189565b600061100c611d31565b9050600081511161102c5760405180602001604052806000815250611057565b8061103684611d48565b604051602001611047929190614228565b6040516020818303038152906040525b915050919050565b6000600560008473ffffffffffffffffffffffffffffffffffffffff1673ffffffffffffffffffffffffffffffffffffffff16815260200190815260200160002060008373ffffffffffffffffffffffffffffffffffffffff1673ffffffffffffffffffffffffffffffffffffffff16815260200190815260200160002060009054906101000a900460ff16905092915050565b6000818361110191906142a3565b905092915050565b6000818361111791906142f3565b905092915050565b60007f01ffc9a7000000000000000000000000000000000000000000000000000000007bffffffffffffffffffffffffffffffffffffffffffffffffffffffff1916827bffffffffffffffffffffffffffffffffffffffffffffffffffffffff1916149050919050565b61119281611e16565b6111d1576040517f08c379a00000000000000000000000000000000000000000000000000000000081526004016111c89061401d565b60405180910390fd5b50565b600033905090565b816004600083815260200190815260200160002060006101000a81548173ffffffffffffffffffffffffffffffffffffffff021916908373ffffffffffffffffffffffffffffffffffffffff160217905550808273ffffffffffffffffffffffffffffffffffffffff1661124f83610a48565b73ffffffffffffffffffffffffffffffffffffffff167f8c5be1e5ebec7d5bd14f71427d1e84f3dd0314c0f7b2291e5b200ac8c7c3b92560405160405180910390a45050565b6000806112a183610a48565b90508073ffffffffffffffffffffffffffffffffffffffff168473ffffffffffffffffffffffffffffffffffffffff1614806112e357506112e2818561105f565b5b8061132157508373ffffffffffffffffffffffffffffffffffffffff1661130984610698565b73ffffffffffffffffffffffffffffffffffffffff16145b91505092915050565b8273ffffffffffffffffffffffffffffffffffffffff1661134a82610a48565b73ffffffffffffffffffffffffffffffffffffffff16146113a0576040517f08c379a0000000000000000000000000000000000000000000000000000000008152600401611397906143b5565b60405180910390fd5b600073ffffffffffffffffffffffffffffffffffffffff168273ffffffffffffffffffffffffffffffffffffffff160361140f576040517f08c379a000000000000000000000000000000000000000000000000000000000815260040161140690614447565b60405180910390fd5b61141c8383836001611e57565b8273ffffffffffffffffffffffffffffffffffffffff1661143c82610a48565b73ffffffffffffffffffffffffffffffffffffffff1614611492576040517f08c379a0000000000000000000000000000000000000000000000000000000008152600401611489906143b5565b60405180910390fd5b6004600082815260200190815260200160002060006101000a81549073ffffffffffffffffffffffffffffffffffffffff02191690556001600360008573ffffffffffffffffffffffffffffffffffffffff1673ffffffffffffffffffffffffffffffffffffffff168152602001908152602001600020600082825403925050819055506001600360008473ffffffffffffffffffffffffffffffffffffffff1673ffffffffffffffffffffffffffffffffffffffff16815260200190815260200160002060008282540192505081905550816002600083815260200190815260200160002060006101000a81548173ffffffffffffffffffffffffffffffffffffffff021916908373ffffffffffffffffffffffffffffffffffffffff160217905550808273ffffffffffffffffffffffffffffffffffffffff168473ffffffffffffffffffffffffffffffffffffffff167fddf252ad1be2c89b69c2b068fc378daa952ba7f163c4a11628f55a4df523b3ef60405160405180910390a461161e8383836001611e69565b505050565b60007f000000000000000000000000000000000000000000000000000000000000000073ffffffffffffffffffffffffffffffffffffffff163073ffffffffffffffffffffffffffffffffffffffff1614801561169f57507f000000000000000000000000000000000000000000000000000000000000000046145b156116cc577f000000000000000000000000000000000000000000000000000000000000000090506116d7565b6116d4611e7b565b90505b90565b600063ffffffff8016821115611725576040517f08c379a000000000000000000000000000000000000000000000000000000000815260040161171c906144d9565b60405180910390fd5b819050919050565b6000808360000180549050905060008082905060058311156117af57600061175484611f11565b8461175f91906144f9565b905061176e876000018261200a565b60000160009054906101000a900463ffffffff1663ffffffff168663ffffffff16101561179d578091506117ad565b6001816117aa919061452d565b92505b505b60006117c08760000187858561201f565b905060008114611814576117e3876000016001836117de91906144f9565b61200a565b60000160049054906101000a90047bffffffffffffffffffffffffffffffffffffffffffffffffffffffff16611817565b60005b94505050505092915050565b600061182e836109ae565b905081600b60008573ffffffffffffffffffffffffffffffffffffffff1673ffffffffffffffffffffffffffffffffffffffff16815260200190815260200160002060006101000a81548173ffffffffffffffffffffffffffffffffffffffff021916908373ffffffffffffffffffffffffffffffffffffffff1602179055508173ffffffffffffffffffffffffffffffffffffffff168173ffffffffffffffffffffffffffffffffffffffff168473ffffffffffffffffffffffffffffffffffffffff167f3134e8a2e6d97e929a7e54011ea5485d7d196dd5f0ba4d4ef95803e8e3fc257f60405160405180910390a4611932818361192d86612092565b6120a4565b505050565b600061194282612325565b9050919050565b600081600001549050919050565b606060ff60001b83146119745761196d836123c7565b9050611a01565b81805461198090613d7e565b80601f01602080910402602001604051908101604052809291908181526020018280546119ac90613d7e565b80156119f95780601f106119ce576101008083540402835291602001916119f9565b820191906000526020600020905b8154815290600101906020018083116119dc57829003601f168201915b505050505090505b92915050565b600065ffffffffffff8016821115611a54576040517f08c379a0000000000000000000000000000000000000000000000000000000008152600401611a4b906145d3565b60405180910390fd5b819050919050565b6000808260000180549050905060008114611abb57611a8a83600001600183611a8591906144f9565b61200a565b60000160049054906101000a90047bffffffffffffffffffffffffffffffffffffffffffffffffffffffff16611abe565b60005b915050919050565b8173ffffffffffffffffffffffffffffffffffffffff168373ffffffffffffffffffffffffffffffffffffffff1603611b34576040517f08c379a0000000000000000000000000000000000000000000000000000000008152600401611b2b9061463f565b60405180910390fd5b80600560008573ffffffffffffffffffffffffffffffffffffffff1673ffffffffffffffffffffffffffffffffffffffff16815260200190815260200160002060008473ffffffffffffffffffffffffffffffffffffffff1673ffffffffffffffffffffffffffffffffffffffff16815260200190815260200160002060006101000a81548160ff0219169083151502179055508173ffffffffffffffffffffffffffffffffffffffff168373ffffffffffffffffffffffffffffffffffffffff167f17307eab39ab6107e8899845ad3d59bd9653f200f220920489ca2b5937696c3183604051611c25919061356a565b60405180910390a3505050565b611c3d84848461132a565b611c498484848461243b565b611c88576040517f08c379a0000000000000000000000000000000000000000000000000000000008152600401611c7f906146d1565b60405180910390fd5b50505050565b6000611ca1611c9b611623565b836125c2565b9050919050565b6000806000611cb987878787612603565b91509150611cc6816126e5565b8192505050949350505050565b600080600e60008473ffffffffffffffffffffffffffffffffffffffff1673ffffffffffffffffffffffffffffffffffffffff1681526020019081526020016000209050611d2081611949565b9150611d2b8161284b565b50919050565b606060405180602001604052806000815250905090565b606060006001611d5784612861565b01905060008167ffffffffffffffff811115611d7657611d75613a6f565b5b6040519080825280601f01601f191660200182016040528015611da85781602001600182028036833780820191505090505b509050600082602001820190505b600115611e0b578080600190039150507f3031323334353637383961626364656600000000000000000000000000000000600a86061a8153600a8581611dff57611dfe6146f1565b5b04945060008503611db6575b819350505050919050565b60008073ffffffffffffffffffffffffffffffffffffffff16611e3883611937565b73ffffffffffffffffffffffffffffffffffffffff1614159050919050565b611e63848484846129b4565b50505050565b611e7584848484612a0e565b50505050565b60007f8b73c3c69bb8fe3d512ecc4cf759cc79239f7b179b0ffacaa9a75d522b39400f7f00000000000000000000000000000000000000000000000000000000000000007f00000000000000000000000000000000000000000000000000000000000000004630604051602001611ef6959493929190614720565b60405160208183030381529060405280519060200120905090565b6000808203611f235760009050612005565b60006001611f3084612a2b565b901c6001901b90506001818481611f4a57611f496146f1565b5b048201901c90506001818481611f6357611f626146f1565b5b048201901c90506001818481611f7c57611f7b6146f1565b5b048201901c90506001818481611f9557611f946146f1565b5b048201901c90506001818481611fae57611fad6146f1565b5b048201901c90506001818481611fc757611fc66146f1565b5b048201901c90506001818481611fe057611fdf6146f1565b5b048201901c905061200181828581611ffb57611ffa6146f1565b5b04612b0c565b9150505b919050565b60008260005281602060002001905092915050565b60005b818310156120875760006120368484612b25565b90508463ffffffff16612049878361200a565b60000160009054906101000a900463ffffffff1663ffffffff16111561207157809250612081565b60018161207e919061452d565b93505b50612022565b819050949350505050565b600061209d82610ace565b9050919050565b8173ffffffffffffffffffffffffffffffffffffffff168373ffffffffffffffffffffffffffffffffffffffff16141580156120e05750600081115b1561232057600073ffffffffffffffffffffffffffffffffffffffff168373ffffffffffffffffffffffffffffffffffffffff16146122025760008061216f600c60008773ffffffffffffffffffffffffffffffffffffffff1673ffffffffffffffffffffffffffffffffffffffff1681526020019081526020016000206110f361216a86612b4b565b612bb6565b7bffffffffffffffffffffffffffffffffffffffffffffffffffffffff1691507bffffffffffffffffffffffffffffffffffffffffffffffffffffffff1691508473ffffffffffffffffffffffffffffffffffffffff167fdec2bacdd2f05b59de34da9b523dff8be42e5e38e818c82fdb0bae774387a72483836040516121f7929190614773565b60405180910390a250505b600073ffffffffffffffffffffffffffffffffffffffff168273ffffffffffffffffffffffffffffffffffffffff161461231f5760008061228c600c60008673ffffffffffffffffffffffffffffffffffffffff1673ffffffffffffffffffffffffffffffffffffffff16815260200190815260200160002061110961228786612b4b565b612bb6565b7bffffffffffffffffffffffffffffffffffffffffffffffffffffffff1691507bffffffffffffffffffffffffffffffffffffffffffffffffffffffff1691508373ffffffffffffffffffffffffffffffffffffffff167fdec2bacdd2f05b59de34da9b523dff8be42e5e38e818c82fdb0bae774387a7248383604051612314929190614773565b60405180910390a250505b5b505050565b60008061233183612c06565b9050600073ffffffffffffffffffffffffffffffffffffffff168173ffffffffffffffffffffffffffffffffffffffff1614158061237c57506bffffffffffffffffffffffff801683115b1561238a57809150506123c2565b61239e836007612c4390919063ffffffff16565b6123bb576123b6836006612c7f90919063ffffffff16565b6123be565b60005b9150505b919050565b606060006123d483612cea565b90506000602067ffffffffffffffff8111156123f3576123f2613a6f565b5b6040519080825280601f01601f1916602001820160405280156124255781602001600182028036833780820191505090505b5090508181528360208201528092505050919050565b600061245c8473ffffffffffffffffffffffffffffffffffffffff16612d3a565b156125b5578373ffffffffffffffffffffffffffffffffffffffff1663150b7a026124856111d4565b8786866040518563ffffffff1660e01b81526004016124a794939291906147f1565b6020604051808303816000875af19250505080156124e357506040513d601f19601f820116820180604052508101906124e09190614852565b60015b612565573d8060008114612513576040519150601f19603f3d011682016040523d82523d6000602084013e612518565b606091505b50600081510361255d576040517f08c379a0000000000000000000000000000000000000000000000000000000008152600401612554906146d1565b60405180910390fd5b805181602001fd5b63150b7a0260e01b7bffffffffffffffffffffffffffffffffffffffffffffffffffffffff1916817bffffffffffffffffffffffffffffffffffffffffffffffffffffffff1916149150506125ba565b600190505b949350505050565b60006040517f190100000000000000000000000000000000000000000000000000000000000081528360028201528260228201526042812091505092915050565b6000807f7fffffffffffffffffffffffffffffff5d576e7357a4501ddfe92f46681b20a08360001c111561263e5760006003915091506126dc565b600060018787878760405160008152602001604052604051612663949392919061488e565b6020604051602081039080840390855afa158015612685573d6000803e3d6000fd5b505050602060405103519050600073ffffffffffffffffffffffffffffffffffffffff168173ffffffffffffffffffffffffffffffffffffffff16036126d3576000600192509250506126dc565b80600092509250505b94509492505050565b600060048111156126f9576126f86148d3565b5b81600481111561270c5761270b6148d3565b5b03156128485760016004811115612726576127256148d3565b5b816004811115612739576127386148d3565b5b03612779576040517f08c379a00000000000000000000000000000000000000000000000000000000081526004016127709061494e565b60405180910390fd5b6002600481111561278d5761278c6148d3565b5b8160048111156127a05761279f6148d3565b5b036127e0576040517f08c379a00000000000000000000000000000000000000000000000000000000081526004016127d7906149ba565b60405180910390fd5b600360048111156127f4576127f36148d3565b5b816004811115612807576128066148d3565b5b03612847576040517f08c379a000000000000000000000000000000000000000000000000000000000815260040161283e90614a4c565b60405180910390fd5b5b50565b6001816000016000828254019250508190555050565b600080600090507a184f03e93ff9f4daa797ed6e38ed64bf6a1f01000000000000000083106128bf577a184f03e93ff9f4daa797ed6e38ed64bf6a1f01000000000000000083816128b5576128b46146f1565b5b0492506040810190505b6d04ee2d6d415b85acef810000000083106128fc576d04ee2d6d415b85acef810000000083816128f2576128f16146f1565b5b0492506020810190505b662386f26fc10000831061292b57662386f26fc100008381612921576129206146f1565b5b0492506010810190505b6305f5e1008310612954576305f5e100838161294a576129496146f1565b5b0492506008810190505b612710831061297957612710838161296f5761296e6146f1565b5b0492506004810190505b6064831061299c5760648381612992576129916146f1565b5b0492506002810190505b600a83106129ab576001810190505b80915050919050565b6129c084848484612d5d565b6129c8610a31565b15612a08576040517f08c379a00000000000000000000000000000000000000000000000000000000081526004016129ff90614ade565b60405180910390fd5b50505050565b612a19848483612d63565b612a2584848484612e1d565b50505050565b600080600090506000608084901c1115612a4d57608083901c92506080810190505b6000604084901c1115612a6857604083901c92506040810190505b6000602084901c1115612a8357602083901c92506020810190505b6000601084901c1115612a9e57601083901c92506010810190505b6000600884901c1115612ab957600883901c92506008810190505b6000600484901c1115612ad457600483901c92506004810190505b6000600284901c1115612aef57600283901c92506002810190505b6000600184901c1115612b03576001810190505b80915050919050565b6000818310612b1b5781612b1d565b825b905092915050565b60006002828418612b369190614afe565b828416612b43919061452d565b905092915050565b60007bffffffffffffffffffffffffffffffffffffffffffffffffffffffff8016821115612bae576040517f08c379a0000000000000000000000000000000000000000000000000000000008152600401612ba590614ba1565b60405180910390fd5b819050919050565b600080612bfa612bd4612bc7610d6b565b65ffffffffffff166116da565b612bea612be088611a5c565b868863ffffffff16565b87612ef99092919063ffffffff16565b91509150935093915050565b60006002600083815260200190815260200160002060009054906101000a900473ffffffffffffffffffffffffffffffffffffffff169050919050565b600080600883901c9050600060ff84166001901b9050600081866000016000858152602001908152602001600020541614159250505092915050565b600080836000018054905090506000612c9e8560000185600085612f16565b9050818114612cdd57612cb48560000182612fa1565b600001600c9054906101000a900473ffffffffffffffffffffffffffffffffffffffff16612ce0565b60005b9250505092915050565b60008060ff8360001c169050601f811115612d31576040517fb3512b0c00000000000000000000000000000000000000000000000000000000815260040160405180910390fd5b80915050919050565b6000808273ffffffffffffffffffffffffffffffffffffffff163b119050919050565b50505050565b600073ffffffffffffffffffffffffffffffffffffffff168373ffffffffffffffffffffffffffffffffffffffff1603612db057612dad600d611109612da884612b4b565b612bb6565b50505b600073ffffffffffffffffffffffffffffffffffffffff168273ffffffffffffffffffffffffffffffffffffffff1603612dfd57612dfa600d6110f3612df584612b4b565b612bb6565b50505b612e18612e09846109ae565b612e12846109ae565b836120a4565b505050565b600073ffffffffffffffffffffffffffffffffffffffff168373ffffffffffffffffffffffffffffffffffffffff16148015612e6d5750612e5c612fb6565b6bffffffffffffffffffffffff1682105b8015612e8a5750612e88826007612c4390919063ffffffff16565b155b15612ee75760018114612ed2576040517f08c379a0000000000000000000000000000000000000000000000000000000008152600401612ec990614c33565b60405180910390fd5b612ee6826007612feb90919063ffffffff16565b5b612ef384848484613029565b50505050565b600080612f0a85600001858561302f565b91509150935093915050565b60005b81831015612f96576000612f2d8484612b25565b9050846bffffffffffffffffffffffff16612f488783612fa1565b60000160009054906101000a90046bffffffffffffffffffffffff166bffffffffffffffffffffffff161015612f8c57600181612f85919061452d565b9350612f90565b8092505b50612f19565b819050949350505050565b60008260005281602060002001905092915050565b6000806000612fc560066133b5565b509150915081612fd6576000612fe4565b600181612fe39190614c6b565b5b9250505090565b6000600882901c9050600060ff83166001901b9050808460000160008481526020019081526020016000206000828254179250508190555050505050565b50505050565b60008060008580549050905060008111156132c557600061305c8760018461305791906144f9565b61200a565b6040518060400160405290816000820160009054906101000a900463ffffffff1663ffffffff1663ffffffff1681526020016000820160049054906101000a90047bffffffffffffffffffffffffffffffffffffffffffffffffffffffff167bffffffffffffffffffffffffffffffffffffffffffffffffffffffff167bffffffffffffffffffffffffffffffffffffffffffffffffffffffff168152505090508563ffffffff16816000015163ffffffff161115613150576040517f08c379a000000000000000000000000000000000000000000000000000000000815260040161314790614cf7565b60405180910390fd5b8563ffffffff16816000015163ffffffff16036131d4578461317e8860018561317991906144f9565b61200a565b60000160046101000a8154817bffffffffffffffffffffffffffffffffffffffffffffffffffffffff02191690837bffffffffffffffffffffffffffffffffffffffffffffffffffffffff1602179055506132b4565b8660405180604001604052808863ffffffff168152602001877bffffffffffffffffffffffffffffffffffffffffffffffffffffffff168152509080600181540180825580915050600190039060005260206000200160009091909190915060008201518160000160006101000a81548163ffffffff021916908363ffffffff16021790555060208201518160000160046101000a8154817bffffffffffffffffffffffffffffffffffffffffffffffffffffffff02191690837bffffffffffffffffffffffffffffffffffffffffffffffffffffffff16021790555050505b8060200151859350935050506133ad565b8560405180604001604052808763ffffffff168152602001867bffffffffffffffffffffffffffffffffffffffffffffffffffffffff168152509080600181540180825580915050600190039060005260206000200160009091909190915060008201518160000160006101000a81548163ffffffff021916908363ffffffff16021790555060208201518160000160046101000a8154817bffffffffffffffffffffffffffffffffffffffffffffffffffffffff02191690837bffffffffffffffffffffffffffffffffffffffffffffffffffffffff160217905550505060008492509250505b935093915050565b60008060008084600001805490509050600081036133de576000806000935093509350506134af565b60006133f9866000016001846133f491906144f9565b612fa1565b6040518060400160405290816000820160009054906101000a90046bffffffffffffffffffffffff166bffffffffffffffffffffffff166bffffffffffffffffffffffff16815260200160008201600c9054906101000a900473ffffffffffffffffffffffffffffffffffffffff1673ffffffffffffffffffffffffffffffffffffffff1673ffffffffffffffffffffffffffffffffffffffff1681525050905060018160000151826020015194509450945050505b9193909250565b6000604051905090565b600080fd5b600080fd5b60007fffffffff0000000000000000000000000000000000000000000000000000000082169050919050565b6134ff816134ca565b811461350a57600080fd5b50565b60008135905061351c816134f6565b92915050565b600060208284031215613538576135376134c0565b5b60006135468482850161350d565b91505092915050565b60008115159050919050565b6135648161354f565b82525050565b600060208201905061357f600083018461355b565b92915050565b600081519050919050565b600082825260208201905092915050565b60005b838110156135bf5780820151818401526020810190506135a4565b60008484015250505050565b6000601f19601f8301169050919050565b60006135e782613585565b6135f18185613590565b93506136018185602086016135a1565b61360a816135cb565b840191505092915050565b6000602082019050818103600083015261362f81846135dc565b905092915050565b6000819050919050565b61364a81613637565b811461365557600080fd5b50565b60008135905061366781613641565b92915050565b600060208284031215613683576136826134c0565b5b600061369184828501613658565b91505092915050565b600073ffffffffffffffffffffffffffffffffffffffff82169050919050565b60006136c58261369a565b9050919050565b6136d5816136ba565b82525050565b60006020820190506136f060008301846136cc565b92915050565b6136ff816136ba565b811461370a57600080fd5b50565b60008135905061371c816136f6565b92915050565b60008060408385031215613739576137386134c0565b5b60006137478582860161370d565b925050602061375885828601613658565b9150509250929050565b60008060006060848603121561377b5761377a6134c0565b5b60006137898682870161370d565b935050602061379a8682870161370d565b92505060406137ab86828701613658565b9150509250925092565b6000819050919050565b6137c8816137b5565b82525050565b60006020820190506137e360008301846137bf565b92915050565b6137f281613637565b82525050565b600060208201905061380d60008301846137e9565b92915050565b600060208284031215613829576138286134c0565b5b60006138378482850161370d565b91505092915050565b60007fff0000000000000000000000000000000000000000000000000000000000000082169050919050565b61387581613840565b82525050565b600081519050919050565b600082825260208201905092915050565b6000819050602082019050919050565b6138b081613637565b82525050565b60006138c283836138a7565b60208301905092915050565b6000602082019050919050565b60006138e68261387b565b6138f08185613886565b93506138fb83613897565b8060005b8381101561392c57815161391388826138b6565b975061391e836138ce565b9250506001810190506138ff565b5085935050505092915050565b600060e08201905061394e600083018a61386c565b818103602083015261396081896135dc565b9050818103604083015261397481886135dc565b905061398360608301876137e9565b61399060808301866136cc565b61399d60a08301856137bf565b81810360c08301526139af81846138db565b905098975050505050505050565b600065ffffffffffff82169050919050565b6139d8816139bd565b82525050565b60006020820190506139f360008301846139cf565b92915050565b613a028161354f565b8114613a0d57600080fd5b50565b600081359050613a1f816139f9565b92915050565b60008060408385031215613a3c57613a3b6134c0565b5b6000613a4a8582860161370d565b9250506020613a5b85828601613a10565b9150509250929050565b600080fd5b600080fd5b7f4e487b7100000000000000000000000000000000000000000000000000000000600052604160045260246000fd5b613aa7826135cb565b810181811067ffffffffffffffff82111715613ac657613ac5613a6f565b5b80604052505050565b6000613ad96134b6565b9050613ae58282613a9e565b919050565b600067ffffffffffffffff821115613b0557613b04613a6f565b5b613b0e826135cb565b9050602081019050919050565b82818337600083830152505050565b6000613b3d613b3884613aea565b613acf565b905082815260208101848484011115613b5957613b58613a6a565b5b613b64848285613b1b565b509392505050565b600082601f830112613b8157613b80613a65565b5b8135613b91848260208601613b2a565b91505092915050565b60008060008060808587031215613bb457613bb36134c0565b5b6000613bc28782880161370d565b9450506020613bd38782880161370d565b9350506040613be487828801613658565b925050606085013567ffffffffffffffff811115613c0557613c046134c5565b5b613c1187828801613b6c565b91505092959194509250565b600060ff82169050919050565b613c3381613c1d565b8114613c3e57600080fd5b50565b600081359050613c5081613c2a565b92915050565b613c5f816137b5565b8114613c6a57600080fd5b50565b600081359050613c7c81613c56565b92915050565b60008060008060008060c08789031215613c9f57613c9e6134c0565b5b6000613cad89828a0161370d565b9650506020613cbe89828a01613658565b9550506040613ccf89828a01613658565b9450506060613ce089828a01613c41565b9350506080613cf189828a01613c6d565b92505060a0613d0289828a01613c6d565b9150509295509295509295565b60008060408385031215613d2657613d256134c0565b5b6000613d348582860161370d565b9250506020613d458582860161370d565b9150509250929050565b7f4e487b7100000000000000000000000000000000000000000000000000000000600052602260045260246000fd5b60006002820490506001821680613d9657607f821691505b602082108103613da957613da8613d4f565b5b50919050565b7f4552433732313a20617070726f76616c20746f2063757272656e74206f776e6560008201527f7200000000000000000000000000000000000000000000000000000000000000602082015250565b6000613e0b602183613590565b9150613e1682613daf565b604082019050919050565b60006020820190508181036000830152613e3a81613dfe565b9050919050565b7f4552433732313a20617070726f76652063616c6c6572206973206e6f7420746f60008201527f6b656e206f776e6572206f7220617070726f76656420666f7220616c6c000000602082015250565b6000613e9d603d83613590565b9150613ea882613e41565b604082019050919050565b60006020820190508181036000830152613ecc81613e90565b9050919050565b7f4552433732313a2063616c6c6572206973206e6f7420746f6b656e206f776e6560008201527f72206f7220617070726f76656400000000000000000000000000000000000000602082015250565b6000613f2f602d83613590565b9150613f3a82613ed3565b604082019050919050565b60006020820190508181036000830152613f5e81613f22565b9050919050565b7f566f7465733a20667574757265206c6f6f6b7570000000000000000000000000600082015250565b6000613f9b601483613590565b9150613fa682613f65565b602082019050919050565b60006020820190508181036000830152613fca81613f8e565b9050919050565b7f4552433732313a20696e76616c696420746f6b656e2049440000000000000000600082015250565b6000614007601883613590565b915061401282613fd1565b602082019050919050565b6000602082019050818103600083015261403681613ffa565b9050919050565b7f4552433732313a2061646472657373207a65726f206973206e6f74206120766160008201527f6c6964206f776e65720000000000000000000000000000000000000000000000602082015250565b6000614099602983613590565b91506140a48261403d565b604082019050919050565b600060208201905081810360008301526140c88161408c565b9050919050565b7f566f7465733a207369676e617475726520657870697265640000000000000000600082015250565b6000614105601883613590565b9150614110826140cf565b602082019050919050565b60006020820190508181036000830152614134816140f8565b9050919050565b600060808201905061415060008301876137bf565b61415d60208301866136cc565b61416a60408301856137e9565b61417760608301846137e9565b95945050505050565b7f566f7465733a20696e76616c6964206e6f6e6365000000000000000000000000600082015250565b60006141b6601483613590565b91506141c182614180565b602082019050919050565b600060208201905081810360008301526141e5816141a9565b9050919050565b600081905092915050565b600061420282613585565b61420c81856141ec565b935061421c8185602086016135a1565b80840191505092915050565b600061423482856141f7565b915061424082846141f7565b91508190509392505050565b60007bffffffffffffffffffffffffffffffffffffffffffffffffffffffff82169050919050565b7f4e487b7100000000000000000000000000000000000000000000000000000000600052601160045260246000fd5b60006142ae8261424c565b91506142b98361424c565b925082820390507bffffffffffffffffffffffffffffffffffffffffffffffffffffffff8111156142ed576142ec614274565b5b92915050565b60006142fe8261424c565b91506143098361424c565b925082820190507bffffffffffffffffffffffffffffffffffffffffffffffffffffffff81111561433d5761433c614274565b5b92915050565b7f4552433732313a207472616e736665722066726f6d20696e636f72726563742060008201527f6f776e6572000000000000000000000000000000000000000000000000000000602082015250565b600061439f602583613590565b91506143aa82614343565b604082019050919050565b600060208201905081810360008301526143ce81614392565b9050919050565b7f4552433732313a207472616e7366657220746f20746865207a65726f2061646460008201527f7265737300000000000000000000000000000000000000000000000000000000602082015250565b6000614431602483613590565b915061443c826143d5565b604082019050919050565b6000602082019050818103600083015261446081614424565b9050919050565b7f53616665436173743a2076616c756520646f65736e27742066697420696e203360008201527f3220626974730000000000000000000000000000000000000000000000000000602082015250565b60006144c3602683613590565b91506144ce82614467565b604082019050919050565b600060208201905081810360008301526144f2816144b6565b9050919050565b600061450482613637565b915061450f83613637565b925082820390508181111561452757614526614274565b5b92915050565b600061453882613637565b915061454383613637565b925082820190508082111561455b5761455a614274565b5b92915050565b7f53616665436173743a2076616c756520646f65736e27742066697420696e203460008201527f3820626974730000000000000000000000000000000000000000000000000000602082015250565b60006145bd602683613590565b91506145c882614561565b604082019050919050565b600060208201905081810360008301526145ec816145b0565b9050919050565b7f4552433732313a20617070726f766520746f2063616c6c657200000000000000600082015250565b6000614629601983613590565b9150614634826145f3565b602082019050919050565b600060208201905081810360008301526146588161461c565b9050919050565b7f4552433732313a207472616e7366657220746f206e6f6e20455243373231526560008201527f63656976657220696d706c656d656e7465720000000000000000000000000000602082015250565b60006146bb603283613590565b91506146c68261465f565b604082019050919050565b600060208201905081810360008301526146ea816146ae565b9050919050565b7f4e487b7100000000000000000000000000000000000000000000000000000000600052601260045260246000fd5b600060a08201905061473560008301886137bf565b61474260208301876137bf565b61474f60408301866137bf565b61475c60608301856137e9565b61476960808301846136cc565b9695505050505050565b600060408201905061478860008301856137e9565b61479560208301846137e9565b9392505050565b600081519050919050565b600082825260208201905092915050565b60006147c38261479c565b6147cd81856147a7565b93506147dd8185602086016135a1565b6147e6816135cb565b840191505092915050565b600060808201905061480660008301876136cc565b61481360208301866136cc565b61482060408301856137e9565b818103606083015261483281846147b8565b905095945050505050565b60008151905061484c816134f6565b92915050565b600060208284031215614868576148676134c0565b5b60006148768482850161483d565b91505092915050565b61488881613c1d565b82525050565b60006080820190506148a360008301876137bf565b6148b0602083018661487f565b6148bd60408301856137bf565b6148ca60608301846137bf565b95945050505050565b7f4e487b7100000000000000000000000000000000000000000000000000000000600052602160045260246000fd5b7f45434453413a20696e76616c6964207369676e61747572650000000000000000600082015250565b6000614938601883613590565b915061494382614902565b602082019050919050565b600060208201905081810360008301526149678161492b565b9050919050565b7f45434453413a20696e76616c6964207369676e6174757265206c656e67746800600082015250565b60006149a4601f83613590565b91506149af8261496e565b602082019050919050565b600060208201905081810360008301526149d381614997565b9050919050565b7f45434453413a20696e76616c6964207369676e6174757265202773272076616c60008201527f7565000000000000000000000000000000000000000000000000000000000000602082015250565b6000614a36602283613590565b9150614a41826149da565b604082019050919050565b60006020820190508181036000830152614a6581614a29565b9050919050565b7f4552433732315061757361626c653a20746f6b656e207472616e73666572207760008201527f68696c6520706175736564000000000000000000000000000000000000000000602082015250565b6000614ac8602b83613590565b9150614ad382614a6c565b604082019050919050565b60006020820190508181036000830152614af781614abb565b9050919050565b6000614b0982613637565b9150614b1483613637565b925082614b2457614b236146f1565b5b828204905092915050565b7f53616665436173743a2076616c756520646f65736e27742066697420696e203260008201527f3234206269747300000000000000000000000000000000000000000000000000602082015250565b6000614b8b602783613590565b9150614b9682614b2f565b604082019050919050565b60006020820190508181036000830152614bba81614b7e565b9050919050565b7f455243373231436f6e73656375746976653a206261746368206275726e206e6f60008201527f7420737570706f72746564000000000000000000000000000000000000000000602082015250565b6000614c1d602b83613590565b9150614c2882614bc1565b604082019050919050565b60006020820190508181036000830152614c4c81614c10565b9050919050565b60006bffffffffffffffffffffffff82169050919050565b6000614c7682614c53565b9150614c8183614c53565b925082820190506bffffffffffffffffffffffff811115614ca557614ca4614274565b5b92915050565b7f436865636b706f696e743a2064656372656173696e67206b6579730000000000600082015250565b6000614ce1601b83613590565b9150614cec82614cab565b602082019050919050565b60006020820190508181036000830152614d1081614cd4565b905091905056fea2646970667358221220764537cf1057c987bfcf5b505b5747a4e8d7c71da9f0e7d04d87fb135fd2e5ca64736f6c63430008130033",
  "immutableReferences": {
    "32538": [
      {
        "length": 32,
        "start": 5798
      }
    ],
    "32540": [
      {
        "length": 32,
        "start": 5757
      }
    ],
    "32542": [
      {
        "length": 32,
        "start": 5671
      }
    ],
    "32545": [
      {
        "length": 32,
        "start": 3048
      }
    ],
    "32548": [
      {
        "length": 32,
        "start": 3100
      }
    ],
    "32554": [
      {
        "length": 32,
        "start": 7840
      }
    ],
    "32556": [
      {
        "length": 32,
        "start": 7873
      }
    ]
  },
  "source": "// SPDX-License-Identifier: MIT\r\n\r\npragma solidity ^0.8.0;\r\n\r\nimport \"../../token/ERC721/extensions/ERC721Consecutive.sol\";\r\nimport \"../../token/ERC721/extensions/ERC721Enumerable.sol\";\r\nimport \"../../token/ERC721/extensions/ERC721Pausable.sol\";\r\nimport \"../../token/ERC721/extensions/draft-ERC721Votes.sol\";\r\n\r\n/**\r\n * @title ERC721ConsecutiveMock\r\n */\r\ncontract ERC721ConsecutiveMock is ERC721Consecutive, ERC721Pausable, ERC721Votes {\r\n    constructor(\r\n        string memory name,\r\n        string memory symbol,\r\n        address[] memory delegates,\r\n        address[] memory receivers,\r\n        uint96[] memory amounts\r\n    ) ERC721(name, symbol) EIP712(name, \"1\") {\r\n        for (uint256 i = 0; i < delegates.length; ++i) {\r\n            _delegate(delegates[i], delegates[i]);\r\n        }\r\n\r\n        for (uint256 i = 0; i < receivers.length; ++i) {\r\n            _mintConsecutive(receivers[i], amounts[i]);\r\n        }\r\n    }\r\n\r\n    function _ownerOf(uint256 tokenId) internal view virtual override(ERC721, ERC721Consecutive) returns (address) {\r\n        return super._ownerOf(tokenId);\r\n    }\r\n\r\n    function _mint(address to, uint256 tokenId) internal virtual override(ERC721, ERC721Consecutive) {\r\n        super._mint(to, tokenId);\r\n    }\r\n\r\n    function _beforeTokenTransfer(\r\n        address from,\r\n        address to,\r\n        uint256 firstTokenId,\r\n        uint256 batchSize\r\n    ) internal virtual override(ERC721, ERC721Pausable) {\r\n        super._beforeTokenTransfer(from, to, firstTokenId, batchSize);\r\n    }\r\n\r\n    function _afterTokenTransfer(\r\n        address from,\r\n        address to,\r\n        uint256 firstTokenId,\r\n        uint256 batchSize\r\n    ) internal virtual override(ERC721, ERC721Votes, ERC721Consecutive) {\r\n        super._afterTokenTransfer(from, to, firstTokenId, batchSize);\r\n    }\r\n}\r\n\r\ncontract ERC721ConsecutiveNoConstructorMintMock is ERC721Consecutive {\r\n    constructor(string memory name, string memory symbol) ERC721(name, symbol) {\r\n        _mint(msg.sender, 0);\r\n    }\r\n}\r\n",
  "sourcePath": "C:\\Users\\akqjq\\Desktop\\S08P22A308\\smart-contracts\\contracts\\mocks\\token\\ERC721ConsecutiveMock.sol",
  "compiler": {
    "name": "solc",
    "version": "0.8.19+commit.7dd6d404.Emscripten.clang"
  },
  "schemaVersion": "3.4.13",
  "updatedAt": "2023-03-22T16:34:02.888Z",
  "devdoc": {
    "events": {
      "Approval(address,address,uint256)": {
        "details": "Emitted when `owner` enables `approved` to manage the `tokenId` token."
      },
      "ApprovalForAll(address,address,bool)": {
        "details": "Emitted when `owner` enables or disables (`approved`) `operator` to manage all of its assets."
      },
      "ConsecutiveTransfer(uint256,uint256,address,address)": {
        "details": "Emitted when the tokens from `fromTokenId` to `toTokenId` are transferred from `fromAddress` to `toAddress`."
      },
      "DelegateChanged(address,address,address)": {
        "details": "Emitted when an account changes their delegate."
      },
      "DelegateVotesChanged(address,uint256,uint256)": {
        "details": "Emitted when a token transfer or delegate change results in changes to a delegate's number of votes."
      },
      "EIP712DomainChanged()": {
        "details": "MAY be emitted to signal that the domain could have changed."
      },
      "Paused(address)": {
        "details": "Emitted when the pause is triggered by `account`."
      },
      "Transfer(address,address,uint256)": {
        "details": "Emitted when `tokenId` token is transferred from `from` to `to`."
      },
      "Unpaused(address)": {
        "details": "Emitted when the pause is lifted by `account`."
      }
    },
    "kind": "dev",
    "methods": {
      "CLOCK_MODE()": {
        "details": "Machine-readable description of the clock as specified in EIP-6372."
      },
      "DOMAIN_SEPARATOR()": {
        "details": "Returns the contract's {EIP712} domain separator."
      },
      "approve(address,uint256)": {
        "details": "See {IERC721-approve}."
      },
      "balanceOf(address)": {
        "details": "See {IERC721-balanceOf}."
      },
      "clock()": {
        "details": "Clock used for flagging checkpoints. Can be overridden to implement timestamp based checkpoints (and voting), in which case {CLOCK_MODE} should be overridden as well to match."
      },
      "delegate(address)": {
        "details": "Delegates votes from the sender to `delegatee`."
      },
      "delegateBySig(address,uint256,uint256,uint8,bytes32,bytes32)": {
        "details": "Delegates votes from signer to `delegatee`."
      },
      "delegates(address)": {
        "details": "Returns the delegate that `account` has chosen."
      },
      "eip712Domain()": {
        "details": "See {EIP-5267}."
      },
      "getApproved(uint256)": {
        "details": "See {IERC721-getApproved}."
      },
      "getPastTotalSupply(uint256)": {
        "details": "Returns the total supply of votes available at a specific moment in the past. If the `clock()` is configured to use block numbers, this will return the value the end of the corresponding block. NOTE: This value is the sum of all available votes, which is not necessarily the sum of all delegated votes. Votes that have not been delegated are still part of total supply, even though they would not participate in a vote. Requirements: - `timepoint` must be in the past. If operating using block numbers, the block must be already mined."
      },
      "getPastVotes(address,uint256)": {
        "details": "Returns the amount of votes that `account` had at a specific moment in the past. If the `clock()` is configured to use block numbers, this will return the value the end of the corresponding block. Requirements: - `timepoint` must be in the past. If operating using block numbers, the block must be already mined."
      },
      "getVotes(address)": {
        "details": "Returns the current amount of votes that `account` has."
      },
      "isApprovedForAll(address,address)": {
        "details": "See {IERC721-isApprovedForAll}."
      },
      "name()": {
        "details": "See {IERC721Metadata-name}."
      },
      "nonces(address)": {
        "details": "Returns an address nonce."
      },
      "ownerOf(uint256)": {
        "details": "See {IERC721-ownerOf}."
      },
      "paused()": {
        "details": "Returns true if the contract is paused, and false otherwise."
      },
      "safeTransferFrom(address,address,uint256)": {
        "details": "See {IERC721-safeTransferFrom}."
      },
      "safeTransferFrom(address,address,uint256,bytes)": {
        "details": "See {IERC721-safeTransferFrom}."
      },
      "setApprovalForAll(address,bool)": {
        "details": "See {IERC721-setApprovalForAll}."
      },
      "supportsInterface(bytes4)": {
        "details": "See {IERC165-supportsInterface}."
      },
      "symbol()": {
        "details": "See {IERC721Metadata-symbol}."
      },
      "tokenURI(uint256)": {
        "details": "See {IERC721Metadata-tokenURI}."
      },
      "transferFrom(address,address,uint256)": {
        "details": "See {IERC721-transferFrom}."
      }
    },
    "title": "ERC721ConsecutiveMock",
    "version": 1
  },
  "userdoc": {
    "kind": "user",
    "methods": {},
    "version": 1
  }
}