{
  "contractName": "Implementation3",
  "abi": [
    {
      "anonymous": false,
      "inputs": [
        {
          "indexed": false,
          "internalType": "uint8",
          "name": "version",
          "type": "uint8"
        }
      ],
      "name": "Initialized",
      "type": "event"
    },
    {
      "inputs": [],
      "name": "initialize",
      "outputs": [],
      "stateMutability": "nonpayable",
      "type": "function"
    },
    {
      "inputs": [
        {
          "internalType": "uint256",
          "name": "_number",
          "type": "uint256"
        }
      ],
      "name": "setValue",
      "outputs": [],
      "stateMutability": "nonpayable",
      "type": "function"
    },
    {
      "inputs": [
        {
          "internalType": "uint256",
          "name": "_number",
          "type": "uint256"
        }
      ],
      "name": "getValue",
      "outputs": [
        {
          "internalType": "uint256",
          "name": "",
          "type": "uint256"
        }
      ],
      "stateMutability": "view",
      "type": "function"
    }
  ],
  "bytecode": "0x608060405234801561001057600080fd5b50610451806100206000396000f3fe608060405234801561001057600080fd5b50600436106100415760003560e01c80630ff4c9161461004657806355241077146100765780638129fc1c14610092575b600080fd5b610060600480360381019061005b9190610251565b61009c565b60405161006d919061028d565b60405180910390f35b610090600480360381019061008b9190610251565b6100b3565b005b61009a6100bd565b005b6000816001546100ac91906102d7565b9050919050565b8060018190555050565b60008060019054906101000a900460ff161590508080156100ee5750600160008054906101000a900460ff1660ff16105b8061011b57506100fd306101f3565b15801561011a5750600160008054906101000a900460ff1660ff16145b5b61015a576040517f08c379a00000000000000000000000000000000000000000000000000000000081526004016101519061038e565b60405180910390fd5b60016000806101000a81548160ff021916908360ff1602179055508015610197576001600060016101000a81548160ff0219169083151502179055505b80156101f05760008060016101000a81548160ff0219169083151502179055507f7f26b83ff96e1f2b6a682f133852f6798a09c465da95921460cefb384740249860016040516101e79190610400565b60405180910390a15b50565b6000808273ffffffffffffffffffffffffffffffffffffffff163b119050919050565b600080fd5b6000819050919050565b61022e8161021b565b811461023957600080fd5b50565b60008135905061024b81610225565b92915050565b60006020828403121561026757610266610216565b5b60006102758482850161023c565b91505092915050565b6102878161021b565b82525050565b60006020820190506102a2600083018461027e565b92915050565b7f4e487b7100000000000000000000000000000000000000000000000000000000600052601160045260246000fd5b60006102e28261021b565b91506102ed8361021b565b9250828201905080821115610305576103046102a8565b5b92915050565b600082825260208201905092915050565b7f496e697469616c697a61626c653a20636f6e747261637420697320616c72656160008201527f647920696e697469616c697a6564000000000000000000000000000000000000602082015250565b6000610378602e8361030b565b91506103838261031c565b604082019050919050565b600060208201905081810360008301526103a78161036b565b9050919050565b6000819050919050565b600060ff82169050919050565b6000819050919050565b60006103ea6103e56103e0846103ae565b6103c5565b6103b8565b9050919050565b6103fa816103cf565b82525050565b600060208201905061041560008301846103f1565b9291505056fea2646970667358221220e50bd4a52fed6685fcf5df3c7a977b2fad277ee0b4b4121e03121e4d3ae7167c64736f6c63430008130033",
  "immutableReferences": {},
  "source": "// SPDX-License-Identifier: MIT\r\n\r\npragma solidity ^0.8.0;\r\n\r\nimport \"../proxy/utils/Initializable.sol\";\r\n\r\ncontract Implementation1 is Initializable {\r\n    uint256 internal _value;\r\n\r\n    function initialize() public initializer {}\r\n\r\n    function setValue(uint256 _number) public {\r\n        _value = _number;\r\n    }\r\n}\r\n\r\ncontract Implementation2 is Initializable {\r\n    uint256 internal _value;\r\n\r\n    function initialize() public initializer {}\r\n\r\n    function setValue(uint256 _number) public {\r\n        _value = _number;\r\n    }\r\n\r\n    function getValue() public view returns (uint256) {\r\n        return _value;\r\n    }\r\n}\r\n\r\ncontract Implementation3 is Initializable {\r\n    uint256 internal _value;\r\n\r\n    function initialize() public initializer {}\r\n\r\n    function setValue(uint256 _number) public {\r\n        _value = _number;\r\n    }\r\n\r\n    function getValue(uint256 _number) public view returns (uint256) {\r\n        return _value + _number;\r\n    }\r\n}\r\n\r\ncontract Implementation4 is Initializable {\r\n    uint256 internal _value;\r\n\r\n    function initialize() public initializer {}\r\n\r\n    function setValue(uint256 _number) public {\r\n        _value = _number;\r\n    }\r\n\r\n    function getValue() public view returns (uint256) {\r\n        return _value;\r\n    }\r\n\r\n    fallback() external {\r\n        _value = 1;\r\n    }\r\n}\r\n",
  "sourcePath": "C:\\Users\\SSAFY\\Desktop\\S08P22A308\\smart-contracts\\contracts\\mocks\\RegressionImplementation.sol",
  "compiler": {
    "name": "solc",
    "version": "0.8.19+commit.7dd6d404.Emscripten.clang"
  },
  "schemaVersion": "3.4.13",
  "updatedAt": "2023-03-23T05:45:08.300Z",
  "devdoc": {
    "events": {
      "Initialized(uint8)": {
        "details": "Triggered when the contract has been initialized or reinitialized."
      }
    },
    "kind": "dev",
    "methods": {},
    "version": 1
  },
  "userdoc": {
    "kind": "user",
    "methods": {},
    "version": 1
  }
}