{
  "contractName": "LibArbitrumL2",
  "abi": [
    {
      "inputs": [],
      "name": "ARBSYS",
      "outputs": [
        {
          "internalType": "address",
          "name": "",
          "type": "address"
        }
      ],
      "stateMutability": "view",
      "type": "function"
    }
  ],
  "bytecode": "0x60e3610052600b82828239805160001a607314610045577f4e487b7100000000000000000000000000000000000000000000000000000000600052600060045260246000fd5b30600052607381538281f3fe730000000000000000000000000000000000000000301460806040526004361060335760003560e01c8063bf0a12cf146038575b600080fd5b603e6052565b604051604991906094565b60405180910390f35b606481565b600073ffffffffffffffffffffffffffffffffffffffff82169050919050565b60006080826057565b9050919050565b608e816077565b82525050565b600060208201905060a760008301846087565b9291505056fea2646970667358221220c9882c369b0de1c21bae53098af47fd346dad618b30000c376ca1ea4bf68ebb364736f6c63430008130033",
  "immutableReferences": {},
  "source": "// SPDX-License-Identifier: MIT\r\n// OpenZeppelin Contracts (last updated v4.8.0) (crosschain/arbitrum/LibArbitrumL2.sol)\r\n\r\npragma solidity ^0.8.4;\r\n\r\nimport {IArbSys as ArbitrumL2_Bridge} from \"../../vendor/arbitrum/IArbSys.sol\";\r\nimport \"../errors.sol\";\r\n\r\n/**\r\n * @dev Primitives for cross-chain aware contracts for\r\n * https://arbitrum.io/[Arbitrum].\r\n *\r\n * This version should only be used on L2 to process cross-chain messages\r\n * originating from L1. For the other side, use {LibArbitrumL1}.\r\n *\r\n * WARNING: There is currently a bug in Arbitrum that causes this contract to\r\n * fail to detect cross-chain calls when deployed behind a proxy. This will be\r\n * fixed when the network is upgraded to Arbitrum Nitro, currently scheduled for\r\n * August 31st 2022.\r\n */\r\nlibrary LibArbitrumL2 {\r\n    /**\r\n     * @dev Returns whether the current function call is the result of a\r\n     * cross-chain message relayed by `arbsys`.\r\n     */\r\n    address public constant ARBSYS = 0x0000000000000000000000000000000000000064;\r\n\r\n    function isCrossChain(address arbsys) internal view returns (bool) {\r\n        return ArbitrumL2_Bridge(arbsys).wasMyCallersAddressAliased();\r\n    }\r\n\r\n    /**\r\n     * @dev Returns the address of the sender that triggered the current\r\n     * cross-chain message through `arbsys`.\r\n     *\r\n     * NOTE: {isCrossChain} should be checked before trying to recover the\r\n     * sender, as it will revert with `NotCrossChainCall` if the current\r\n     * function call is not the result of a cross-chain message.\r\n     */\r\n    function crossChainSender(address arbsys) internal view returns (address) {\r\n        if (!isCrossChain(arbsys)) revert NotCrossChainCall();\r\n\r\n        return ArbitrumL2_Bridge(arbsys).myCallersAddressWithoutAliasing();\r\n    }\r\n}\r\n",
  "sourcePath": "C:\\Users\\akqjq\\Desktop\\S08P22A308\\smart-contracts\\contracts\\crosschain\\arbitrum\\LibArbitrumL2.sol",
  "compiler": {
    "name": "solc",
    "version": "0.8.19+commit.7dd6d404.Emscripten.clang"
  },
  "schemaVersion": "3.4.13",
  "updatedAt": "2023-03-22T16:34:02.559Z",
  "devdoc": {
    "details": "Primitives for cross-chain aware contracts for https://arbitrum.io/[Arbitrum]. This version should only be used on L2 to process cross-chain messages originating from L1. For the other side, use {LibArbitrumL1}. WARNING: There is currently a bug in Arbitrum that causes this contract to fail to detect cross-chain calls when deployed behind a proxy. This will be fixed when the network is upgraded to Arbitrum Nitro, currently scheduled for August 31st 2022.",
    "kind": "dev",
    "methods": {},
    "stateVariables": {
      "ARBSYS": {
        "details": "Returns whether the current function call is the result of a cross-chain message relayed by `arbsys`."
      }
    },
    "version": 1
  },
  "userdoc": {
    "kind": "user",
    "methods": {},
    "version": 1
  }
}