{
  "contractName": "MongttangNFT",
  "abi": [
    {
      "inputs": [
        {
          "internalType": "address",
          "name": "_erc20Address",
          "type": "address"
        }
      ],
      "stateMutability": "nonpayable",
      "type": "constructor"
    },
    {
      "anonymous": false,
      "inputs": [
        {
          "indexed": true,
          "internalType": "address",
          "name": "owner",
          "type": "address"
        },
        {
          "indexed": true,
          "internalType": "address",
          "name": "approved",
          "type": "address"
        },
        {
          "indexed": true,
          "internalType": "uint256",
          "name": "tokenId",
          "type": "uint256"
        }
      ],
      "name": "Approval",
      "type": "event"
    },
    {
      "anonymous": false,
      "inputs": [
        {
          "indexed": true,
          "internalType": "address",
          "name": "owner",
          "type": "address"
        },
        {
          "indexed": true,
          "internalType": "address",
          "name": "operator",
          "type": "address"
        },
        {
          "indexed": false,
          "internalType": "bool",
          "name": "approved",
          "type": "bool"
        }
      ],
      "name": "ApprovalForAll",
      "type": "event"
    },
    {
      "anonymous": false,
      "inputs": [
        {
          "indexed": true,
          "internalType": "address",
          "name": "previousOwner",
          "type": "address"
        },
        {
          "indexed": true,
          "internalType": "address",
          "name": "newOwner",
          "type": "address"
        }
      ],
      "name": "OwnershipTransferred",
      "type": "event"
    },
    {
      "anonymous": false,
      "inputs": [
        {
          "indexed": true,
          "internalType": "address",
          "name": "from",
          "type": "address"
        },
        {
          "indexed": true,
          "internalType": "address",
          "name": "to",
          "type": "address"
        },
        {
          "indexed": true,
          "internalType": "uint256",
          "name": "tokenId",
          "type": "uint256"
        }
      ],
      "name": "Transfer",
      "type": "event"
    },
    {
      "inputs": [
        {
          "internalType": "address",
          "name": "to",
          "type": "address"
        },
        {
          "internalType": "uint256",
          "name": "tokenId",
          "type": "uint256"
        }
      ],
      "name": "approve",
      "outputs": [],
      "stateMutability": "nonpayable",
      "type": "function"
    },
    {
      "inputs": [
        {
          "internalType": "address",
          "name": "owner",
          "type": "address"
        }
      ],
      "name": "balanceOf",
      "outputs": [
        {
          "internalType": "uint256",
          "name": "",
          "type": "uint256"
        }
      ],
      "stateMutability": "view",
      "type": "function"
    },
    {
      "inputs": [
        {
          "internalType": "uint256",
          "name": "tokenId",
          "type": "uint256"
        }
      ],
      "name": "getApproved",
      "outputs": [
        {
          "internalType": "address",
          "name": "",
          "type": "address"
        }
      ],
      "stateMutability": "view",
      "type": "function"
    },
    {
      "inputs": [
        {
          "internalType": "address",
          "name": "owner",
          "type": "address"
        },
        {
          "internalType": "address",
          "name": "operator",
          "type": "address"
        }
      ],
      "name": "isApprovedForAll",
      "outputs": [
        {
          "internalType": "bool",
          "name": "",
          "type": "bool"
        }
      ],
      "stateMutability": "view",
      "type": "function"
    },
    {
      "inputs": [],
      "name": "name",
      "outputs": [
        {
          "internalType": "string",
          "name": "",
          "type": "string"
        }
      ],
      "stateMutability": "view",
      "type": "function"
    },
    {
      "inputs": [],
      "name": "owner",
      "outputs": [
        {
          "internalType": "address",
          "name": "",
          "type": "address"
        }
      ],
      "stateMutability": "view",
      "type": "function"
    },
    {
      "inputs": [
        {
          "internalType": "uint256",
          "name": "tokenId",
          "type": "uint256"
        }
      ],
      "name": "ownerOf",
      "outputs": [
        {
          "internalType": "address",
          "name": "",
          "type": "address"
        }
      ],
      "stateMutability": "view",
      "type": "function"
    },
    {
      "inputs": [],
      "name": "renounceOwnership",
      "outputs": [],
      "stateMutability": "nonpayable",
      "type": "function"
    },
    {
      "inputs": [
        {
          "internalType": "address",
          "name": "from",
          "type": "address"
        },
        {
          "internalType": "address",
          "name": "to",
          "type": "address"
        },
        {
          "internalType": "uint256",
          "name": "tokenId",
          "type": "uint256"
        }
      ],
      "name": "safeTransferFrom",
      "outputs": [],
      "stateMutability": "nonpayable",
      "type": "function"
    },
    {
      "inputs": [
        {
          "internalType": "address",
          "name": "from",
          "type": "address"
        },
        {
          "internalType": "address",
          "name": "to",
          "type": "address"
        },
        {
          "internalType": "uint256",
          "name": "tokenId",
          "type": "uint256"
        },
        {
          "internalType": "bytes",
          "name": "data",
          "type": "bytes"
        }
      ],
      "name": "safeTransferFrom",
      "outputs": [],
      "stateMutability": "nonpayable",
      "type": "function"
    },
    {
      "inputs": [
        {
          "internalType": "address",
          "name": "operator",
          "type": "address"
        },
        {
          "internalType": "bool",
          "name": "approved",
          "type": "bool"
        }
      ],
      "name": "setApprovalForAll",
      "outputs": [],
      "stateMutability": "nonpayable",
      "type": "function"
    },
    {
      "inputs": [
        {
          "internalType": "bytes4",
          "name": "interfaceId",
          "type": "bytes4"
        }
      ],
      "name": "supportsInterface",
      "outputs": [
        {
          "internalType": "bool",
          "name": "",
          "type": "bool"
        }
      ],
      "stateMutability": "view",
      "type": "function"
    },
    {
      "inputs": [],
      "name": "symbol",
      "outputs": [
        {
          "internalType": "string",
          "name": "",
          "type": "string"
        }
      ],
      "stateMutability": "view",
      "type": "function"
    },
    {
      "inputs": [
        {
          "internalType": "address",
          "name": "from",
          "type": "address"
        },
        {
          "internalType": "address",
          "name": "to",
          "type": "address"
        },
        {
          "internalType": "uint256",
          "name": "tokenId",
          "type": "uint256"
        }
      ],
      "name": "transferFrom",
      "outputs": [],
      "stateMutability": "nonpayable",
      "type": "function"
    },
    {
      "inputs": [
        {
          "internalType": "address",
          "name": "newOwner",
          "type": "address"
        }
      ],
      "name": "transferOwnership",
      "outputs": [],
      "stateMutability": "nonpayable",
      "type": "function"
    },
    {
      "inputs": [
        {
          "internalType": "uint256",
          "name": "tokenId",
          "type": "uint256"
        }
      ],
      "name": "tokenURI",
      "outputs": [
        {
          "internalType": "string",
          "name": "",
          "type": "string"
        }
      ],
      "stateMutability": "view",
      "type": "function"
    },
    {
      "inputs": [
        {
          "internalType": "address",
          "name": "to",
          "type": "address"
        },
        {
          "internalType": "string",
          "name": "_tokenURI",
          "type": "string"
        }
      ],
      "name": "create",
      "outputs": [
        {
          "internalType": "uint256",
          "name": "",
          "type": "uint256"
        }
      ],
      "stateMutability": "nonpayable",
      "type": "function"
    },
    {
      "inputs": [
        {
          "internalType": "uint256",
          "name": "tokenId",
          "type": "uint256"
        },
        {
          "internalType": "uint256",
          "name": "amount",
          "type": "uint256"
        }
      ],
      "name": "deposit",
      "outputs": [],
      "stateMutability": "nonpayable",
      "type": "function"
    },
    {
      "inputs": [
        {
          "internalType": "uint256",
          "name": "tokenId",
          "type": "uint256"
        },
        {
          "internalType": "uint256",
          "name": "amount",
          "type": "uint256"
        }
      ],
      "name": "withdraw",
      "outputs": [],
      "stateMutability": "nonpayable",
      "type": "function"
    },
    {
      "inputs": [
        {
          "internalType": "uint256",
          "name": "tokenId",
          "type": "uint256"
        }
      ],
      "name": "nftBalances",
      "outputs": [
        {
          "internalType": "uint256",
          "name": "",
          "type": "uint256"
        }
      ],
      "stateMutability": "view",
      "type": "function"
    }
  ],
  "bytecode": "0x60806040523480156200001157600080fd5b50604051620037a1380380620037a1833981810160405281019062000037919062000269565b6040518060400160405280600d81526020017f4d6f6e677474616e67426f6f6b000000000000000000000000000000000000008152506040518060400160405280600781526020017f4d5454426f6f6b000000000000000000000000000000000000000000000000008152508160009081620000b4919062000515565b508060019081620000c6919062000515565b505050620000e9620000dd6200013160201b60201c565b6200013960201b60201c565b80600860006101000a81548173ffffffffffffffffffffffffffffffffffffffff021916908373ffffffffffffffffffffffffffffffffffffffff16021790555050620005fc565b600033905090565b6000600660009054906101000a900473ffffffffffffffffffffffffffffffffffffffff16905081600660006101000a81548173ffffffffffffffffffffffffffffffffffffffff021916908373ffffffffffffffffffffffffffffffffffffffff1602179055508173ffffffffffffffffffffffffffffffffffffffff168173ffffffffffffffffffffffffffffffffffffffff167f8be0079c531659141344cd1fd0a4f28419497f9722a3daafe3b4186f6b6457e060405160405180910390a35050565b600080fd5b600073ffffffffffffffffffffffffffffffffffffffff82169050919050565b6000620002318262000204565b9050919050565b620002438162000224565b81146200024f57600080fd5b50565b600081519050620002638162000238565b92915050565b600060208284031215620002825762000281620001ff565b5b6000620002928482850162000252565b91505092915050565b600081519050919050565b7f4e487b7100000000000000000000000000000000000000000000000000000000600052604160045260246000fd5b7f4e487b7100000000000000000000000000000000000000000000000000000000600052602260045260246000fd5b600060028204905060018216806200031d57607f821691505b602082108103620003335762000332620002d5565b5b50919050565b60008190508160005260206000209050919050565b60006020601f8301049050919050565b600082821b905092915050565b6000600883026200039d7fffffffffffffffffffffffffffffffffffffffffffffffffffffffffffffffff826200035e565b620003a986836200035e565b95508019841693508086168417925050509392505050565b6000819050919050565b6000819050919050565b6000620003f6620003f0620003ea84620003c1565b620003cb565b620003c1565b9050919050565b6000819050919050565b6200041283620003d5565b6200042a6200042182620003fd565b8484546200036b565b825550505050565b600090565b6200044162000432565b6200044e81848462000407565b505050565b5b8181101562000476576200046a60008262000437565b60018101905062000454565b5050565b601f821115620004c5576200048f8162000339565b6200049a846200034e565b81016020851015620004aa578190505b620004c2620004b9856200034e565b83018262000453565b50505b505050565b600082821c905092915050565b6000620004ea60001984600802620004ca565b1980831691505092915050565b6000620005058383620004d7565b9150826002028217905092915050565b62000520826200029b565b67ffffffffffffffff8111156200053c576200053b620002a6565b5b62000548825462000304565b620005558282856200047a565b600060209050601f8311600181146200058d576000841562000578578287015190505b620005848582620004f7565b865550620005f4565b601f1984166200059d8662000339565b60005b82811015620005c757848901518255600182019150602085019450602081019050620005a0565b86831015620005e75784890151620005e3601f891682620004d7565b8355505b6001600288020188555050505b505050505050565b613195806200060c6000396000f3fe608060405234801561001057600080fd5b506004361061012c5760003560e01c8063715018a6116100ad578063b88d4fde11610071578063b88d4fde14610341578063c87b56dd1461035d578063e2bbb1581461038d578063e985e9c5146103a9578063f2fde38b146103d95761012c565b8063715018a6146102af5780638da5cb5b146102b957806395d89b41146102d7578063a15ab08d146102f5578063a22cb465146103255761012c565b806342842e0e116100f457806342842e0e146101e7578063441a3e7014610203578063620f8c7d1461021f5780636352211e1461024f57806370a082311461027f5761012c565b806301ffc9a71461013157806306fdde0314610161578063081812fc1461017f578063095ea7b3146101af57806323b872dd146101cb575b600080fd5b61014b60048036038101906101469190611d0c565b6103f5565b6040516101589190611d54565b60405180910390f35b6101696104d7565b6040516101769190611dff565b60405180910390f35b61019960048036038101906101949190611e57565b610569565b6040516101a69190611ec5565b60405180910390f35b6101c960048036038101906101c49190611f0c565b6105af565b005b6101e560048036038101906101e09190611f4c565b6106c6565b005b61020160048036038101906101fc9190611f4c565b610726565b005b61021d60048036038101906102189190611f9f565b610746565b005b61023960048036038101906102349190611e57565b610982565b6040516102469190611fee565b60405180910390f35b61026960048036038101906102649190611e57565b61099f565b6040516102769190611ec5565b60405180910390f35b61029960048036038101906102949190612009565b610a25565b6040516102a69190611fee565b60405180910390f35b6102b7610adc565b005b6102c1610af0565b6040516102ce9190611ec5565b60405180910390f35b6102df610b1a565b6040516102ec9190611dff565b60405180910390f35b61030f600480360381019061030a919061216b565b610bac565b60405161031c9190611fee565b60405180910390f35b61033f600480360381019061033a91906121f3565b610c03565b005b61035b600480360381019061035691906122d4565b610c19565b005b61037760048036038101906103729190611e57565b610c7b565b6040516103849190611dff565b60405180910390f35b6103a760048036038101906103a29190611f9f565b610d20565b005b6103c360048036038101906103be9190612357565b610e8b565b6040516103d09190611d54565b60405180910390f35b6103f360048036038101906103ee9190612009565b610f1f565b005b60007f80ac58cd000000000000000000000000000000000000000000000000000000007bffffffffffffffffffffffffffffffffffffffffffffffffffffffff1916827bffffffffffffffffffffffffffffffffffffffffffffffffffffffff191614806104c057507f5b5e139f000000000000000000000000000000000000000000000000000000007bffffffffffffffffffffffffffffffffffffffffffffffffffffffff1916827bffffffffffffffffffffffffffffffffffffffffffffffffffffffff1916145b806104d057506104cf82610fa2565b5b9050919050565b6060600080546104e6906123c6565b80601f0160208091040260200160405190810160405280929190818152602001828054610512906123c6565b801561055f5780601f106105345761010080835404028352916020019161055f565b820191906000526020600020905b81548152906001019060200180831161054257829003601f168201915b5050505050905090565b60006105748261100c565b6004600083815260200190815260200160002060009054906101000a900473ffffffffffffffffffffffffffffffffffffffff169050919050565b60006105ba8261099f565b90508073ffffffffffffffffffffffffffffffffffffffff168373ffffffffffffffffffffffffffffffffffffffff160361062a576040517f08c379a000000000000000000000000000000000000000000000000000000000815260040161062190612469565b60405180910390fd5b8073ffffffffffffffffffffffffffffffffffffffff16610649611057565b73ffffffffffffffffffffffffffffffffffffffff161480610678575061067781610672611057565b610e8b565b5b6106b7576040517f08c379a00000000000000000000000000000000000000000000000000000000081526004016106ae906124fb565b60405180910390fd5b6106c1838361105f565b505050565b6106d76106d1611057565b82611118565b610716576040517f08c379a000000000000000000000000000000000000000000000000000000000815260040161070d9061258d565b60405180910390fd5b6107218383836111ad565b505050565b61074183838360405180602001604052806000815250610c19565b505050565b60008111610789576040517f08c379a00000000000000000000000000000000000000000000000000000000081526004016107809061261f565b60405180910390fd5b600a6000838152602001908152602001600020548111156107df576040517f08c379a00000000000000000000000000000000000000000000000000000000081526004016107d6906126b1565b60405180910390fd5b6107e88261099f565b73ffffffffffffffffffffffffffffffffffffffff16610806611057565b73ffffffffffffffffffffffffffffffffffffffff161461085c576040517f08c379a000000000000000000000000000000000000000000000000000000000815260040161085390612743565b60405180910390fd5b6000600860009054906101000a900473ffffffffffffffffffffffffffffffffffffffff1673ffffffffffffffffffffffffffffffffffffffff1663a9059cbb6108a4611057565b846040518363ffffffff1660e01b81526004016108c2929190612763565b6020604051808303816000875af11580156108e1573d6000803e3d6000fd5b505050506040513d601f19601f8201168201806040525081019061090591906127a1565b905080610947576040517f08c379a000000000000000000000000000000000000000000000000000000000815260040161093e9061281a565b60405180910390fd5b81600a6000858152602001908152602001600020546109669190612869565b600a600085815260200190815260200160002081905550505050565b6000600a6000838152602001908152602001600020549050919050565b6000806109ab836114a6565b9050600073ffffffffffffffffffffffffffffffffffffffff168173ffffffffffffffffffffffffffffffffffffffff1603610a1c576040517f08c379a0000000000000000000000000000000000000000000000000000000008152600401610a13906128e9565b60405180910390fd5b80915050919050565b60008073ffffffffffffffffffffffffffffffffffffffff168273ffffffffffffffffffffffffffffffffffffffff1603610a95576040517f08c379a0000000000000000000000000000000000000000000000000000000008152600401610a8c9061297b565b60405180910390fd5b600360008373ffffffffffffffffffffffffffffffffffffffff1673ffffffffffffffffffffffffffffffffffffffff168152602001908152602001600020549050919050565b610ae46114e3565b610aee6000611561565b565b6000600660009054906101000a900473ffffffffffffffffffffffffffffffffffffffff16905090565b606060018054610b29906123c6565b80601f0160208091040260200160405190810160405280929190818152602001828054610b55906123c6565b8015610ba25780601f10610b7757610100808354040283529160200191610ba2565b820191906000526020600020905b815481529060010190602001808311610b8557829003601f168201915b5050505050905090565b6000610bb66114e3565b610bc06007611627565b6000610bcc600761163d565b9050610bd8848261164b565b82600960008381526020019081526020016000209081610bf89190612b47565b508091505092915050565b610c15610c0e611057565b8383611669565b5050565b610c2a610c24611057565b83611118565b610c69576040517f08c379a0000000000000000000000000000000000000000000000000000000008152600401610c609061258d565b60405180910390fd5b610c75848484846117d5565b50505050565b6060600960008381526020019081526020016000208054610c9b906123c6565b80601f0160208091040260200160405190810160405280929190818152602001828054610cc7906123c6565b8015610d145780601f10610ce957610100808354040283529160200191610d14565b820191906000526020600020905b815481529060010190602001808311610cf757829003601f168201915b50505050509050919050565b60008111610d63576040517f08c379a0000000000000000000000000000000000000000000000000000000008152600401610d5a9061261f565b60405180910390fd5b6000600860009054906101000a900473ffffffffffffffffffffffffffffffffffffffff1673ffffffffffffffffffffffffffffffffffffffff166323b872dd610dab611057565b30856040518463ffffffff1660e01b8152600401610dcb93929190612c19565b6020604051808303816000875af1158015610dea573d6000803e3d6000fd5b505050506040513d601f19601f82011682018060405250810190610e0e91906127a1565b905080610e50576040517f08c379a0000000000000000000000000000000000000000000000000000000008152600401610e479061281a565b60405180910390fd5b81600a600085815260200190815260200160002054610e6f9190612c50565b600a600085815260200190815260200160002081905550505050565b6000600560008473ffffffffffffffffffffffffffffffffffffffff1673ffffffffffffffffffffffffffffffffffffffff16815260200190815260200160002060008373ffffffffffffffffffffffffffffffffffffffff1673ffffffffffffffffffffffffffffffffffffffff16815260200190815260200160002060009054906101000a900460ff16905092915050565b610f276114e3565b600073ffffffffffffffffffffffffffffffffffffffff168173ffffffffffffffffffffffffffffffffffffffff1603610f96576040517f08c379a0000000000000000000000000000000000000000000000000000000008152600401610f8d90612cf6565b60405180910390fd5b610f9f81611561565b50565b60007f01ffc9a7000000000000000000000000000000000000000000000000000000007bffffffffffffffffffffffffffffffffffffffffffffffffffffffff1916827bffffffffffffffffffffffffffffffffffffffffffffffffffffffff1916149050919050565b61101581611831565b611054576040517f08c379a000000000000000000000000000000000000000000000000000000000815260040161104b906128e9565b60405180910390fd5b50565b600033905090565b816004600083815260200190815260200160002060006101000a81548173ffffffffffffffffffffffffffffffffffffffff021916908373ffffffffffffffffffffffffffffffffffffffff160217905550808273ffffffffffffffffffffffffffffffffffffffff166110d28361099f565b73ffffffffffffffffffffffffffffffffffffffff167f8c5be1e5ebec7d5bd14f71427d1e84f3dd0314c0f7b2291e5b200ac8c7c3b92560405160405180910390a45050565b6000806111248361099f565b90508073ffffffffffffffffffffffffffffffffffffffff168473ffffffffffffffffffffffffffffffffffffffff16148061116657506111658185610e8b565b5b806111a457508373ffffffffffffffffffffffffffffffffffffffff1661118c84610569565b73ffffffffffffffffffffffffffffffffffffffff16145b91505092915050565b8273ffffffffffffffffffffffffffffffffffffffff166111cd8261099f565b73ffffffffffffffffffffffffffffffffffffffff1614611223576040517f08c379a000000000000000000000000000000000000000000000000000000000815260040161121a90612d88565b60405180910390fd5b600073ffffffffffffffffffffffffffffffffffffffff168273ffffffffffffffffffffffffffffffffffffffff1603611292576040517f08c379a000000000000000000000000000000000000000000000000000000000815260040161128990612e1a565b60405180910390fd5b61129f8383836001611872565b8273ffffffffffffffffffffffffffffffffffffffff166112bf8261099f565b73ffffffffffffffffffffffffffffffffffffffff1614611315576040517f08c379a000000000000000000000000000000000000000000000000000000000815260040161130c90612d88565b60405180910390fd5b6004600082815260200190815260200160002060006101000a81549073ffffffffffffffffffffffffffffffffffffffff02191690556001600360008573ffffffffffffffffffffffffffffffffffffffff1673ffffffffffffffffffffffffffffffffffffffff168152602001908152602001600020600082825403925050819055506001600360008473ffffffffffffffffffffffffffffffffffffffff1673ffffffffffffffffffffffffffffffffffffffff16815260200190815260200160002060008282540192505081905550816002600083815260200190815260200160002060006101000a81548173ffffffffffffffffffffffffffffffffffffffff021916908373ffffffffffffffffffffffffffffffffffffffff160217905550808273ffffffffffffffffffffffffffffffffffffffff168473ffffffffffffffffffffffffffffffffffffffff167fddf252ad1be2c89b69c2b068fc378daa952ba7f163c4a11628f55a4df523b3ef60405160405180910390a46114a18383836001611878565b505050565b60006002600083815260200190815260200160002060009054906101000a900473ffffffffffffffffffffffffffffffffffffffff169050919050565b6114eb611057565b73ffffffffffffffffffffffffffffffffffffffff16611509610af0565b73ffffffffffffffffffffffffffffffffffffffff161461155f576040517f08c379a000000000000000000000000000000000000000000000000000000000815260040161155690612e86565b60405180910390fd5b565b6000600660009054906101000a900473ffffffffffffffffffffffffffffffffffffffff16905081600660006101000a81548173ffffffffffffffffffffffffffffffffffffffff021916908373ffffffffffffffffffffffffffffffffffffffff1602179055508173ffffffffffffffffffffffffffffffffffffffff168173ffffffffffffffffffffffffffffffffffffffff167f8be0079c531659141344cd1fd0a4f28419497f9722a3daafe3b4186f6b6457e060405160405180910390a35050565b6001816000016000828254019250508190555050565b600081600001549050919050565b61166582826040518060200160405280600081525061187e565b5050565b8173ffffffffffffffffffffffffffffffffffffffff168373ffffffffffffffffffffffffffffffffffffffff16036116d7576040517f08c379a00000000000000000000000000000000000000000000000000000000081526004016116ce90612ef2565b60405180910390fd5b80600560008573ffffffffffffffffffffffffffffffffffffffff1673ffffffffffffffffffffffffffffffffffffffff16815260200190815260200160002060008473ffffffffffffffffffffffffffffffffffffffff1673ffffffffffffffffffffffffffffffffffffffff16815260200190815260200160002060006101000a81548160ff0219169083151502179055508173ffffffffffffffffffffffffffffffffffffffff168373ffffffffffffffffffffffffffffffffffffffff167f17307eab39ab6107e8899845ad3d59bd9653f200f220920489ca2b5937696c31836040516117c89190611d54565b60405180910390a3505050565b6117e08484846111ad565b6117ec848484846118d9565b61182b576040517f08c379a000000000000000000000000000000000000000000000000000000000815260040161182290612f84565b60405180910390fd5b50505050565b60008073ffffffffffffffffffffffffffffffffffffffff16611853836114a6565b73ffffffffffffffffffffffffffffffffffffffff1614159050919050565b50505050565b50505050565b6118888383611a60565b61189560008484846118d9565b6118d4576040517f08c379a00000000000000000000000000000000000000000000000000000000081526004016118cb90612f84565b60405180910390fd5b505050565b60006118fa8473ffffffffffffffffffffffffffffffffffffffff16611c7d565b15611a53578373ffffffffffffffffffffffffffffffffffffffff1663150b7a02611923611057565b8786866040518563ffffffff1660e01b81526004016119459493929190612ff9565b6020604051808303816000875af192505050801561198157506040513d601f19601f8201168201806040525081019061197e919061305a565b60015b611a03573d80600081146119b1576040519150601f19603f3d011682016040523d82523d6000602084013e6119b6565b606091505b5060008151036119fb576040517f08c379a00000000000000000000000000000000000000000000000000000000081526004016119f290612f84565b60405180910390fd5b805181602001fd5b63150b7a0260e01b7bffffffffffffffffffffffffffffffffffffffffffffffffffffffff1916817bffffffffffffffffffffffffffffffffffffffffffffffffffffffff191614915050611a58565b600190505b949350505050565b600073ffffffffffffffffffffffffffffffffffffffff168273ffffffffffffffffffffffffffffffffffffffff1603611acf576040517f08c379a0000000000000000000000000000000000000000000000000000000008152600401611ac6906130d3565b60405180910390fd5b611ad881611831565b15611b18576040517f08c379a0000000000000000000000000000000000000000000000000000000008152600401611b0f9061313f565b60405180910390fd5b611b26600083836001611872565b611b2f81611831565b15611b6f576040517f08c379a0000000000000000000000000000000000000000000000000000000008152600401611b669061313f565b60405180910390fd5b6001600360008473ffffffffffffffffffffffffffffffffffffffff1673ffffffffffffffffffffffffffffffffffffffff16815260200190815260200160002060008282540192505081905550816002600083815260200190815260200160002060006101000a81548173ffffffffffffffffffffffffffffffffffffffff021916908373ffffffffffffffffffffffffffffffffffffffff160217905550808273ffffffffffffffffffffffffffffffffffffffff16600073ffffffffffffffffffffffffffffffffffffffff167fddf252ad1be2c89b69c2b068fc378daa952ba7f163c4a11628f55a4df523b3ef60405160405180910390a4611c79600083836001611878565b5050565b6000808273ffffffffffffffffffffffffffffffffffffffff163b119050919050565b6000604051905090565b600080fd5b600080fd5b60007fffffffff0000000000000000000000000000000000000000000000000000000082169050919050565b611ce981611cb4565b8114611cf457600080fd5b50565b600081359050611d0681611ce0565b92915050565b600060208284031215611d2257611d21611caa565b5b6000611d3084828501611cf7565b91505092915050565b60008115159050919050565b611d4e81611d39565b82525050565b6000602082019050611d696000830184611d45565b92915050565b600081519050919050565b600082825260208201905092915050565b60005b83811015611da9578082015181840152602081019050611d8e565b60008484015250505050565b6000601f19601f8301169050919050565b6000611dd182611d6f565b611ddb8185611d7a565b9350611deb818560208601611d8b565b611df481611db5565b840191505092915050565b60006020820190508181036000830152611e198184611dc6565b905092915050565b6000819050919050565b611e3481611e21565b8114611e3f57600080fd5b50565b600081359050611e5181611e2b565b92915050565b600060208284031215611e6d57611e6c611caa565b5b6000611e7b84828501611e42565b91505092915050565b600073ffffffffffffffffffffffffffffffffffffffff82169050919050565b6000611eaf82611e84565b9050919050565b611ebf81611ea4565b82525050565b6000602082019050611eda6000830184611eb6565b92915050565b611ee981611ea4565b8114611ef457600080fd5b50565b600081359050611f0681611ee0565b92915050565b60008060408385031215611f2357611f22611caa565b5b6000611f3185828601611ef7565b9250506020611f4285828601611e42565b9150509250929050565b600080600060608486031215611f6557611f64611caa565b5b6000611f7386828701611ef7565b9350506020611f8486828701611ef7565b9250506040611f9586828701611e42565b9150509250925092565b60008060408385031215611fb657611fb5611caa565b5b6000611fc485828601611e42565b9250506020611fd585828601611e42565b9150509250929050565b611fe881611e21565b82525050565b60006020820190506120036000830184611fdf565b92915050565b60006020828403121561201f5761201e611caa565b5b600061202d84828501611ef7565b91505092915050565b600080fd5b600080fd5b7f4e487b7100000000000000000000000000000000000000000000000000000000600052604160045260246000fd5b61207882611db5565b810181811067ffffffffffffffff8211171561209757612096612040565b5b80604052505050565b60006120aa611ca0565b90506120b6828261206f565b919050565b600067ffffffffffffffff8211156120d6576120d5612040565b5b6120df82611db5565b9050602081019050919050565b82818337600083830152505050565b600061210e612109846120bb565b6120a0565b90508281526020810184848401111561212a5761212961203b565b5b6121358482856120ec565b509392505050565b600082601f83011261215257612151612036565b5b81356121628482602086016120fb565b91505092915050565b6000806040838503121561218257612181611caa565b5b600061219085828601611ef7565b925050602083013567ffffffffffffffff8111156121b1576121b0611caf565b5b6121bd8582860161213d565b9150509250929050565b6121d081611d39565b81146121db57600080fd5b50565b6000813590506121ed816121c7565b92915050565b6000806040838503121561220a57612209611caa565b5b600061221885828601611ef7565b9250506020612229858286016121de565b9150509250929050565b600067ffffffffffffffff82111561224e5761224d612040565b5b61225782611db5565b9050602081019050919050565b600061227761227284612233565b6120a0565b9050828152602081018484840111156122935761229261203b565b5b61229e8482856120ec565b509392505050565b600082601f8301126122bb576122ba612036565b5b81356122cb848260208601612264565b91505092915050565b600080600080608085870312156122ee576122ed611caa565b5b60006122fc87828801611ef7565b945050602061230d87828801611ef7565b935050604061231e87828801611e42565b925050606085013567ffffffffffffffff81111561233f5761233e611caf565b5b61234b878288016122a6565b91505092959194509250565b6000806040838503121561236e5761236d611caa565b5b600061237c85828601611ef7565b925050602061238d85828601611ef7565b9150509250929050565b7f4e487b7100000000000000000000000000000000000000000000000000000000600052602260045260246000fd5b600060028204905060018216806123de57607f821691505b6020821081036123f1576123f0612397565b5b50919050565b7f4552433732313a20617070726f76616c20746f2063757272656e74206f776e6560008201527f7200000000000000000000000000000000000000000000000000000000000000602082015250565b6000612453602183611d7a565b915061245e826123f7565b604082019050919050565b6000602082019050818103600083015261248281612446565b9050919050565b7f4552433732313a20617070726f76652063616c6c6572206973206e6f7420746f60008201527f6b656e206f776e6572206f7220617070726f76656420666f7220616c6c000000602082015250565b60006124e5603d83611d7a565b91506124f082612489565b604082019050919050565b60006020820190508181036000830152612514816124d8565b9050919050565b7f4552433732313a2063616c6c6572206973206e6f7420746f6b656e206f776e6560008201527f72206f7220617070726f76656400000000000000000000000000000000000000602082015250565b6000612577602d83611d7a565b91506125828261251b565b604082019050919050565b600060208201905081810360008301526125a68161256a565b9050919050565b7f4d6f6e677474616e674e46543a20616d6f756e74206d7573742062652067726560008201527f61746572207468616e2030000000000000000000000000000000000000000000602082015250565b6000612609602b83611d7a565b9150612614826125ad565b604082019050919050565b60006020820190508181036000830152612638816125fc565b9050919050565b7f4d6f6e677474616e674e46543a20616d6f756e742073686f756c64206e6f742060008201527f62652067726561746572207468616e206e667442616c616e6365000000000000602082015250565b600061269b603a83611d7a565b91506126a68261263f565b604082019050919050565b600060208201905081810360008301526126ca8161268e565b9050919050565b7f4d6f6e677474616e674e46543a204f6e6c79206f776e65722063616e2077697460008201527f6864726177000000000000000000000000000000000000000000000000000000602082015250565b600061272d602583611d7a565b9150612738826126d1565b604082019050919050565b6000602082019050818103600083015261275c81612720565b9050919050565b60006040820190506127786000830185611eb6565b6127856020830184611fdf565b9392505050565b60008151905061279b816121c7565b92915050565b6000602082840312156127b7576127b6611caa565b5b60006127c58482850161278c565b91505092915050565b7f4d794e46543a204552433230207472616e73666572206661696c656400000000600082015250565b6000612804601c83611d7a565b915061280f826127ce565b602082019050919050565b60006020820190508181036000830152612833816127f7565b9050919050565b7f4e487b7100000000000000000000000000000000000000000000000000000000600052601160045260246000fd5b600061287482611e21565b915061287f83611e21565b92508282039050818111156128975761289661283a565b5b92915050565b7f4552433732313a20696e76616c696420746f6b656e2049440000000000000000600082015250565b60006128d3601883611d7a565b91506128de8261289d565b602082019050919050565b60006020820190508181036000830152612902816128c6565b9050919050565b7f4552433732313a2061646472657373207a65726f206973206e6f74206120766160008201527f6c6964206f776e65720000000000000000000000000000000000000000000000602082015250565b6000612965602983611d7a565b915061297082612909565b604082019050919050565b6000602082019050818103600083015261299481612958565b9050919050565b60008190508160005260206000209050919050565b60006020601f8301049050919050565b600082821b905092915050565b6000600883026129fd7fffffffffffffffffffffffffffffffffffffffffffffffffffffffffffffffff826129c0565b612a0786836129c0565b95508019841693508086168417925050509392505050565b6000819050919050565b6000612a44612a3f612a3a84611e21565b612a1f565b611e21565b9050919050565b6000819050919050565b612a5e83612a29565b612a72612a6a82612a4b565b8484546129cd565b825550505050565b600090565b612a87612a7a565b612a92818484612a55565b505050565b5b81811015612ab657612aab600082612a7f565b600181019050612a98565b5050565b601f821115612afb57612acc8161299b565b612ad5846129b0565b81016020851015612ae4578190505b612af8612af0856129b0565b830182612a97565b50505b505050565b600082821c905092915050565b6000612b1e60001984600802612b00565b1980831691505092915050565b6000612b378383612b0d565b9150826002028217905092915050565b612b5082611d6f565b67ffffffffffffffff811115612b6957612b68612040565b5b612b7382546123c6565b612b7e828285612aba565b600060209050601f831160018114612bb15760008415612b9f578287015190505b612ba98582612b2b565b865550612c11565b601f198416612bbf8661299b565b60005b82811015612be757848901518255600182019150602085019450602081019050612bc2565b86831015612c045784890151612c00601f891682612b0d565b8355505b6001600288020188555050505b505050505050565b6000606082019050612c2e6000830186611eb6565b612c3b6020830185611eb6565b612c486040830184611fdf565b949350505050565b6000612c5b82611e21565b9150612c6683611e21565b9250828201905080821115612c7e57612c7d61283a565b5b92915050565b7f4f776e61626c653a206e6577206f776e657220697320746865207a65726f206160008201527f6464726573730000000000000000000000000000000000000000000000000000602082015250565b6000612ce0602683611d7a565b9150612ceb82612c84565b604082019050919050565b60006020820190508181036000830152612d0f81612cd3565b9050919050565b7f4552433732313a207472616e736665722066726f6d20696e636f72726563742060008201527f6f776e6572000000000000000000000000000000000000000000000000000000602082015250565b6000612d72602583611d7a565b9150612d7d82612d16565b604082019050919050565b60006020820190508181036000830152612da181612d65565b9050919050565b7f4552433732313a207472616e7366657220746f20746865207a65726f2061646460008201527f7265737300000000000000000000000000000000000000000000000000000000602082015250565b6000612e04602483611d7a565b9150612e0f82612da8565b604082019050919050565b60006020820190508181036000830152612e3381612df7565b9050919050565b7f4f776e61626c653a2063616c6c6572206973206e6f7420746865206f776e6572600082015250565b6000612e70602083611d7a565b9150612e7b82612e3a565b602082019050919050565b60006020820190508181036000830152612e9f81612e63565b9050919050565b7f4552433732313a20617070726f766520746f2063616c6c657200000000000000600082015250565b6000612edc601983611d7a565b9150612ee782612ea6565b602082019050919050565b60006020820190508181036000830152612f0b81612ecf565b9050919050565b7f4552433732313a207472616e7366657220746f206e6f6e20455243373231526560008201527f63656976657220696d706c656d656e7465720000000000000000000000000000602082015250565b6000612f6e603283611d7a565b9150612f7982612f12565b604082019050919050565b60006020820190508181036000830152612f9d81612f61565b9050919050565b600081519050919050565b600082825260208201905092915050565b6000612fcb82612fa4565b612fd58185612faf565b9350612fe5818560208601611d8b565b612fee81611db5565b840191505092915050565b600060808201905061300e6000830187611eb6565b61301b6020830186611eb6565b6130286040830185611fdf565b818103606083015261303a8184612fc0565b905095945050505050565b60008151905061305481611ce0565b92915050565b6000602082840312156130705761306f611caa565b5b600061307e84828501613045565b91505092915050565b7f4552433732313a206d696e7420746f20746865207a65726f2061646472657373600082015250565b60006130bd602083611d7a565b91506130c882613087565b602082019050919050565b600060208201905081810360008301526130ec816130b0565b9050919050565b7f4552433732313a20746f6b656e20616c7265616479206d696e74656400000000600082015250565b6000613129601c83611d7a565b9150613134826130f3565b602082019050919050565b600060208201905081810360008301526131588161311c565b905091905056fea2646970667358221220dd6099c939fb7ec2b6da363fe46cbede5cdf99a6546c2bad1b10571514cba9f864736f6c63430008130033",
  "immutableReferences": {},
  "source": "// SPDX-License-Identifier: GPL-3.0\r\n\r\npragma solidity ^0.8.0;\r\n\r\nimport \"./token/ERC721/ERC721.sol\";\r\nimport \"./utils/Counters.sol\";\r\nimport \"./access/Ownable.sol\";\r\nimport \"./token/ERC20/IERC20.sol\";\r\n\r\n\r\ncontract MongttangNFT is ERC721, Ownable {\r\n    using Counters for Counters.Counter;\r\n    Counters.Counter private _tokenIds;\r\n    IERC20 private _token;   \r\n\r\n\r\n    constructor(address _erc20Address) ERC721(\"MongttangBook\", \"MTTBook\") {\r\n        _token = IERC20(_erc20Address);\r\n    }\r\n\r\n    mapping(uint => string) tokenURIs;\r\n    mapping(uint => uint) _nftBalances;\r\n\r\n    function tokenURI(uint256 tokenId) public view virtual override returns (string memory) {\r\n      return tokenURIs[tokenId];\r\n    }\r\n\r\n    function create(address to, string memory _tokenURI)\r\n        public onlyOwner\r\n        returns (uint256)\r\n    {\r\n        _tokenIds.increment();\r\n\r\n        uint256 newItemId = _tokenIds.current();\r\n        _safeMint(to, newItemId);\r\n        tokenURIs[newItemId] = _tokenURI;\r\n\r\n        return newItemId;\r\n    }\r\n\r\n    function deposit(uint256 tokenId, uint256 amount) public {\r\n        require(amount > 0, \"MongttangNFT: amount must be greater than 0\");\r\n        \r\n        bool success = _token.transferFrom(_msgSender(), address(this), amount);\r\n        require(success, \"MyNFT: ERC20 transfer failed\");\r\n        \r\n        _nftBalances[tokenId] = _nftBalances[tokenId] + amount;\r\n    }\r\n    \r\n    function withdraw(uint256 tokenId, uint256 amount) public {\r\n        require(amount > 0, \"MongttangNFT: amount must be greater than 0\");\r\n        require(amount <= _nftBalances[tokenId], \"MongttangNFT: amount should not be greater than nftBalance\");\r\n        require(_msgSender() == ownerOf(tokenId), \"MongttangNFT: Only owner can withdraw\");\r\n\r\n        bool success = _token.transfer(_msgSender(), amount);\r\n        require(success, \"MyNFT: ERC20 transfer failed\");\r\n\r\n        _nftBalances[tokenId] = _nftBalances[tokenId] - amount;\r\n    }\r\n\r\n    function nftBalances(uint256 tokenId) public view returns (uint256){        \r\n        return _nftBalances[tokenId];\r\n    }\r\n}",
  "sourcePath": "C:\\Users\\akqjq\\Desktop\\S08P22A308\\smart-contracts\\contracts\\MongttangNFT.sol",
  "compiler": {
    "name": "solc",
    "version": "0.8.19+commit.7dd6d404.Emscripten.clang"
  },
  "schemaVersion": "3.4.13",
  "updatedAt": "2023-03-22T16:34:02.532Z",
  "devdoc": {
    "events": {
      "Approval(address,address,uint256)": {
        "details": "Emitted when `owner` enables `approved` to manage the `tokenId` token."
      },
      "ApprovalForAll(address,address,bool)": {
        "details": "Emitted when `owner` enables or disables (`approved`) `operator` to manage all of its assets."
      },
      "Transfer(address,address,uint256)": {
        "details": "Emitted when `tokenId` token is transferred from `from` to `to`."
      }
    },
    "kind": "dev",
    "methods": {
      "approve(address,uint256)": {
        "details": "See {IERC721-approve}."
      },
      "balanceOf(address)": {
        "details": "See {IERC721-balanceOf}."
      },
      "getApproved(uint256)": {
        "details": "See {IERC721-getApproved}."
      },
      "isApprovedForAll(address,address)": {
        "details": "See {IERC721-isApprovedForAll}."
      },
      "name()": {
        "details": "See {IERC721Metadata-name}."
      },
      "owner()": {
        "details": "Returns the address of the current owner."
      },
      "ownerOf(uint256)": {
        "details": "See {IERC721-ownerOf}."
      },
      "renounceOwnership()": {
        "details": "Leaves the contract without owner. It will not be possible to call `onlyOwner` functions. Can only be called by the current owner. NOTE: Renouncing ownership will leave the contract without an owner, thereby disabling any functionality that is only available to the owner."
      },
      "safeTransferFrom(address,address,uint256)": {
        "details": "See {IERC721-safeTransferFrom}."
      },
      "safeTransferFrom(address,address,uint256,bytes)": {
        "details": "See {IERC721-safeTransferFrom}."
      },
      "setApprovalForAll(address,bool)": {
        "details": "See {IERC721-setApprovalForAll}."
      },
      "supportsInterface(bytes4)": {
        "details": "See {IERC165-supportsInterface}."
      },
      "symbol()": {
        "details": "See {IERC721Metadata-symbol}."
      },
      "tokenURI(uint256)": {
        "details": "See {IERC721Metadata-tokenURI}."
      },
      "transferFrom(address,address,uint256)": {
        "details": "See {IERC721-transferFrom}."
      },
      "transferOwnership(address)": {
        "details": "Transfers ownership of the contract to a new account (`newOwner`). Can only be called by the current owner."
      }
    },
    "version": 1
  },
  "userdoc": {
    "kind": "user",
    "methods": {},
    "version": 1
  }
}