{
  "contractName": "MongttangNFT",
  "abi": [
    {
      "inputs": [
        {
          "internalType": "address",
          "name": "_erc20Address",
          "type": "address"
        }
      ],
      "stateMutability": "nonpayable",
      "type": "constructor"
    },
    {
      "anonymous": false,
      "inputs": [
        {
          "indexed": true,
          "internalType": "address",
          "name": "owner",
          "type": "address"
        },
        {
          "indexed": true,
          "internalType": "address",
          "name": "approved",
          "type": "address"
        },
        {
          "indexed": true,
          "internalType": "uint256",
          "name": "tokenId",
          "type": "uint256"
        }
      ],
      "name": "Approval",
      "type": "event"
    },
    {
      "anonymous": false,
      "inputs": [
        {
          "indexed": true,
          "internalType": "address",
          "name": "owner",
          "type": "address"
        },
        {
          "indexed": true,
          "internalType": "address",
          "name": "operator",
          "type": "address"
        },
        {
          "indexed": false,
          "internalType": "bool",
          "name": "approved",
          "type": "bool"
        }
      ],
      "name": "ApprovalForAll",
      "type": "event"
    },
    {
      "anonymous": false,
      "inputs": [
        {
          "indexed": true,
          "internalType": "address",
          "name": "previousOwner",
          "type": "address"
        },
        {
          "indexed": true,
          "internalType": "address",
          "name": "newOwner",
          "type": "address"
        }
      ],
      "name": "OwnershipTransferred",
      "type": "event"
    },
    {
      "anonymous": false,
      "inputs": [
        {
          "indexed": true,
          "internalType": "address",
          "name": "from",
          "type": "address"
        },
        {
          "indexed": true,
          "internalType": "address",
          "name": "to",
          "type": "address"
        },
        {
          "indexed": true,
          "internalType": "uint256",
          "name": "tokenId",
          "type": "uint256"
        }
      ],
      "name": "Transfer",
      "type": "event"
    },
    {
      "inputs": [
        {
          "internalType": "address",
          "name": "to",
          "type": "address"
        },
        {
          "internalType": "uint256",
          "name": "tokenId",
          "type": "uint256"
        }
      ],
      "name": "approve",
      "outputs": [],
      "stateMutability": "nonpayable",
      "type": "function"
    },
    {
      "inputs": [
        {
          "internalType": "address",
          "name": "owner",
          "type": "address"
        }
      ],
      "name": "balanceOf",
      "outputs": [
        {
          "internalType": "uint256",
          "name": "",
          "type": "uint256"
        }
      ],
      "stateMutability": "view",
      "type": "function"
    },
    {
      "inputs": [
        {
          "internalType": "uint256",
          "name": "tokenId",
          "type": "uint256"
        }
      ],
      "name": "getApproved",
      "outputs": [
        {
          "internalType": "address",
          "name": "",
          "type": "address"
        }
      ],
      "stateMutability": "view",
      "type": "function"
    },
    {
      "inputs": [
        {
          "internalType": "address",
          "name": "owner",
          "type": "address"
        },
        {
          "internalType": "address",
          "name": "operator",
          "type": "address"
        }
      ],
      "name": "isApprovedForAll",
      "outputs": [
        {
          "internalType": "bool",
          "name": "",
          "type": "bool"
        }
      ],
      "stateMutability": "view",
      "type": "function"
    },
    {
      "inputs": [],
      "name": "name",
      "outputs": [
        {
          "internalType": "string",
          "name": "",
          "type": "string"
        }
      ],
      "stateMutability": "view",
      "type": "function"
    },
    {
      "inputs": [],
      "name": "owner",
      "outputs": [
        {
          "internalType": "address",
          "name": "",
          "type": "address"
        }
      ],
      "stateMutability": "view",
      "type": "function"
    },
    {
      "inputs": [
        {
          "internalType": "uint256",
          "name": "tokenId",
          "type": "uint256"
        }
      ],
      "name": "ownerOf",
      "outputs": [
        {
          "internalType": "address",
          "name": "",
          "type": "address"
        }
      ],
      "stateMutability": "view",
      "type": "function"
    },
    {
      "inputs": [],
      "name": "renounceOwnership",
      "outputs": [],
      "stateMutability": "nonpayable",
      "type": "function"
    },
    {
      "inputs": [
        {
          "internalType": "address",
          "name": "from",
          "type": "address"
        },
        {
          "internalType": "address",
          "name": "to",
          "type": "address"
        },
        {
          "internalType": "uint256",
          "name": "tokenId",
          "type": "uint256"
        }
      ],
      "name": "safeTransferFrom",
      "outputs": [],
      "stateMutability": "nonpayable",
      "type": "function"
    },
    {
      "inputs": [
        {
          "internalType": "address",
          "name": "from",
          "type": "address"
        },
        {
          "internalType": "address",
          "name": "to",
          "type": "address"
        },
        {
          "internalType": "uint256",
          "name": "tokenId",
          "type": "uint256"
        },
        {
          "internalType": "bytes",
          "name": "data",
          "type": "bytes"
        }
      ],
      "name": "safeTransferFrom",
      "outputs": [],
      "stateMutability": "nonpayable",
      "type": "function"
    },
    {
      "inputs": [
        {
          "internalType": "address",
          "name": "operator",
          "type": "address"
        },
        {
          "internalType": "bool",
          "name": "approved",
          "type": "bool"
        }
      ],
      "name": "setApprovalForAll",
      "outputs": [],
      "stateMutability": "nonpayable",
      "type": "function"
    },
    {
      "inputs": [
        {
          "internalType": "bytes4",
          "name": "interfaceId",
          "type": "bytes4"
        }
      ],
      "name": "supportsInterface",
      "outputs": [
        {
          "internalType": "bool",
          "name": "",
          "type": "bool"
        }
      ],
      "stateMutability": "view",
      "type": "function"
    },
    {
      "inputs": [],
      "name": "symbol",
      "outputs": [
        {
          "internalType": "string",
          "name": "",
          "type": "string"
        }
      ],
      "stateMutability": "view",
      "type": "function"
    },
    {
      "inputs": [
        {
          "internalType": "address",
          "name": "from",
          "type": "address"
        },
        {
          "internalType": "address",
          "name": "to",
          "type": "address"
        },
        {
          "internalType": "uint256",
          "name": "tokenId",
          "type": "uint256"
        }
      ],
      "name": "transferFrom",
      "outputs": [],
      "stateMutability": "nonpayable",
      "type": "function"
    },
    {
      "inputs": [
        {
          "internalType": "address",
          "name": "newOwner",
          "type": "address"
        }
      ],
      "name": "transferOwnership",
      "outputs": [],
      "stateMutability": "nonpayable",
      "type": "function"
    },
    {
      "inputs": [
        {
          "internalType": "uint256",
          "name": "tokenId",
          "type": "uint256"
        }
      ],
      "name": "tokenURI",
      "outputs": [
        {
          "internalType": "string",
          "name": "",
          "type": "string"
        }
      ],
      "stateMutability": "view",
      "type": "function"
    },
    {
      "inputs": [
        {
          "internalType": "address",
          "name": "to",
          "type": "address"
        },
        {
          "internalType": "string",
          "name": "_tokenURI",
          "type": "string"
        }
      ],
      "name": "create",
      "outputs": [
        {
          "internalType": "uint256",
          "name": "",
          "type": "uint256"
        }
      ],
      "stateMutability": "nonpayable",
      "type": "function"
    },
    {
      "inputs": [
        {
          "internalType": "uint256",
          "name": "tokenId",
          "type": "uint256"
        },
        {
          "internalType": "uint256",
          "name": "amount",
          "type": "uint256"
        }
      ],
      "name": "deposit",
      "outputs": [],
      "stateMutability": "nonpayable",
      "type": "function"
    },
    {
      "inputs": [
        {
          "internalType": "uint256",
          "name": "tokenId",
          "type": "uint256"
        },
        {
          "internalType": "uint256",
          "name": "amount",
          "type": "uint256"
        }
      ],
      "name": "withdraw",
      "outputs": [],
      "stateMutability": "nonpayable",
      "type": "function"
    },
    {
      "inputs": [
        {
          "internalType": "uint256",
          "name": "tokenId",
          "type": "uint256"
        }
      ],
      "name": "nftBalances",
      "outputs": [
        {
          "internalType": "uint256",
          "name": "",
          "type": "uint256"
        }
      ],
      "stateMutability": "view",
      "type": "function"
    },
    {
      "inputs": [],
      "name": "getMyNfts",
      "outputs": [
        {
          "internalType": "uint256[][]",
          "name": "",
          "type": "uint256[][]"
        }
      ],
      "stateMutability": "view",
      "type": "function"
    }
  ],
  "bytecode": "0x60806040523480156200001157600080fd5b5060405162003d0538038062003d05833981810160405281019062000037919062000269565b6040518060400160405280600d81526020017f4d6f6e677474616e67426f6f6b000000000000000000000000000000000000008152506040518060400160405280600781526020017f4d5454426f6f6b000000000000000000000000000000000000000000000000008152508160009081620000b4919062000515565b508060019081620000c6919062000515565b505050620000e9620000dd6200013160201b60201c565b6200013960201b60201c565b80600860006101000a81548173ffffffffffffffffffffffffffffffffffffffff021916908373ffffffffffffffffffffffffffffffffffffffff16021790555050620005fc565b600033905090565b6000600660009054906101000a900473ffffffffffffffffffffffffffffffffffffffff16905081600660006101000a81548173ffffffffffffffffffffffffffffffffffffffff021916908373ffffffffffffffffffffffffffffffffffffffff1602179055508173ffffffffffffffffffffffffffffffffffffffff168173ffffffffffffffffffffffffffffffffffffffff167f8be0079c531659141344cd1fd0a4f28419497f9722a3daafe3b4186f6b6457e060405160405180910390a35050565b600080fd5b600073ffffffffffffffffffffffffffffffffffffffff82169050919050565b6000620002318262000204565b9050919050565b620002438162000224565b81146200024f57600080fd5b50565b600081519050620002638162000238565b92915050565b600060208284031215620002825762000281620001ff565b5b6000620002928482850162000252565b91505092915050565b600081519050919050565b7f4e487b7100000000000000000000000000000000000000000000000000000000600052604160045260246000fd5b7f4e487b7100000000000000000000000000000000000000000000000000000000600052602260045260246000fd5b600060028204905060018216806200031d57607f821691505b602082108103620003335762000332620002d5565b5b50919050565b60008190508160005260206000209050919050565b60006020601f8301049050919050565b600082821b905092915050565b6000600883026200039d7fffffffffffffffffffffffffffffffffffffffffffffffffffffffffffffffff826200035e565b620003a986836200035e565b95508019841693508086168417925050509392505050565b6000819050919050565b6000819050919050565b6000620003f6620003f0620003ea84620003c1565b620003cb565b620003c1565b9050919050565b6000819050919050565b6200041283620003d5565b6200042a6200042182620003fd565b8484546200036b565b825550505050565b600090565b6200044162000432565b6200044e81848462000407565b505050565b5b8181101562000476576200046a60008262000437565b60018101905062000454565b5050565b601f821115620004c5576200048f8162000339565b6200049a846200034e565b81016020851015620004aa578190505b620004c2620004b9856200034e565b83018262000453565b50505b505050565b600082821c905092915050565b6000620004ea60001984600802620004ca565b1980831691505092915050565b6000620005058383620004d7565b9150826002028217905092915050565b62000520826200029b565b67ffffffffffffffff8111156200053c576200053b620002a6565b5b62000548825462000304565b620005558282856200047a565b600060209050601f8311600181146200058d576000841562000578578287015190505b620005848582620004f7565b865550620005f4565b601f1984166200059d8662000339565b60005b82811015620005c757848901518255600182019150602085019450602081019050620005a0565b86831015620005e75784890151620005e3601f891682620004d7565b8355505b6001600288020188555050505b505050505050565b6136f9806200060c6000396000f3fe608060405234801561001057600080fd5b50600436106101375760003560e01c806370a08231116100b8578063a22cb4651161007c578063a22cb4651461034e578063b88d4fde1461036a578063c87b56dd14610386578063e2bbb158146103b6578063e985e9c5146103d2578063f2fde38b1461040257610137565b806370a08231146102a8578063715018a6146102d85780638da5cb5b146102e257806395d89b4114610300578063a15ab08d1461031e57610137565b806323b872dd116100ff57806323b872dd146101f457806342842e0e14610210578063441a3e701461022c578063620f8c7d146102485780636352211e1461027857610137565b806301ffc9a71461013c578063047b07bf1461016c57806306fdde031461018a578063081812fc146101a8578063095ea7b3146101d8575b600080fd5b61015660048036038101906101519190611fc5565b61041e565b604051610163919061200d565b60405180910390f35b610174610500565b60405161018191906121b2565b60405180910390f35b610192610748565b60405161019f9190612264565b60405180910390f35b6101c260048036038101906101bd91906122b2565b6107da565b6040516101cf9190612320565b60405180910390f35b6101f260048036038101906101ed9190612367565b610820565b005b61020e600480360381019061020991906123a7565b610937565b005b61022a600480360381019061022591906123a7565b610997565b005b610246600480360381019061024191906123fa565b6109b7565b005b610262600480360381019061025d91906122b2565b610bf3565b60405161026f9190612449565b60405180910390f35b610292600480360381019061028d91906122b2565b610c10565b60405161029f9190612320565b60405180910390f35b6102c260048036038101906102bd9190612464565b610c96565b6040516102cf9190612449565b60405180910390f35b6102e0610d4d565b005b6102ea610d61565b6040516102f79190612320565b60405180910390f35b610308610d8b565b6040516103159190612264565b60405180910390f35b610338600480360381019061033391906125c6565b610e1d565b6040516103459190612449565b60405180910390f35b6103686004803603810190610363919061264e565b610e74565b005b610384600480360381019061037f919061272f565b610e8a565b005b6103a0600480360381019061039b91906122b2565b610eec565b6040516103ad9190612264565b60405180910390f35b6103d060048036038101906103cb91906123fa565b610f91565b005b6103ec60048036038101906103e791906127b2565b611144565b6040516103f9919061200d565b60405180910390f35b61041c60048036038101906104179190612464565b6111d8565b005b60007f80ac58cd000000000000000000000000000000000000000000000000000000007bffffffffffffffffffffffffffffffffffffffffffffffffffffffff1916827bffffffffffffffffffffffffffffffffffffffffffffffffffffffff191614806104e957507f5b5e139f000000000000000000000000000000000000000000000000000000007bffffffffffffffffffffffffffffffffffffffffffffffffffffffff1916827bffffffffffffffffffffffffffffffffffffffffffffffffffffffff1916145b806104f957506104f88261125b565b5b9050919050565b6060600080600190505b61051460076112c5565b811161057e576105226112d3565b73ffffffffffffffffffffffffffffffffffffffff1661054182610c10565b73ffffffffffffffffffffffffffffffffffffffff160361056b57818061056790612821565b9250505b808061057690612821565b91505061050a565b5060008167ffffffffffffffff81111561059b5761059a61249b565b5b6040519080825280602002602001820160405280156105ce57816020015b60608152602001906001900390816105b95790505b509050600091506000600190505b6105e660076112c5565b811161073f576105f46112d3565b73ffffffffffffffffffffffffffffffffffffffff1661061382610c10565b73ffffffffffffffffffffffffffffffffffffffff160361072c57600267ffffffffffffffff8111156106495761064861249b565b5b6040519080825280602002602001820160405280156106775781602001602082028036833780820191505090505b5082848151811061068b5761068a612869565b5b6020026020010181905250808284815181106106aa576106a9612869565b5b60200260200101516000815181106106c5576106c4612869565b5b602002602001018181525050600a6000828152602001908152602001600020548284806106f190612821565b95508151811061070457610703612869565b5b602002602001015160018151811061071f5761071e612869565b5b6020026020010181815250505b808061073790612821565b9150506105dc565b50809250505090565b606060008054610757906128c7565b80601f0160208091040260200160405190810160405280929190818152602001828054610783906128c7565b80156107d05780601f106107a5576101008083540402835291602001916107d0565b820191906000526020600020905b8154815290600101906020018083116107b357829003601f168201915b5050505050905090565b60006107e5826112db565b6004600083815260200190815260200160002060009054906101000a900473ffffffffffffffffffffffffffffffffffffffff169050919050565b600061082b82610c10565b90508073ffffffffffffffffffffffffffffffffffffffff168373ffffffffffffffffffffffffffffffffffffffff160361089b576040517f08c379a00000000000000000000000000000000000000000000000000000000081526004016108929061296a565b60405180910390fd5b8073ffffffffffffffffffffffffffffffffffffffff166108ba6112d3565b73ffffffffffffffffffffffffffffffffffffffff1614806108e957506108e8816108e36112d3565b611144565b5b610928576040517f08c379a000000000000000000000000000000000000000000000000000000000815260040161091f906129fc565b60405180910390fd5b6109328383611326565b505050565b6109486109426112d3565b826113df565b610987576040517f08c379a000000000000000000000000000000000000000000000000000000000815260040161097e90612a8e565b60405180910390fd5b610992838383611474565b505050565b6109b283838360405180602001604052806000815250610e8a565b505050565b600081116109fa576040517f08c379a00000000000000000000000000000000000000000000000000000000081526004016109f190612b20565b60405180910390fd5b600a600083815260200190815260200160002054811115610a50576040517f08c379a0000000000000000000000000000000000000000000000000000000008152600401610a4790612bb2565b60405180910390fd5b610a5982610c10565b73ffffffffffffffffffffffffffffffffffffffff16610a776112d3565b73ffffffffffffffffffffffffffffffffffffffff1614610acd576040517f08c379a0000000000000000000000000000000000000000000000000000000008152600401610ac490612c44565b60405180910390fd5b6000600860009054906101000a900473ffffffffffffffffffffffffffffffffffffffff1673ffffffffffffffffffffffffffffffffffffffff1663a9059cbb610b156112d3565b846040518363ffffffff1660e01b8152600401610b33929190612c64565b6020604051808303816000875af1158015610b52573d6000803e3d6000fd5b505050506040513d601f19601f82011682018060405250810190610b769190612ca2565b905080610bb8576040517f08c379a0000000000000000000000000000000000000000000000000000000008152600401610baf90612d1b565b60405180910390fd5b81600a600085815260200190815260200160002054610bd79190612d3b565b600a600085815260200190815260200160002081905550505050565b6000600a6000838152602001908152602001600020549050919050565b600080610c1c8361176d565b9050600073ffffffffffffffffffffffffffffffffffffffff168173ffffffffffffffffffffffffffffffffffffffff1603610c8d576040517f08c379a0000000000000000000000000000000000000000000000000000000008152600401610c8490612dbb565b60405180910390fd5b80915050919050565b60008073ffffffffffffffffffffffffffffffffffffffff168273ffffffffffffffffffffffffffffffffffffffff1603610d06576040517f08c379a0000000000000000000000000000000000000000000000000000000008152600401610cfd90612e4d565b60405180910390fd5b600360008373ffffffffffffffffffffffffffffffffffffffff1673ffffffffffffffffffffffffffffffffffffffff168152602001908152602001600020549050919050565b610d556117aa565b610d5f6000611828565b565b6000600660009054906101000a900473ffffffffffffffffffffffffffffffffffffffff16905090565b606060018054610d9a906128c7565b80601f0160208091040260200160405190810160405280929190818152602001828054610dc6906128c7565b8015610e135780601f10610de857610100808354040283529160200191610e13565b820191906000526020600020905b815481529060010190602001808311610df657829003601f168201915b5050505050905090565b6000610e276117aa565b610e3160076118ee565b6000610e3d60076112c5565b9050610e498482611904565b82600960008381526020019081526020016000209081610e699190613019565b508091505092915050565b610e86610e7f6112d3565b8383611922565b5050565b610e9b610e956112d3565b836113df565b610eda576040517f08c379a0000000000000000000000000000000000000000000000000000000008152600401610ed190612a8e565b60405180910390fd5b610ee684848484611a8e565b50505050565b6060600960008381526020019081526020016000208054610f0c906128c7565b80601f0160208091040260200160405190810160405280929190818152602001828054610f38906128c7565b8015610f855780601f10610f5a57610100808354040283529160200191610f85565b820191906000526020600020905b815481529060010190602001808311610f6857829003601f168201915b50505050509050919050565b60008111610fd4576040517f08c379a0000000000000000000000000000000000000000000000000000000008152600401610fcb90612b20565b60405180910390fd5b610fdd82611aea565b61101c576040517f08c379a00000000000000000000000000000000000000000000000000000000081526004016110139061315d565b60405180910390fd5b6000600860009054906101000a900473ffffffffffffffffffffffffffffffffffffffff1673ffffffffffffffffffffffffffffffffffffffff166323b872dd6110646112d3565b30856040518463ffffffff1660e01b81526004016110849392919061317d565b6020604051808303816000875af11580156110a3573d6000803e3d6000fd5b505050506040513d601f19601f820116820180604052508101906110c79190612ca2565b905080611109576040517f08c379a000000000000000000000000000000000000000000000000000000000815260040161110090612d1b565b60405180910390fd5b81600a60008581526020019081526020016000205461112891906131b4565b600a600085815260200190815260200160002081905550505050565b6000600560008473ffffffffffffffffffffffffffffffffffffffff1673ffffffffffffffffffffffffffffffffffffffff16815260200190815260200160002060008373ffffffffffffffffffffffffffffffffffffffff1673ffffffffffffffffffffffffffffffffffffffff16815260200190815260200160002060009054906101000a900460ff16905092915050565b6111e06117aa565b600073ffffffffffffffffffffffffffffffffffffffff168173ffffffffffffffffffffffffffffffffffffffff160361124f576040517f08c379a00000000000000000000000000000000000000000000000000000000081526004016112469061325a565b60405180910390fd5b61125881611828565b50565b60007f01ffc9a7000000000000000000000000000000000000000000000000000000007bffffffffffffffffffffffffffffffffffffffffffffffffffffffff1916827bffffffffffffffffffffffffffffffffffffffffffffffffffffffff1916149050919050565b600081600001549050919050565b600033905090565b6112e481611aea565b611323576040517f08c379a000000000000000000000000000000000000000000000000000000000815260040161131a90612dbb565b60405180910390fd5b50565b816004600083815260200190815260200160002060006101000a81548173ffffffffffffffffffffffffffffffffffffffff021916908373ffffffffffffffffffffffffffffffffffffffff160217905550808273ffffffffffffffffffffffffffffffffffffffff1661139983610c10565b73ffffffffffffffffffffffffffffffffffffffff167f8c5be1e5ebec7d5bd14f71427d1e84f3dd0314c0f7b2291e5b200ac8c7c3b92560405160405180910390a45050565b6000806113eb83610c10565b90508073ffffffffffffffffffffffffffffffffffffffff168473ffffffffffffffffffffffffffffffffffffffff16148061142d575061142c8185611144565b5b8061146b57508373ffffffffffffffffffffffffffffffffffffffff16611453846107da565b73ffffffffffffffffffffffffffffffffffffffff16145b91505092915050565b8273ffffffffffffffffffffffffffffffffffffffff1661149482610c10565b73ffffffffffffffffffffffffffffffffffffffff16146114ea576040517f08c379a00000000000000000000000000000000000000000000000000000000081526004016114e1906132ec565b60405180910390fd5b600073ffffffffffffffffffffffffffffffffffffffff168273ffffffffffffffffffffffffffffffffffffffff1603611559576040517f08c379a00000000000000000000000000000000000000000000000000000000081526004016115509061337e565b60405180910390fd5b6115668383836001611b2b565b8273ffffffffffffffffffffffffffffffffffffffff1661158682610c10565b73ffffffffffffffffffffffffffffffffffffffff16146115dc576040517f08c379a00000000000000000000000000000000000000000000000000000000081526004016115d3906132ec565b60405180910390fd5b6004600082815260200190815260200160002060006101000a81549073ffffffffffffffffffffffffffffffffffffffff02191690556001600360008573ffffffffffffffffffffffffffffffffffffffff1673ffffffffffffffffffffffffffffffffffffffff168152602001908152602001600020600082825403925050819055506001600360008473ffffffffffffffffffffffffffffffffffffffff1673ffffffffffffffffffffffffffffffffffffffff16815260200190815260200160002060008282540192505081905550816002600083815260200190815260200160002060006101000a81548173ffffffffffffffffffffffffffffffffffffffff021916908373ffffffffffffffffffffffffffffffffffffffff160217905550808273ffffffffffffffffffffffffffffffffffffffff168473ffffffffffffffffffffffffffffffffffffffff167fddf252ad1be2c89b69c2b068fc378daa952ba7f163c4a11628f55a4df523b3ef60405160405180910390a46117688383836001611b31565b505050565b60006002600083815260200190815260200160002060009054906101000a900473ffffffffffffffffffffffffffffffffffffffff169050919050565b6117b26112d3565b73ffffffffffffffffffffffffffffffffffffffff166117d0610d61565b73ffffffffffffffffffffffffffffffffffffffff1614611826576040517f08c379a000000000000000000000000000000000000000000000000000000000815260040161181d906133ea565b60405180910390fd5b565b6000600660009054906101000a900473ffffffffffffffffffffffffffffffffffffffff16905081600660006101000a81548173ffffffffffffffffffffffffffffffffffffffff021916908373ffffffffffffffffffffffffffffffffffffffff1602179055508173ffffffffffffffffffffffffffffffffffffffff168173ffffffffffffffffffffffffffffffffffffffff167f8be0079c531659141344cd1fd0a4f28419497f9722a3daafe3b4186f6b6457e060405160405180910390a35050565b6001816000016000828254019250508190555050565b61191e828260405180602001604052806000815250611b37565b5050565b8173ffffffffffffffffffffffffffffffffffffffff168373ffffffffffffffffffffffffffffffffffffffff1603611990576040517f08c379a000000000000000000000000000000000000000000000000000000000815260040161198790613456565b60405180910390fd5b80600560008573ffffffffffffffffffffffffffffffffffffffff1673ffffffffffffffffffffffffffffffffffffffff16815260200190815260200160002060008473ffffffffffffffffffffffffffffffffffffffff1673ffffffffffffffffffffffffffffffffffffffff16815260200190815260200160002060006101000a81548160ff0219169083151502179055508173ffffffffffffffffffffffffffffffffffffffff168373ffffffffffffffffffffffffffffffffffffffff167f17307eab39ab6107e8899845ad3d59bd9653f200f220920489ca2b5937696c3183604051611a81919061200d565b60405180910390a3505050565b611a99848484611474565b611aa584848484611b92565b611ae4576040517f08c379a0000000000000000000000000000000000000000000000000000000008152600401611adb906134e8565b60405180910390fd5b50505050565b60008073ffffffffffffffffffffffffffffffffffffffff16611b0c8361176d565b73ffffffffffffffffffffffffffffffffffffffff1614159050919050565b50505050565b50505050565b611b418383611d19565b611b4e6000848484611b92565b611b8d576040517f08c379a0000000000000000000000000000000000000000000000000000000008152600401611b84906134e8565b60405180910390fd5b505050565b6000611bb38473ffffffffffffffffffffffffffffffffffffffff16611f36565b15611d0c578373ffffffffffffffffffffffffffffffffffffffff1663150b7a02611bdc6112d3565b8786866040518563ffffffff1660e01b8152600401611bfe949392919061355d565b6020604051808303816000875af1925050508015611c3a57506040513d601f19601f82011682018060405250810190611c3791906135be565b60015b611cbc573d8060008114611c6a576040519150601f19603f3d011682016040523d82523d6000602084013e611c6f565b606091505b506000815103611cb4576040517f08c379a0000000000000000000000000000000000000000000000000000000008152600401611cab906134e8565b60405180910390fd5b805181602001fd5b63150b7a0260e01b7bffffffffffffffffffffffffffffffffffffffffffffffffffffffff1916817bffffffffffffffffffffffffffffffffffffffffffffffffffffffff191614915050611d11565b600190505b949350505050565b600073ffffffffffffffffffffffffffffffffffffffff168273ffffffffffffffffffffffffffffffffffffffff1603611d88576040517f08c379a0000000000000000000000000000000000000000000000000000000008152600401611d7f90613637565b60405180910390fd5b611d9181611aea565b15611dd1576040517f08c379a0000000000000000000000000000000000000000000000000000000008152600401611dc8906136a3565b60405180910390fd5b611ddf600083836001611b2b565b611de881611aea565b15611e28576040517f08c379a0000000000000000000000000000000000000000000000000000000008152600401611e1f906136a3565b60405180910390fd5b6001600360008473ffffffffffffffffffffffffffffffffffffffff1673ffffffffffffffffffffffffffffffffffffffff16815260200190815260200160002060008282540192505081905550816002600083815260200190815260200160002060006101000a81548173ffffffffffffffffffffffffffffffffffffffff021916908373ffffffffffffffffffffffffffffffffffffffff160217905550808273ffffffffffffffffffffffffffffffffffffffff16600073ffffffffffffffffffffffffffffffffffffffff167fddf252ad1be2c89b69c2b068fc378daa952ba7f163c4a11628f55a4df523b3ef60405160405180910390a4611f32600083836001611b31565b5050565b6000808273ffffffffffffffffffffffffffffffffffffffff163b119050919050565b6000604051905090565b600080fd5b600080fd5b60007fffffffff0000000000000000000000000000000000000000000000000000000082169050919050565b611fa281611f6d565b8114611fad57600080fd5b50565b600081359050611fbf81611f99565b92915050565b600060208284031215611fdb57611fda611f63565b5b6000611fe984828501611fb0565b91505092915050565b60008115159050919050565b61200781611ff2565b82525050565b60006020820190506120226000830184611ffe565b92915050565b600081519050919050565b600082825260208201905092915050565b6000819050602082019050919050565b600081519050919050565b600082825260208201905092915050565b6000819050602082019050919050565b6000819050919050565b61209381612080565b82525050565b60006120a5838361208a565b60208301905092915050565b6000602082019050919050565b60006120c982612054565b6120d3818561205f565b93506120de83612070565b8060005b8381101561210f5781516120f68882612099565b9750612101836120b1565b9250506001810190506120e2565b5085935050505092915050565b600061212883836120be565b905092915050565b6000602082019050919050565b600061214882612028565b6121528185612033565b93508360208202850161216485612044565b8060005b858110156121a05784840389528151612181858261211c565b945061218c83612130565b925060208a01995050600181019050612168565b50829750879550505050505092915050565b600060208201905081810360008301526121cc818461213d565b905092915050565b600081519050919050565b600082825260208201905092915050565b60005b8381101561220e5780820151818401526020810190506121f3565b60008484015250505050565b6000601f19601f8301169050919050565b6000612236826121d4565b61224081856121df565b93506122508185602086016121f0565b6122598161221a565b840191505092915050565b6000602082019050818103600083015261227e818461222b565b905092915050565b61228f81612080565b811461229a57600080fd5b50565b6000813590506122ac81612286565b92915050565b6000602082840312156122c8576122c7611f63565b5b60006122d68482850161229d565b91505092915050565b600073ffffffffffffffffffffffffffffffffffffffff82169050919050565b600061230a826122df565b9050919050565b61231a816122ff565b82525050565b60006020820190506123356000830184612311565b92915050565b612344816122ff565b811461234f57600080fd5b50565b6000813590506123618161233b565b92915050565b6000806040838503121561237e5761237d611f63565b5b600061238c85828601612352565b925050602061239d8582860161229d565b9150509250929050565b6000806000606084860312156123c0576123bf611f63565b5b60006123ce86828701612352565b93505060206123df86828701612352565b92505060406123f08682870161229d565b9150509250925092565b6000806040838503121561241157612410611f63565b5b600061241f8582860161229d565b92505060206124308582860161229d565b9150509250929050565b61244381612080565b82525050565b600060208201905061245e600083018461243a565b92915050565b60006020828403121561247a57612479611f63565b5b600061248884828501612352565b91505092915050565b600080fd5b600080fd5b7f4e487b7100000000000000000000000000000000000000000000000000000000600052604160045260246000fd5b6124d38261221a565b810181811067ffffffffffffffff821117156124f2576124f161249b565b5b80604052505050565b6000612505611f59565b905061251182826124ca565b919050565b600067ffffffffffffffff8211156125315761253061249b565b5b61253a8261221a565b9050602081019050919050565b82818337600083830152505050565b600061256961256484612516565b6124fb565b90508281526020810184848401111561258557612584612496565b5b612590848285612547565b509392505050565b600082601f8301126125ad576125ac612491565b5b81356125bd848260208601612556565b91505092915050565b600080604083850312156125dd576125dc611f63565b5b60006125eb85828601612352565b925050602083013567ffffffffffffffff81111561260c5761260b611f68565b5b61261885828601612598565b9150509250929050565b61262b81611ff2565b811461263657600080fd5b50565b60008135905061264881612622565b92915050565b6000806040838503121561266557612664611f63565b5b600061267385828601612352565b925050602061268485828601612639565b9150509250929050565b600067ffffffffffffffff8211156126a9576126a861249b565b5b6126b28261221a565b9050602081019050919050565b60006126d26126cd8461268e565b6124fb565b9050828152602081018484840111156126ee576126ed612496565b5b6126f9848285612547565b509392505050565b600082601f83011261271657612715612491565b5b81356127268482602086016126bf565b91505092915050565b6000806000806080858703121561274957612748611f63565b5b600061275787828801612352565b945050602061276887828801612352565b93505060406127798782880161229d565b925050606085013567ffffffffffffffff81111561279a57612799611f68565b5b6127a687828801612701565b91505092959194509250565b600080604083850312156127c9576127c8611f63565b5b60006127d785828601612352565b92505060206127e885828601612352565b9150509250929050565b7f4e487b7100000000000000000000000000000000000000000000000000000000600052601160045260246000fd5b600061282c82612080565b91507fffffffffffffffffffffffffffffffffffffffffffffffffffffffffffffffff820361285e5761285d6127f2565b5b600182019050919050565b7f4e487b7100000000000000000000000000000000000000000000000000000000600052603260045260246000fd5b7f4e487b7100000000000000000000000000000000000000000000000000000000600052602260045260246000fd5b600060028204905060018216806128df57607f821691505b6020821081036128f2576128f1612898565b5b50919050565b7f4552433732313a20617070726f76616c20746f2063757272656e74206f776e6560008201527f7200000000000000000000000000000000000000000000000000000000000000602082015250565b60006129546021836121df565b915061295f826128f8565b604082019050919050565b6000602082019050818103600083015261298381612947565b9050919050565b7f4552433732313a20617070726f76652063616c6c6572206973206e6f7420746f60008201527f6b656e206f776e6572206f7220617070726f76656420666f7220616c6c000000602082015250565b60006129e6603d836121df565b91506129f18261298a565b604082019050919050565b60006020820190508181036000830152612a15816129d9565b9050919050565b7f4552433732313a2063616c6c6572206973206e6f7420746f6b656e206f776e6560008201527f72206f7220617070726f76656400000000000000000000000000000000000000602082015250565b6000612a78602d836121df565b9150612a8382612a1c565b604082019050919050565b60006020820190508181036000830152612aa781612a6b565b9050919050565b7f4d6f6e677474616e674e46543a20616d6f756e74206d7573742062652067726560008201527f61746572207468616e2030000000000000000000000000000000000000000000602082015250565b6000612b0a602b836121df565b9150612b1582612aae565b604082019050919050565b60006020820190508181036000830152612b3981612afd565b9050919050565b7f4d6f6e677474616e674e46543a20616d6f756e742073686f756c64206e6f742060008201527f62652067726561746572207468616e206e667442616c616e6365000000000000602082015250565b6000612b9c603a836121df565b9150612ba782612b40565b604082019050919050565b60006020820190508181036000830152612bcb81612b8f565b9050919050565b7f4d6f6e677474616e674e46543a204f6e6c79206f776e65722063616e2077697460008201527f6864726177000000000000000000000000000000000000000000000000000000602082015250565b6000612c2e6025836121df565b9150612c3982612bd2565b604082019050919050565b60006020820190508181036000830152612c5d81612c21565b9050919050565b6000604082019050612c796000830185612311565b612c86602083018461243a565b9392505050565b600081519050612c9c81612622565b92915050565b600060208284031215612cb857612cb7611f63565b5b6000612cc684828501612c8d565b91505092915050565b7f4d794e46543a204552433230207472616e73666572206661696c656400000000600082015250565b6000612d05601c836121df565b9150612d1082612ccf565b602082019050919050565b60006020820190508181036000830152612d3481612cf8565b9050919050565b6000612d4682612080565b9150612d5183612080565b9250828203905081811115612d6957612d686127f2565b5b92915050565b7f4552433732313a20696e76616c696420746f6b656e2049440000000000000000600082015250565b6000612da56018836121df565b9150612db082612d6f565b602082019050919050565b60006020820190508181036000830152612dd481612d98565b9050919050565b7f4552433732313a2061646472657373207a65726f206973206e6f74206120766160008201527f6c6964206f776e65720000000000000000000000000000000000000000000000602082015250565b6000612e376029836121df565b9150612e4282612ddb565b604082019050919050565b60006020820190508181036000830152612e6681612e2a565b9050919050565b60008190508160005260206000209050919050565b60006020601f8301049050919050565b600082821b905092915050565b600060088302612ecf7fffffffffffffffffffffffffffffffffffffffffffffffffffffffffffffffff82612e92565b612ed98683612e92565b95508019841693508086168417925050509392505050565b6000819050919050565b6000612f16612f11612f0c84612080565b612ef1565b612080565b9050919050565b6000819050919050565b612f3083612efb565b612f44612f3c82612f1d565b848454612e9f565b825550505050565b600090565b612f59612f4c565b612f64818484612f27565b505050565b5b81811015612f8857612f7d600082612f51565b600181019050612f6a565b5050565b601f821115612fcd57612f9e81612e6d565b612fa784612e82565b81016020851015612fb6578190505b612fca612fc285612e82565b830182612f69565b50505b505050565b600082821c905092915050565b6000612ff060001984600802612fd2565b1980831691505092915050565b60006130098383612fdf565b9150826002028217905092915050565b613022826121d4565b67ffffffffffffffff81111561303b5761303a61249b565b5b61304582546128c7565b613050828285612f8c565b600060209050601f8311600181146130835760008415613071578287015190505b61307b8582612ffd565b8655506130e3565b601f19841661309186612e6d565b60005b828110156130b957848901518255600182019150602085019450602081019050613094565b868310156130d657848901516130d2601f891682612fdf565b8355505b6001600288020188555050505b505050505050565b7f4d6f6e677474616e674e46543a20746f6b656e20646f65736e2774206578697360008201527f7400000000000000000000000000000000000000000000000000000000000000602082015250565b60006131476021836121df565b9150613152826130eb565b604082019050919050565b600060208201905081810360008301526131768161313a565b9050919050565b60006060820190506131926000830186612311565b61319f6020830185612311565b6131ac604083018461243a565b949350505050565b60006131bf82612080565b91506131ca83612080565b92508282019050808211156131e2576131e16127f2565b5b92915050565b7f4f776e61626c653a206e6577206f776e657220697320746865207a65726f206160008201527f6464726573730000000000000000000000000000000000000000000000000000602082015250565b60006132446026836121df565b915061324f826131e8565b604082019050919050565b6000602082019050818103600083015261327381613237565b9050919050565b7f4552433732313a207472616e736665722066726f6d20696e636f72726563742060008201527f6f776e6572000000000000000000000000000000000000000000000000000000602082015250565b60006132d66025836121df565b91506132e18261327a565b604082019050919050565b60006020820190508181036000830152613305816132c9565b9050919050565b7f4552433732313a207472616e7366657220746f20746865207a65726f2061646460008201527f7265737300000000000000000000000000000000000000000000000000000000602082015250565b60006133686024836121df565b91506133738261330c565b604082019050919050565b600060208201905081810360008301526133978161335b565b9050919050565b7f4f776e61626c653a2063616c6c6572206973206e6f7420746865206f776e6572600082015250565b60006133d46020836121df565b91506133df8261339e565b602082019050919050565b60006020820190508181036000830152613403816133c7565b9050919050565b7f4552433732313a20617070726f766520746f2063616c6c657200000000000000600082015250565b60006134406019836121df565b915061344b8261340a565b602082019050919050565b6000602082019050818103600083015261346f81613433565b9050919050565b7f4552433732313a207472616e7366657220746f206e6f6e20455243373231526560008201527f63656976657220696d706c656d656e7465720000000000000000000000000000602082015250565b60006134d26032836121df565b91506134dd82613476565b604082019050919050565b60006020820190508181036000830152613501816134c5565b9050919050565b600081519050919050565b600082825260208201905092915050565b600061352f82613508565b6135398185613513565b93506135498185602086016121f0565b6135528161221a565b840191505092915050565b60006080820190506135726000830187612311565b61357f6020830186612311565b61358c604083018561243a565b818103606083015261359e8184613524565b905095945050505050565b6000815190506135b881611f99565b92915050565b6000602082840312156135d4576135d3611f63565b5b60006135e2848285016135a9565b91505092915050565b7f4552433732313a206d696e7420746f20746865207a65726f2061646472657373600082015250565b60006136216020836121df565b915061362c826135eb565b602082019050919050565b6000602082019050818103600083015261365081613614565b9050919050565b7f4552433732313a20746f6b656e20616c7265616479206d696e74656400000000600082015250565b600061368d601c836121df565b915061369882613657565b602082019050919050565b600060208201905081810360008301526136bc81613680565b905091905056fea2646970667358221220cb4376130a34da378bfdc1263bab625b0f53ec518d250fd095c39fbd2554393c64736f6c63430008130033",
  "immutableReferences": {},
  "source": "// SPDX-License-Identifier: GPL-3.0\r\n\r\npragma solidity ^0.8.0;\r\n\r\nimport \"./token/ERC721/ERC721.sol\";\r\nimport \"./utils/Counters.sol\";\r\nimport \"./access/Ownable.sol\";\r\nimport \"./token/ERC20/IERC20.sol\";\r\n\r\n\r\ncontract MongttangNFT is ERC721, Ownable {\r\n    using Counters for Counters.Counter;\r\n    Counters.Counter private _tokenIds;\r\n    IERC20 private _token;   \r\n\r\n\r\n    constructor(address _erc20Address) ERC721(\"MongttangBook\", \"MTTBook\") {\r\n        _token = IERC20(_erc20Address);\r\n    }\r\n\r\n    mapping(uint => string) tokenURIs;\r\n    mapping(uint => uint) _nftBalances;\r\n\r\n    function tokenURI(uint256 tokenId) public view virtual override returns (string memory) {\r\n      return tokenURIs[tokenId];\r\n    }\r\n\r\n    function create(address to, string memory _tokenURI)\r\n        public onlyOwner\r\n        returns (uint256)\r\n    {\r\n        _tokenIds.increment();\r\n\r\n        uint256 newItemId = _tokenIds.current();\r\n        _safeMint(to, newItemId);\r\n        tokenURIs[newItemId] = _tokenURI;\r\n\r\n        return newItemId;\r\n    }\r\n\r\n    function deposit(uint256 tokenId, uint256 amount) public {\r\n        require(amount > 0, \"MongttangNFT: amount must be greater than 0\");\r\n        require(_exists(tokenId), \"MongttangNFT: token doesn't exist\");\r\n        \r\n        bool success = _token.transferFrom(_msgSender(), address(this), amount);\r\n        require(success, \"MyNFT: ERC20 transfer failed\");\r\n        \r\n        _nftBalances[tokenId] = _nftBalances[tokenId] + amount;\r\n    }\r\n    \r\n    function withdraw(uint256 tokenId, uint256 amount) public {\r\n        require(amount > 0, \"MongttangNFT: amount must be greater than 0\");\r\n        require(amount <= _nftBalances[tokenId], \"MongttangNFT: amount should not be greater than nftBalance\");\r\n        require(_msgSender() == ownerOf(tokenId), \"MongttangNFT: Only owner can withdraw\");\r\n\r\n        bool success = _token.transfer(_msgSender(), amount);\r\n        require(success, \"MyNFT: ERC20 transfer failed\");\r\n\r\n        _nftBalances[tokenId] = _nftBalances[tokenId] - amount;\r\n    }\r\n\r\n    function nftBalances(uint256 tokenId) public view returns (uint256){        \r\n        return _nftBalances[tokenId];\r\n    }\r\n\r\n    function getMyNfts() public view returns (uint[][] memory) {\r\n\r\n        uint256 count = 0;\r\n        for(uint i = 1; i<=_tokenIds.current(); i++) {\r\n            if( ownerOf(i) == _msgSender()) {\r\n                count++;\r\n            }\r\n        }\r\n\r\n        uint[][] memory nftWithDeposit = new uint[][](count);        \r\n        count = 0;\r\n        for(uint i = 1; i<=_tokenIds.current(); i++){\r\n            if(ownerOf(i) == _msgSender()){\r\n                nftWithDeposit[count] = new uint[](2);                \r\n                nftWithDeposit[count][0] = i;\r\n                nftWithDeposit[count++][1] = _nftBalances[i];\r\n            }\r\n        }\r\n        \r\n        return nftWithDeposit;\r\n    }\r\n}",
  "sourcePath": "C:\\Users\\SSAFY\\Desktop\\S08P22A308\\smart-contracts\\contracts\\MongttangNFT.sol",
  "compiler": {
    "name": "solc",
    "version": "0.8.19+commit.7dd6d404.Emscripten.clang"
  },
  "schemaVersion": "3.4.13",
  "updatedAt": "2023-03-23T05:45:08.027Z",
  "devdoc": {
    "events": {
      "Approval(address,address,uint256)": {
        "details": "Emitted when `owner` enables `approved` to manage the `tokenId` token."
      },
      "ApprovalForAll(address,address,bool)": {
        "details": "Emitted when `owner` enables or disables (`approved`) `operator` to manage all of its assets."
      },
      "Transfer(address,address,uint256)": {
        "details": "Emitted when `tokenId` token is transferred from `from` to `to`."
      }
    },
    "kind": "dev",
    "methods": {
      "approve(address,uint256)": {
        "details": "See {IERC721-approve}."
      },
      "balanceOf(address)": {
        "details": "See {IERC721-balanceOf}."
      },
      "getApproved(uint256)": {
        "details": "See {IERC721-getApproved}."
      },
      "isApprovedForAll(address,address)": {
        "details": "See {IERC721-isApprovedForAll}."
      },
      "name()": {
        "details": "See {IERC721Metadata-name}."
      },
      "owner()": {
        "details": "Returns the address of the current owner."
      },
      "ownerOf(uint256)": {
        "details": "See {IERC721-ownerOf}."
      },
      "renounceOwnership()": {
        "details": "Leaves the contract without owner. It will not be possible to call `onlyOwner` functions. Can only be called by the current owner. NOTE: Renouncing ownership will leave the contract without an owner, thereby disabling any functionality that is only available to the owner."
      },
      "safeTransferFrom(address,address,uint256)": {
        "details": "See {IERC721-safeTransferFrom}."
      },
      "safeTransferFrom(address,address,uint256,bytes)": {
        "details": "See {IERC721-safeTransferFrom}."
      },
      "setApprovalForAll(address,bool)": {
        "details": "See {IERC721-setApprovalForAll}."
      },
      "supportsInterface(bytes4)": {
        "details": "See {IERC165-supportsInterface}."
      },
      "symbol()": {
        "details": "See {IERC721Metadata-symbol}."
      },
      "tokenURI(uint256)": {
        "details": "See {IERC721Metadata-tokenURI}."
      },
      "transferFrom(address,address,uint256)": {
        "details": "See {IERC721-transferFrom}."
      },
      "transferOwnership(address)": {
        "details": "Transfers ownership of the contract to a new account (`newOwner`). Can only be called by the current owner."
      }
    },
    "version": 1
  },
  "userdoc": {
    "kind": "user",
    "methods": {},
    "version": 1
  }
}