{
  "contractName": "MyGovernor2",
  "abi": [
    {
      "inputs": [
        {
          "internalType": "contract IVotes",
          "name": "_token",
          "type": "address"
        },
        {
          "internalType": "contract TimelockController",
          "name": "_timelock",
          "type": "address"
        }
      ],
      "stateMutability": "nonpayable",
      "type": "constructor"
    },
    {
      "inputs": [],
      "name": "Empty",
      "type": "error"
    },
    {
      "inputs": [],
      "name": "InvalidShortString",
      "type": "error"
    },
    {
      "inputs": [
        {
          "internalType": "string",
          "name": "str",
          "type": "string"
        }
      ],
      "name": "StringTooLong",
      "type": "error"
    },
    {
      "anonymous": false,
      "inputs": [],
      "name": "EIP712DomainChanged",
      "type": "event"
    },
    {
      "anonymous": false,
      "inputs": [
        {
          "indexed": false,
          "internalType": "uint256",
          "name": "proposalId",
          "type": "uint256"
        }
      ],
      "name": "ProposalCanceled",
      "type": "event"
    },
    {
      "anonymous": false,
      "inputs": [
        {
          "indexed": false,
          "internalType": "uint256",
          "name": "proposalId",
          "type": "uint256"
        },
        {
          "indexed": false,
          "internalType": "address",
          "name": "proposer",
          "type": "address"
        },
        {
          "indexed": false,
          "internalType": "address[]",
          "name": "targets",
          "type": "address[]"
        },
        {
          "indexed": false,
          "internalType": "uint256[]",
          "name": "values",
          "type": "uint256[]"
        },
        {
          "indexed": false,
          "internalType": "string[]",
          "name": "signatures",
          "type": "string[]"
        },
        {
          "indexed": false,
          "internalType": "bytes[]",
          "name": "calldatas",
          "type": "bytes[]"
        },
        {
          "indexed": false,
          "internalType": "uint256",
          "name": "voteStart",
          "type": "uint256"
        },
        {
          "indexed": false,
          "internalType": "uint256",
          "name": "voteEnd",
          "type": "uint256"
        },
        {
          "indexed": false,
          "internalType": "string",
          "name": "description",
          "type": "string"
        }
      ],
      "name": "ProposalCreated",
      "type": "event"
    },
    {
      "anonymous": false,
      "inputs": [
        {
          "indexed": false,
          "internalType": "uint256",
          "name": "proposalId",
          "type": "uint256"
        }
      ],
      "name": "ProposalExecuted",
      "type": "event"
    },
    {
      "anonymous": false,
      "inputs": [
        {
          "indexed": false,
          "internalType": "uint256",
          "name": "proposalId",
          "type": "uint256"
        },
        {
          "indexed": false,
          "internalType": "uint256",
          "name": "eta",
          "type": "uint256"
        }
      ],
      "name": "ProposalQueued",
      "type": "event"
    },
    {
      "anonymous": false,
      "inputs": [
        {
          "indexed": false,
          "internalType": "uint256",
          "name": "oldQuorumNumerator",
          "type": "uint256"
        },
        {
          "indexed": false,
          "internalType": "uint256",
          "name": "newQuorumNumerator",
          "type": "uint256"
        }
      ],
      "name": "QuorumNumeratorUpdated",
      "type": "event"
    },
    {
      "anonymous": false,
      "inputs": [
        {
          "indexed": false,
          "internalType": "address",
          "name": "oldTimelock",
          "type": "address"
        },
        {
          "indexed": false,
          "internalType": "address",
          "name": "newTimelock",
          "type": "address"
        }
      ],
      "name": "TimelockChange",
      "type": "event"
    },
    {
      "anonymous": false,
      "inputs": [
        {
          "indexed": true,
          "internalType": "address",
          "name": "voter",
          "type": "address"
        },
        {
          "indexed": false,
          "internalType": "uint256",
          "name": "proposalId",
          "type": "uint256"
        },
        {
          "indexed": false,
          "internalType": "uint8",
          "name": "support",
          "type": "uint8"
        },
        {
          "indexed": false,
          "internalType": "uint256",
          "name": "weight",
          "type": "uint256"
        },
        {
          "indexed": false,
          "internalType": "string",
          "name": "reason",
          "type": "string"
        }
      ],
      "name": "VoteCast",
      "type": "event"
    },
    {
      "anonymous": false,
      "inputs": [
        {
          "indexed": true,
          "internalType": "address",
          "name": "voter",
          "type": "address"
        },
        {
          "indexed": false,
          "internalType": "uint256",
          "name": "proposalId",
          "type": "uint256"
        },
        {
          "indexed": false,
          "internalType": "uint8",
          "name": "support",
          "type": "uint8"
        },
        {
          "indexed": false,
          "internalType": "uint256",
          "name": "weight",
          "type": "uint256"
        },
        {
          "indexed": false,
          "internalType": "string",
          "name": "reason",
          "type": "string"
        },
        {
          "indexed": false,
          "internalType": "bytes",
          "name": "params",
          "type": "bytes"
        }
      ],
      "name": "VoteCastWithParams",
      "type": "event"
    },
    {
      "inputs": [],
      "name": "BALLOT_TYPEHASH",
      "outputs": [
        {
          "internalType": "bytes32",
          "name": "",
          "type": "bytes32"
        }
      ],
      "stateMutability": "view",
      "type": "function"
    },
    {
      "inputs": [],
      "name": "CLOCK_MODE",
      "outputs": [
        {
          "internalType": "string",
          "name": "",
          "type": "string"
        }
      ],
      "stateMutability": "view",
      "type": "function"
    },
    {
      "inputs": [],
      "name": "COUNTING_MODE",
      "outputs": [
        {
          "internalType": "string",
          "name": "",
          "type": "string"
        }
      ],
      "stateMutability": "pure",
      "type": "function"
    },
    {
      "inputs": [],
      "name": "EXTENDED_BALLOT_TYPEHASH",
      "outputs": [
        {
          "internalType": "bytes32",
          "name": "",
          "type": "bytes32"
        }
      ],
      "stateMutability": "view",
      "type": "function"
    },
    {
      "inputs": [
        {
          "internalType": "address[]",
          "name": "targets",
          "type": "address[]"
        },
        {
          "internalType": "uint256[]",
          "name": "values",
          "type": "uint256[]"
        },
        {
          "internalType": "bytes[]",
          "name": "calldatas",
          "type": "bytes[]"
        },
        {
          "internalType": "bytes32",
          "name": "descriptionHash",
          "type": "bytes32"
        }
      ],
      "name": "cancel",
      "outputs": [
        {
          "internalType": "uint256",
          "name": "",
          "type": "uint256"
        }
      ],
      "stateMutability": "nonpayable",
      "type": "function"
    },
    {
      "inputs": [
        {
          "internalType": "uint256",
          "name": "proposalId",
          "type": "uint256"
        },
        {
          "internalType": "uint8",
          "name": "support",
          "type": "uint8"
        }
      ],
      "name": "castVote",
      "outputs": [
        {
          "internalType": "uint256",
          "name": "",
          "type": "uint256"
        }
      ],
      "stateMutability": "nonpayable",
      "type": "function"
    },
    {
      "inputs": [
        {
          "internalType": "uint256",
          "name": "proposalId",
          "type": "uint256"
        },
        {
          "internalType": "uint8",
          "name": "support",
          "type": "uint8"
        },
        {
          "internalType": "uint8",
          "name": "v",
          "type": "uint8"
        },
        {
          "internalType": "bytes32",
          "name": "r",
          "type": "bytes32"
        },
        {
          "internalType": "bytes32",
          "name": "s",
          "type": "bytes32"
        }
      ],
      "name": "castVoteBySig",
      "outputs": [
        {
          "internalType": "uint256",
          "name": "",
          "type": "uint256"
        }
      ],
      "stateMutability": "nonpayable",
      "type": "function"
    },
    {
      "inputs": [
        {
          "internalType": "uint256",
          "name": "proposalId",
          "type": "uint256"
        },
        {
          "internalType": "uint8",
          "name": "support",
          "type": "uint8"
        },
        {
          "internalType": "string",
          "name": "reason",
          "type": "string"
        }
      ],
      "name": "castVoteWithReason",
      "outputs": [
        {
          "internalType": "uint256",
          "name": "",
          "type": "uint256"
        }
      ],
      "stateMutability": "nonpayable",
      "type": "function"
    },
    {
      "inputs": [
        {
          "internalType": "uint256",
          "name": "proposalId",
          "type": "uint256"
        },
        {
          "internalType": "uint8",
          "name": "support",
          "type": "uint8"
        },
        {
          "internalType": "string",
          "name": "reason",
          "type": "string"
        },
        {
          "internalType": "bytes",
          "name": "params",
          "type": "bytes"
        }
      ],
      "name": "castVoteWithReasonAndParams",
      "outputs": [
        {
          "internalType": "uint256",
          "name": "",
          "type": "uint256"
        }
      ],
      "stateMutability": "nonpayable",
      "type": "function"
    },
    {
      "inputs": [
        {
          "internalType": "uint256",
          "name": "proposalId",
          "type": "uint256"
        },
        {
          "internalType": "uint8",
          "name": "support",
          "type": "uint8"
        },
        {
          "internalType": "string",
          "name": "reason",
          "type": "string"
        },
        {
          "internalType": "bytes",
          "name": "params",
          "type": "bytes"
        },
        {
          "internalType": "uint8",
          "name": "v",
          "type": "uint8"
        },
        {
          "internalType": "bytes32",
          "name": "r",
          "type": "bytes32"
        },
        {
          "internalType": "bytes32",
          "name": "s",
          "type": "bytes32"
        }
      ],
      "name": "castVoteWithReasonAndParamsBySig",
      "outputs": [
        {
          "internalType": "uint256",
          "name": "",
          "type": "uint256"
        }
      ],
      "stateMutability": "nonpayable",
      "type": "function"
    },
    {
      "inputs": [],
      "name": "clock",
      "outputs": [
        {
          "internalType": "uint48",
          "name": "",
          "type": "uint48"
        }
      ],
      "stateMutability": "view",
      "type": "function"
    },
    {
      "inputs": [],
      "name": "eip712Domain",
      "outputs": [
        {
          "internalType": "bytes1",
          "name": "fields",
          "type": "bytes1"
        },
        {
          "internalType": "string",
          "name": "name",
          "type": "string"
        },
        {
          "internalType": "string",
          "name": "version",
          "type": "string"
        },
        {
          "internalType": "uint256",
          "name": "chainId",
          "type": "uint256"
        },
        {
          "internalType": "address",
          "name": "verifyingContract",
          "type": "address"
        },
        {
          "internalType": "bytes32",
          "name": "salt",
          "type": "bytes32"
        },
        {
          "internalType": "uint256[]",
          "name": "extensions",
          "type": "uint256[]"
        }
      ],
      "stateMutability": "view",
      "type": "function"
    },
    {
      "inputs": [
        {
          "internalType": "address[]",
          "name": "targets",
          "type": "address[]"
        },
        {
          "internalType": "uint256[]",
          "name": "values",
          "type": "uint256[]"
        },
        {
          "internalType": "bytes[]",
          "name": "calldatas",
          "type": "bytes[]"
        },
        {
          "internalType": "bytes32",
          "name": "descriptionHash",
          "type": "bytes32"
        }
      ],
      "name": "execute",
      "outputs": [
        {
          "internalType": "uint256",
          "name": "",
          "type": "uint256"
        }
      ],
      "stateMutability": "payable",
      "type": "function"
    },
    {
      "inputs": [
        {
          "internalType": "address",
          "name": "account",
          "type": "address"
        },
        {
          "internalType": "uint256",
          "name": "timepoint",
          "type": "uint256"
        }
      ],
      "name": "getVotes",
      "outputs": [
        {
          "internalType": "uint256",
          "name": "",
          "type": "uint256"
        }
      ],
      "stateMutability": "view",
      "type": "function"
    },
    {
      "inputs": [
        {
          "internalType": "address",
          "name": "account",
          "type": "address"
        },
        {
          "internalType": "uint256",
          "name": "timepoint",
          "type": "uint256"
        },
        {
          "internalType": "bytes",
          "name": "params",
          "type": "bytes"
        }
      ],
      "name": "getVotesWithParams",
      "outputs": [
        {
          "internalType": "uint256",
          "name": "",
          "type": "uint256"
        }
      ],
      "stateMutability": "view",
      "type": "function"
    },
    {
      "inputs": [
        {
          "internalType": "uint256",
          "name": "proposalId",
          "type": "uint256"
        },
        {
          "internalType": "address",
          "name": "account",
          "type": "address"
        }
      ],
      "name": "hasVoted",
      "outputs": [
        {
          "internalType": "bool",
          "name": "",
          "type": "bool"
        }
      ],
      "stateMutability": "view",
      "type": "function"
    },
    {
      "inputs": [
        {
          "internalType": "address[]",
          "name": "targets",
          "type": "address[]"
        },
        {
          "internalType": "uint256[]",
          "name": "values",
          "type": "uint256[]"
        },
        {
          "internalType": "bytes[]",
          "name": "calldatas",
          "type": "bytes[]"
        },
        {
          "internalType": "bytes32",
          "name": "descriptionHash",
          "type": "bytes32"
        }
      ],
      "name": "hashProposal",
      "outputs": [
        {
          "internalType": "uint256",
          "name": "",
          "type": "uint256"
        }
      ],
      "stateMutability": "pure",
      "type": "function"
    },
    {
      "inputs": [],
      "name": "name",
      "outputs": [
        {
          "internalType": "string",
          "name": "",
          "type": "string"
        }
      ],
      "stateMutability": "view",
      "type": "function"
    },
    {
      "inputs": [
        {
          "internalType": "address",
          "name": "",
          "type": "address"
        },
        {
          "internalType": "address",
          "name": "",
          "type": "address"
        },
        {
          "internalType": "uint256[]",
          "name": "",
          "type": "uint256[]"
        },
        {
          "internalType": "uint256[]",
          "name": "",
          "type": "uint256[]"
        },
        {
          "internalType": "bytes",
          "name": "",
          "type": "bytes"
        }
      ],
      "name": "onERC1155BatchReceived",
      "outputs": [
        {
          "internalType": "bytes4",
          "name": "",
          "type": "bytes4"
        }
      ],
      "stateMutability": "nonpayable",
      "type": "function"
    },
    {
      "inputs": [
        {
          "internalType": "address",
          "name": "",
          "type": "address"
        },
        {
          "internalType": "address",
          "name": "",
          "type": "address"
        },
        {
          "internalType": "uint256",
          "name": "",
          "type": "uint256"
        },
        {
          "internalType": "uint256",
          "name": "",
          "type": "uint256"
        },
        {
          "internalType": "bytes",
          "name": "",
          "type": "bytes"
        }
      ],
      "name": "onERC1155Received",
      "outputs": [
        {
          "internalType": "bytes4",
          "name": "",
          "type": "bytes4"
        }
      ],
      "stateMutability": "nonpayable",
      "type": "function"
    },
    {
      "inputs": [
        {
          "internalType": "address",
          "name": "",
          "type": "address"
        },
        {
          "internalType": "address",
          "name": "",
          "type": "address"
        },
        {
          "internalType": "uint256",
          "name": "",
          "type": "uint256"
        },
        {
          "internalType": "bytes",
          "name": "",
          "type": "bytes"
        }
      ],
      "name": "onERC721Received",
      "outputs": [
        {
          "internalType": "bytes4",
          "name": "",
          "type": "bytes4"
        }
      ],
      "stateMutability": "nonpayable",
      "type": "function"
    },
    {
      "inputs": [
        {
          "internalType": "uint256",
          "name": "proposalId",
          "type": "uint256"
        }
      ],
      "name": "proposalDeadline",
      "outputs": [
        {
          "internalType": "uint256",
          "name": "",
          "type": "uint256"
        }
      ],
      "stateMutability": "view",
      "type": "function"
    },
    {
      "inputs": [
        {
          "internalType": "uint256",
          "name": "proposalId",
          "type": "uint256"
        }
      ],
      "name": "proposalEta",
      "outputs": [
        {
          "internalType": "uint256",
          "name": "",
          "type": "uint256"
        }
      ],
      "stateMutability": "view",
      "type": "function"
    },
    {
      "inputs": [
        {
          "internalType": "uint256",
          "name": "proposalId",
          "type": "uint256"
        }
      ],
      "name": "proposalSnapshot",
      "outputs": [
        {
          "internalType": "uint256",
          "name": "",
          "type": "uint256"
        }
      ],
      "stateMutability": "view",
      "type": "function"
    },
    {
      "inputs": [
        {
          "internalType": "uint256",
          "name": "proposalId",
          "type": "uint256"
        }
      ],
      "name": "proposalVotes",
      "outputs": [
        {
          "internalType": "uint256",
          "name": "againstVotes",
          "type": "uint256"
        },
        {
          "internalType": "uint256",
          "name": "forVotes",
          "type": "uint256"
        },
        {
          "internalType": "uint256",
          "name": "abstainVotes",
          "type": "uint256"
        }
      ],
      "stateMutability": "view",
      "type": "function"
    },
    {
      "inputs": [
        {
          "internalType": "address[]",
          "name": "targets",
          "type": "address[]"
        },
        {
          "internalType": "uint256[]",
          "name": "values",
          "type": "uint256[]"
        },
        {
          "internalType": "bytes[]",
          "name": "calldatas",
          "type": "bytes[]"
        },
        {
          "internalType": "bytes32",
          "name": "descriptionHash",
          "type": "bytes32"
        }
      ],
      "name": "queue",
      "outputs": [
        {
          "internalType": "uint256",
          "name": "",
          "type": "uint256"
        }
      ],
      "stateMutability": "nonpayable",
      "type": "function"
    },
    {
      "inputs": [],
      "name": "quorumDenominator",
      "outputs": [
        {
          "internalType": "uint256",
          "name": "",
          "type": "uint256"
        }
      ],
      "stateMutability": "view",
      "type": "function"
    },
    {
      "inputs": [
        {
          "internalType": "uint256",
          "name": "timepoint",
          "type": "uint256"
        }
      ],
      "name": "quorumNumerator",
      "outputs": [
        {
          "internalType": "uint256",
          "name": "",
          "type": "uint256"
        }
      ],
      "stateMutability": "view",
      "type": "function"
    },
    {
      "inputs": [],
      "name": "quorumNumerator",
      "outputs": [
        {
          "internalType": "uint256",
          "name": "",
          "type": "uint256"
        }
      ],
      "stateMutability": "view",
      "type": "function"
    },
    {
      "inputs": [
        {
          "internalType": "address",
          "name": "target",
          "type": "address"
        },
        {
          "internalType": "uint256",
          "name": "value",
          "type": "uint256"
        },
        {
          "internalType": "bytes",
          "name": "data",
          "type": "bytes"
        }
      ],
      "name": "relay",
      "outputs": [],
      "stateMutability": "payable",
      "type": "function"
    },
    {
      "inputs": [],
      "name": "timelock",
      "outputs": [
        {
          "internalType": "address",
          "name": "",
          "type": "address"
        }
      ],
      "stateMutability": "view",
      "type": "function"
    },
    {
      "inputs": [],
      "name": "token",
      "outputs": [
        {
          "internalType": "contract IERC5805",
          "name": "",
          "type": "address"
        }
      ],
      "stateMutability": "view",
      "type": "function"
    },
    {
      "inputs": [
        {
          "internalType": "uint256",
          "name": "newQuorumNumerator",
          "type": "uint256"
        }
      ],
      "name": "updateQuorumNumerator",
      "outputs": [],
      "stateMutability": "nonpayable",
      "type": "function"
    },
    {
      "inputs": [
        {
          "internalType": "contract TimelockController",
          "name": "newTimelock",
          "type": "address"
        }
      ],
      "name": "updateTimelock",
      "outputs": [],
      "stateMutability": "nonpayable",
      "type": "function"
    },
    {
      "inputs": [],
      "name": "version",
      "outputs": [
        {
          "internalType": "string",
          "name": "",
          "type": "string"
        }
      ],
      "stateMutability": "view",
      "type": "function"
    },
    {
      "stateMutability": "payable",
      "type": "receive"
    },
    {
      "inputs": [],
      "name": "votingDelay",
      "outputs": [
        {
          "internalType": "uint256",
          "name": "",
          "type": "uint256"
        }
      ],
      "stateMutability": "pure",
      "type": "function"
    },
    {
      "inputs": [],
      "name": "votingPeriod",
      "outputs": [
        {
          "internalType": "uint256",
          "name": "",
          "type": "uint256"
        }
      ],
      "stateMutability": "pure",
      "type": "function"
    },
    {
      "inputs": [],
      "name": "proposalThreshold",
      "outputs": [
        {
          "internalType": "uint256",
          "name": "",
          "type": "uint256"
        }
      ],
      "stateMutability": "pure",
      "type": "function"
    },
    {
      "inputs": [
        {
          "internalType": "uint256",
          "name": "blockNumber",
          "type": "uint256"
        }
      ],
      "name": "quorum",
      "outputs": [
        {
          "internalType": "uint256",
          "name": "",
          "type": "uint256"
        }
      ],
      "stateMutability": "view",
      "type": "function"
    },
    {
      "inputs": [
        {
          "internalType": "uint256",
          "name": "proposalId",
          "type": "uint256"
        }
      ],
      "name": "state",
      "outputs": [
        {
          "internalType": "enum IGovernor.ProposalState",
          "name": "",
          "type": "uint8"
        }
      ],
      "stateMutability": "view",
      "type": "function"
    },
    {
      "inputs": [
        {
          "internalType": "address[]",
          "name": "targets",
          "type": "address[]"
        },
        {
          "internalType": "uint256[]",
          "name": "values",
          "type": "uint256[]"
        },
        {
          "internalType": "bytes[]",
          "name": "calldatas",
          "type": "bytes[]"
        },
        {
          "internalType": "string",
          "name": "description",
          "type": "string"
        }
      ],
      "name": "propose",
      "outputs": [
        {
          "internalType": "uint256",
          "name": "",
          "type": "uint256"
        }
      ],
      "stateMutability": "nonpayable",
      "type": "function"
    },
    {
      "inputs": [
        {
          "internalType": "bytes4",
          "name": "interfaceId",
          "type": "bytes4"
        }
      ],
      "name": "supportsInterface",
      "outputs": [
        {
          "internalType": "bool",
          "name": "",
          "type": "bool"
        }
      ],
      "stateMutability": "view",
      "type": "function"
    }
  ],
  "bytecode": "0x6101806040523480156200001257600080fd5b5060405162008a1038038062008a10833981810160405281019062000038919062000cf5565b600482826040518060400160405280600a81526020017f4d79476f7665726e6f72000000000000000000000000000000000000000000008152508062000083620001a860201b60201c565b62000099600083620001e560201b90919060201c565b60e08181525050620000b6600182620001e560201b90919060201c565b610100818152505081805190602001206101208181525050808051906020012061014081815250504660a08181525050620000f66200023d60201b60201c565b608081815250503073ffffffffffffffffffffffffffffffffffffffff1660c08173ffffffffffffffffffffffffffffffffffffffff16815250505050806002908162000144919062000fb6565b505062000157816200029b60201b60201c565b508073ffffffffffffffffffffffffffffffffffffffff166101608173ffffffffffffffffffffffffffffffffffffffff1681525050506200019f816200033c60201b60201c565b505050620016bd565b60606040518060400160405280600181526020017f3100000000000000000000000000000000000000000000000000000000000000815250905090565b60006020835110156200020b5762000203836200054a60201b60201c565b905062000237565b826200021d83620005b760201b60201c565b60000190816200022e919062000fb6565b5060ff60001b90505b92915050565b60007f8b73c3c69bb8fe3d512ecc4cf759cc79239f7b179b0ffacaa9a75d522b39400f6101205161014051463060405160200162000280959493929190620010da565b60405160208183030381529060405280519060200120905090565b7f08f74ea46ef7894f65eabfb5e6e695de773a000b47c529ab559178069b226401600660009054906101000a900473ffffffffffffffffffffffffffffffffffffffff1682604051620002f092919062001137565b60405180910390a180600660006101000a81548173ffffffffffffffffffffffffffffffffffffffff021916908373ffffffffffffffffffffffffffffffffffffffff16021790555050565b6200034c620005c160201b60201c565b81111562000391576040517f08c379a0000000000000000000000000000000000000000000000000000000008152600401620003889062001211565b60405180910390fd5b6000620003a3620005ca60201b60201c565b905060008114158015620003bf57506000600960000180549050145b15620004ba5760096000016040518060400160405280600063ffffffff168152602001620003f3846200061b60201b60201c565b7bffffffffffffffffffffffffffffffffffffffffffffffffffffffff168152509080600181540180825580915050600190039060005260206000200160009091909190915060008201518160000160006101000a81548163ffffffff021916908363ffffffff16021790555060208201518160000160046101000a8154817bffffffffffffffffffffffffffffffffffffffffffffffffffffffff02191690837bffffffffffffffffffffffffffffffffffffffffffffffffffffffff16021790555050505b62000509620004e6620004d26200068960201b60201c565b65ffffffffffff166200071f60201b60201c565b620004f7846200061b60201b60201c565b60096200077560201b9092919060201c565b50507f0553476bf02ef2726e8ce5ced78d63e26e602e4a2257b1f559418e24b463399781836040516200053e92919062001233565b60405180910390a15050565b600080829050601f815111156200059a57826040517f305a27a9000000000000000000000000000000000000000000000000000000008152600401620005919190620012de565b60405180910390fd5b805181620005a89062001334565b60001c1760001b915050919050565b6000819050919050565b60006064905090565b600080600960000180549050146200061257620005ee60096200079a60201b60201c565b7bffffffffffffffffffffffffffffffffffffffffffffffffffffffff1662000616565b6008545b905090565b60007bffffffffffffffffffffffffffffffffffffffffffffffffffffffff801682111562000681576040517f08c379a000000000000000000000000000000000000000000000000000000000815260040162000678906200141a565b60405180910390fd5b819050919050565b60006101605173ffffffffffffffffffffffffffffffffffffffff166391ddadf46040518163ffffffff1660e01b8152600401602060405180830381865afa925050508015620006f957506040513d601f19601f82011682018060405250810190620006f691906200147f565b60015b62000717576200070f436200081060201b60201c565b90506200071c565b809150505b90565b600063ffffffff80168211156200076d576040517f08c379a0000000000000000000000000000000000000000000000000000000008152600401620007649062001527565b60405180910390fd5b819050919050565b6000806200078e8560000185856200086860201b60201c565b91509150935093915050565b60008082600001805490509050600081146200080557620007d383600001600183620007c7919062001578565b62000c0960201b60201c565b60000160049054906101000a90047bffffffffffffffffffffffffffffffffffffffffffffffffffffffff1662000808565b60005b915050919050565b600065ffffffffffff801682111562000860576040517f08c379a0000000000000000000000000000000000000000000000000000000008152600401620008579062001629565b60405180910390fd5b819050919050565b600080600085805490509050600081111562000b19576000620008a08760018462000894919062001578565b62000c0960201b60201c565b6040518060400160405290816000820160009054906101000a900463ffffffff1663ffffffff1663ffffffff1681526020016000820160049054906101000a90047bffffffffffffffffffffffffffffffffffffffffffffffffffffffff167bffffffffffffffffffffffffffffffffffffffffffffffffffffffff167bffffffffffffffffffffffffffffffffffffffffffffffffffffffff168152505090508563ffffffff16816000015163ffffffff16111562000997576040517f08c379a00000000000000000000000000000000000000000000000000000000081526004016200098e906200169b565b60405180910390fd5b8563ffffffff16816000015163ffffffff160362000a275784620009d088600185620009c4919062001578565b62000c0960201b60201c565b60000160046101000a8154817bffffffffffffffffffffffffffffffffffffffffffffffffffffffff02191690837bffffffffffffffffffffffffffffffffffffffffffffffffffffffff16021790555062000b07565b8660405180604001604052808863ffffffff168152602001877bffffffffffffffffffffffffffffffffffffffffffffffffffffffff168152509080600181540180825580915050600190039060005260206000200160009091909190915060008201518160000160006101000a81548163ffffffff021916908363ffffffff16021790555060208201518160000160046101000a8154817bffffffffffffffffffffffffffffffffffffffffffffffffffffffff02191690837bffffffffffffffffffffffffffffffffffffffffffffffffffffffff16021790555050505b80602001518593509350505062000c01565b8560405180604001604052808763ffffffff168152602001867bffffffffffffffffffffffffffffffffffffffffffffffffffffffff168152509080600181540180825580915050600190039060005260206000200160009091909190915060008201518160000160006101000a81548163ffffffff021916908363ffffffff16021790555060208201518160000160046101000a8154817bffffffffffffffffffffffffffffffffffffffffffffffffffffffff02191690837bffffffffffffffffffffffffffffffffffffffffffffffffffffffff160217905550505060008492509250505b935093915050565b60008260005281602060002001905092915050565b600080fd5b600073ffffffffffffffffffffffffffffffffffffffff82169050919050565b600062000c508262000c23565b9050919050565b600062000c648262000c43565b9050919050565b62000c768162000c57565b811462000c8257600080fd5b50565b60008151905062000c968162000c6b565b92915050565b600062000ca98262000c23565b9050919050565b600062000cbd8262000c9c565b9050919050565b62000ccf8162000cb0565b811462000cdb57600080fd5b50565b60008151905062000cef8162000cc4565b92915050565b6000806040838503121562000d0f5762000d0e62000c1e565b5b600062000d1f8582860162000c85565b925050602062000d328582860162000cde565b9150509250929050565b600081519050919050565b7f4e487b7100000000000000000000000000000000000000000000000000000000600052604160045260246000fd5b7f4e487b7100000000000000000000000000000000000000000000000000000000600052602260045260246000fd5b6000600282049050600182168062000dbe57607f821691505b60208210810362000dd45762000dd362000d76565b5b50919050565b60008190508160005260206000209050919050565b60006020601f8301049050919050565b600082821b905092915050565b60006008830262000e3e7fffffffffffffffffffffffffffffffffffffffffffffffffffffffffffffffff8262000dff565b62000e4a868362000dff565b95508019841693508086168417925050509392505050565b6000819050919050565b6000819050919050565b600062000e9762000e9162000e8b8462000e62565b62000e6c565b62000e62565b9050919050565b6000819050919050565b62000eb38362000e76565b62000ecb62000ec28262000e9e565b84845462000e0c565b825550505050565b600090565b62000ee262000ed3565b62000eef81848462000ea8565b505050565b5b8181101562000f175762000f0b60008262000ed8565b60018101905062000ef5565b5050565b601f82111562000f665762000f308162000dda565b62000f3b8462000def565b8101602085101562000f4b578190505b62000f6362000f5a8562000def565b83018262000ef4565b50505b505050565b600082821c905092915050565b600062000f8b6000198460080262000f6b565b1980831691505092915050565b600062000fa6838362000f78565b9150826002028217905092915050565b62000fc18262000d3c565b67ffffffffffffffff81111562000fdd5762000fdc62000d47565b5b62000fe9825462000da5565b62000ff682828562000f1b565b600060209050601f8311600181146200102e576000841562001019578287015190505b62001025858262000f98565b86555062001095565b601f1984166200103e8662000dda565b60005b82811015620010685784890151825560018201915060208501945060208101905062001041565b8683101562001088578489015162001084601f89168262000f78565b8355505b6001600288020188555050505b505050505050565b6000819050919050565b620010b2816200109d565b82525050565b620010c38162000e62565b82525050565b620010d48162000c43565b82525050565b600060a082019050620010f16000830188620010a7565b620011006020830187620010a7565b6200110f6040830186620010a7565b6200111e6060830185620010b8565b6200112d6080830184620010c9565b9695505050505050565b60006040820190506200114e6000830185620010c9565b6200115d6020830184620010c9565b9392505050565b600082825260208201905092915050565b7f476f7665726e6f72566f74657351756f72756d4672616374696f6e3a2071756f60008201527f72756d4e756d657261746f72206f7665722071756f72756d44656e6f6d696e6160208201527f746f720000000000000000000000000000000000000000000000000000000000604082015250565b6000620011f960438362001164565b9150620012068262001175565b606082019050919050565b600060208201905081810360008301526200122c81620011ea565b9050919050565b60006040820190506200124a6000830185620010b8565b620012596020830184620010b8565b9392505050565b60005b838110156200128057808201518184015260208101905062001263565b60008484015250505050565b6000601f19601f8301169050919050565b6000620012aa8262000d3c565b620012b6818562001164565b9350620012c881856020860162001260565b620012d3816200128c565b840191505092915050565b60006020820190508181036000830152620012fa81846200129d565b905092915050565b600081519050919050565b6000819050602082019050919050565b60006200132b82516200109d565b80915050919050565b6000620013418262001302565b826200134d846200130d565b90506200135a816200131d565b925060208210156200139d57620013987fffffffffffffffffffffffffffffffffffffffffffffffffffffffffffffffff8360200360080262000dff565b831692505b5050919050565b7f53616665436173743a2076616c756520646f65736e27742066697420696e203260008201527f3234206269747300000000000000000000000000000000000000000000000000602082015250565b60006200140260278362001164565b91506200140f82620013a4565b604082019050919050565b600060208201905081810360008301526200143581620013f3565b9050919050565b600065ffffffffffff82169050919050565b62001459816200143c565b81146200146557600080fd5b50565b60008151905062001479816200144e565b92915050565b60006020828403121562001498576200149762000c1e565b5b6000620014a88482850162001468565b91505092915050565b7f53616665436173743a2076616c756520646f65736e27742066697420696e203360008201527f3220626974730000000000000000000000000000000000000000000000000000602082015250565b60006200150f60268362001164565b91506200151c82620014b1565b604082019050919050565b60006020820190508181036000830152620015428162001500565b9050919050565b7f4e487b7100000000000000000000000000000000000000000000000000000000600052601160045260246000fd5b6000620015858262000e62565b9150620015928362000e62565b9250828203905081811115620015ad57620015ac62001549565b5b92915050565b7f53616665436173743a2076616c756520646f65736e27742066697420696e203460008201527f3820626974730000000000000000000000000000000000000000000000000000602082015250565b60006200161160268362001164565b91506200161e82620015b3565b604082019050919050565b60006020820190508181036000830152620016448162001602565b9050919050565b7f436865636b706f696e743a2064656372656173696e67206b6579730000000000600082015250565b600062001683601b8362001164565b915062001690826200164b565b602082019050919050565b60006020820190508181036000830152620016b68162001674565b9050919050565b60805160a05160c05160e051610100516101205161014051610160516172d16200173f600039600081816114b30152818161198f01528181611f5401528181612a780152612c720152600061403801526000614017015260006118d00152600061189c01526000612ee401526000612f3a01526000612f6301526172d16000f3fe6080604052600436106102555760003560e01c80637b3c71d311610139578063bc197c81116100b6578063dd4e2ba51161007a578063dd4e2ba514610a0e578063deaaa7cc14610a39578063eb9019d414610a64578063f23a6e6114610aa1578063f8ce560a14610ade578063fc0c546a14610b1b5761029b565b8063bc197c8114610910578063c01f9e371461094d578063c28bc2fa1461098a578063c59057e4146109a6578063d33219b4146109e35761029b565b80639a802a6d116100fd5780639a802a6d14610817578063a7713a7014610854578063a890c9101461087f578063ab58fb8e146108a8578063b58131b0146108e55761029b565b80637b3c71d3146107165780637d5e81e21461075357806384b0196e1461079057806391ddadf4146107c157806397c3d334146107ec5761029b565b80633932abb1116101d25780634bf5d7e9116101965780634bf5d7e9146105ca578063544ffc9c146105f557806354fd4d5014610634578063567813881461065f5780635f398a141461069c57806360c4247f146106d95761029b565b80633932abb1146104ab5780633bccf4fd146104d65780633e4f49e6146105135780634385963214610550578063452115d61461058d5761029b565b8063150b7a0211610219578063150b7a0214610399578063160cbed7146103d65780632656227d146104135780632d63f693146104435780632fe3e261146104805761029b565b806301ffc9a7146102a057806302a251a3146102dd578063034201811461030857806306f3f9e61461034557806306fdde031461036e5761029b565b3661029b573073ffffffffffffffffffffffffffffffffffffffff16610279610b46565b73ffffffffffffffffffffffffffffffffffffffff161461029957600080fd5b005b600080fd5b3480156102ac57600080fd5b506102c760048036038101906102c2919061480d565b610b55565b6040516102d49190614855565b60405180910390f35b3480156102e957600080fd5b506102f2610b67565b6040516102ff9190614889565b60405180910390f35b34801561031457600080fd5b5061032f600480360381019061032a9190614ae5565b610b71565b60405161033c9190614889565b60405180910390f35b34801561035157600080fd5b5061036c60048036038101906103679190614bc3565b610c56565b005b34801561037a57600080fd5b50610383610d4d565b6040516103909190614c6f565b60405180910390f35b3480156103a557600080fd5b506103c060048036038101906103bb9190614cef565b610ddf565b6040516103cd9190614d81565b60405180910390f35b3480156103e257600080fd5b506103fd60048036038101906103f89190615003565b610df3565b60405161040a9190614889565b60405180910390f35b61042d60048036038101906104289190615003565b6110ad565b60405161043a9190614889565b60405180910390f35b34801561044f57600080fd5b5061046a60048036038101906104659190614bc3565b6111fb565b6040516104779190614889565b60405180910390f35b34801561048c57600080fd5b50610495611239565b6040516104a291906150cd565b60405180910390f35b3480156104b757600080fd5b506104c061125d565b6040516104cd9190614889565b60405180910390f35b3480156104e257600080fd5b506104fd60048036038101906104f891906150e8565b611266565b60405161050a9190614889565b60405180910390f35b34801561051f57600080fd5b5061053a60048036038101906105359190614bc3565b6112f0565b60405161054791906151da565b60405180910390f35b34801561055c57600080fd5b50610577600480360381019061057291906151f5565b611302565b6040516105849190614855565b60405180910390f35b34801561059957600080fd5b506105b460048036038101906105af9190615003565b61136d565b6040516105c19190614889565b60405180910390f35b3480156105d657600080fd5b506105df6114af565b6040516105ec9190614c6f565b60405180910390f35b34801561060157600080fd5b5061061c60048036038101906106179190614bc3565b611587565b60405161062b93929190615235565b60405180910390f35b34801561064057600080fd5b506106496115bf565b6040516106569190614c6f565b60405180910390f35b34801561066b57600080fd5b506106866004803603810190610681919061526c565b6115fc565b6040516106939190614889565b60405180910390f35b3480156106a857600080fd5b506106c360048036038101906106be91906152ac565b61162d565b6040516106d09190614889565b60405180910390f35b3480156106e557600080fd5b5061070060048036038101906106fb9190614bc3565b611697565b60405161070d9190614889565b60405180910390f35b34801561072257600080fd5b5061073d60048036038101906107389190615350565b611809565b60405161074a9190614889565b60405180910390f35b34801561075f57600080fd5b5061077a60048036038101906107759190615465565b611871565b6040516107879190614889565b60405180910390f35b34801561079c57600080fd5b506107a5611889565b6040516107b89796959493929190615644565b60405180910390f35b3480156107cd57600080fd5b506107d661198b565b6040516107e391906156e9565b60405180910390f35b3480156107f857600080fd5b50610801611a31565b60405161080e9190614889565b60405180910390f35b34801561082357600080fd5b5061083e60048036038101906108399190615704565b611a3a565b60405161084b9190614889565b60405180910390f35b34801561086057600080fd5b50610869611a50565b6040516108769190614889565b60405180910390f35b34801561088b57600080fd5b506108a660048036038101906108a191906157c3565b611a97565b005b3480156108b457600080fd5b506108cf60048036038101906108ca9190614bc3565b611b8e565b6040516108dc9190614889565b60405180910390f35b3480156108f157600080fd5b506108fa611c5b565b6040516109079190614889565b60405180910390f35b34801561091c57600080fd5b50610937600480360381019061093291906157f0565b611c6c565b6040516109449190614d81565b60405180910390f35b34801561095957600080fd5b50610974600480360381019061096f9190614bc3565b611c81565b6040516109819190614889565b60405180910390f35b6109a4600480360381019061099f9190615915565b611cbf565b005b3480156109b257600080fd5b506109cd60048036038101906109c89190615003565b611e48565b6040516109da9190614889565b60405180910390f35b3480156109ef57600080fd5b506109f8611e84565b604051610a059190615989565b60405180910390f35b348015610a1a57600080fd5b50610a23611eae565b604051610a309190614c6f565b60405180910390f35b348015610a4557600080fd5b50610a4e611eeb565b604051610a5b91906150cd565b60405180910390f35b348015610a7057600080fd5b50610a8b6004803603810190610a8691906159a4565b611f0f565b604051610a989190614889565b60405180910390f35b348015610aad57600080fd5b50610ac86004803603810190610ac391906159e4565b611f2b565b604051610ad59190614d81565b60405180910390f35b348015610aea57600080fd5b50610b056004803603810190610b009190614bc3565b611f40565b604051610b129190614889565b60405180910390f35b348015610b2757600080fd5b50610b30611f52565b604051610b3d9190615ada565b60405180910390f35b6000610b50611f76565b905090565b6000610b6082611fa0565b9050919050565b600061b2fa905090565b600080610bf4610bec7fb3b3f3b703cd84ce352197dcff232b1b5d3cfb2025ce47cf04742d0651f1af888c8c8c8c604051610bad929190615b25565b60405180910390208b80519060200120604051602001610bd1959493929190615b4d565b6040516020818303038152906040528051906020012061201a565b868686612034565b9050610c478a828b8b8b8080601f016020809104026020016040519081016040528093929190818152602001838380828437600081840152601f19601f820116905080830192505050505050508a61205f565b91505098975050505050505050565b610c5e610b46565b73ffffffffffffffffffffffffffffffffffffffff16610c7c6121eb565b73ffffffffffffffffffffffffffffffffffffffff1614610cd2576040517f08c379a0000000000000000000000000000000000000000000000000000000008152600401610cc990615bec565b60405180910390fd5b3073ffffffffffffffffffffffffffffffffffffffff16610cf1610b46565b73ffffffffffffffffffffffffffffffffffffffff1614610d41576000610d166121f3565b604051610d24929190615b25565b604051809103902090505b80610d3a6004612200565b03610d2f57505b610d4a816122dc565b50565b606060028054610d5c90615c3b565b80601f0160208091040260200160405190810160405280929190818152602001828054610d8890615c3b565b8015610dd55780601f10610daa57610100808354040283529160200191610dd5565b820191906000526020600020905b815481529060010190602001808311610db857829003601f168201915b5050505050905090565b600063150b7a0260e01b9050949350505050565b600080610e0286868686611e48565b905060046007811115610e1857610e17615163565b5b610e21826112f0565b6007811115610e3357610e32615163565b5b14610e73576040517f08c379a0000000000000000000000000000000000000000000000000000000008152600401610e6a90615cde565b60405180910390fd5b6000600660009054906101000a900473ffffffffffffffffffffffffffffffffffffffff1673ffffffffffffffffffffffffffffffffffffffff1663f27a0c926040518163ffffffff1660e01b8152600401602060405180830381865afa158015610ee2573d6000803e3d6000fd5b505050506040513d601f19601f82011682018060405250810190610f069190615d13565b9050600660009054906101000a900473ffffffffffffffffffffffffffffffffffffffff1673ffffffffffffffffffffffffffffffffffffffff1663b1c5f4278888886000896040518663ffffffff1660e01b8152600401610f6c959493929190615f5d565b602060405180830381865afa158015610f89573d6000803e3d6000fd5b505050506040513d601f19601f82011682018060405250810190610fad9190615fda565b6007600084815260200190815260200160002081905550600660009054906101000a900473ffffffffffffffffffffffffffffffffffffffff1673ffffffffffffffffffffffffffffffffffffffff16638f2a0bb0888888600089876040518763ffffffff1660e01b815260040161102a96959493929190616007565b600060405180830381600087803b15801561104457600080fd5b505af1158015611058573d6000803e3d6000fd5b505050507f9a2e42fd6722813d69113e7d0079d3d940171428df7373df9c7f7617cfda289282824261108a91906160ac565b6040516110989291906160e0565b60405180910390a18192505050949350505050565b6000806110bc86868686611e48565b905060006110c9826112f0565b9050600460078111156110df576110de615163565b5b8160078111156110f2576110f1615163565b5b148061112257506005600781111561110d5761110c615163565b5b8160078111156111205761111f615163565b5b145b611161576040517f08c379a000000000000000000000000000000000000000000000000000000000815260040161115890615cde565b60405180910390fd5b60016003600084815260200190815260200160002060020160006101000a81548160ff0219169083151502179055507f712ae1383f79ac853f8d882153778e0260ef8f03b504e2866e0593e04d2b291f826040516111bf9190614889565b60405180910390a16111d482888888886124b1565b6111e18288888888612594565b6111ee82888888886125a8565b8192505050949350505050565b60006003600083815260200190815260200160002060000160009054906101000a900467ffffffffffffffff1667ffffffffffffffff169050919050565b7fb3b3f3b703cd84ce352197dcff232b1b5d3cfb2025ce47cf04742d0651f1af8881565b60006001905090565b6000806112c76112bf7f150214d74d59b7d1e90c73fc22ef3d991dd0a76b046543d4d80ab92d2a50328f89896040516020016112a493929190616109565b6040516020818303038152906040528051906020012061201a565b868686612034565b90506112e487828860405180602001604052806000815250612603565b91505095945050505050565b60006112fb82612623565b9050919050565b6000600a600084815260200190815260200160002060030160008373ffffffffffffffffffffffffffffffffffffffff1673ffffffffffffffffffffffffffffffffffffffff16815260200190815260200160002060009054906101000a900460ff16905092915050565b60008061137c86868686611e48565b90506000600781111561139257611391615163565b5b61139b826112f0565b60078111156113ad576113ac615163565b5b146113ed576040517f08c379a00000000000000000000000000000000000000000000000000000000081526004016113e49061618c565b60405180910390fd5b6003600082815260200190815260200160002060000160089054906101000a900473ffffffffffffffffffffffffffffffffffffffff1673ffffffffffffffffffffffffffffffffffffffff166114426121eb565b73ffffffffffffffffffffffffffffffffffffffff1614611498576040517f08c379a000000000000000000000000000000000000000000000000000000000815260040161148f9061621e565b60405180910390fd5b6114a4868686866127f6565b915050949350505050565b60607f000000000000000000000000000000000000000000000000000000000000000073ffffffffffffffffffffffffffffffffffffffff16634bf5d7e96040518163ffffffff1660e01b8152600401600060405180830381865afa92505050801561153e57506040513d6000823e3d601f19601f8201168201806040525081019061153b91906162ae565b60015b61157f576040518060400160405280601d81526020017f6d6f64653d626c6f636b6e756d6265722666726f6d3d64656661756c740000008152509050611584565b809150505b90565b600080600080600a60008681526020019081526020016000209050806000015481600101548260020154935093509350509193909250565b60606040518060400160405280600181526020017f3100000000000000000000000000000000000000000000000000000000000000815250905090565b6000806116076121eb565b905061162484828560405180602001604052806000815250612603565b91505092915050565b6000806116386121eb565b905061168b87828888888080601f016020809104026020016040519081016040528093929190818152602001838380828437600081840152601f19601f820116905080830192505050505050508761205f565b91505095945050505050565b6000806009600001805490509050600081036116b857600854915050611804565b600060096000016001836116cc91906162f7565b815481106116dd576116dc61632b565b5b906000526020600020016040518060400160405290816000820160009054906101000a900463ffffffff1663ffffffff1663ffffffff1681526020016000820160049054906101000a90047bffffffffffffffffffffffffffffffffffffffffffffffffffffffff167bffffffffffffffffffffffffffffffffffffffffffffffffffffffff167bffffffffffffffffffffffffffffffffffffffffffffffffffffffff1681525050905083816000015163ffffffff16116117c55780602001517bffffffffffffffffffffffffffffffffffffffffffffffffffffffff1692505050611804565b6117e16117d18561280e565b600961286190919063ffffffff16565b7bffffffffffffffffffffffffffffffffffffffffffffffffffffffff16925050505b919050565b6000806118146121eb565b905061186686828787878080601f016020809104026020016040519081016040528093929190818152602001838380828437600081840152601f19601f82011690508083019250505050505050612603565b915050949350505050565b600061187f85858585612957565b9050949350505050565b6000606080600080600060606118c960007f000000000000000000000000000000000000000000000000000000000000000061296f90919063ffffffff16565b6118fd60017f000000000000000000000000000000000000000000000000000000000000000061296f90919063ffffffff16565b46306000801b600067ffffffffffffffff81111561191e5761191d614984565b5b60405190808252806020026020018201604052801561194c5781602001602082028036833780820191505090505b507f0f00000000000000000000000000000000000000000000000000000000000000959493929190965096509650965096509650965090919293949596565b60007f000000000000000000000000000000000000000000000000000000000000000073ffffffffffffffffffffffffffffffffffffffff166391ddadf46040518163ffffffff1660e01b8152600401602060405180830381865afa925050508015611a1557506040513d601f19601f82011682018060405250810190611a129190616386565b60015b611a2957611a2243612a1f565b9050611a2e565b809150505b90565b60006064905090565b6000611a47848484612a74565b90509392505050565b60008060096000018054905014611a8e57611a6b6009612b1b565b7bffffffffffffffffffffffffffffffffffffffffffffffffffffffff16611a92565b6008545b905090565b611a9f610b46565b73ffffffffffffffffffffffffffffffffffffffff16611abd6121eb565b73ffffffffffffffffffffffffffffffffffffffff1614611b13576040517f08c379a0000000000000000000000000000000000000000000000000000000008152600401611b0a90615bec565b60405180910390fd5b3073ffffffffffffffffffffffffffffffffffffffff16611b32610b46565b73ffffffffffffffffffffffffffffffffffffffff1614611b82576000611b576121f3565b604051611b65929190615b25565b604051809103902090505b80611b7b6004612200565b03611b7057505b611b8b81612b85565b50565b600080600660009054906101000a900473ffffffffffffffffffffffffffffffffffffffff1673ffffffffffffffffffffffffffffffffffffffff1663d45c443560076000868152602001908152602001600020546040518263ffffffff1660e01b8152600401611bff91906150cd565b602060405180830381865afa158015611c1c573d6000803e3d6000fd5b505050506040513d601f19601f82011682018060405250810190611c409190615d13565b905060018114611c505780611c53565b60005b915050919050565b6000683635c9adc5dea00000905090565b600063bc197c8160e01b905095945050505050565b60006003600083815260200190815260200160002060010160009054906101000a900467ffffffffffffffff1667ffffffffffffffff169050919050565b611cc7610b46565b73ffffffffffffffffffffffffffffffffffffffff16611ce56121eb565b73ffffffffffffffffffffffffffffffffffffffff1614611d3b576040517f08c379a0000000000000000000000000000000000000000000000000000000008152600401611d3290615bec565b60405180910390fd5b3073ffffffffffffffffffffffffffffffffffffffff16611d5a610b46565b73ffffffffffffffffffffffffffffffffffffffff1614611daa576000611d7f6121f3565b604051611d8d929190615b25565b604051809103902090505b80611da36004612200565b03611d9857505b6000808573ffffffffffffffffffffffffffffffffffffffff16858585604051611dd5929190615b25565b60006040518083038185875af1925050503d8060008114611e12576040519150601f19603f3d011682016040523d82523d6000602084013e611e17565b606091505b5091509150611e3f828260405180606001604052806028815260200161727460289139612c24565b50505050505050565b600084848484604051602001611e6194939291906163b3565b6040516020818303038152906040528051906020012060001c9050949350505050565b6000600660009054906101000a900473ffffffffffffffffffffffffffffffffffffffff16905090565b60606040518060400160405280602081526020017f737570706f72743d627261766f2671756f72756d3d666f722c6162737461696e815250905090565b7f150214d74d59b7d1e90c73fc22ef3d991dd0a76b046543d4d80ab92d2a50328f81565b6000611f238383611f1e612c46565b612a74565b905092915050565b600063f23a6e6160e01b905095945050505050565b6000611f4b82612c5d565b9050919050565b7f000000000000000000000000000000000000000000000000000000000000000081565b6000600660009054906101000a900473ffffffffffffffffffffffffffffffffffffffff16905090565b60007f6e665ced000000000000000000000000000000000000000000000000000000007bffffffffffffffffffffffffffffffffffffffffffffffffffffffff1916827bffffffffffffffffffffffffffffffffffffffffffffffffffffffff19161480612013575061201282612d25565b5b9050919050565b600061202d612027612ee0565b83612f97565b9050919050565b600080600061204587878787612fd8565b91509150612052816130ba565b8192505050949350505050565b6000806003600088815260200190815260200160002090506001600781111561208b5761208a615163565b5b612094886112f0565b60078111156120a6576120a5615163565b5b146120e6576040517f08c379a00000000000000000000000000000000000000000000000000000000081526004016120dd9061647f565b60405180910390fd5b6000612115878360000160009054906101000a900467ffffffffffffffff1667ffffffffffffffff1686612a74565b90506121248888888488613220565b6000845103612186578673ffffffffffffffffffffffffffffffffffffffff167fb8e138887d0aa13bab447e82de9d5c1777041ecd21ca36ba824ff1e6c07ddda489888489604051612179949392919061649f565b60405180910390a26121dd565b8673ffffffffffffffffffffffffffffffffffffffff167fe2babfbac5889a709b63bb7f598b324e08bc5a4fb9ec647fb3cbc9ec07eb871289888489896040516121d4959493929190616535565b60405180910390a25b809250505095945050505050565b600033905090565b3660008036915091509091565b600061220b82613424565b15612242576040517f3db2a12a00000000000000000000000000000000000000000000000000000000815260040160405180910390fd5b60008260000160009054906101000a9004600f0b905082600101600082600f0b600f0b815260200190815260200160002054915082600101600082600f0b600f0b815260200190815260200160002060009055600181018360000160006101000a8154816fffffffffffffffffffffffffffffffff0219169083600f0b6fffffffffffffffffffffffffffffffff16021790555050919050565b6122e4611a31565b811115612326576040517f08c379a000000000000000000000000000000000000000000000000000000000815260040161231d9061662e565b60405180910390fd5b6000612330611a50565b90506000811415801561234b57506000600960000180549050145b1561243d5760096000016040518060400160405280600063ffffffff16815260200161237684613459565b7bffffffffffffffffffffffffffffffffffffffffffffffffffffffff168152509080600181540180825580915050600190039060005260206000200160009091909190915060008201518160000160006101000a81548163ffffffff021916908363ffffffff16021790555060208201518160000160046101000a8154817bffffffffffffffffffffffffffffffffffffffffffffffffffffffff02191690837bffffffffffffffffffffffffffffffffffffffffffffffffffffffff16021790555050505b61247261245861244b61198b565b65ffffffffffff1661280e565b61246184613459565b60096134c49092919063ffffffff16565b50507f0553476bf02ef2726e8ce5ced78d63e26e602e4a2257b1f559418e24b463399781836040516124a59291906160e0565b60405180910390a15050565b3073ffffffffffffffffffffffffffffffffffffffff166124d0610b46565b73ffffffffffffffffffffffffffffffffffffffff161461258d5760005b845181101561258b573073ffffffffffffffffffffffffffffffffffffffff168582815181106125215761252061632b565b5b602002602001015173ffffffffffffffffffffffffffffffffffffffff160361257a5761257983828151811061255a5761255961632b565b5b60200260200101518051906020012060046134e190919063ffffffff16565b5b806125849061664e565b90506124ee565b505b5050505050565b6125a1858585858561355d565b5050505050565b3073ffffffffffffffffffffffffffffffffffffffff166125c7610b46565b73ffffffffffffffffffffffffffffffffffffffff16146125fc576125ec6004613424565b6125fb576125fa60046135fb565b5b5b5050505050565b600061261985858585612614612c46565b61205f565b9050949350505050565b60008061262f8361367c565b90506004600781111561264557612644615163565b5b81600781111561265857612657615163565b5b1461266657809150506127f1565b6000600760008581526020019081526020016000205490506000801b81036126925781925050506127f1565b600660009054906101000a900473ffffffffffffffffffffffffffffffffffffffff1673ffffffffffffffffffffffffffffffffffffffff16632ab0f529826040518263ffffffff1660e01b81526004016126ed91906150cd565b602060405180830381865afa15801561270a573d6000803e3d6000fd5b505050506040513d601f19601f8201168201806040525081019061272e91906166c2565b1561273e576007925050506127f1565b600660009054906101000a900473ffffffffffffffffffffffffffffffffffffffff1673ffffffffffffffffffffffffffffffffffffffff1663584b153e826040518263ffffffff1660e01b815260040161279991906150cd565b602060405180830381865afa1580156127b6573d6000803e3d6000fd5b505050506040513d601f19601f820116820180604052508101906127da91906166c2565b156127ea576005925050506127f1565b6002925050505b919050565b6000612804858585856137a8565b9050949350505050565b600063ffffffff8016821115612859576040517f08c379a000000000000000000000000000000000000000000000000000000000815260040161285090616761565b60405180910390fd5b819050919050565b6000808360000180549050905060008082905060058311156128e35760006128888461389a565b8461289391906162f7565b90506128a28760000182613993565b60000160009054906101000a900463ffffffff1663ffffffff168663ffffffff1610156128d1578091506128e1565b6001816128de91906160ac565b92505b505b60006128f4876000018785856139a8565b905060008114612948576129178760000160018361291291906162f7565b613993565b60000160049054906101000a90047bffffffffffffffffffffffffffffffffffffffffffffffffffffffff1661294b565b60005b94505050505092915050565b600061296585858585613a1b565b9050949350505050565b606060ff60001b831461298c5761298583613ec4565b9050612a19565b81805461299890615c3b565b80601f01602080910402602001604051908101604052809291908181526020018280546129c490615c3b565b8015612a115780601f106129e657610100808354040283529160200191612a11565b820191906000526020600020905b8154815290600101906020018083116129f457829003601f168201915b505050505090505b92915050565b600065ffffffffffff8016821115612a6c576040517f08c379a0000000000000000000000000000000000000000000000000000000008152600401612a63906167f3565b60405180910390fd5b819050919050565b60007f000000000000000000000000000000000000000000000000000000000000000073ffffffffffffffffffffffffffffffffffffffff16633a46b1a885856040518363ffffffff1660e01b8152600401612ad1929190616813565b602060405180830381865afa158015612aee573d6000803e3d6000fd5b505050506040513d601f19601f82011682018060405250810190612b129190615d13565b90509392505050565b6000808260000180549050905060008114612b7a57612b4983600001600183612b4491906162f7565b613993565b60000160049054906101000a90047bffffffffffffffffffffffffffffffffffffffffffffffffffffffff16612b7d565b60005b915050919050565b7f08f74ea46ef7894f65eabfb5e6e695de773a000b47c529ab559178069b226401600660009054906101000a900473ffffffffffffffffffffffffffffffffffffffff1682604051612bd892919061683c565b60405180910390a180600660006101000a81548173ffffffffffffffffffffffffffffffffffffffff021916908373ffffffffffffffffffffffffffffffffffffffff16021790555050565b60608315612c3457829050612c3f565b612c3e8383613f38565b5b9392505050565b606060405180602001604052806000815250905090565b6000612c67611a31565b612c7083611697565b7f000000000000000000000000000000000000000000000000000000000000000073ffffffffffffffffffffffffffffffffffffffff16638e539e8c856040518263ffffffff1660e01b8152600401612cc99190614889565b602060405180830381865afa158015612ce6573d6000803e3d6000fd5b505050506040513d601f19601f82011682018060405250810190612d0a9190615d13565b612d149190616865565b612d1e91906168d6565b9050919050565b6000639a802a6d60e01b630342018160e01b635f398a1460e01b63452115d660e01b7fda287a1d000000000000000000000000000000000000000000000000000000007fe6d416a40000000000000000000000000000000000000000000000000000000018181818187bffffffffffffffffffffffffffffffffffffffffffffffffffffffff1916827bffffffffffffffffffffffffffffffffffffffffffffffffffffffff19161480612e61575063452115d660e01b7fda287a1d000000000000000000000000000000000000000000000000000000007fe6d416a40000000000000000000000000000000000000000000000000000000018187bffffffffffffffffffffffffffffffffffffffffffffffffffffffff1916827bffffffffffffffffffffffffffffffffffffffffffffffffffffffff1916145b80612ec957507f4e2312e0000000000000000000000000000000000000000000000000000000007bffffffffffffffffffffffffffffffffffffffffffffffffffffffff1916827bffffffffffffffffffffffffffffffffffffffffffffffffffffffff1916145b80612ed95750612ed882613f88565b5b9050919050565b60007f000000000000000000000000000000000000000000000000000000000000000073ffffffffffffffffffffffffffffffffffffffff163073ffffffffffffffffffffffffffffffffffffffff16148015612f5c57507f000000000000000000000000000000000000000000000000000000000000000046145b15612f89577f00000000000000000000000000000000000000000000000000000000000000009050612f94565b612f91613ff2565b90505b90565b60006040517f190100000000000000000000000000000000000000000000000000000000000081528360028201528260228201526042812091505092915050565b6000807f7fffffffffffffffffffffffffffffff5d576e7357a4501ddfe92f46681b20a08360001c11156130135760006003915091506130b1565b6000600187878787604051600081526020016040526040516130389493929190616907565b6020604051602081039080840390855afa15801561305a573d6000803e3d6000fd5b505050602060405103519050600073ffffffffffffffffffffffffffffffffffffffff168173ffffffffffffffffffffffffffffffffffffffff16036130a8576000600192509250506130b1565b80600092509250505b94509492505050565b600060048111156130ce576130cd615163565b5b8160048111156130e1576130e0615163565b5b031561321d57600160048111156130fb576130fa615163565b5b81600481111561310e5761310d615163565b5b0361314e576040517f08c379a000000000000000000000000000000000000000000000000000000000815260040161314590616998565b60405180910390fd5b6002600481111561316257613161615163565b5b81600481111561317557613174615163565b5b036131b5576040517f08c379a00000000000000000000000000000000000000000000000000000000081526004016131ac90616a04565b60405180910390fd5b600360048111156131c9576131c8615163565b5b8160048111156131dc576131db615163565b5b0361321c576040517f08c379a000000000000000000000000000000000000000000000000000000000815260040161321390616a96565b60405180910390fd5b5b50565b6000600a600087815260200190815260200160002090508060030160008673ffffffffffffffffffffffffffffffffffffffff1673ffffffffffffffffffffffffffffffffffffffff16815260200190815260200160002060009054906101000a900460ff16156132c6576040517f08c379a00000000000000000000000000000000000000000000000000000000081526004016132bd90616b28565b60405180910390fd5b60018160030160008773ffffffffffffffffffffffffffffffffffffffff1673ffffffffffffffffffffffffffffffffffffffff16815260200190815260200160002060006101000a81548160ff0219169083151502179055506000600281111561333457613333615163565b5b60ff168460ff1603613360578281600001600082825461335491906160ac565b9250508190555061341c565b6001600281111561337457613373615163565b5b60ff168460ff16036133a0578281600101600082825461339491906160ac565b9250508190555061341b565b6002808111156133b3576133b2615163565b5b60ff168460ff16036133df57828160020160008282546133d391906160ac565b9250508190555061341a565b6040517f08c379a000000000000000000000000000000000000000000000000000000000815260040161341190616bba565b60405180910390fd5b5b5b505050505050565b60008160000160009054906101000a9004600f0b600f0b8260000160109054906101000a9004600f0b600f0b13159050919050565b60007bffffffffffffffffffffffffffffffffffffffffffffffffffffffff80168211156134bc576040517f08c379a00000000000000000000000000000000000000000000000000000000081526004016134b390616c4c565b60405180910390fd5b819050919050565b6000806134d5856000018585614088565b91509150935093915050565b60008260000160109054906101000a9004600f0b90508183600101600083600f0b600f0b815260200190815260200160002081905550600181018360000160106101000a8154816fffffffffffffffffffffffffffffffff0219169083600f0b6fffffffffffffffffffffffffffffffff160217905550505050565b600660009054906101000a900473ffffffffffffffffffffffffffffffffffffffff1673ffffffffffffffffffffffffffffffffffffffff1663e38335e5348686866000876040518763ffffffff1660e01b81526004016135c2959493929190615f5d565b6000604051808303818588803b1580156135db57600080fd5b505af11580156135ef573d6000803e3d6000fd5b50505050505050505050565b60008160000160006101000a8154816fffffffffffffffffffffffffffffffff0219169083600f0b6fffffffffffffffffffffffffffffffff16021790555060008160000160106101000a8154816fffffffffffffffffffffffffffffffff0219169083600f0b6fffffffffffffffffffffffffffffffff16021790555050565b6000806003600084815260200190815260200160002090508060020160009054906101000a900460ff16156136b55760079150506137a3565b8060020160019054906101000a900460ff16156136d65760029150506137a3565b60006136e1846111fb565b905060008103613726576040517f08c379a000000000000000000000000000000000000000000000000000000000815260040161371d90616cb8565b60405180910390fd5b600061373061198b565b65ffffffffffff16905080821061374d57600093505050506137a3565b600061375886611c81565b905081811061376e5760019450505050506137a3565b6137778661440e565b8015613788575061378786614455565b5b1561379a5760049450505050506137a3565b60039450505050505b919050565b6000806137b786868686614480565b90506000801b60076000838152602001908152602001600020541461388e57600660009054906101000a900473ffffffffffffffffffffffffffffffffffffffff1673ffffffffffffffffffffffffffffffffffffffff1663c4d252f560076000848152602001908152602001600020546040518263ffffffff1660e01b815260040161384491906150cd565b600060405180830381600087803b15801561385e57600080fd5b505af1158015613872573d6000803e3d6000fd5b5050505060076000828152602001908152602001600020600090555b80915050949350505050565b60008082036138ac576000905061398e565b600060016138b9846145da565b901c6001901b905060018184816138d3576138d26168a7565b5b048201901c905060018184816138ec576138eb6168a7565b5b048201901c90506001818481613905576139046168a7565b5b048201901c9050600181848161391e5761391d6168a7565b5b048201901c90506001818481613937576139366168a7565b5b048201901c905060018184816139505761394f6168a7565b5b048201901c90506001818481613969576139686168a7565b5b048201901c905061398a81828581613984576139836168a7565b5b046146bb565b9150505b919050565b60008260005281602060002001905092915050565b60005b81831015613a105760006139bf84846146d4565b90508463ffffffff166139d28783613993565b60000160009054906101000a900463ffffffff1663ffffffff1611156139fa57809250613a0a565b600181613a0791906160ac565b93505b506139ab565b819050949350505050565b600080613a266121eb565b90506000613a3261198b565b65ffffffffffff169050613a44611c5b565b613a5a83600184613a5591906162f7565b611f0f565b1015613a9b576040517f08c379a0000000000000000000000000000000000000000000000000000000008152600401613a9290616d4a565b60405180910390fd5b6000613ab08888888880519060200120611e48565b90508651885114613af6576040517f08c379a0000000000000000000000000000000000000000000000000000000008152600401613aed90616ddc565b60405180910390fd5b8551885114613b3a576040517f08c379a0000000000000000000000000000000000000000000000000000000008152600401613b3190616ddc565b60405180910390fd5b6000885111613b7e576040517f08c379a0000000000000000000000000000000000000000000000000000000008152600401613b7590616e48565b60405180910390fd5b60006003600083815260200190815260200160002060000160009054906101000a900467ffffffffffffffff1667ffffffffffffffff1614613bf5576040517f08c379a0000000000000000000000000000000000000000000000000000000008152600401613bec90616eda565b60405180910390fd5b6000613bff61125d565b83613c0a91906160ac565b90506000613c16610b67565b82613c2191906160ac565b90506040518060e00160405280613c37846146fa565b67ffffffffffffffff1681526020018673ffffffffffffffffffffffffffffffffffffffff168152602001600060e01b7bffffffffffffffffffffffffffffffffffffffffffffffffffffffff19168152602001613c94836146fa565b67ffffffffffffffff168152602001600060401b67ffffffffffffffff19168152602001600015158152602001600015158152506003600085815260200190815260200160002060008201518160000160006101000a81548167ffffffffffffffff021916908367ffffffffffffffff16021790555060208201518160000160086101000a81548173ffffffffffffffffffffffffffffffffffffffff021916908373ffffffffffffffffffffffffffffffffffffffff160217905550604082015181600001601c6101000a81548163ffffffff021916908360e01c021790555060608201518160010160006101000a81548167ffffffffffffffff021916908367ffffffffffffffff16021790555060808201518160010160086101000a81548177ffffffffffffffffffffffffffffffffffffffffffffffff021916908360401c021790555060a08201518160020160006101000a81548160ff02191690831515021790555060c08201518160020160016101000a81548160ff0219169083151502179055509050507f7d84a6263ae0d98d3329bd7b46bb4e8d6f98cd35a7adb45c274c8b7fd5ebd5e083868c8c8e5167ffffffffffffffff811115613e5f57613e5e614984565b5b604051908082528060200260200182016040528015613e9257816020015b6060815260200190600190039081613e7d5790505b508d88888f604051613eac99989796959493929190617006565b60405180910390a18295505050505050949350505050565b60606000613ed183614751565b90506000602067ffffffffffffffff811115613ef057613eef614984565b5b6040519080825280601f01601f191660200182016040528015613f225781602001600182028036833780820191505090505b5090508181528360208201528092505050919050565b600082511115613f4b5781518083602001fd5b806040517f08c379a0000000000000000000000000000000000000000000000000000000008152600401613f7f9190614c6f565b60405180910390fd5b60007f01ffc9a7000000000000000000000000000000000000000000000000000000007bffffffffffffffffffffffffffffffffffffffffffffffffffffffff1916827bffffffffffffffffffffffffffffffffffffffffffffffffffffffff1916149050919050565b60007f8b73c3c69bb8fe3d512ecc4cf759cc79239f7b179b0ffacaa9a75d522b39400f7f00000000000000000000000000000000000000000000000000000000000000007f0000000000000000000000000000000000000000000000000000000000000000463060405160200161406d9594939291906170b6565b60405160208183030381529060405280519060200120905090565b600080600085805490509050600081111561431e5760006140b5876001846140b091906162f7565b613993565b6040518060400160405290816000820160009054906101000a900463ffffffff1663ffffffff1663ffffffff1681526020016000820160049054906101000a90047bffffffffffffffffffffffffffffffffffffffffffffffffffffffff167bffffffffffffffffffffffffffffffffffffffffffffffffffffffff167bffffffffffffffffffffffffffffffffffffffffffffffffffffffff168152505090508563ffffffff16816000015163ffffffff1611156141a9576040517f08c379a00000000000000000000000000000000000000000000000000000000081526004016141a090617155565b60405180910390fd5b8563ffffffff16816000015163ffffffff160361422d57846141d7886001856141d291906162f7565b613993565b60000160046101000a8154817bffffffffffffffffffffffffffffffffffffffffffffffffffffffff02191690837bffffffffffffffffffffffffffffffffffffffffffffffffffffffff16021790555061430d565b8660405180604001604052808863ffffffff168152602001877bffffffffffffffffffffffffffffffffffffffffffffffffffffffff168152509080600181540180825580915050600190039060005260206000200160009091909190915060008201518160000160006101000a81548163ffffffff021916908363ffffffff16021790555060208201518160000160046101000a8154817bffffffffffffffffffffffffffffffffffffffffffffffffffffffff02191690837bffffffffffffffffffffffffffffffffffffffffffffffffffffffff16021790555050505b806020015185935093505050614406565b8560405180604001604052808763ffffffff168152602001867bffffffffffffffffffffffffffffffffffffffffffffffffffffffff168152509080600181540180825580915050600190039060005260206000200160009091909190915060008201518160000160006101000a81548163ffffffff021916908363ffffffff16021790555060208201518160000160046101000a8154817bffffffffffffffffffffffffffffffffffffffffffffffffffffffff02191690837bffffffffffffffffffffffffffffffffffffffffffffffffffffffff160217905550505060008492509250505b935093915050565b600080600a600084815260200190815260200160002090508060020154816001015461443a91906160ac565b61444b614446856111fb565b611f40565b1115915050919050565b600080600a600084815260200190815260200160002090508060000154816001015411915050919050565b60008061448f86868686611e48565b9050600061449c826112f0565b9050600260078111156144b2576144b1615163565b5b8160078111156144c5576144c4615163565b5b141580156144f85750600660078111156144e2576144e1615163565b5b8160078111156144f5576144f4615163565b5b14155b8015614528575060078081111561451257614511615163565b5b81600781111561452557614524615163565b5b14155b614567576040517f08c379a000000000000000000000000000000000000000000000000000000000815260040161455e906171c1565b60405180910390fd5b60016003600084815260200190815260200160002060020160016101000a81548160ff0219169083151502179055507f789cf55be980739dad1d0699b93b58e806b51c9d96619bfa8fe0a28abaa7b30c826040516145c59190614889565b60405180910390a18192505050949350505050565b600080600090506000608084901c11156145fc57608083901c92506080810190505b6000604084901c111561461757604083901c92506040810190505b6000602084901c111561463257602083901c92506020810190505b6000601084901c111561464d57601083901c92506010810190505b6000600884901c111561466857600883901c92506008810190505b6000600484901c111561468357600483901c92506004810190505b6000600284901c111561469e57600283901c92506002810190505b6000600184901c11156146b2576001810190505b80915050919050565b60008183106146ca57816146cc565b825b905092915050565b600060028284186146e591906168d6565b8284166146f291906160ac565b905092915050565b600067ffffffffffffffff8016821115614749576040517f08c379a000000000000000000000000000000000000000000000000000000000815260040161474090617253565b60405180910390fd5b819050919050565b60008060ff8360001c169050601f811115614798576040517fb3512b0c00000000000000000000000000000000000000000000000000000000815260040160405180910390fd5b80915050919050565b6000604051905090565b600080fd5b600080fd5b60007fffffffff0000000000000000000000000000000000000000000000000000000082169050919050565b6147ea816147b5565b81146147f557600080fd5b50565b600081359050614807816147e1565b92915050565b600060208284031215614823576148226147ab565b5b6000614831848285016147f8565b91505092915050565b60008115159050919050565b61484f8161483a565b82525050565b600060208201905061486a6000830184614846565b92915050565b6000819050919050565b61488381614870565b82525050565b600060208201905061489e600083018461487a565b92915050565b6148ad81614870565b81146148b857600080fd5b50565b6000813590506148ca816148a4565b92915050565b600060ff82169050919050565b6148e6816148d0565b81146148f157600080fd5b50565b600081359050614903816148dd565b92915050565b600080fd5b600080fd5b600080fd5b60008083601f84011261492e5761492d614909565b5b8235905067ffffffffffffffff81111561494b5761494a61490e565b5b60208301915083600182028301111561496757614966614913565b5b9250929050565b600080fd5b6000601f19601f8301169050919050565b7f4e487b7100000000000000000000000000000000000000000000000000000000600052604160045260246000fd5b6149bc82614973565b810181811067ffffffffffffffff821117156149db576149da614984565b5b80604052505050565b60006149ee6147a1565b90506149fa82826149b3565b919050565b600067ffffffffffffffff821115614a1a57614a19614984565b5b614a2382614973565b9050602081019050919050565b82818337600083830152505050565b6000614a52614a4d846149ff565b6149e4565b905082815260208101848484011115614a6e57614a6d61496e565b5b614a79848285614a30565b509392505050565b600082601f830112614a9657614a95614909565b5b8135614aa6848260208601614a3f565b91505092915050565b6000819050919050565b614ac281614aaf565b8114614acd57600080fd5b50565b600081359050614adf81614ab9565b92915050565b60008060008060008060008060e0898b031215614b0557614b046147ab565b5b6000614b138b828c016148bb565b9850506020614b248b828c016148f4565b975050604089013567ffffffffffffffff811115614b4557614b446147b0565b5b614b518b828c01614918565b9650965050606089013567ffffffffffffffff811115614b7457614b736147b0565b5b614b808b828c01614a81565b9450506080614b918b828c016148f4565b93505060a0614ba28b828c01614ad0565b92505060c0614bb38b828c01614ad0565b9150509295985092959890939650565b600060208284031215614bd957614bd86147ab565b5b6000614be7848285016148bb565b91505092915050565b600081519050919050565b600082825260208201905092915050565b60005b83811015614c2a578082015181840152602081019050614c0f565b60008484015250505050565b6000614c4182614bf0565b614c4b8185614bfb565b9350614c5b818560208601614c0c565b614c6481614973565b840191505092915050565b60006020820190508181036000830152614c898184614c36565b905092915050565b600073ffffffffffffffffffffffffffffffffffffffff82169050919050565b6000614cbc82614c91565b9050919050565b614ccc81614cb1565b8114614cd757600080fd5b50565b600081359050614ce981614cc3565b92915050565b60008060008060808587031215614d0957614d086147ab565b5b6000614d1787828801614cda565b9450506020614d2887828801614cda565b9350506040614d39878288016148bb565b925050606085013567ffffffffffffffff811115614d5a57614d596147b0565b5b614d6687828801614a81565b91505092959194509250565b614d7b816147b5565b82525050565b6000602082019050614d966000830184614d72565b92915050565b600067ffffffffffffffff821115614db757614db6614984565b5b602082029050602081019050919050565b6000614ddb614dd684614d9c565b6149e4565b90508083825260208201905060208402830185811115614dfe57614dfd614913565b5b835b81811015614e275780614e138882614cda565b845260208401935050602081019050614e00565b5050509392505050565b600082601f830112614e4657614e45614909565b5b8135614e56848260208601614dc8565b91505092915050565b600067ffffffffffffffff821115614e7a57614e79614984565b5b602082029050602081019050919050565b6000614e9e614e9984614e5f565b6149e4565b90508083825260208201905060208402830185811115614ec157614ec0614913565b5b835b81811015614eea5780614ed688826148bb565b845260208401935050602081019050614ec3565b5050509392505050565b600082601f830112614f0957614f08614909565b5b8135614f19848260208601614e8b565b91505092915050565b600067ffffffffffffffff821115614f3d57614f3c614984565b5b602082029050602081019050919050565b6000614f61614f5c84614f22565b6149e4565b90508083825260208201905060208402830185811115614f8457614f83614913565b5b835b81811015614fcb57803567ffffffffffffffff811115614fa957614fa8614909565b5b808601614fb68982614a81565b85526020850194505050602081019050614f86565b5050509392505050565b600082601f830112614fea57614fe9614909565b5b8135614ffa848260208601614f4e565b91505092915050565b6000806000806080858703121561501d5761501c6147ab565b5b600085013567ffffffffffffffff81111561503b5761503a6147b0565b5b61504787828801614e31565b945050602085013567ffffffffffffffff811115615068576150676147b0565b5b61507487828801614ef4565b935050604085013567ffffffffffffffff811115615095576150946147b0565b5b6150a187828801614fd5565b92505060606150b287828801614ad0565b91505092959194509250565b6150c781614aaf565b82525050565b60006020820190506150e260008301846150be565b92915050565b600080600080600060a08688031215615104576151036147ab565b5b6000615112888289016148bb565b9550506020615123888289016148f4565b9450506040615134888289016148f4565b935050606061514588828901614ad0565b925050608061515688828901614ad0565b9150509295509295909350565b7f4e487b7100000000000000000000000000000000000000000000000000000000600052602160045260246000fd5b600881106151a3576151a2615163565b5b50565b60008190506151b482615192565b919050565b60006151c4826151a6565b9050919050565b6151d4816151b9565b82525050565b60006020820190506151ef60008301846151cb565b92915050565b6000806040838503121561520c5761520b6147ab565b5b600061521a858286016148bb565b925050602061522b85828601614cda565b9150509250929050565b600060608201905061524a600083018661487a565b615257602083018561487a565b615264604083018461487a565b949350505050565b60008060408385031215615283576152826147ab565b5b6000615291858286016148bb565b92505060206152a2858286016148f4565b9150509250929050565b6000806000806000608086880312156152c8576152c76147ab565b5b60006152d6888289016148bb565b95505060206152e7888289016148f4565b945050604086013567ffffffffffffffff811115615308576153076147b0565b5b61531488828901614918565b9350935050606086013567ffffffffffffffff811115615337576153366147b0565b5b61534388828901614a81565b9150509295509295909350565b6000806000806060858703121561536a576153696147ab565b5b6000615378878288016148bb565b9450506020615389878288016148f4565b935050604085013567ffffffffffffffff8111156153aa576153a96147b0565b5b6153b687828801614918565b925092505092959194509250565b600067ffffffffffffffff8211156153df576153de614984565b5b6153e882614973565b9050602081019050919050565b6000615408615403846153c4565b6149e4565b9050828152602081018484840111156154245761542361496e565b5b61542f848285614a30565b509392505050565b600082601f83011261544c5761544b614909565b5b813561545c8482602086016153f5565b91505092915050565b6000806000806080858703121561547f5761547e6147ab565b5b600085013567ffffffffffffffff81111561549d5761549c6147b0565b5b6154a987828801614e31565b945050602085013567ffffffffffffffff8111156154ca576154c96147b0565b5b6154d687828801614ef4565b935050604085013567ffffffffffffffff8111156154f7576154f66147b0565b5b61550387828801614fd5565b925050606085013567ffffffffffffffff811115615524576155236147b0565b5b61553087828801615437565b91505092959194509250565b60007fff0000000000000000000000000000000000000000000000000000000000000082169050919050565b6155718161553c565b82525050565b61558081614cb1565b82525050565b600081519050919050565b600082825260208201905092915050565b6000819050602082019050919050565b6155bb81614870565b82525050565b60006155cd83836155b2565b60208301905092915050565b6000602082019050919050565b60006155f182615586565b6155fb8185615591565b9350615606836155a2565b8060005b8381101561563757815161561e88826155c1565b9750615629836155d9565b92505060018101905061560a565b5085935050505092915050565b600060e082019050615659600083018a615568565b818103602083015261566b8189614c36565b9050818103604083015261567f8188614c36565b905061568e606083018761487a565b61569b6080830186615577565b6156a860a08301856150be565b81810360c08301526156ba81846155e6565b905098975050505050505050565b600065ffffffffffff82169050919050565b6156e3816156c8565b82525050565b60006020820190506156fe60008301846156da565b92915050565b60008060006060848603121561571d5761571c6147ab565b5b600061572b86828701614cda565b935050602061573c868287016148bb565b925050604084013567ffffffffffffffff81111561575d5761575c6147b0565b5b61576986828701614a81565b9150509250925092565b600061577e82614c91565b9050919050565b600061579082615773565b9050919050565b6157a081615785565b81146157ab57600080fd5b50565b6000813590506157bd81615797565b92915050565b6000602082840312156157d9576157d86147ab565b5b60006157e7848285016157ae565b91505092915050565b600080600080600060a0868803121561580c5761580b6147ab565b5b600061581a88828901614cda565b955050602061582b88828901614cda565b945050604086013567ffffffffffffffff81111561584c5761584b6147b0565b5b61585888828901614ef4565b935050606086013567ffffffffffffffff811115615879576158786147b0565b5b61588588828901614ef4565b925050608086013567ffffffffffffffff8111156158a6576158a56147b0565b5b6158b288828901614a81565b9150509295509295909350565b60008083601f8401126158d5576158d4614909565b5b8235905067ffffffffffffffff8111156158f2576158f161490e565b5b60208301915083600182028301111561590e5761590d614913565b5b9250929050565b6000806000806060858703121561592f5761592e6147ab565b5b600061593d87828801614cda565b945050602061594e878288016148bb565b935050604085013567ffffffffffffffff81111561596f5761596e6147b0565b5b61597b878288016158bf565b925092505092959194509250565b600060208201905061599e6000830184615577565b92915050565b600080604083850312156159bb576159ba6147ab565b5b60006159c985828601614cda565b92505060206159da858286016148bb565b9150509250929050565b600080600080600060a08688031215615a00576159ff6147ab565b5b6000615a0e88828901614cda565b9550506020615a1f88828901614cda565b9450506040615a30888289016148bb565b9350506060615a41888289016148bb565b925050608086013567ffffffffffffffff811115615a6257615a616147b0565b5b615a6e88828901614a81565b9150509295509295909350565b6000819050919050565b6000615aa0615a9b615a9684614c91565b615a7b565b614c91565b9050919050565b6000615ab282615a85565b9050919050565b6000615ac482615aa7565b9050919050565b615ad481615ab9565b82525050565b6000602082019050615aef6000830184615acb565b92915050565b600081905092915050565b6000615b0c8385615af5565b9350615b19838584614a30565b82840190509392505050565b6000615b32828486615b00565b91508190509392505050565b615b47816148d0565b82525050565b600060a082019050615b6260008301886150be565b615b6f602083018761487a565b615b7c6040830186615b3e565b615b8960608301856150be565b615b9660808301846150be565b9695505050505050565b7f476f7665726e6f723a206f6e6c79476f7665726e616e63650000000000000000600082015250565b6000615bd6601883614bfb565b9150615be182615ba0565b602082019050919050565b60006020820190508181036000830152615c0581615bc9565b9050919050565b7f4e487b7100000000000000000000000000000000000000000000000000000000600052602260045260246000fd5b60006002820490506001821680615c5357607f821691505b602082108103615c6657615c65615c0c565b5b50919050565b7f476f7665726e6f723a2070726f706f73616c206e6f742073756363657373667560008201527f6c00000000000000000000000000000000000000000000000000000000000000602082015250565b6000615cc8602183614bfb565b9150615cd382615c6c565b604082019050919050565b60006020820190508181036000830152615cf781615cbb565b9050919050565b600081519050615d0d816148a4565b92915050565b600060208284031215615d2957615d286147ab565b5b6000615d3784828501615cfe565b91505092915050565b600081519050919050565b600082825260208201905092915050565b6000819050602082019050919050565b615d7581614cb1565b82525050565b6000615d878383615d6c565b60208301905092915050565b6000602082019050919050565b6000615dab82615d40565b615db58185615d4b565b9350615dc083615d5c565b8060005b83811015615df1578151615dd88882615d7b565b9750615de383615d93565b925050600181019050615dc4565b5085935050505092915050565b600081519050919050565b600082825260208201905092915050565b6000819050602082019050919050565b600081519050919050565b600082825260208201905092915050565b6000615e5182615e2a565b615e5b8185615e35565b9350615e6b818560208601614c0c565b615e7481614973565b840191505092915050565b6000615e8b8383615e46565b905092915050565b6000602082019050919050565b6000615eab82615dfe565b615eb58185615e09565b935083602082028501615ec785615e1a565b8060005b85811015615f035784840389528151615ee48582615e7f565b9450615eef83615e93565b925060208a01995050600181019050615ecb565b50829750879550505050505092915050565b6000819050919050565b60008160001b9050919050565b6000615f47615f42615f3d84615f15565b615f1f565b614aaf565b9050919050565b615f5781615f2c565b82525050565b600060a0820190508181036000830152615f778188615da0565b90508181036020830152615f8b81876155e6565b90508181036040830152615f9f8186615ea0565b9050615fae6060830185615f4e565b615fbb60808301846150be565b9695505050505050565b600081519050615fd481614ab9565b92915050565b600060208284031215615ff057615fef6147ab565b5b6000615ffe84828501615fc5565b91505092915050565b600060c08201905081810360008301526160218189615da0565b9050818103602083015261603581886155e6565b905081810360408301526160498187615ea0565b90506160586060830186615f4e565b61606560808301856150be565b61607260a083018461487a565b979650505050505050565b7f4e487b7100000000000000000000000000000000000000000000000000000000600052601160045260246000fd5b60006160b782614870565b91506160c283614870565b92508282019050808211156160da576160d961607d565b5b92915050565b60006040820190506160f5600083018561487a565b616102602083018461487a565b9392505050565b600060608201905061611e60008301866150be565b61612b602083018561487a565b6161386040830184615b3e565b949350505050565b7f476f7665726e6f723a20746f6f206c61746520746f2063616e63656c00000000600082015250565b6000616176601c83614bfb565b915061618182616140565b602082019050919050565b600060208201905081810360008301526161a581616169565b9050919050565b7f476f7665726e6f723a206f6e6c792070726f706f7365722063616e2063616e6360008201527f656c000000000000000000000000000000000000000000000000000000000000602082015250565b6000616208602283614bfb565b9150616213826161ac565b604082019050919050565b60006020820190508181036000830152616237816161fb565b9050919050565b600061625161624c846153c4565b6149e4565b90508281526020810184848401111561626d5761626c61496e565b5b616278848285614c0c565b509392505050565b600082601f83011261629557616294614909565b5b81516162a584826020860161623e565b91505092915050565b6000602082840312156162c4576162c36147ab565b5b600082015167ffffffffffffffff8111156162e2576162e16147b0565b5b6162ee84828501616280565b91505092915050565b600061630282614870565b915061630d83614870565b92508282039050818111156163255761632461607d565b5b92915050565b7f4e487b7100000000000000000000000000000000000000000000000000000000600052603260045260246000fd5b616363816156c8565b811461636e57600080fd5b50565b6000815190506163808161635a565b92915050565b60006020828403121561639c5761639b6147ab565b5b60006163aa84828501616371565b91505092915050565b600060808201905081810360008301526163cd8187615da0565b905081810360208301526163e181866155e6565b905081810360408301526163f58185615ea0565b905061640460608301846150be565b95945050505050565b7f476f7665726e6f723a20766f7465206e6f742063757272656e746c792061637460008201527f6976650000000000000000000000000000000000000000000000000000000000602082015250565b6000616469602383614bfb565b91506164748261640d565b604082019050919050565b600060208201905081810360008301526164988161645c565b9050919050565b60006080820190506164b4600083018761487a565b6164c16020830186615b3e565b6164ce604083018561487a565b81810360608301526164e08184614c36565b905095945050505050565b600082825260208201905092915050565b600061650782615e2a565b61651181856164eb565b9350616521818560208601614c0c565b61652a81614973565b840191505092915050565b600060a08201905061654a600083018861487a565b6165576020830187615b3e565b616564604083018661487a565b81810360608301526165768185614c36565b9050818103608083015261658a81846164fc565b90509695505050505050565b7f476f7665726e6f72566f74657351756f72756d4672616374696f6e3a2071756f60008201527f72756d4e756d657261746f72206f7665722071756f72756d44656e6f6d696e6160208201527f746f720000000000000000000000000000000000000000000000000000000000604082015250565b6000616618604383614bfb565b915061662382616596565b606082019050919050565b600060208201905081810360008301526166478161660b565b9050919050565b600061665982614870565b91507fffffffffffffffffffffffffffffffffffffffffffffffffffffffffffffffff820361668b5761668a61607d565b5b600182019050919050565b61669f8161483a565b81146166aa57600080fd5b50565b6000815190506166bc81616696565b92915050565b6000602082840312156166d8576166d76147ab565b5b60006166e6848285016166ad565b91505092915050565b7f53616665436173743a2076616c756520646f65736e27742066697420696e203360008201527f3220626974730000000000000000000000000000000000000000000000000000602082015250565b600061674b602683614bfb565b9150616756826166ef565b604082019050919050565b6000602082019050818103600083015261677a8161673e565b9050919050565b7f53616665436173743a2076616c756520646f65736e27742066697420696e203460008201527f3820626974730000000000000000000000000000000000000000000000000000602082015250565b60006167dd602683614bfb565b91506167e882616781565b604082019050919050565b6000602082019050818103600083015261680c816167d0565b9050919050565b60006040820190506168286000830185615577565b616835602083018461487a565b9392505050565b60006040820190506168516000830185615577565b61685e6020830184615577565b9392505050565b600061687082614870565b915061687b83614870565b925082820261688981614870565b915082820484148315176168a05761689f61607d565b5b5092915050565b7f4e487b7100000000000000000000000000000000000000000000000000000000600052601260045260246000fd5b60006168e182614870565b91506168ec83614870565b9250826168fc576168fb6168a7565b5b828204905092915050565b600060808201905061691c60008301876150be565b6169296020830186615b3e565b61693660408301856150be565b61694360608301846150be565b95945050505050565b7f45434453413a20696e76616c6964207369676e61747572650000000000000000600082015250565b6000616982601883614bfb565b915061698d8261694c565b602082019050919050565b600060208201905081810360008301526169b181616975565b9050919050565b7f45434453413a20696e76616c6964207369676e6174757265206c656e67746800600082015250565b60006169ee601f83614bfb565b91506169f9826169b8565b602082019050919050565b60006020820190508181036000830152616a1d816169e1565b9050919050565b7f45434453413a20696e76616c6964207369676e6174757265202773272076616c60008201527f7565000000000000000000000000000000000000000000000000000000000000602082015250565b6000616a80602283614bfb565b9150616a8b82616a24565b604082019050919050565b60006020820190508181036000830152616aaf81616a73565b9050919050565b7f476f7665726e6f72566f74696e6753696d706c653a20766f746520616c72656160008201527f6479206361737400000000000000000000000000000000000000000000000000602082015250565b6000616b12602783614bfb565b9150616b1d82616ab6565b604082019050919050565b60006020820190508181036000830152616b4181616b05565b9050919050565b7f476f7665726e6f72566f74696e6753696d706c653a20696e76616c696420766160008201527f6c756520666f7220656e756d20566f7465547970650000000000000000000000602082015250565b6000616ba4603583614bfb565b9150616baf82616b48565b604082019050919050565b60006020820190508181036000830152616bd381616b97565b9050919050565b7f53616665436173743a2076616c756520646f65736e27742066697420696e203260008201527f3234206269747300000000000000000000000000000000000000000000000000602082015250565b6000616c36602783614bfb565b9150616c4182616bda565b604082019050919050565b60006020820190508181036000830152616c6581616c29565b9050919050565b7f476f7665726e6f723a20756e6b6e6f776e2070726f706f73616c206964000000600082015250565b6000616ca2601d83614bfb565b9150616cad82616c6c565b602082019050919050565b60006020820190508181036000830152616cd181616c95565b9050919050565b7f476f7665726e6f723a2070726f706f73657220766f7465732062656c6f77207060008201527f726f706f73616c207468726573686f6c64000000000000000000000000000000602082015250565b6000616d34603183614bfb565b9150616d3f82616cd8565b604082019050919050565b60006020820190508181036000830152616d6381616d27565b9050919050565b7f476f7665726e6f723a20696e76616c69642070726f706f73616c206c656e677460008201527f6800000000000000000000000000000000000000000000000000000000000000602082015250565b6000616dc6602183614bfb565b9150616dd182616d6a565b604082019050919050565b60006020820190508181036000830152616df581616db9565b9050919050565b7f476f7665726e6f723a20656d7074792070726f706f73616c0000000000000000600082015250565b6000616e32601883614bfb565b9150616e3d82616dfc565b602082019050919050565b60006020820190508181036000830152616e6181616e25565b9050919050565b7f476f7665726e6f723a2070726f706f73616c20616c726561647920657869737460008201527f7300000000000000000000000000000000000000000000000000000000000000602082015250565b6000616ec4602183614bfb565b9150616ecf82616e68565b604082019050919050565b60006020820190508181036000830152616ef381616eb7565b9050919050565b600081519050919050565b600082825260208201905092915050565b6000819050602082019050919050565b600082825260208201905092915050565b6000616f4282614bf0565b616f4c8185616f26565b9350616f5c818560208601614c0c565b616f6581614973565b840191505092915050565b6000616f7c8383616f37565b905092915050565b6000602082019050919050565b6000616f9c82616efa565b616fa68185616f05565b935083602082028501616fb885616f16565b8060005b85811015616ff45784840389528151616fd58582616f70565b9450616fe083616f84565b925060208a01995050600181019050616fbc565b50829750879550505050505092915050565b60006101208201905061701c600083018c61487a565b617029602083018b615577565b818103604083015261703b818a615da0565b9050818103606083015261704f81896155e6565b905081810360808301526170638188616f91565b905081810360a08301526170778187615ea0565b905061708660c083018661487a565b61709360e083018561487a565b8181036101008301526170a68184614c36565b90509a9950505050505050505050565b600060a0820190506170cb60008301886150be565b6170d860208301876150be565b6170e560408301866150be565b6170f2606083018561487a565b6170ff6080830184615577565b9695505050505050565b7f436865636b706f696e743a2064656372656173696e67206b6579730000000000600082015250565b600061713f601b83614bfb565b915061714a82617109565b602082019050919050565b6000602082019050818103600083015261716e81617132565b9050919050565b7f476f7665726e6f723a2070726f706f73616c206e6f7420616374697665000000600082015250565b60006171ab601d83614bfb565b91506171b682617175565b602082019050919050565b600060208201905081810360008301526171da8161719e565b9050919050565b7f53616665436173743a2076616c756520646f65736e27742066697420696e203660008201527f3420626974730000000000000000000000000000000000000000000000000000602082015250565b600061723d602683614bfb565b9150617248826171e1565b604082019050919050565b6000602082019050818103600083015261726c81617230565b905091905056fe476f7665726e6f723a2072656c617920726576657274656420776974686f7574206d657373616765a2646970667358221220850bb935c82aceafc4b4a19b8a3acd526a9aa4cae5f0a359b7e9faee585d50bc64736f6c63430008130033",
  "immutableReferences": {
    "7990": [
      {
        "length": 32,
        "start": 5299
      },
      {
        "length": 32,
        "start": 6543
      },
      {
        "length": 32,
        "start": 8020
      },
      {
        "length": 32,
        "start": 10872
      },
      {
        "length": 32,
        "start": 11378
      }
    ],
    "32538": [
      {
        "length": 32,
        "start": 12131
      }
    ],
    "32540": [
      {
        "length": 32,
        "start": 12090
      }
    ],
    "32542": [
      {
        "length": 32,
        "start": 12004
      }
    ],
    "32545": [
      {
        "length": 32,
        "start": 6300
      }
    ],
    "32548": [
      {
        "length": 32,
        "start": 6352
      }
    ],
    "32554": [
      {
        "length": 32,
        "start": 16407
      }
    ],
    "32556": [
      {
        "length": 32,
        "start": 16440
      }
    ]
  },
  "source": "// SPDX-License-Identifier: MIT\r\npragma solidity ^0.8.2;\r\n\r\nimport \"../../governance/Governor.sol\";\r\nimport \"../../governance/extensions/GovernorProposalThreshold.sol\";\r\nimport \"../../governance/extensions/GovernorCountingSimple.sol\";\r\nimport \"../../governance/extensions/GovernorVotes.sol\";\r\nimport \"../../governance/extensions/GovernorVotesQuorumFraction.sol\";\r\nimport \"../../governance/extensions/GovernorTimelockControl.sol\";\r\n\r\ncontract MyGovernor2 is\r\n    Governor,\r\n    GovernorTimelockControl,\r\n    GovernorProposalThreshold,\r\n    GovernorVotes,\r\n    GovernorVotesQuorumFraction,\r\n    GovernorCountingSimple\r\n{\r\n    constructor(\r\n        IVotes _token,\r\n        TimelockController _timelock\r\n    ) Governor(\"MyGovernor\") GovernorVotes(_token) GovernorVotesQuorumFraction(4) GovernorTimelockControl(_timelock) {}\r\n\r\n    function votingDelay() public pure override returns (uint256) {\r\n        return 1; // 1 block\r\n    }\r\n\r\n    function votingPeriod() public pure override returns (uint256) {\r\n        return 45818; // 1 week\r\n    }\r\n\r\n    function proposalThreshold() public pure override returns (uint256) {\r\n        return 1000e18;\r\n    }\r\n\r\n    // The following functions are overrides required by Solidity.\r\n\r\n    function quorum(\r\n        uint256 blockNumber\r\n    ) public view override(IGovernor, GovernorVotesQuorumFraction) returns (uint256) {\r\n        return super.quorum(blockNumber);\r\n    }\r\n\r\n    function state(uint256 proposalId) public view override(Governor, GovernorTimelockControl) returns (ProposalState) {\r\n        return super.state(proposalId);\r\n    }\r\n\r\n    function propose(\r\n        address[] memory targets,\r\n        uint256[] memory values,\r\n        bytes[] memory calldatas,\r\n        string memory description\r\n    ) public override(Governor, GovernorProposalThreshold, IGovernor) returns (uint256) {\r\n        return super.propose(targets, values, calldatas, description);\r\n    }\r\n\r\n    function _execute(\r\n        uint256 proposalId,\r\n        address[] memory targets,\r\n        uint256[] memory values,\r\n        bytes[] memory calldatas,\r\n        bytes32 descriptionHash\r\n    ) internal override(Governor, GovernorTimelockControl) {\r\n        super._execute(proposalId, targets, values, calldatas, descriptionHash);\r\n    }\r\n\r\n    function _cancel(\r\n        address[] memory targets,\r\n        uint256[] memory values,\r\n        bytes[] memory calldatas,\r\n        bytes32 descriptionHash\r\n    ) internal override(Governor, GovernorTimelockControl) returns (uint256) {\r\n        return super._cancel(targets, values, calldatas, descriptionHash);\r\n    }\r\n\r\n    function _executor() internal view override(Governor, GovernorTimelockControl) returns (address) {\r\n        return super._executor();\r\n    }\r\n\r\n    function supportsInterface(\r\n        bytes4 interfaceId\r\n    ) public view override(Governor, GovernorTimelockControl) returns (bool) {\r\n        return super.supportsInterface(interfaceId);\r\n    }\r\n}\r\n",
  "sourcePath": "C:\\Users\\akqjq\\Desktop\\S08P22A308\\smart-contracts\\contracts\\mocks\\wizard\\MyGovernor2.sol",
  "compiler": {
    "name": "solc",
    "version": "0.8.19+commit.7dd6d404.Emscripten.clang"
  },
  "schemaVersion": "3.4.13",
  "updatedAt": "2023-03-22T16:34:02.946Z",
  "devdoc": {
    "errors": {
      "Empty()": [
        {
          "details": "An operation (e.g. {front}) couldn't be completed due to the queue being empty."
        }
      ]
    },
    "events": {
      "EIP712DomainChanged()": {
        "details": "MAY be emitted to signal that the domain could have changed."
      },
      "ProposalCanceled(uint256)": {
        "details": "Emitted when a proposal is canceled."
      },
      "ProposalCreated(uint256,address,address[],uint256[],string[],bytes[],uint256,uint256,string)": {
        "details": "Emitted when a proposal is created."
      },
      "ProposalExecuted(uint256)": {
        "details": "Emitted when a proposal is executed."
      },
      "TimelockChange(address,address)": {
        "details": "Emitted when the timelock controller used for proposal execution is modified."
      },
      "VoteCast(address,uint256,uint8,uint256,string)": {
        "details": "Emitted when a vote is cast without params. Note: `support` values should be seen as buckets. Their interpretation depends on the voting module used."
      },
      "VoteCastWithParams(address,uint256,uint8,uint256,string,bytes)": {
        "details": "Emitted when a vote is cast with params. Note: `support` values should be seen as buckets. Their interpretation depends on the voting module used. `params` are additional encoded parameters. Their interpepretation also depends on the voting module used."
      }
    },
    "kind": "dev",
    "methods": {
      "CLOCK_MODE()": {
        "details": "Machine-readable description of the clock as specified in EIP-6372."
      },
      "COUNTING_MODE()": {
        "details": "See {IGovernor-COUNTING_MODE}."
      },
      "cancel(address[],uint256[],bytes[],bytes32)": {
        "details": "See {IGovernor-cancel}."
      },
      "castVote(uint256,uint8)": {
        "details": "See {IGovernor-castVote}."
      },
      "castVoteBySig(uint256,uint8,uint8,bytes32,bytes32)": {
        "details": "See {IGovernor-castVoteBySig}."
      },
      "castVoteWithReason(uint256,uint8,string)": {
        "details": "See {IGovernor-castVoteWithReason}."
      },
      "castVoteWithReasonAndParams(uint256,uint8,string,bytes)": {
        "details": "See {IGovernor-castVoteWithReasonAndParams}."
      },
      "castVoteWithReasonAndParamsBySig(uint256,uint8,string,bytes,uint8,bytes32,bytes32)": {
        "details": "See {IGovernor-castVoteWithReasonAndParamsBySig}."
      },
      "clock()": {
        "details": "Clock (as specified in EIP-6372) is set to match the token's clock. Fallback to block numbers if the token does not implement EIP-6372."
      },
      "eip712Domain()": {
        "details": "See {EIP-5267}."
      },
      "execute(address[],uint256[],bytes[],bytes32)": {
        "details": "See {IGovernor-execute}."
      },
      "getVotes(address,uint256)": {
        "details": "See {IGovernor-getVotes}."
      },
      "getVotesWithParams(address,uint256,bytes)": {
        "details": "See {IGovernor-getVotesWithParams}."
      },
      "hasVoted(uint256,address)": {
        "details": "See {IGovernor-hasVoted}."
      },
      "hashProposal(address[],uint256[],bytes[],bytes32)": {
        "details": "See {IGovernor-hashProposal}. The proposal id is produced by hashing the ABI encoded `targets` array, the `values` array, the `calldatas` array and the descriptionHash (bytes32 which itself is the keccak256 hash of the description string). This proposal id can be produced from the proposal data which is part of the {ProposalCreated} event. It can even be computed in advance, before the proposal is submitted. Note that the chainId and the governor address are not part of the proposal id computation. Consequently, the same proposal (with same operation and same description) will have the same id if submitted on multiple governors across multiple networks. This also means that in order to execute the same operation twice (on the same governor) the proposer will have to change the description in order to avoid proposal id conflicts."
      },
      "name()": {
        "details": "See {IGovernor-name}."
      },
      "onERC1155BatchReceived(address,address,uint256[],uint256[],bytes)": {
        "details": "See {IERC1155Receiver-onERC1155BatchReceived}."
      },
      "onERC1155Received(address,address,uint256,uint256,bytes)": {
        "details": "See {IERC1155Receiver-onERC1155Received}."
      },
      "onERC721Received(address,address,uint256,bytes)": {
        "details": "See {IERC721Receiver-onERC721Received}."
      },
      "proposalDeadline(uint256)": {
        "details": "See {IGovernor-proposalDeadline}."
      },
      "proposalEta(uint256)": {
        "details": "Public accessor to check the eta of a queued proposal"
      },
      "proposalSnapshot(uint256)": {
        "details": "See {IGovernor-proposalSnapshot}."
      },
      "proposalThreshold()": {
        "details": "Part of the Governor Bravo's interface: _\"The number of votes required in order for a voter to become a proposer\"_."
      },
      "proposalVotes(uint256)": {
        "details": "Accessor to the internal vote counts."
      },
      "queue(address[],uint256[],bytes[],bytes32)": {
        "details": "Function to queue a proposal to the timelock."
      },
      "quorumDenominator()": {
        "details": "Returns the quorum denominator. Defaults to 100, but may be overridden."
      },
      "quorumNumerator()": {
        "details": "Returns the current quorum numerator. See {quorumDenominator}."
      },
      "quorumNumerator(uint256)": {
        "details": "Returns the quorum numerator at a specific timepoint. See {quorumDenominator}."
      },
      "relay(address,uint256,bytes)": {
        "details": "Relays a transaction or function call to an arbitrary target. In cases where the governance executor is some contract other than the governor itself, like when using a timelock, this function can be invoked in a governance proposal to recover tokens or Ether that was sent to the governor contract by mistake. Note that if the executor is simply the governor itself, use of `relay` is redundant."
      },
      "timelock()": {
        "details": "Public accessor to check the address of the timelock"
      },
      "updateQuorumNumerator(uint256)": {
        "details": "Changes the quorum numerator. Emits a {QuorumNumeratorUpdated} event. Requirements: - Must be called through a governance proposal. - New numerator must be smaller or equal to the denominator."
      },
      "updateTimelock(address)": {
        "details": "Public endpoint to update the underlying timelock instance. Restricted to the timelock itself, so updates must be proposed, scheduled, and executed through governance proposals. CAUTION: It is not recommended to change the timelock while there are other queued governance proposals."
      },
      "version()": {
        "details": "See {IGovernor-version}."
      },
      "votingDelay()": {
        "details": "Delay, between the proposal is created and the vote starts. The unit this duration is expressed in depends on the clock (see EIP-6372) this contract uses. This can be increased to leave time for users to buy voting power, or delegate it, before the voting of a proposal starts."
      },
      "votingPeriod()": {
        "details": "Delay, between the vote start and vote ends. The unit this duration is expressed in depends on the clock (see EIP-6372) this contract uses. NOTE: The {votingDelay} can delay the start of the vote. This must be considered when setting the voting duration compared to the voting delay."
      }
    },
    "version": 1
  },
  "userdoc": {
    "kind": "user",
    "methods": {
      "votingDelay()": {
        "notice": "module:user-config"
      },
      "votingPeriod()": {
        "notice": "module:user-config"
      }
    },
    "version": 1
  }
}