{
  "contractName": "MyGovernor",
  "abi": [
    {
      "inputs": [
        {
          "internalType": "contract IVotes",
          "name": "_token",
          "type": "address"
        },
        {
          "internalType": "contract TimelockController",
          "name": "_timelock",
          "type": "address"
        }
      ],
      "stateMutability": "nonpayable",
      "type": "constructor"
    },
    {
      "inputs": [],
      "name": "Empty",
      "type": "error"
    },
    {
      "inputs": [],
      "name": "InvalidShortString",
      "type": "error"
    },
    {
      "inputs": [
        {
          "internalType": "string",
          "name": "str",
          "type": "string"
        }
      ],
      "name": "StringTooLong",
      "type": "error"
    },
    {
      "anonymous": false,
      "inputs": [],
      "name": "EIP712DomainChanged",
      "type": "event"
    },
    {
      "anonymous": false,
      "inputs": [
        {
          "indexed": false,
          "internalType": "uint256",
          "name": "proposalId",
          "type": "uint256"
        }
      ],
      "name": "ProposalCanceled",
      "type": "event"
    },
    {
      "anonymous": false,
      "inputs": [
        {
          "indexed": false,
          "internalType": "uint256",
          "name": "proposalId",
          "type": "uint256"
        },
        {
          "indexed": false,
          "internalType": "address",
          "name": "proposer",
          "type": "address"
        },
        {
          "indexed": false,
          "internalType": "address[]",
          "name": "targets",
          "type": "address[]"
        },
        {
          "indexed": false,
          "internalType": "uint256[]",
          "name": "values",
          "type": "uint256[]"
        },
        {
          "indexed": false,
          "internalType": "string[]",
          "name": "signatures",
          "type": "string[]"
        },
        {
          "indexed": false,
          "internalType": "bytes[]",
          "name": "calldatas",
          "type": "bytes[]"
        },
        {
          "indexed": false,
          "internalType": "uint256",
          "name": "voteStart",
          "type": "uint256"
        },
        {
          "indexed": false,
          "internalType": "uint256",
          "name": "voteEnd",
          "type": "uint256"
        },
        {
          "indexed": false,
          "internalType": "string",
          "name": "description",
          "type": "string"
        }
      ],
      "name": "ProposalCreated",
      "type": "event"
    },
    {
      "anonymous": false,
      "inputs": [
        {
          "indexed": false,
          "internalType": "uint256",
          "name": "proposalId",
          "type": "uint256"
        }
      ],
      "name": "ProposalExecuted",
      "type": "event"
    },
    {
      "anonymous": false,
      "inputs": [
        {
          "indexed": false,
          "internalType": "uint256",
          "name": "proposalId",
          "type": "uint256"
        },
        {
          "indexed": false,
          "internalType": "uint256",
          "name": "eta",
          "type": "uint256"
        }
      ],
      "name": "ProposalQueued",
      "type": "event"
    },
    {
      "anonymous": false,
      "inputs": [
        {
          "indexed": false,
          "internalType": "uint256",
          "name": "oldQuorumNumerator",
          "type": "uint256"
        },
        {
          "indexed": false,
          "internalType": "uint256",
          "name": "newQuorumNumerator",
          "type": "uint256"
        }
      ],
      "name": "QuorumNumeratorUpdated",
      "type": "event"
    },
    {
      "anonymous": false,
      "inputs": [
        {
          "indexed": false,
          "internalType": "address",
          "name": "oldTimelock",
          "type": "address"
        },
        {
          "indexed": false,
          "internalType": "address",
          "name": "newTimelock",
          "type": "address"
        }
      ],
      "name": "TimelockChange",
      "type": "event"
    },
    {
      "anonymous": false,
      "inputs": [
        {
          "indexed": true,
          "internalType": "address",
          "name": "voter",
          "type": "address"
        },
        {
          "indexed": false,
          "internalType": "uint256",
          "name": "proposalId",
          "type": "uint256"
        },
        {
          "indexed": false,
          "internalType": "uint8",
          "name": "support",
          "type": "uint8"
        },
        {
          "indexed": false,
          "internalType": "uint256",
          "name": "weight",
          "type": "uint256"
        },
        {
          "indexed": false,
          "internalType": "string",
          "name": "reason",
          "type": "string"
        }
      ],
      "name": "VoteCast",
      "type": "event"
    },
    {
      "anonymous": false,
      "inputs": [
        {
          "indexed": true,
          "internalType": "address",
          "name": "voter",
          "type": "address"
        },
        {
          "indexed": false,
          "internalType": "uint256",
          "name": "proposalId",
          "type": "uint256"
        },
        {
          "indexed": false,
          "internalType": "uint8",
          "name": "support",
          "type": "uint8"
        },
        {
          "indexed": false,
          "internalType": "uint256",
          "name": "weight",
          "type": "uint256"
        },
        {
          "indexed": false,
          "internalType": "string",
          "name": "reason",
          "type": "string"
        },
        {
          "indexed": false,
          "internalType": "bytes",
          "name": "params",
          "type": "bytes"
        }
      ],
      "name": "VoteCastWithParams",
      "type": "event"
    },
    {
      "inputs": [],
      "name": "BALLOT_TYPEHASH",
      "outputs": [
        {
          "internalType": "bytes32",
          "name": "",
          "type": "bytes32"
        }
      ],
      "stateMutability": "view",
      "type": "function"
    },
    {
      "inputs": [],
      "name": "CLOCK_MODE",
      "outputs": [
        {
          "internalType": "string",
          "name": "",
          "type": "string"
        }
      ],
      "stateMutability": "view",
      "type": "function"
    },
    {
      "inputs": [],
      "name": "COUNTING_MODE",
      "outputs": [
        {
          "internalType": "string",
          "name": "",
          "type": "string"
        }
      ],
      "stateMutability": "pure",
      "type": "function"
    },
    {
      "inputs": [],
      "name": "EXTENDED_BALLOT_TYPEHASH",
      "outputs": [
        {
          "internalType": "bytes32",
          "name": "",
          "type": "bytes32"
        }
      ],
      "stateMutability": "view",
      "type": "function"
    },
    {
      "inputs": [
        {
          "internalType": "uint256",
          "name": "proposalId",
          "type": "uint256"
        },
        {
          "internalType": "uint8",
          "name": "support",
          "type": "uint8"
        }
      ],
      "name": "castVote",
      "outputs": [
        {
          "internalType": "uint256",
          "name": "",
          "type": "uint256"
        }
      ],
      "stateMutability": "nonpayable",
      "type": "function"
    },
    {
      "inputs": [
        {
          "internalType": "uint256",
          "name": "proposalId",
          "type": "uint256"
        },
        {
          "internalType": "uint8",
          "name": "support",
          "type": "uint8"
        },
        {
          "internalType": "uint8",
          "name": "v",
          "type": "uint8"
        },
        {
          "internalType": "bytes32",
          "name": "r",
          "type": "bytes32"
        },
        {
          "internalType": "bytes32",
          "name": "s",
          "type": "bytes32"
        }
      ],
      "name": "castVoteBySig",
      "outputs": [
        {
          "internalType": "uint256",
          "name": "",
          "type": "uint256"
        }
      ],
      "stateMutability": "nonpayable",
      "type": "function"
    },
    {
      "inputs": [
        {
          "internalType": "uint256",
          "name": "proposalId",
          "type": "uint256"
        },
        {
          "internalType": "uint8",
          "name": "support",
          "type": "uint8"
        },
        {
          "internalType": "string",
          "name": "reason",
          "type": "string"
        }
      ],
      "name": "castVoteWithReason",
      "outputs": [
        {
          "internalType": "uint256",
          "name": "",
          "type": "uint256"
        }
      ],
      "stateMutability": "nonpayable",
      "type": "function"
    },
    {
      "inputs": [
        {
          "internalType": "uint256",
          "name": "proposalId",
          "type": "uint256"
        },
        {
          "internalType": "uint8",
          "name": "support",
          "type": "uint8"
        },
        {
          "internalType": "string",
          "name": "reason",
          "type": "string"
        },
        {
          "internalType": "bytes",
          "name": "params",
          "type": "bytes"
        }
      ],
      "name": "castVoteWithReasonAndParams",
      "outputs": [
        {
          "internalType": "uint256",
          "name": "",
          "type": "uint256"
        }
      ],
      "stateMutability": "nonpayable",
      "type": "function"
    },
    {
      "inputs": [
        {
          "internalType": "uint256",
          "name": "proposalId",
          "type": "uint256"
        },
        {
          "internalType": "uint8",
          "name": "support",
          "type": "uint8"
        },
        {
          "internalType": "string",
          "name": "reason",
          "type": "string"
        },
        {
          "internalType": "bytes",
          "name": "params",
          "type": "bytes"
        },
        {
          "internalType": "uint8",
          "name": "v",
          "type": "uint8"
        },
        {
          "internalType": "bytes32",
          "name": "r",
          "type": "bytes32"
        },
        {
          "internalType": "bytes32",
          "name": "s",
          "type": "bytes32"
        }
      ],
      "name": "castVoteWithReasonAndParamsBySig",
      "outputs": [
        {
          "internalType": "uint256",
          "name": "",
          "type": "uint256"
        }
      ],
      "stateMutability": "nonpayable",
      "type": "function"
    },
    {
      "inputs": [],
      "name": "clock",
      "outputs": [
        {
          "internalType": "uint48",
          "name": "",
          "type": "uint48"
        }
      ],
      "stateMutability": "view",
      "type": "function"
    },
    {
      "inputs": [],
      "name": "eip712Domain",
      "outputs": [
        {
          "internalType": "bytes1",
          "name": "fields",
          "type": "bytes1"
        },
        {
          "internalType": "string",
          "name": "name",
          "type": "string"
        },
        {
          "internalType": "string",
          "name": "version",
          "type": "string"
        },
        {
          "internalType": "uint256",
          "name": "chainId",
          "type": "uint256"
        },
        {
          "internalType": "address",
          "name": "verifyingContract",
          "type": "address"
        },
        {
          "internalType": "bytes32",
          "name": "salt",
          "type": "bytes32"
        },
        {
          "internalType": "uint256[]",
          "name": "extensions",
          "type": "uint256[]"
        }
      ],
      "stateMutability": "view",
      "type": "function"
    },
    {
      "inputs": [
        {
          "internalType": "address[]",
          "name": "targets",
          "type": "address[]"
        },
        {
          "internalType": "uint256[]",
          "name": "values",
          "type": "uint256[]"
        },
        {
          "internalType": "bytes[]",
          "name": "calldatas",
          "type": "bytes[]"
        },
        {
          "internalType": "bytes32",
          "name": "descriptionHash",
          "type": "bytes32"
        }
      ],
      "name": "execute",
      "outputs": [
        {
          "internalType": "uint256",
          "name": "",
          "type": "uint256"
        }
      ],
      "stateMutability": "payable",
      "type": "function"
    },
    {
      "inputs": [
        {
          "internalType": "uint256",
          "name": "proposalId",
          "type": "uint256"
        }
      ],
      "name": "execute",
      "outputs": [],
      "stateMutability": "payable",
      "type": "function"
    },
    {
      "inputs": [
        {
          "internalType": "uint256",
          "name": "proposalId",
          "type": "uint256"
        }
      ],
      "name": "getActions",
      "outputs": [
        {
          "internalType": "address[]",
          "name": "targets",
          "type": "address[]"
        },
        {
          "internalType": "uint256[]",
          "name": "values",
          "type": "uint256[]"
        },
        {
          "internalType": "string[]",
          "name": "signatures",
          "type": "string[]"
        },
        {
          "internalType": "bytes[]",
          "name": "calldatas",
          "type": "bytes[]"
        }
      ],
      "stateMutability": "view",
      "type": "function"
    },
    {
      "inputs": [
        {
          "internalType": "uint256",
          "name": "proposalId",
          "type": "uint256"
        },
        {
          "internalType": "address",
          "name": "voter",
          "type": "address"
        }
      ],
      "name": "getReceipt",
      "outputs": [
        {
          "components": [
            {
              "internalType": "bool",
              "name": "hasVoted",
              "type": "bool"
            },
            {
              "internalType": "uint8",
              "name": "support",
              "type": "uint8"
            },
            {
              "internalType": "uint96",
              "name": "votes",
              "type": "uint96"
            }
          ],
          "internalType": "struct IGovernorCompatibilityBravo.Receipt",
          "name": "",
          "type": "tuple"
        }
      ],
      "stateMutability": "view",
      "type": "function"
    },
    {
      "inputs": [
        {
          "internalType": "address",
          "name": "account",
          "type": "address"
        },
        {
          "internalType": "uint256",
          "name": "timepoint",
          "type": "uint256"
        }
      ],
      "name": "getVotes",
      "outputs": [
        {
          "internalType": "uint256",
          "name": "",
          "type": "uint256"
        }
      ],
      "stateMutability": "view",
      "type": "function"
    },
    {
      "inputs": [
        {
          "internalType": "address",
          "name": "account",
          "type": "address"
        },
        {
          "internalType": "uint256",
          "name": "timepoint",
          "type": "uint256"
        },
        {
          "internalType": "bytes",
          "name": "params",
          "type": "bytes"
        }
      ],
      "name": "getVotesWithParams",
      "outputs": [
        {
          "internalType": "uint256",
          "name": "",
          "type": "uint256"
        }
      ],
      "stateMutability": "view",
      "type": "function"
    },
    {
      "inputs": [
        {
          "internalType": "uint256",
          "name": "proposalId",
          "type": "uint256"
        },
        {
          "internalType": "address",
          "name": "account",
          "type": "address"
        }
      ],
      "name": "hasVoted",
      "outputs": [
        {
          "internalType": "bool",
          "name": "",
          "type": "bool"
        }
      ],
      "stateMutability": "view",
      "type": "function"
    },
    {
      "inputs": [
        {
          "internalType": "address[]",
          "name": "targets",
          "type": "address[]"
        },
        {
          "internalType": "uint256[]",
          "name": "values",
          "type": "uint256[]"
        },
        {
          "internalType": "bytes[]",
          "name": "calldatas",
          "type": "bytes[]"
        },
        {
          "internalType": "bytes32",
          "name": "descriptionHash",
          "type": "bytes32"
        }
      ],
      "name": "hashProposal",
      "outputs": [
        {
          "internalType": "uint256",
          "name": "",
          "type": "uint256"
        }
      ],
      "stateMutability": "pure",
      "type": "function"
    },
    {
      "inputs": [],
      "name": "name",
      "outputs": [
        {
          "internalType": "string",
          "name": "",
          "type": "string"
        }
      ],
      "stateMutability": "view",
      "type": "function"
    },
    {
      "inputs": [
        {
          "internalType": "address",
          "name": "",
          "type": "address"
        },
        {
          "internalType": "address",
          "name": "",
          "type": "address"
        },
        {
          "internalType": "uint256[]",
          "name": "",
          "type": "uint256[]"
        },
        {
          "internalType": "uint256[]",
          "name": "",
          "type": "uint256[]"
        },
        {
          "internalType": "bytes",
          "name": "",
          "type": "bytes"
        }
      ],
      "name": "onERC1155BatchReceived",
      "outputs": [
        {
          "internalType": "bytes4",
          "name": "",
          "type": "bytes4"
        }
      ],
      "stateMutability": "nonpayable",
      "type": "function"
    },
    {
      "inputs": [
        {
          "internalType": "address",
          "name": "",
          "type": "address"
        },
        {
          "internalType": "address",
          "name": "",
          "type": "address"
        },
        {
          "internalType": "uint256",
          "name": "",
          "type": "uint256"
        },
        {
          "internalType": "uint256",
          "name": "",
          "type": "uint256"
        },
        {
          "internalType": "bytes",
          "name": "",
          "type": "bytes"
        }
      ],
      "name": "onERC1155Received",
      "outputs": [
        {
          "internalType": "bytes4",
          "name": "",
          "type": "bytes4"
        }
      ],
      "stateMutability": "nonpayable",
      "type": "function"
    },
    {
      "inputs": [
        {
          "internalType": "address",
          "name": "",
          "type": "address"
        },
        {
          "internalType": "address",
          "name": "",
          "type": "address"
        },
        {
          "internalType": "uint256",
          "name": "",
          "type": "uint256"
        },
        {
          "internalType": "bytes",
          "name": "",
          "type": "bytes"
        }
      ],
      "name": "onERC721Received",
      "outputs": [
        {
          "internalType": "bytes4",
          "name": "",
          "type": "bytes4"
        }
      ],
      "stateMutability": "nonpayable",
      "type": "function"
    },
    {
      "inputs": [
        {
          "internalType": "uint256",
          "name": "proposalId",
          "type": "uint256"
        }
      ],
      "name": "proposalDeadline",
      "outputs": [
        {
          "internalType": "uint256",
          "name": "",
          "type": "uint256"
        }
      ],
      "stateMutability": "view",
      "type": "function"
    },
    {
      "inputs": [
        {
          "internalType": "uint256",
          "name": "proposalId",
          "type": "uint256"
        }
      ],
      "name": "proposalEta",
      "outputs": [
        {
          "internalType": "uint256",
          "name": "",
          "type": "uint256"
        }
      ],
      "stateMutability": "view",
      "type": "function"
    },
    {
      "inputs": [
        {
          "internalType": "uint256",
          "name": "proposalId",
          "type": "uint256"
        }
      ],
      "name": "proposalSnapshot",
      "outputs": [
        {
          "internalType": "uint256",
          "name": "",
          "type": "uint256"
        }
      ],
      "stateMutability": "view",
      "type": "function"
    },
    {
      "inputs": [
        {
          "internalType": "uint256",
          "name": "proposalId",
          "type": "uint256"
        }
      ],
      "name": "proposals",
      "outputs": [
        {
          "internalType": "uint256",
          "name": "id",
          "type": "uint256"
        },
        {
          "internalType": "address",
          "name": "proposer",
          "type": "address"
        },
        {
          "internalType": "uint256",
          "name": "eta",
          "type": "uint256"
        },
        {
          "internalType": "uint256",
          "name": "startBlock",
          "type": "uint256"
        },
        {
          "internalType": "uint256",
          "name": "endBlock",
          "type": "uint256"
        },
        {
          "internalType": "uint256",
          "name": "forVotes",
          "type": "uint256"
        },
        {
          "internalType": "uint256",
          "name": "againstVotes",
          "type": "uint256"
        },
        {
          "internalType": "uint256",
          "name": "abstainVotes",
          "type": "uint256"
        },
        {
          "internalType": "bool",
          "name": "canceled",
          "type": "bool"
        },
        {
          "internalType": "bool",
          "name": "executed",
          "type": "bool"
        }
      ],
      "stateMutability": "view",
      "type": "function"
    },
    {
      "inputs": [
        {
          "internalType": "address[]",
          "name": "targets",
          "type": "address[]"
        },
        {
          "internalType": "uint256[]",
          "name": "values",
          "type": "uint256[]"
        },
        {
          "internalType": "bytes[]",
          "name": "calldatas",
          "type": "bytes[]"
        },
        {
          "internalType": "bytes32",
          "name": "descriptionHash",
          "type": "bytes32"
        }
      ],
      "name": "queue",
      "outputs": [
        {
          "internalType": "uint256",
          "name": "",
          "type": "uint256"
        }
      ],
      "stateMutability": "nonpayable",
      "type": "function"
    },
    {
      "inputs": [
        {
          "internalType": "uint256",
          "name": "proposalId",
          "type": "uint256"
        }
      ],
      "name": "queue",
      "outputs": [],
      "stateMutability": "nonpayable",
      "type": "function"
    },
    {
      "inputs": [],
      "name": "quorumDenominator",
      "outputs": [
        {
          "internalType": "uint256",
          "name": "",
          "type": "uint256"
        }
      ],
      "stateMutability": "view",
      "type": "function"
    },
    {
      "inputs": [
        {
          "internalType": "uint256",
          "name": "timepoint",
          "type": "uint256"
        }
      ],
      "name": "quorumNumerator",
      "outputs": [
        {
          "internalType": "uint256",
          "name": "",
          "type": "uint256"
        }
      ],
      "stateMutability": "view",
      "type": "function"
    },
    {
      "inputs": [],
      "name": "quorumNumerator",
      "outputs": [
        {
          "internalType": "uint256",
          "name": "",
          "type": "uint256"
        }
      ],
      "stateMutability": "view",
      "type": "function"
    },
    {
      "inputs": [],
      "name": "quorumVotes",
      "outputs": [
        {
          "internalType": "uint256",
          "name": "",
          "type": "uint256"
        }
      ],
      "stateMutability": "view",
      "type": "function"
    },
    {
      "inputs": [
        {
          "internalType": "address",
          "name": "target",
          "type": "address"
        },
        {
          "internalType": "uint256",
          "name": "value",
          "type": "uint256"
        },
        {
          "internalType": "bytes",
          "name": "data",
          "type": "bytes"
        }
      ],
      "name": "relay",
      "outputs": [],
      "stateMutability": "payable",
      "type": "function"
    },
    {
      "inputs": [],
      "name": "timelock",
      "outputs": [
        {
          "internalType": "address",
          "name": "",
          "type": "address"
        }
      ],
      "stateMutability": "view",
      "type": "function"
    },
    {
      "inputs": [],
      "name": "token",
      "outputs": [
        {
          "internalType": "contract IERC5805",
          "name": "",
          "type": "address"
        }
      ],
      "stateMutability": "view",
      "type": "function"
    },
    {
      "inputs": [
        {
          "internalType": "uint256",
          "name": "newQuorumNumerator",
          "type": "uint256"
        }
      ],
      "name": "updateQuorumNumerator",
      "outputs": [],
      "stateMutability": "nonpayable",
      "type": "function"
    },
    {
      "inputs": [
        {
          "internalType": "contract TimelockController",
          "name": "newTimelock",
          "type": "address"
        }
      ],
      "name": "updateTimelock",
      "outputs": [],
      "stateMutability": "nonpayable",
      "type": "function"
    },
    {
      "inputs": [],
      "name": "version",
      "outputs": [
        {
          "internalType": "string",
          "name": "",
          "type": "string"
        }
      ],
      "stateMutability": "view",
      "type": "function"
    },
    {
      "stateMutability": "payable",
      "type": "receive"
    },
    {
      "inputs": [],
      "name": "votingDelay",
      "outputs": [
        {
          "internalType": "uint256",
          "name": "",
          "type": "uint256"
        }
      ],
      "stateMutability": "pure",
      "type": "function"
    },
    {
      "inputs": [],
      "name": "votingPeriod",
      "outputs": [
        {
          "internalType": "uint256",
          "name": "",
          "type": "uint256"
        }
      ],
      "stateMutability": "pure",
      "type": "function"
    },
    {
      "inputs": [],
      "name": "proposalThreshold",
      "outputs": [
        {
          "internalType": "uint256",
          "name": "",
          "type": "uint256"
        }
      ],
      "stateMutability": "pure",
      "type": "function"
    },
    {
      "inputs": [
        {
          "internalType": "uint256",
          "name": "blockNumber",
          "type": "uint256"
        }
      ],
      "name": "quorum",
      "outputs": [
        {
          "internalType": "uint256",
          "name": "",
          "type": "uint256"
        }
      ],
      "stateMutability": "view",
      "type": "function"
    },
    {
      "inputs": [
        {
          "internalType": "uint256",
          "name": "proposalId",
          "type": "uint256"
        }
      ],
      "name": "state",
      "outputs": [
        {
          "internalType": "enum IGovernor.ProposalState",
          "name": "",
          "type": "uint8"
        }
      ],
      "stateMutability": "view",
      "type": "function"
    },
    {
      "inputs": [
        {
          "internalType": "address[]",
          "name": "targets",
          "type": "address[]"
        },
        {
          "internalType": "uint256[]",
          "name": "values",
          "type": "uint256[]"
        },
        {
          "internalType": "bytes[]",
          "name": "calldatas",
          "type": "bytes[]"
        },
        {
          "internalType": "string",
          "name": "description",
          "type": "string"
        }
      ],
      "name": "propose",
      "outputs": [
        {
          "internalType": "uint256",
          "name": "",
          "type": "uint256"
        }
      ],
      "stateMutability": "nonpayable",
      "type": "function"
    },
    {
      "inputs": [
        {
          "internalType": "address[]",
          "name": "targets",
          "type": "address[]"
        },
        {
          "internalType": "uint256[]",
          "name": "values",
          "type": "uint256[]"
        },
        {
          "internalType": "string[]",
          "name": "signatures",
          "type": "string[]"
        },
        {
          "internalType": "bytes[]",
          "name": "calldatas",
          "type": "bytes[]"
        },
        {
          "internalType": "string",
          "name": "description",
          "type": "string"
        }
      ],
      "name": "propose",
      "outputs": [
        {
          "internalType": "uint256",
          "name": "",
          "type": "uint256"
        }
      ],
      "stateMutability": "nonpayable",
      "type": "function"
    },
    {
      "inputs": [
        {
          "internalType": "uint256",
          "name": "proposalId",
          "type": "uint256"
        }
      ],
      "name": "cancel",
      "outputs": [],
      "stateMutability": "nonpayable",
      "type": "function"
    },
    {
      "inputs": [
        {
          "internalType": "address[]",
          "name": "targets",
          "type": "address[]"
        },
        {
          "internalType": "uint256[]",
          "name": "values",
          "type": "uint256[]"
        },
        {
          "internalType": "bytes[]",
          "name": "calldatas",
          "type": "bytes[]"
        },
        {
          "internalType": "bytes32",
          "name": "descriptionHash",
          "type": "bytes32"
        }
      ],
      "name": "cancel",
      "outputs": [
        {
          "internalType": "uint256",
          "name": "",
          "type": "uint256"
        }
      ],
      "stateMutability": "nonpayable",
      "type": "function"
    },
    {
      "inputs": [
        {
          "internalType": "bytes4",
          "name": "interfaceId",
          "type": "bytes4"
        }
      ],
      "name": "supportsInterface",
      "outputs": [
        {
          "internalType": "bool",
          "name": "",
          "type": "bool"
        }
      ],
      "stateMutability": "view",
      "type": "function"
    }
  ],
  "bytecode": "0x6101806040523480156200001257600080fd5b506040516200a1353803806200a135833981810160405281019062000038919062000cf5565b600482826040518060400160405280600a81526020017f4d79476f7665726e6f72000000000000000000000000000000000000000000008152508062000083620001a860201b60201c565b62000099600083620001e560201b90919060201c565b60e08181525050620000b6600182620001e560201b90919060201c565b610100818152505081805190602001206101208181525050808051906020012061014081815250504660a08181525050620000f66200023d60201b60201c565b608081815250503073ffffffffffffffffffffffffffffffffffffffff1660c08173ffffffffffffffffffffffffffffffffffffffff16815250505050806002908162000144919062000fb6565b505062000157816200029b60201b60201c565b508073ffffffffffffffffffffffffffffffffffffffff166101608173ffffffffffffffffffffffffffffffffffffffff1681525050506200019f816200033c60201b60201c565b505050620016bd565b60606040518060400160405280600181526020017f3100000000000000000000000000000000000000000000000000000000000000815250905090565b60006020835110156200020b5762000203836200054a60201b60201c565b905062000237565b826200021d83620005b760201b60201c565b60000190816200022e919062000fb6565b5060ff60001b90505b92915050565b60007f8b73c3c69bb8fe3d512ecc4cf759cc79239f7b179b0ffacaa9a75d522b39400f6101205161014051463060405160200162000280959493929190620010da565b60405160208183030381529060405280519060200120905090565b7f08f74ea46ef7894f65eabfb5e6e695de773a000b47c529ab559178069b226401600660009054906101000a900473ffffffffffffffffffffffffffffffffffffffff1682604051620002f092919062001137565b60405180910390a180600660006101000a81548173ffffffffffffffffffffffffffffffffffffffff021916908373ffffffffffffffffffffffffffffffffffffffff16021790555050565b6200034c620005c160201b60201c565b81111562000391576040517f08c379a0000000000000000000000000000000000000000000000000000000008152600401620003889062001211565b60405180910390fd5b6000620003a3620005ca60201b60201c565b905060008114158015620003bf57506000600a60000180549050145b15620004ba57600a6000016040518060400160405280600063ffffffff168152602001620003f3846200061b60201b60201c565b7bffffffffffffffffffffffffffffffffffffffffffffffffffffffff168152509080600181540180825580915050600190039060005260206000200160009091909190915060008201518160000160006101000a81548163ffffffff021916908363ffffffff16021790555060208201518160000160046101000a8154817bffffffffffffffffffffffffffffffffffffffffffffffffffffffff02191690837bffffffffffffffffffffffffffffffffffffffffffffffffffffffff16021790555050505b62000509620004e6620004d26200068960201b60201c565b65ffffffffffff166200071f60201b60201c565b620004f7846200061b60201b60201c565b600a6200077560201b9092919060201c565b50507f0553476bf02ef2726e8ce5ced78d63e26e602e4a2257b1f559418e24b463399781836040516200053e92919062001233565b60405180910390a15050565b600080829050601f815111156200059a57826040517f305a27a9000000000000000000000000000000000000000000000000000000008152600401620005919190620012de565b60405180910390fd5b805181620005a89062001334565b60001c1760001b915050919050565b6000819050919050565b60006064905090565b600080600a60000180549050146200061257620005ee600a6200079a60201b60201c565b7bffffffffffffffffffffffffffffffffffffffffffffffffffffffff1662000616565b6009545b905090565b60007bffffffffffffffffffffffffffffffffffffffffffffffffffffffff801682111562000681576040517f08c379a000000000000000000000000000000000000000000000000000000000815260040162000678906200141a565b60405180910390fd5b819050919050565b60006101605173ffffffffffffffffffffffffffffffffffffffff166391ddadf46040518163ffffffff1660e01b8152600401602060405180830381865afa925050508015620006f957506040513d601f19601f82011682018060405250810190620006f691906200147f565b60015b62000717576200070f436200081060201b60201c565b90506200071c565b809150505b90565b600063ffffffff80168211156200076d576040517f08c379a0000000000000000000000000000000000000000000000000000000008152600401620007649062001527565b60405180910390fd5b819050919050565b6000806200078e8560000185856200086860201b60201c565b91509150935093915050565b60008082600001805490509050600081146200080557620007d383600001600183620007c7919062001578565b62000c0960201b60201c565b60000160049054906101000a90047bffffffffffffffffffffffffffffffffffffffffffffffffffffffff1662000808565b60005b915050919050565b600065ffffffffffff801682111562000860576040517f08c379a0000000000000000000000000000000000000000000000000000000008152600401620008579062001629565b60405180910390fd5b819050919050565b600080600085805490509050600081111562000b19576000620008a08760018462000894919062001578565b62000c0960201b60201c565b6040518060400160405290816000820160009054906101000a900463ffffffff1663ffffffff1663ffffffff1681526020016000820160049054906101000a90047bffffffffffffffffffffffffffffffffffffffffffffffffffffffff167bffffffffffffffffffffffffffffffffffffffffffffffffffffffff167bffffffffffffffffffffffffffffffffffffffffffffffffffffffff168152505090508563ffffffff16816000015163ffffffff16111562000997576040517f08c379a00000000000000000000000000000000000000000000000000000000081526004016200098e906200169b565b60405180910390fd5b8563ffffffff16816000015163ffffffff160362000a275784620009d088600185620009c4919062001578565b62000c0960201b60201c565b60000160046101000a8154817bffffffffffffffffffffffffffffffffffffffffffffffffffffffff02191690837bffffffffffffffffffffffffffffffffffffffffffffffffffffffff16021790555062000b07565b8660405180604001604052808863ffffffff168152602001877bffffffffffffffffffffffffffffffffffffffffffffffffffffffff168152509080600181540180825580915050600190039060005260206000200160009091909190915060008201518160000160006101000a81548163ffffffff021916908363ffffffff16021790555060208201518160000160046101000a8154817bffffffffffffffffffffffffffffffffffffffffffffffffffffffff02191690837bffffffffffffffffffffffffffffffffffffffffffffffffffffffff16021790555050505b80602001518593509350505062000c01565b8560405180604001604052808763ffffffff168152602001867bffffffffffffffffffffffffffffffffffffffffffffffffffffffff168152509080600181540180825580915050600190039060005260206000200160009091909190915060008201518160000160006101000a81548163ffffffff021916908363ffffffff16021790555060208201518160000160046101000a8154817bffffffffffffffffffffffffffffffffffffffffffffffffffffffff02191690837bffffffffffffffffffffffffffffffffffffffffffffffffffffffff160217905550505060008492509250505b935093915050565b60008260005281602060002001905092915050565b600080fd5b600073ffffffffffffffffffffffffffffffffffffffff82169050919050565b600062000c508262000c23565b9050919050565b600062000c648262000c43565b9050919050565b62000c768162000c57565b811462000c8257600080fd5b50565b60008151905062000c968162000c6b565b92915050565b600062000ca98262000c23565b9050919050565b600062000cbd8262000c9c565b9050919050565b62000ccf8162000cb0565b811462000cdb57600080fd5b50565b60008151905062000cef8162000cc4565b92915050565b6000806040838503121562000d0f5762000d0e62000c1e565b5b600062000d1f8582860162000c85565b925050602062000d328582860162000cde565b9150509250929050565b600081519050919050565b7f4e487b7100000000000000000000000000000000000000000000000000000000600052604160045260246000fd5b7f4e487b7100000000000000000000000000000000000000000000000000000000600052602260045260246000fd5b6000600282049050600182168062000dbe57607f821691505b60208210810362000dd45762000dd362000d76565b5b50919050565b60008190508160005260206000209050919050565b60006020601f8301049050919050565b600082821b905092915050565b60006008830262000e3e7fffffffffffffffffffffffffffffffffffffffffffffffffffffffffffffffff8262000dff565b62000e4a868362000dff565b95508019841693508086168417925050509392505050565b6000819050919050565b6000819050919050565b600062000e9762000e9162000e8b8462000e62565b62000e6c565b62000e62565b9050919050565b6000819050919050565b62000eb38362000e76565b62000ecb62000ec28262000e9e565b84845462000e0c565b825550505050565b600090565b62000ee262000ed3565b62000eef81848462000ea8565b505050565b5b8181101562000f175762000f0b60008262000ed8565b60018101905062000ef5565b5050565b601f82111562000f665762000f308162000dda565b62000f3b8462000def565b8101602085101562000f4b578190505b62000f6362000f5a8562000def565b83018262000ef4565b50505b505050565b600082821c905092915050565b600062000f8b6000198460080262000f6b565b1980831691505092915050565b600062000fa6838362000f78565b9150826002028217905092915050565b62000fc18262000d3c565b67ffffffffffffffff81111562000fdd5762000fdc62000d47565b5b62000fe9825462000da5565b62000ff682828562000f1b565b600060209050601f8311600181146200102e576000841562001019578287015190505b62001025858262000f98565b86555062001095565b601f1984166200103e8662000dda565b60005b82811015620010685784890151825560018201915060208501945060208101905062001041565b8683101562001088578489015162001084601f89168262000f78565b8355505b6001600288020188555050505b505050505050565b6000819050919050565b620010b2816200109d565b82525050565b620010c38162000e62565b82525050565b620010d48162000c43565b82525050565b600060a082019050620010f16000830188620010a7565b620011006020830187620010a7565b6200110f6040830186620010a7565b6200111e6060830185620010b8565b6200112d6080830184620010c9565b9695505050505050565b60006040820190506200114e6000830185620010c9565b6200115d6020830184620010c9565b9392505050565b600082825260208201905092915050565b7f476f7665726e6f72566f74657351756f72756d4672616374696f6e3a2071756f60008201527f72756d4e756d657261746f72206f7665722071756f72756d44656e6f6d696e6160208201527f746f720000000000000000000000000000000000000000000000000000000000604082015250565b6000620011f960438362001164565b9150620012068262001175565b606082019050919050565b600060208201905081810360008301526200122c81620011ea565b9050919050565b60006040820190506200124a6000830185620010b8565b620012596020830184620010b8565b9392505050565b60005b838110156200128057808201518184015260208101905062001263565b60008484015250505050565b6000601f19601f8301169050919050565b6000620012aa8262000d3c565b620012b6818562001164565b9350620012c881856020860162001260565b620012d3816200128c565b840191505092915050565b60006020820190508181036000830152620012fa81846200129d565b905092915050565b600081519050919050565b6000819050602082019050919050565b60006200132b82516200109d565b80915050919050565b6000620013418262001302565b826200134d846200130d565b90506200135a816200131d565b925060208210156200139d57620013987fffffffffffffffffffffffffffffffffffffffffffffffffffffffffffffffff8360200360080262000dff565b831692505b5050919050565b7f53616665436173743a2076616c756520646f65736e27742066697420696e203260008201527f3234206269747300000000000000000000000000000000000000000000000000602082015250565b60006200140260278362001164565b91506200140f82620013a4565b604082019050919050565b600060208201905081810360008301526200143581620013f3565b9050919050565b600065ffffffffffff82169050919050565b62001459816200143c565b81146200146557600080fd5b50565b60008151905062001479816200144e565b92915050565b60006020828403121562001498576200149762000c1e565b5b6000620014a88482850162001468565b91505092915050565b7f53616665436173743a2076616c756520646f65736e27742066697420696e203360008201527f3220626974730000000000000000000000000000000000000000000000000000602082015250565b60006200150f60268362001164565b91506200151c82620014b1565b604082019050919050565b60006020820190508181036000830152620015428162001500565b9050919050565b7f4e487b7100000000000000000000000000000000000000000000000000000000600052601160045260246000fd5b6000620015858262000e62565b9150620015928362000e62565b9250828203905081811115620015ad57620015ac62001549565b5b92915050565b7f53616665436173743a2076616c756520646f65736e27742066697420696e203460008201527f3820626974730000000000000000000000000000000000000000000000000000602082015250565b60006200161160268362001164565b91506200161e82620015b3565b604082019050919050565b60006020820190508181036000830152620016448162001602565b9050919050565b7f436865636b706f696e743a2064656372656173696e67206b6579730000000000600082015250565b600062001683601b8362001164565b915062001690826200164b565b602082019050919050565b60006020820190508181036000830152620016b68162001674565b9050919050565b60805160a05160c05160e051610100516101205161014051610160516189f66200173f6000396000818161194b01528181611def015281816124fa0152818161346601526138a201526000614bb201526000614b9101526000611d3001526000611cfc01526000613b1401526000613b6a01526000613b9301526189f66000f3fe6080604052600436106102b25760003560e01c80637b3c71d311610175578063c28bc2fa116100dc578063deaaa7cc11610095578063f23a6e611161006f578063f23a6e6114610c3c578063f8ce560a14610c79578063fc0c546a14610cb6578063fe0d94c114610ce1576102f8565b8063deaaa7cc14610b97578063e23a9a5214610bc2578063eb9019d414610bff576102f8565b8063c28bc2fa14610a82578063c59057e414610a9e578063d33219b414610adb578063da95691a14610b06578063dd4e2ba514610b43578063ddf0b00914610b6e576102f8565b8063a7713a701161012e578063a7713a701461094c578063a890c91014610977578063ab58fb8e146109a0578063b58131b0146109dd578063bc197c8114610a08578063c01f9e3714610a45576102f8565b80637b3c71d31461080e5780637d5e81e21461084b57806384b0196e1461088857806391ddadf4146108b957806397c3d334146108e45780639a802a6d1461090f576102f8565b8063328dd98211610219578063452115d6116101d2578063452115d6146106c45780634bf5d7e91461070157806354fd4d501461072c57806356781388146107575780635f398a141461079457806360c4247f146107d1576102f8565b8063328dd982146105795780633932abb1146105b95780633bccf4fd146105e45780633e4f49e61461062157806340e58ee51461065e5780634385963214610687576102f8565b8063150b7a021161026b578063150b7a021461043c578063160cbed71461047957806324bc1a64146104b65780632656227d146104e15780632d63f693146105115780632fe3e2611461054e576102f8565b8063013cf08b146102fd57806301ffc9a71461034357806302a251a31461038057806303420181146103ab57806306f3f9e6146103e857806306fdde0314610411576102f8565b366102f8573073ffffffffffffffffffffffffffffffffffffffff166102d6610cfd565b73ffffffffffffffffffffffffffffffffffffffff16146102f657600080fd5b005b600080fd5b34801561030957600080fd5b50610324600480360381019061031f9190615745565b610d0c565b60405161033a9a999897969594939291906157dd565b60405180910390f35b34801561034f57600080fd5b5061036a600480360381019061036591906158d1565b610e01565b60405161037791906158fe565b60405180910390f35b34801561038c57600080fd5b50610395610e13565b6040516103a29190615919565b60405180910390f35b3480156103b757600080fd5b506103d260048036038101906103cd9190615b49565b610e1d565b6040516103df9190615919565b60405180910390f35b3480156103f457600080fd5b5061040f600480360381019061040a9190615745565b610f02565b005b34801561041d57600080fd5b50610426610ff9565b6040516104339190615ca6565b60405180910390f35b34801561044857600080fd5b50610463600480360381019061045e9190615cf4565b61108b565b6040516104709190615d86565b60405180910390f35b34801561048557600080fd5b506104a0600480360381019061049b9190616008565b61109f565b6040516104ad9190615919565b60405180910390f35b3480156104c257600080fd5b506104cb611359565b6040516104d89190615919565b60405180910390f35b6104fb60048036038101906104f69190616008565b611384565b6040516105089190615919565b60405180910390f35b34801561051d57600080fd5b5061053860048036038101906105339190615745565b6114d2565b6040516105459190615919565b60405180910390f35b34801561055a57600080fd5b50610563611510565b60405161057091906160d2565b60405180910390f35b34801561058557600080fd5b506105a0600480360381019061059b9190615745565b611534565b6040516105b0949392919061648c565b60405180910390f35b3480156105c557600080fd5b506105ce6117f1565b6040516105db9190615919565b60405180910390f35b3480156105f057600080fd5b5061060b600480360381019061060691906164ed565b6117fa565b6040516106189190615919565b60405180910390f35b34801561062d57600080fd5b5061064860048036038101906106439190615745565b611884565b60405161065591906165df565b60405180910390f35b34801561066a57600080fd5b5061068560048036038101906106809190615745565b611896565b005b34801561069357600080fd5b506106ae60048036038101906106a991906165fa565b6118c1565b6040516106bb91906158fe565b60405180910390f35b3480156106d057600080fd5b506106eb60048036038101906106e69190616008565b61192f565b6040516106f89190615919565b60405180910390f35b34801561070d57600080fd5b50610716611947565b6040516107239190615ca6565b60405180910390f35b34801561073857600080fd5b50610741611a1f565b60405161074e9190615ca6565b60405180910390f35b34801561076357600080fd5b5061077e6004803603810190610779919061663a565b611a5c565b60405161078b9190615919565b60405180910390f35b3480156107a057600080fd5b506107bb60048036038101906107b6919061667a565b611a8d565b6040516107c89190615919565b60405180910390f35b3480156107dd57600080fd5b506107f860048036038101906107f39190615745565b611af7565b6040516108059190615919565b60405180910390f35b34801561081a57600080fd5b506108356004803603810190610830919061671e565b611c69565b6040516108429190615919565b60405180910390f35b34801561085757600080fd5b50610872600480360381019061086d9190616833565b611cd1565b60405161087f9190615919565b60405180910390f35b34801561089457600080fd5b5061089d611ce9565b6040516108b09796959493929190616945565b60405180910390f35b3480156108c557600080fd5b506108ce611deb565b6040516108db91906169ea565b60405180910390f35b3480156108f057600080fd5b506108f9611e91565b6040516109069190615919565b60405180910390f35b34801561091b57600080fd5b5061093660048036038101906109319190616a05565b611e9a565b6040516109439190615919565b60405180910390f35b34801561095857600080fd5b50610961611eb0565b60405161096e9190615919565b60405180910390f35b34801561098357600080fd5b5061099e60048036038101906109999190616ac4565b611ef7565b005b3480156109ac57600080fd5b506109c760048036038101906109c29190615745565b611fee565b6040516109d49190615919565b60405180910390f35b3480156109e957600080fd5b506109f26120bb565b6040516109ff9190615919565b60405180910390f35b348015610a1457600080fd5b50610a2f6004803603810190610a2a9190616af1565b6120cc565b604051610a3c9190615d86565b60405180910390f35b348015610a5157600080fd5b50610a6c6004803603810190610a679190615745565b6120e1565b604051610a799190615919565b60405180910390f35b610a9c6004803603810190610a979190616c16565b61211f565b005b348015610aaa57600080fd5b50610ac56004803603810190610ac09190616008565b6122a8565b604051610ad29190615919565b60405180910390f35b348015610ae757600080fd5b50610af06122e4565b604051610afd9190616c8a565b60405180910390f35b348015610b1257600080fd5b50610b2d6004803603810190610b289190616d86565b61230e565b604051610b3a9190615919565b60405180910390f35b348015610b4f57600080fd5b50610b58612345565b604051610b659190615ca6565b60405180910390f35b348015610b7a57600080fd5b50610b956004803603810190610b909190615745565b612382565b005b348015610ba357600080fd5b50610bac6123ad565b604051610bb991906160d2565b60405180910390f35b348015610bce57600080fd5b50610be96004803603810190610be491906165fa565b6123d1565b604051610bf69190616f14565b60405180910390f35b348015610c0b57600080fd5b50610c266004803603810190610c219190616f2f565b6124b5565b604051610c339190615919565b60405180910390f35b348015610c4857600080fd5b50610c636004803603810190610c5e9190616f6f565b6124d1565b604051610c709190615d86565b60405180910390f35b348015610c8557600080fd5b50610ca06004803603810190610c9b9190615745565b6124e6565b604051610cad9190615919565b60405180910390f35b348015610cc257600080fd5b50610ccb6124f8565b604051610cd89190617065565b60405180910390f35b610cfb6004803603810190610cf69190615745565b61251c565b005b6000610d07612547565b905090565b6000806000806000806000806000808a9950610d278b611fee565b9750610d328b6114d2565b9650610d3d8b6120e1565b95506000600860008d815260200190815260200160002090508060000160009054906101000a900473ffffffffffffffffffffffffffffffffffffffff1699508060050154955080600601549450806007015493506000610d9d8d611884565b905060026007811115610db357610db2616568565b5b816007811115610dc657610dc5616568565b5b149350600780811115610ddc57610ddb616568565b5b816007811115610def57610dee616568565b5b14925050509193959799509193959799565b6000610e0c82612571565b9050919050565b600061b2fa905090565b600080610ea0610e987fb3b3f3b703cd84ce352197dcff232b1b5d3cfb2025ce47cf04742d0651f1af888c8c8c8c604051610e599291906170b0565b60405180910390208b80519060200120604051602001610e7d9594939291906170d8565b604051602081830303815290604052805190602001206125eb565b868686612605565b9050610ef38a828b8b8b8080601f016020809104026020016040519081016040528093929190818152602001838380828437600081840152601f19601f820116905080830192505050505050508a612630565b91505098975050505050505050565b610f0a610cfd565b73ffffffffffffffffffffffffffffffffffffffff16610f286127bc565b73ffffffffffffffffffffffffffffffffffffffff1614610f7e576040517f08c379a0000000000000000000000000000000000000000000000000000000008152600401610f7590617177565b60405180910390fd5b3073ffffffffffffffffffffffffffffffffffffffff16610f9d610cfd565b73ffffffffffffffffffffffffffffffffffffffff1614610fed576000610fc26127c4565b604051610fd09291906170b0565b604051809103902090505b80610fe660046127d1565b03610fdb57505b610ff6816128ad565b50565b606060028054611008906171c6565b80601f0160208091040260200160405190810160405280929190818152602001828054611034906171c6565b80156110815780601f1061105657610100808354040283529160200191611081565b820191906000526020600020905b81548152906001019060200180831161106457829003601f168201915b5050505050905090565b600063150b7a0260e01b9050949350505050565b6000806110ae868686866122a8565b9050600460078111156110c4576110c3616568565b5b6110cd82611884565b60078111156110df576110de616568565b5b1461111f576040517f08c379a000000000000000000000000000000000000000000000000000000000815260040161111690617269565b60405180910390fd5b6000600660009054906101000a900473ffffffffffffffffffffffffffffffffffffffff1673ffffffffffffffffffffffffffffffffffffffff1663f27a0c926040518163ffffffff1660e01b8152600401602060405180830381865afa15801561118e573d6000803e3d6000fd5b505050506040513d601f19601f820116820180604052508101906111b2919061729e565b9050600660009054906101000a900473ffffffffffffffffffffffffffffffffffffffff1673ffffffffffffffffffffffffffffffffffffffff1663b1c5f4278888886000896040518663ffffffff1660e01b8152600401611218959493929190617313565b602060405180830381865afa158015611235573d6000803e3d6000fd5b505050506040513d601f19601f820116820180604052508101906112599190617390565b6007600084815260200190815260200160002081905550600660009054906101000a900473ffffffffffffffffffffffffffffffffffffffff1673ffffffffffffffffffffffffffffffffffffffff16638f2a0bb0888888600089876040518763ffffffff1660e01b81526004016112d6969594939291906173bd565b600060405180830381600087803b1580156112f057600080fd5b505af1158015611304573d6000803e3d6000fd5b505050507f9a2e42fd6722813d69113e7d0079d3d940171428df7373df9c7f7617cfda28928282426113369190617462565b604051611344929190617496565b60405180910390a18192505050949350505050565b600061137f6001611368611deb565b61137291906174bf565b65ffffffffffff166124e6565b905090565b600080611393868686866122a8565b905060006113a082611884565b9050600460078111156113b6576113b5616568565b5b8160078111156113c9576113c8616568565b5b14806113f95750600560078111156113e4576113e3616568565b5b8160078111156113f7576113f6616568565b5b145b611438576040517f08c379a000000000000000000000000000000000000000000000000000000000815260040161142f90617269565b60405180910390fd5b60016003600084815260200190815260200160002060020160006101000a81548160ff0219169083151502179055507f712ae1383f79ac853f8d882153778e0260ef8f03b504e2866e0593e04d2b291f826040516114969190615919565b60405180910390a16114ab8288888888612a82565b6114b88288888888612b65565b6114c58288888888612b79565b8192505050949350505050565b60006003600083815260200190815260200160002060000160009054906101000a900467ffffffffffffffff1667ffffffffffffffff169050919050565b7fb3b3f3b703cd84ce352197dcff232b1b5d3cfb2025ce47cf04742d0651f1af8881565b606080606080600060086000878152602001908152602001600020905080600101816002018260030183600401838054806020026020016040519081016040528092919081815260200182805480156115e257602002820191906000526020600020905b8160009054906101000a900473ffffffffffffffffffffffffffffffffffffffff1673ffffffffffffffffffffffffffffffffffffffff1681526020019060010190808311611598575b505050505093508280548060200260200160405190810160405280929190818152602001828054801561163457602002820191906000526020600020905b815481526020019060010190808311611620575b5050505050925081805480602002602001604051908101604052809291908181526020016000905b8282101561170857838290600052602060002001805461167b906171c6565b80601f01602080910402602001604051908101604052809291908181526020018280546116a7906171c6565b80156116f45780601f106116c9576101008083540402835291602001916116f4565b820191906000526020600020905b8154815290600101906020018083116116d757829003601f168201915b50505050508152602001906001019061165c565b50505050915080805480602002602001604051908101604052809291908181526020016000905b828210156117db57838290600052602060002001805461174e906171c6565b80601f016020809104026020016040519081016040528092919081815260200182805461177a906171c6565b80156117c75780601f1061179c576101008083540402835291602001916117c7565b820191906000526020600020905b8154815290600101906020018083116117aa57829003601f168201915b50505050508152602001906001019061172f565b5050505090509450945094509450509193509193565b60006001905090565b60008061185b6118537f150214d74d59b7d1e90c73fc22ef3d991dd0a76b046543d4d80ab92d2a50328f8989604051602001611838939291906174f9565b604051602081830303815290604052805190602001206125eb565b868686612605565b905061187887828860405180602001604052806000815250612bd4565b91505095945050505050565b600061188f82612bf4565b9050919050565b6000806000806118a585612dc7565b93509350935093506118b98484848461192f565b505050505050565b60006008600084815260200190815260200160002060080160008373ffffffffffffffffffffffffffffffffffffffff1673ffffffffffffffffffffffffffffffffffffffff16815260200190815260200160002060000160009054906101000a900460ff16905092915050565b600061193d8585858561308b565b9050949350505050565b60607f000000000000000000000000000000000000000000000000000000000000000073ffffffffffffffffffffffffffffffffffffffff16634bf5d7e96040518163ffffffff1660e01b8152600401600060405180830381865afa9250505080156119d657506040513d6000823e3d601f19601f820116820180604052508101906119d391906175a0565b60015b611a17576040518060400160405280601d81526020017f6d6f64653d626c6f636b6e756d6265722666726f6d3d64656661756c740000008152509050611a1c565b809150505b90565b60606040518060400160405280600181526020017f3100000000000000000000000000000000000000000000000000000000000000815250905090565b600080611a676127bc565b9050611a8484828560405180602001604052806000815250612bd4565b91505092915050565b600080611a986127bc565b9050611aeb87828888888080601f016020809104026020016040519081016040528093929190818152602001838380828437600081840152601f19601f8201169050808301925050505050505087612630565b91505095945050505050565b600080600a60000180549050905060008103611b1857600954915050611c64565b6000600a600001600183611b2c91906175e9565b81548110611b3d57611b3c61761d565b5b906000526020600020016040518060400160405290816000820160009054906101000a900463ffffffff1663ffffffff1663ffffffff1681526020016000820160049054906101000a90047bffffffffffffffffffffffffffffffffffffffffffffffffffffffff167bffffffffffffffffffffffffffffffffffffffffffffffffffffffff167bffffffffffffffffffffffffffffffffffffffffffffffffffffffff1681525050905083816000015163ffffffff1611611c255780602001517bffffffffffffffffffffffffffffffffffffffffffffffffffffffff1692505050611c64565b611c41611c3185613199565b600a6131ec90919063ffffffff16565b7bffffffffffffffffffffffffffffffffffffffffffffffffffffffff16925050505b919050565b600080611c746127bc565b9050611cc686828787878080601f016020809104026020016040519081016040528093929190818152602001838380828437600081840152601f19601f82011690508083019250505050505050612bd4565b915050949350505050565b6000611cdf858585856132e2565b9050949350505050565b600060608060008060006060611d2960007f000000000000000000000000000000000000000000000000000000000000000061335d90919063ffffffff16565b611d5d60017f000000000000000000000000000000000000000000000000000000000000000061335d90919063ffffffff16565b46306000801b600067ffffffffffffffff811115611d7e57611d7d6159e8565b5b604051908082528060200260200182016040528015611dac5781602001602082028036833780820191505090505b507f0f00000000000000000000000000000000000000000000000000000000000000959493929190965096509650965096509650965090919293949596565b60007f000000000000000000000000000000000000000000000000000000000000000073ffffffffffffffffffffffffffffffffffffffff166391ddadf46040518163ffffffff1660e01b8152600401602060405180830381865afa925050508015611e7557506040513d601f19601f82011682018060405250810190611e729190617678565b60015b611e8957611e824361340d565b9050611e8e565b809150505b90565b60006064905090565b6000611ea7848484613462565b90509392505050565b600080600a6000018054905014611eee57611ecb600a613509565b7bffffffffffffffffffffffffffffffffffffffffffffffffffffffff16611ef2565b6009545b905090565b611eff610cfd565b73ffffffffffffffffffffffffffffffffffffffff16611f1d6127bc565b73ffffffffffffffffffffffffffffffffffffffff1614611f73576040517f08c379a0000000000000000000000000000000000000000000000000000000008152600401611f6a90617177565b60405180910390fd5b3073ffffffffffffffffffffffffffffffffffffffff16611f92610cfd565b73ffffffffffffffffffffffffffffffffffffffff1614611fe2576000611fb76127c4565b604051611fc59291906170b0565b604051809103902090505b80611fdb60046127d1565b03611fd057505b611feb81613573565b50565b600080600660009054906101000a900473ffffffffffffffffffffffffffffffffffffffff1673ffffffffffffffffffffffffffffffffffffffff1663d45c443560076000868152602001908152602001600020546040518263ffffffff1660e01b815260040161205f91906160d2565b602060405180830381865afa15801561207c573d6000803e3d6000fd5b505050506040513d601f19601f820116820180604052508101906120a0919061729e565b9050600181146120b057806120b3565b60005b915050919050565b6000683635c9adc5dea00000905090565b600063bc197c8160e01b905095945050505050565b60006003600083815260200190815260200160002060010160009054906101000a900467ffffffffffffffff1667ffffffffffffffff169050919050565b612127610cfd565b73ffffffffffffffffffffffffffffffffffffffff166121456127bc565b73ffffffffffffffffffffffffffffffffffffffff161461219b576040517f08c379a000000000000000000000000000000000000000000000000000000000815260040161219290617177565b60405180910390fd5b3073ffffffffffffffffffffffffffffffffffffffff166121ba610cfd565b73ffffffffffffffffffffffffffffffffffffffff161461220a5760006121df6127c4565b6040516121ed9291906170b0565b604051809103902090505b8061220360046127d1565b036121f857505b6000808573ffffffffffffffffffffffffffffffffffffffff168585856040516122359291906170b0565b60006040518083038185875af1925050503d8060008114612272576040519150601f19603f3d011682016040523d82523d6000602084013e612277565b606091505b509150915061229f828260405180606001604052806028815260200161899960289139613612565b50505050505050565b6000848484846040516020016122c194939291906176a5565b6040516020818303038152906040528051906020012060001c9050949350505050565b6000600660009054906101000a900473ffffffffffffffffffffffffffffffffffffffff16905090565b600061232561231b6127bc565b8787878787613634565b61233a8686612334878761373a565b85611cd1565b905095945050505050565b60606040518060400160405280601a81526020017f737570706f72743d627261766f2671756f72756d3d627261766f000000000000815250905090565b60008060008061239185612dc7565b93509350935093506123a58484848461109f565b505050505050565b7f150214d74d59b7d1e90c73fc22ef3d991dd0a76b046543d4d80ab92d2a50328f81565b6123d9615459565b6008600084815260200190815260200160002060080160008373ffffffffffffffffffffffffffffffffffffffff1673ffffffffffffffffffffffffffffffffffffffff1681526020019081526020016000206040518060600160405290816000820160009054906101000a900460ff161515151581526020016000820160019054906101000a900460ff1660ff1660ff1681526020016000820160029054906101000a90046bffffffffffffffffffffffff166bffffffffffffffffffffffff166bffffffffffffffffffffffff1681525050905092915050565b60006124c983836124c4613876565b613462565b905092915050565b600063f23a6e6160e01b905095945050505050565b60006124f18261388d565b9050919050565b7f000000000000000000000000000000000000000000000000000000000000000081565b60008060008061252b85612dc7565b935093509350935061253f84848484611384565b505050505050565b6000600660009054906101000a900473ffffffffffffffffffffffffffffffffffffffff16905090565b60007f6e665ced000000000000000000000000000000000000000000000000000000007bffffffffffffffffffffffffffffffffffffffffffffffffffffffff1916827bffffffffffffffffffffffffffffffffffffffffffffffffffffffff191614806125e457506125e382613955565b5b9050919050565b60006125fe6125f8613b10565b83613bc7565b9050919050565b600080600061261687878787613c08565b9150915061262381613cea565b8192505050949350505050565b6000806003600088815260200190815260200160002090506001600781111561265c5761265b616568565b5b61266588611884565b600781111561267757612676616568565b5b146126b7576040517f08c379a00000000000000000000000000000000000000000000000000000000081526004016126ae90617771565b60405180910390fd5b60006126e6878360000160009054906101000a900467ffffffffffffffff1667ffffffffffffffff1686613462565b90506126f58888888488613e50565b6000845103612757578673ffffffffffffffffffffffffffffffffffffffff167fb8e138887d0aa13bab447e82de9d5c1777041ecd21ca36ba824ff1e6c07ddda48988848960405161274a9493929190617791565b60405180910390a26127ae565b8673ffffffffffffffffffffffffffffffffffffffff167fe2babfbac5889a709b63bb7f598b324e08bc5a4fb9ec647fb3cbc9ec07eb871289888489896040516127a5959493929190617827565b60405180910390a25b809250505095945050505050565b600033905090565b3660008036915091509091565b60006127dc82614078565b15612813576040517f3db2a12a00000000000000000000000000000000000000000000000000000000815260040160405180910390fd5b60008260000160009054906101000a9004600f0b905082600101600082600f0b600f0b815260200190815260200160002054915082600101600082600f0b600f0b815260200190815260200160002060009055600181018360000160006101000a8154816fffffffffffffffffffffffffffffffff0219169083600f0b6fffffffffffffffffffffffffffffffff16021790555050919050565b6128b5611e91565b8111156128f7576040517f08c379a00000000000000000000000000000000000000000000000000000000081526004016128ee90617920565b60405180910390fd5b6000612901611eb0565b90506000811415801561291c57506000600a60000180549050145b15612a0e57600a6000016040518060400160405280600063ffffffff168152602001612947846140ad565b7bffffffffffffffffffffffffffffffffffffffffffffffffffffffff168152509080600181540180825580915050600190039060005260206000200160009091909190915060008201518160000160006101000a81548163ffffffff021916908363ffffffff16021790555060208201518160000160046101000a8154817bffffffffffffffffffffffffffffffffffffffffffffffffffffffff02191690837bffffffffffffffffffffffffffffffffffffffffffffffffffffffff16021790555050505b612a43612a29612a1c611deb565b65ffffffffffff16613199565b612a32846140ad565b600a6141189092919063ffffffff16565b50507f0553476bf02ef2726e8ce5ced78d63e26e602e4a2257b1f559418e24b46339978183604051612a76929190617496565b60405180910390a15050565b3073ffffffffffffffffffffffffffffffffffffffff16612aa1610cfd565b73ffffffffffffffffffffffffffffffffffffffff1614612b5e5760005b8451811015612b5c573073ffffffffffffffffffffffffffffffffffffffff16858281518110612af257612af161761d565b5b602002602001015173ffffffffffffffffffffffffffffffffffffffff1603612b4b57612b4a838281518110612b2b57612b2a61761d565b5b602002602001015180519060200120600461413590919063ffffffff16565b5b80612b5590617940565b9050612abf565b505b5050505050565b612b7285858585856141b1565b5050505050565b3073ffffffffffffffffffffffffffffffffffffffff16612b98610cfd565b73ffffffffffffffffffffffffffffffffffffffff1614612bcd57612bbd6004614078565b612bcc57612bcb600461424f565b5b5b5050505050565b6000612bea85858585612be5613876565b612630565b9050949350505050565b600080612c00836142d0565b905060046007811115612c1657612c15616568565b5b816007811115612c2957612c28616568565b5b14612c375780915050612dc2565b6000600760008581526020019081526020016000205490506000801b8103612c63578192505050612dc2565b600660009054906101000a900473ffffffffffffffffffffffffffffffffffffffff1673ffffffffffffffffffffffffffffffffffffffff16632ab0f529826040518263ffffffff1660e01b8152600401612cbe91906160d2565b602060405180830381865afa158015612cdb573d6000803e3d6000fd5b505050506040513d601f19601f82011682018060405250810190612cff91906179b4565b15612d0f57600792505050612dc2565b600660009054906101000a900473ffffffffffffffffffffffffffffffffffffffff1673ffffffffffffffffffffffffffffffffffffffff1663584b153e826040518263ffffffff1660e01b8152600401612d6a91906160d2565b602060405180830381865afa158015612d87573d6000803e3d6000fd5b505050506040513d601f19601f82011682018060405250810190612dab91906179b4565b15612dbb57600592505050612dc2565b6002925050505b919050565b60608060606000806008600087815260200190815260200160002090508060010181600201612f9c83600301805480602002602001604051908101604052809291908181526020016000905b82821015612ebf578382906000526020600020018054612e32906171c6565b80601f0160208091040260200160405190810160405280929190818152602001828054612e5e906171c6565b8015612eab5780601f10612e8057610100808354040283529160200191612eab565b820191906000526020600020905b815481529060010190602001808311612e8e57829003601f168201915b505050505081526020019060010190612e13565b5050505084600401805480602002602001604051908101604052809291908181526020016000905b82821015612f93578382906000526020600020018054612f06906171c6565b80601f0160208091040260200160405190810160405280929190818152602001828054612f32906171c6565b8015612f7f5780601f10612f5457610100808354040283529160200191612f7f565b820191906000526020600020905b815481529060010190602001808311612f6257829003601f168201915b505050505081526020019060010190612ee7565b5050505061373a565b83600901548380548060200260200160405190810160405280929190818152602001828054801561302257602002820191906000526020600020905b8160009054906101000a900473ffffffffffffffffffffffffffffffffffffffff1673ffffffffffffffffffffffffffffffffffffffff1681526020019060010190808311612fd8575b505050505093508280548060200260200160405190810160405280929190818152602001828054801561307457602002820191906000526020600020905b815481526020019060010190808311613060575b505050505092509450945094509450509193509193565b60008061309a868686866122a8565b905060006008600083815260200190815260200160002060000160009054906101000a900473ffffffffffffffffffffffffffffffffffffffff1690508073ffffffffffffffffffffffffffffffffffffffff166130f66127bc565b73ffffffffffffffffffffffffffffffffffffffff161480613142575061311b6120bb565b613140826001613129611deb565b61313391906174bf565b65ffffffffffff166124b5565b105b613181576040517f08c379a000000000000000000000000000000000000000000000000000000000815260040161317890617a53565b60405180910390fd5b61318d878787876143fc565b92505050949350505050565b600063ffffffff80168211156131e4576040517f08c379a00000000000000000000000000000000000000000000000000000000081526004016131db90617ae5565b60405180910390fd5b819050919050565b60008083600001805490509050600080829050600583111561326e57600061321384614414565b8461321e91906175e9565b905061322d876000018261450d565b60000160009054906101000a900463ffffffff1663ffffffff168663ffffffff16101561325c5780915061326c565b6001816132699190617462565b92505b505b600061327f87600001878585614522565b9050600081146132d3576132a28760000160018361329d91906175e9565b61450d565b60000160049054906101000a90047bffffffffffffffffffffffffffffffffffffffffffffffffffffffff166132d6565b60005b94505050505092915050565b60006133476132ef6127bc565b8686865167ffffffffffffffff81111561330c5761330b6159e8565b5b60405190808252806020026020018201604052801561333f57816020015b606081526020019060019003908161332a5790505b508787613634565b61335385858585614595565b9050949350505050565b606060ff60001b831461337a5761337383614a3e565b9050613407565b818054613386906171c6565b80601f01602080910402602001604051908101604052809291908181526020018280546133b2906171c6565b80156133ff5780601f106133d4576101008083540402835291602001916133ff565b820191906000526020600020905b8154815290600101906020018083116133e257829003601f168201915b505050505090505b92915050565b600065ffffffffffff801682111561345a576040517f08c379a000000000000000000000000000000000000000000000000000000000815260040161345190617b77565b60405180910390fd5b819050919050565b60007f000000000000000000000000000000000000000000000000000000000000000073ffffffffffffffffffffffffffffffffffffffff16633a46b1a885856040518363ffffffff1660e01b81526004016134bf929190617b97565b602060405180830381865afa1580156134dc573d6000803e3d6000fd5b505050506040513d601f19601f82011682018060405250810190613500919061729e565b90509392505050565b6000808260000180549050905060008114613568576135378360000160018361353291906175e9565b61450d565b60000160049054906101000a90047bffffffffffffffffffffffffffffffffffffffffffffffffffffffff1661356b565b60005b915050919050565b7f08f74ea46ef7894f65eabfb5e6e695de773a000b47c529ab559178069b226401600660009054906101000a900473ffffffffffffffffffffffffffffffffffffffff16826040516135c6929190617bc0565b60405180910390a180600660006101000a81548173ffffffffffffffffffffffffffffffffffffffff021916908373ffffffffffffffffffffffffffffffffffffffff16021790555050565b606083156136225782905061362d565b61362c8383614ab2565b5b9392505050565b60008180519060200120905060006136578787613651888861373a565b856122a8565b905060006008600083815260200190815260200160002090506000801b81600901540361372f57888160000160006101000a81548173ffffffffffffffffffffffffffffffffffffffff021916908373ffffffffffffffffffffffffffffffffffffffff160217905550878160010190805190602001906136d992919061548d565b50868160020190805190602001906136f2929190615517565b508581600301908051906020019061370b929190615564565b50848160040190805190602001906137249291906155bd565b508281600901819055505b505050505050505050565b60606000825167ffffffffffffffff811115613759576137586159e8565b5b60405190808252806020026020018201604052801561378c57816020015b60608152602001906001900390816137775790505b50905060005b845181101561386b5760008582815181106137b0576137af61761d565b5b60200260200101515114613820578481815181106137d1576137d061761d565b5b6020026020010151805190602001208482815181106137f3576137f261761d565b5b602002602001015160405160200161380c929190617c3b565b60405160208183030381529060405261383c565b8381815181106138335761383261761d565b5b60200260200101515b82828151811061384f5761384e61761d565b5b60200260200101819052508061386490617940565b9050613792565b508091505092915050565b606060405180602001604052806000815250905090565b6000613897611e91565b6138a083611af7565b7f000000000000000000000000000000000000000000000000000000000000000073ffffffffffffffffffffffffffffffffffffffff16638e539e8c856040518263ffffffff1660e01b81526004016138f99190615919565b602060405180830381865afa158015613916573d6000803e3d6000fd5b505050506040513d601f19601f8201168201806040525081019061393a919061729e565b6139449190617c63565b61394e9190617cd4565b9050919050565b6000639a802a6d60e01b630342018160e01b635f398a1460e01b63452115d660e01b7fda287a1d000000000000000000000000000000000000000000000000000000007fe6d416a40000000000000000000000000000000000000000000000000000000018181818187bffffffffffffffffffffffffffffffffffffffffffffffffffffffff1916827bffffffffffffffffffffffffffffffffffffffffffffffffffffffff19161480613a91575063452115d660e01b7fda287a1d000000000000000000000000000000000000000000000000000000007fe6d416a40000000000000000000000000000000000000000000000000000000018187bffffffffffffffffffffffffffffffffffffffffffffffffffffffff1916827bffffffffffffffffffffffffffffffffffffffffffffffffffffffff1916145b80613af957507f4e2312e0000000000000000000000000000000000000000000000000000000007bffffffffffffffffffffffffffffffffffffffffffffffffffffffff1916827bffffffffffffffffffffffffffffffffffffffffffffffffffffffff1916145b80613b095750613b0882614b02565b5b9050919050565b60007f000000000000000000000000000000000000000000000000000000000000000073ffffffffffffffffffffffffffffffffffffffff163073ffffffffffffffffffffffffffffffffffffffff16148015613b8c57507f000000000000000000000000000000000000000000000000000000000000000046145b15613bb9577f00000000000000000000000000000000000000000000000000000000000000009050613bc4565b613bc1614b6c565b90505b90565b60006040517f190100000000000000000000000000000000000000000000000000000000000081528360028201528260228201526042812091505092915050565b6000807f7fffffffffffffffffffffffffffffff5d576e7357a4501ddfe92f46681b20a08360001c1115613c43576000600391509150613ce1565b600060018787878760405160008152602001604052604051613c689493929190617d05565b6020604051602081039080840390855afa158015613c8a573d6000803e3d6000fd5b505050602060405103519050600073ffffffffffffffffffffffffffffffffffffffff168173ffffffffffffffffffffffffffffffffffffffff1603613cd857600060019250925050613ce1565b80600092509250505b94509492505050565b60006004811115613cfe57613cfd616568565b5b816004811115613d1157613d10616568565b5b0315613e4d5760016004811115613d2b57613d2a616568565b5b816004811115613d3e57613d3d616568565b5b03613d7e576040517f08c379a0000000000000000000000000000000000000000000000000000000008152600401613d7590617d96565b60405180910390fd5b60026004811115613d9257613d91616568565b5b816004811115613da557613da4616568565b5b03613de5576040517f08c379a0000000000000000000000000000000000000000000000000000000008152600401613ddc90617e02565b60405180910390fd5b60036004811115613df957613df8616568565b5b816004811115613e0c57613e0b616568565b5b03613e4c576040517f08c379a0000000000000000000000000000000000000000000000000000000008152600401613e4390617e94565b60405180910390fd5b5b50565b600060086000878152602001908152602001600020905060008160080160008773ffffffffffffffffffffffffffffffffffffffff1673ffffffffffffffffffffffffffffffffffffffff16815260200190815260200160002090508060000160009054906101000a900460ff1615613efe576040517f08c379a0000000000000000000000000000000000000000000000000000000008152600401613ef590617f26565b60405180910390fd5b60018160000160006101000a81548160ff021916908315150217905550848160000160016101000a81548160ff021916908360ff160217905550613f4184614c02565b8160000160026101000a8154816bffffffffffffffffffffffff02191690836bffffffffffffffffffffffff16021790555060006002811115613f8757613f86616568565b5b60ff168560ff1603613fb35783826006016000828254613fa79190617462565b9250508190555061406f565b60016002811115613fc757613fc6616568565b5b60ff168560ff1603613ff35783826005016000828254613fe79190617462565b9250508190555061406e565b60028081111561400657614005616568565b5b60ff168560ff160361403257838260070160008282546140269190617462565b9250508190555061406d565b6040517f08c379a000000000000000000000000000000000000000000000000000000000815260040161406490617fb8565b60405180910390fd5b5b5b50505050505050565b60008160000160009054906101000a9004600f0b600f0b8260000160109054906101000a9004600f0b600f0b13159050919050565b60007bffffffffffffffffffffffffffffffffffffffffffffffffffffffff8016821115614110576040517f08c379a00000000000000000000000000000000000000000000000000000000081526004016141079061804a565b60405180910390fd5b819050919050565b600080614129856000018585614c5d565b91509150935093915050565b60008260000160109054906101000a9004600f0b90508183600101600083600f0b600f0b815260200190815260200160002081905550600181018360000160106101000a8154816fffffffffffffffffffffffffffffffff0219169083600f0b6fffffffffffffffffffffffffffffffff160217905550505050565b600660009054906101000a900473ffffffffffffffffffffffffffffffffffffffff1673ffffffffffffffffffffffffffffffffffffffff1663e38335e5348686866000876040518763ffffffff1660e01b8152600401614216959493929190617313565b6000604051808303818588803b15801561422f57600080fd5b505af1158015614243573d6000803e3d6000fd5b50505050505050505050565b60008160000160006101000a8154816fffffffffffffffffffffffffffffffff0219169083600f0b6fffffffffffffffffffffffffffffffff16021790555060008160000160106101000a8154816fffffffffffffffffffffffffffffffff0219169083600f0b6fffffffffffffffffffffffffffffffff16021790555050565b6000806003600084815260200190815260200160002090508060020160009054906101000a900460ff16156143095760079150506143f7565b8060020160019054906101000a900460ff161561432a5760029150506143f7565b6000614335846114d2565b90506000810361437a576040517f08c379a0000000000000000000000000000000000000000000000000000000008152600401614371906180b6565b60405180910390fd5b6000614384611deb565b65ffffffffffff1690508082106143a157600093505050506143f7565b60006143ac866120e1565b90508181106143c25760019450505050506143f7565b6143cb86614fe3565b80156143dc57506143db8661501b565b5b156143ee5760049450505050506143f7565b60039450505050505b919050565b600061440a85858585615046565b9050949350505050565b60008082036144265760009050614508565b6000600161443384615138565b901c6001901b9050600181848161444d5761444c617ca5565b5b048201901c9050600181848161446657614465617ca5565b5b048201901c9050600181848161447f5761447e617ca5565b5b048201901c9050600181848161449857614497617ca5565b5b048201901c905060018184816144b1576144b0617ca5565b5b048201901c905060018184816144ca576144c9617ca5565b5b048201901c905060018184816144e3576144e2617ca5565b5b048201901c9050614504818285816144fe576144fd617ca5565b5b04615219565b9150505b919050565b60008260005281602060002001905092915050565b60005b8183101561458a5760006145398484615232565b90508463ffffffff1661454c878361450d565b60000160009054906101000a900463ffffffff1663ffffffff16111561457457809250614584565b6001816145819190617462565b93505b50614525565b819050949350505050565b6000806145a06127bc565b905060006145ac611deb565b65ffffffffffff1690506145be6120bb565b6145d4836001846145cf91906175e9565b6124b5565b1015614615576040517f08c379a000000000000000000000000000000000000000000000000000000000815260040161460c90618148565b60405180910390fd5b600061462a88888888805190602001206122a8565b90508651885114614670576040517f08c379a0000000000000000000000000000000000000000000000000000000008152600401614667906181da565b60405180910390fd5b85518851146146b4576040517f08c379a00000000000000000000000000000000000000000000000000000000081526004016146ab906181da565b60405180910390fd5b60008851116146f8576040517f08c379a00000000000000000000000000000000000000000000000000000000081526004016146ef90618246565b60405180910390fd5b60006003600083815260200190815260200160002060000160009054906101000a900467ffffffffffffffff1667ffffffffffffffff161461476f576040517f08c379a0000000000000000000000000000000000000000000000000000000008152600401614766906182d8565b60405180910390fd5b60006147796117f1565b836147849190617462565b90506000614790610e13565b8261479b9190617462565b90506040518060e001604052806147b184615258565b67ffffffffffffffff1681526020018673ffffffffffffffffffffffffffffffffffffffff168152602001600060e01b7bffffffffffffffffffffffffffffffffffffffffffffffffffffffff1916815260200161480e83615258565b67ffffffffffffffff168152602001600060401b67ffffffffffffffff19168152602001600015158152602001600015158152506003600085815260200190815260200160002060008201518160000160006101000a81548167ffffffffffffffff021916908367ffffffffffffffff16021790555060208201518160000160086101000a81548173ffffffffffffffffffffffffffffffffffffffff021916908373ffffffffffffffffffffffffffffffffffffffff160217905550604082015181600001601c6101000a81548163ffffffff021916908360e01c021790555060608201518160010160006101000a81548167ffffffffffffffff021916908367ffffffffffffffff16021790555060808201518160010160086101000a81548177ffffffffffffffffffffffffffffffffffffffffffffffff021916908360401c021790555060a08201518160020160006101000a81548160ff02191690831515021790555060c08201518160020160016101000a81548160ff0219169083151502179055509050507f7d84a6263ae0d98d3329bd7b46bb4e8d6f98cd35a7adb45c274c8b7fd5ebd5e083868c8c8e5167ffffffffffffffff8111156149d9576149d86159e8565b5b604051908082528060200260200182016040528015614a0c57816020015b60608152602001906001900390816149f75790505b508d88888f604051614a26999897969594939291906182f8565b60405180910390a18295505050505050949350505050565b60606000614a4b836152af565b90506000602067ffffffffffffffff811115614a6a57614a696159e8565b5b6040519080825280601f01601f191660200182016040528015614a9c5781602001600182028036833780820191505090505b5090508181528360208201528092505050919050565b600082511115614ac55781518083602001fd5b806040517f08c379a0000000000000000000000000000000000000000000000000000000008152600401614af99190615ca6565b60405180910390fd5b60007f01ffc9a7000000000000000000000000000000000000000000000000000000007bffffffffffffffffffffffffffffffffffffffffffffffffffffffff1916827bffffffffffffffffffffffffffffffffffffffffffffffffffffffff1916149050919050565b60007f8b73c3c69bb8fe3d512ecc4cf759cc79239f7b179b0ffacaa9a75d522b39400f7f00000000000000000000000000000000000000000000000000000000000000007f00000000000000000000000000000000000000000000000000000000000000004630604051602001614be79594939291906183a8565b60405160208183030381529060405280519060200120905090565b60006bffffffffffffffffffffffff8016821115614c55576040517f08c379a0000000000000000000000000000000000000000000000000000000008152600401614c4c9061846d565b60405180910390fd5b819050919050565b6000806000858054905090506000811115614ef3576000614c8a87600184614c8591906175e9565b61450d565b6040518060400160405290816000820160009054906101000a900463ffffffff1663ffffffff1663ffffffff1681526020016000820160049054906101000a90047bffffffffffffffffffffffffffffffffffffffffffffffffffffffff167bffffffffffffffffffffffffffffffffffffffffffffffffffffffff167bffffffffffffffffffffffffffffffffffffffffffffffffffffffff168152505090508563ffffffff16816000015163ffffffff161115614d7e576040517f08c379a0000000000000000000000000000000000000000000000000000000008152600401614d75906184d9565b60405180910390fd5b8563ffffffff16816000015163ffffffff1603614e025784614dac88600185614da791906175e9565b61450d565b60000160046101000a8154817bffffffffffffffffffffffffffffffffffffffffffffffffffffffff02191690837bffffffffffffffffffffffffffffffffffffffffffffffffffffffff160217905550614ee2565b8660405180604001604052808863ffffffff168152602001877bffffffffffffffffffffffffffffffffffffffffffffffffffffffff168152509080600181540180825580915050600190039060005260206000200160009091909190915060008201518160000160006101000a81548163ffffffff021916908363ffffffff16021790555060208201518160000160046101000a8154817bffffffffffffffffffffffffffffffffffffffffffffffffffffffff02191690837bffffffffffffffffffffffffffffffffffffffffffffffffffffffff16021790555050505b806020015185935093505050614fdb565b8560405180604001604052808763ffffffff168152602001867bffffffffffffffffffffffffffffffffffffffffffffffffffffffff168152509080600181540180825580915050600190039060005260206000200160009091909190915060008201518160000160006101000a81548163ffffffff021916908363ffffffff16021790555060208201518160000160046101000a8154817bffffffffffffffffffffffffffffffffffffffffffffffffffffffff02191690837bffffffffffffffffffffffffffffffffffffffffffffffffffffffff160217905550505060008492509250505b935093915050565b600080600860008481526020019081526020016000209050806005015461501161500c856114d2565b6124e6565b1115915050919050565b6000806008600084815260200190815260200160002090508060060154816005015411915050919050565b600080615055868686866152ff565b90506000801b60076000838152602001908152602001600020541461512c57600660009054906101000a900473ffffffffffffffffffffffffffffffffffffffff1673ffffffffffffffffffffffffffffffffffffffff1663c4d252f560076000848152602001908152602001600020546040518263ffffffff1660e01b81526004016150e291906160d2565b600060405180830381600087803b1580156150fc57600080fd5b505af1158015615110573d6000803e3d6000fd5b5050505060076000828152602001908152602001600020600090555b80915050949350505050565b600080600090506000608084901c111561515a57608083901c92506080810190505b6000604084901c111561517557604083901c92506040810190505b6000602084901c111561519057602083901c92506020810190505b6000601084901c11156151ab57601083901c92506010810190505b6000600884901c11156151c657600883901c92506008810190505b6000600484901c11156151e157600483901c92506004810190505b6000600284901c11156151fc57600283901c92506002810190505b6000600184901c1115615210576001810190505b80915050919050565b6000818310615228578161522a565b825b905092915050565b600060028284186152439190617cd4565b8284166152509190617462565b905092915050565b600067ffffffffffffffff80168211156152a7576040517f08c379a000000000000000000000000000000000000000000000000000000000815260040161529e9061856b565b60405180910390fd5b819050919050565b60008060ff8360001c169050601f8111156152f6576040517fb3512b0c00000000000000000000000000000000000000000000000000000000815260040160405180910390fd5b80915050919050565b60008061530e868686866122a8565b9050600061531b82611884565b90506002600781111561533157615330616568565b5b81600781111561534457615343616568565b5b1415801561537757506006600781111561536157615360616568565b5b81600781111561537457615373616568565b5b14155b80156153a7575060078081111561539157615390616568565b5b8160078111156153a4576153a3616568565b5b14155b6153e6576040517f08c379a00000000000000000000000000000000000000000000000000000000081526004016153dd906185d7565b60405180910390fd5b60016003600084815260200190815260200160002060020160016101000a81548160ff0219169083151502179055507f789cf55be980739dad1d0699b93b58e806b51c9d96619bfa8fe0a28abaa7b30c826040516154449190615919565b60405180910390a18192505050949350505050565b6040518060600160405280600015158152602001600060ff16815260200160006bffffffffffffffffffffffff1681525090565b828054828255906000526020600020908101928215615506579160200282015b828111156155055782518260006101000a81548173ffffffffffffffffffffffffffffffffffffffff021916908373ffffffffffffffffffffffffffffffffffffffff160217905550916020019190600101906154ad565b5b5090506155139190615616565b5090565b828054828255906000526020600020908101928215615553579160200282015b82811115615552578251825591602001919060010190615537565b5b5090506155609190615616565b5090565b8280548282559060005260206000209081019282156155ac579160200282015b828111156155ab57825182908161559b9190618799565b5091602001919060010190615584565b5b5090506155b99190615633565b5090565b828054828255906000526020600020908101928215615605579160200282015b828111156156045782518290816155f491906188c6565b50916020019190600101906155dd565b5b5090506156129190615657565b5090565b5b8082111561562f576000816000905550600101615617565b5090565b5b80821115615653576000818161564a919061567b565b50600101615634565b5090565b5b80821115615677576000818161566e91906156bb565b50600101615658565b5090565b508054615687906171c6565b6000825580601f1061569957506156b8565b601f0160209004906000526020600020908101906156b79190615616565b5b50565b5080546156c7906171c6565b6000825580601f106156d957506156f8565b601f0160209004906000526020600020908101906156f79190615616565b5b50565b6000604051905090565b600080fd5b600080fd5b6000819050919050565b6157228161570f565b811461572d57600080fd5b50565b60008135905061573f81615719565b92915050565b60006020828403121561575b5761575a615705565b5b600061576984828501615730565b91505092915050565b61577b8161570f565b82525050565b600073ffffffffffffffffffffffffffffffffffffffff82169050919050565b60006157ac82615781565b9050919050565b6157bc816157a1565b82525050565b60008115159050919050565b6157d7816157c2565b82525050565b6000610140820190506157f3600083018d615772565b615800602083018c6157b3565b61580d604083018b615772565b61581a606083018a615772565b6158276080830189615772565b61583460a0830188615772565b61584160c0830187615772565b61584e60e0830186615772565b61585c6101008301856157ce565b61586a6101208301846157ce565b9b9a5050505050505050505050565b60007fffffffff0000000000000000000000000000000000000000000000000000000082169050919050565b6158ae81615879565b81146158b957600080fd5b50565b6000813590506158cb816158a5565b92915050565b6000602082840312156158e7576158e6615705565b5b60006158f5848285016158bc565b91505092915050565b600060208201905061591360008301846157ce565b92915050565b600060208201905061592e6000830184615772565b92915050565b600060ff82169050919050565b61594a81615934565b811461595557600080fd5b50565b60008135905061596781615941565b92915050565b600080fd5b600080fd5b600080fd5b60008083601f8401126159925761599161596d565b5b8235905067ffffffffffffffff8111156159af576159ae615972565b5b6020830191508360018202830111156159cb576159ca615977565b5b9250929050565b600080fd5b6000601f19601f8301169050919050565b7f4e487b7100000000000000000000000000000000000000000000000000000000600052604160045260246000fd5b615a20826159d7565b810181811067ffffffffffffffff82111715615a3f57615a3e6159e8565b5b80604052505050565b6000615a526156fb565b9050615a5e8282615a17565b919050565b600067ffffffffffffffff821115615a7e57615a7d6159e8565b5b615a87826159d7565b9050602081019050919050565b82818337600083830152505050565b6000615ab6615ab184615a63565b615a48565b905082815260208101848484011115615ad257615ad16159d2565b5b615add848285615a94565b509392505050565b600082601f830112615afa57615af961596d565b5b8135615b0a848260208601615aa3565b91505092915050565b6000819050919050565b615b2681615b13565b8114615b3157600080fd5b50565b600081359050615b4381615b1d565b92915050565b60008060008060008060008060e0898b031215615b6957615b68615705565b5b6000615b778b828c01615730565b9850506020615b888b828c01615958565b975050604089013567ffffffffffffffff811115615ba957615ba861570a565b5b615bb58b828c0161597c565b9650965050606089013567ffffffffffffffff811115615bd857615bd761570a565b5b615be48b828c01615ae5565b9450506080615bf58b828c01615958565b93505060a0615c068b828c01615b34565b92505060c0615c178b828c01615b34565b9150509295985092959890939650565b600081519050919050565b600082825260208201905092915050565b60005b83811015615c61578082015181840152602081019050615c46565b60008484015250505050565b6000615c7882615c27565b615c828185615c32565b9350615c92818560208601615c43565b615c9b816159d7565b840191505092915050565b60006020820190508181036000830152615cc08184615c6d565b905092915050565b615cd1816157a1565b8114615cdc57600080fd5b50565b600081359050615cee81615cc8565b92915050565b60008060008060808587031215615d0e57615d0d615705565b5b6000615d1c87828801615cdf565b9450506020615d2d87828801615cdf565b9350506040615d3e87828801615730565b925050606085013567ffffffffffffffff811115615d5f57615d5e61570a565b5b615d6b87828801615ae5565b91505092959194509250565b615d8081615879565b82525050565b6000602082019050615d9b6000830184615d77565b92915050565b600067ffffffffffffffff821115615dbc57615dbb6159e8565b5b602082029050602081019050919050565b6000615de0615ddb84615da1565b615a48565b90508083825260208201905060208402830185811115615e0357615e02615977565b5b835b81811015615e2c5780615e188882615cdf565b845260208401935050602081019050615e05565b5050509392505050565b600082601f830112615e4b57615e4a61596d565b5b8135615e5b848260208601615dcd565b91505092915050565b600067ffffffffffffffff821115615e7f57615e7e6159e8565b5b602082029050602081019050919050565b6000615ea3615e9e84615e64565b615a48565b90508083825260208201905060208402830185811115615ec657615ec5615977565b5b835b81811015615eef5780615edb8882615730565b845260208401935050602081019050615ec8565b5050509392505050565b600082601f830112615f0e57615f0d61596d565b5b8135615f1e848260208601615e90565b91505092915050565b600067ffffffffffffffff821115615f4257615f416159e8565b5b602082029050602081019050919050565b6000615f66615f6184615f27565b615a48565b90508083825260208201905060208402830185811115615f8957615f88615977565b5b835b81811015615fd057803567ffffffffffffffff811115615fae57615fad61596d565b5b808601615fbb8982615ae5565b85526020850194505050602081019050615f8b565b5050509392505050565b600082601f830112615fef57615fee61596d565b5b8135615fff848260208601615f53565b91505092915050565b6000806000806080858703121561602257616021615705565b5b600085013567ffffffffffffffff8111156160405761603f61570a565b5b61604c87828801615e36565b945050602085013567ffffffffffffffff81111561606d5761606c61570a565b5b61607987828801615ef9565b935050604085013567ffffffffffffffff81111561609a5761609961570a565b5b6160a687828801615fda565b92505060606160b787828801615b34565b91505092959194509250565b6160cc81615b13565b82525050565b60006020820190506160e760008301846160c3565b92915050565b600081519050919050565b600082825260208201905092915050565b6000819050602082019050919050565b616122816157a1565b82525050565b60006161348383616119565b60208301905092915050565b6000602082019050919050565b6000616158826160ed565b61616281856160f8565b935061616d83616109565b8060005b8381101561619e5781516161858882616128565b975061619083616140565b925050600181019050616171565b5085935050505092915050565b600081519050919050565b600082825260208201905092915050565b6000819050602082019050919050565b6161e08161570f565b82525050565b60006161f283836161d7565b60208301905092915050565b6000602082019050919050565b6000616216826161ab565b61622081856161b6565b935061622b836161c7565b8060005b8381101561625c57815161624388826161e6565b975061624e836161fe565b92505060018101905061622f565b5085935050505092915050565b600081519050919050565b600082825260208201905092915050565b6000819050602082019050919050565b600082825260208201905092915050565b60006162b182615c27565b6162bb8185616295565b93506162cb818560208601615c43565b6162d4816159d7565b840191505092915050565b60006162eb83836162a6565b905092915050565b6000602082019050919050565b600061630b82616269565b6163158185616274565b93508360208202850161632785616285565b8060005b85811015616363578484038952815161634485826162df565b945061634f836162f3565b925060208a0199505060018101905061632b565b50829750879550505050505092915050565b600081519050919050565b600082825260208201905092915050565b6000819050602082019050919050565b600081519050919050565b600082825260208201905092915050565b60006163c8826163a1565b6163d281856163ac565b93506163e2818560208601615c43565b6163eb816159d7565b840191505092915050565b600061640283836163bd565b905092915050565b6000602082019050919050565b600061642282616375565b61642c8185616380565b93508360208202850161643e85616391565b8060005b8581101561647a578484038952815161645b85826163f6565b94506164668361640a565b925060208a01995050600181019050616442565b50829750879550505050505092915050565b600060808201905081810360008301526164a6818761614d565b905081810360208301526164ba818661620b565b905081810360408301526164ce8185616300565b905081810360608301526164e28184616417565b905095945050505050565b600080600080600060a0868803121561650957616508615705565b5b600061651788828901615730565b955050602061652888828901615958565b945050604061653988828901615958565b935050606061654a88828901615b34565b925050608061655b88828901615b34565b9150509295509295909350565b7f4e487b7100000000000000000000000000000000000000000000000000000000600052602160045260246000fd5b600881106165a8576165a7616568565b5b50565b60008190506165b982616597565b919050565b60006165c9826165ab565b9050919050565b6165d9816165be565b82525050565b60006020820190506165f460008301846165d0565b92915050565b6000806040838503121561661157616610615705565b5b600061661f85828601615730565b925050602061663085828601615cdf565b9150509250929050565b6000806040838503121561665157616650615705565b5b600061665f85828601615730565b925050602061667085828601615958565b9150509250929050565b60008060008060006080868803121561669657616695615705565b5b60006166a488828901615730565b95505060206166b588828901615958565b945050604086013567ffffffffffffffff8111156166d6576166d561570a565b5b6166e28882890161597c565b9350935050606086013567ffffffffffffffff8111156167055761670461570a565b5b61671188828901615ae5565b9150509295509295909350565b6000806000806060858703121561673857616737615705565b5b600061674687828801615730565b945050602061675787828801615958565b935050604085013567ffffffffffffffff8111156167785761677761570a565b5b6167848782880161597c565b925092505092959194509250565b600067ffffffffffffffff8211156167ad576167ac6159e8565b5b6167b6826159d7565b9050602081019050919050565b60006167d66167d184616792565b615a48565b9050828152602081018484840111156167f2576167f16159d2565b5b6167fd848285615a94565b509392505050565b600082601f83011261681a5761681961596d565b5b813561682a8482602086016167c3565b91505092915050565b6000806000806080858703121561684d5761684c615705565b5b600085013567ffffffffffffffff81111561686b5761686a61570a565b5b61687787828801615e36565b945050602085013567ffffffffffffffff8111156168985761689761570a565b5b6168a487828801615ef9565b935050604085013567ffffffffffffffff8111156168c5576168c461570a565b5b6168d187828801615fda565b925050606085013567ffffffffffffffff8111156168f2576168f161570a565b5b6168fe87828801616805565b91505092959194509250565b60007fff0000000000000000000000000000000000000000000000000000000000000082169050919050565b61693f8161690a565b82525050565b600060e08201905061695a600083018a616936565b818103602083015261696c8189615c6d565b905081810360408301526169808188615c6d565b905061698f6060830187615772565b61699c60808301866157b3565b6169a960a08301856160c3565b81810360c08301526169bb818461620b565b905098975050505050505050565b600065ffffffffffff82169050919050565b6169e4816169c9565b82525050565b60006020820190506169ff60008301846169db565b92915050565b600080600060608486031215616a1e57616a1d615705565b5b6000616a2c86828701615cdf565b9350506020616a3d86828701615730565b925050604084013567ffffffffffffffff811115616a5e57616a5d61570a565b5b616a6a86828701615ae5565b9150509250925092565b6000616a7f82615781565b9050919050565b6000616a9182616a74565b9050919050565b616aa181616a86565b8114616aac57600080fd5b50565b600081359050616abe81616a98565b92915050565b600060208284031215616ada57616ad9615705565b5b6000616ae884828501616aaf565b91505092915050565b600080600080600060a08688031215616b0d57616b0c615705565b5b6000616b1b88828901615cdf565b9550506020616b2c88828901615cdf565b945050604086013567ffffffffffffffff811115616b4d57616b4c61570a565b5b616b5988828901615ef9565b935050606086013567ffffffffffffffff811115616b7a57616b7961570a565b5b616b8688828901615ef9565b925050608086013567ffffffffffffffff811115616ba757616ba661570a565b5b616bb388828901615ae5565b9150509295509295909350565b60008083601f840112616bd657616bd561596d565b5b8235905067ffffffffffffffff811115616bf357616bf2615972565b5b602083019150836001820283011115616c0f57616c0e615977565b5b9250929050565b60008060008060608587031215616c3057616c2f615705565b5b6000616c3e87828801615cdf565b9450506020616c4f87828801615730565b935050604085013567ffffffffffffffff811115616c7057616c6f61570a565b5b616c7c87828801616bc0565b925092505092959194509250565b6000602082019050616c9f60008301846157b3565b92915050565b600067ffffffffffffffff821115616cc057616cbf6159e8565b5b602082029050602081019050919050565b6000616ce4616cdf84616ca5565b615a48565b90508083825260208201905060208402830185811115616d0757616d06615977565b5b835b81811015616d4e57803567ffffffffffffffff811115616d2c57616d2b61596d565b5b808601616d398982616805565b85526020850194505050602081019050616d09565b5050509392505050565b600082601f830112616d6d57616d6c61596d565b5b8135616d7d848260208601616cd1565b91505092915050565b600080600080600060a08688031215616da257616da1615705565b5b600086013567ffffffffffffffff811115616dc057616dbf61570a565b5b616dcc88828901615e36565b955050602086013567ffffffffffffffff811115616ded57616dec61570a565b5b616df988828901615ef9565b945050604086013567ffffffffffffffff811115616e1a57616e1961570a565b5b616e2688828901616d58565b935050606086013567ffffffffffffffff811115616e4757616e4661570a565b5b616e5388828901615fda565b925050608086013567ffffffffffffffff811115616e7457616e7361570a565b5b616e8088828901616805565b9150509295509295909350565b616e96816157c2565b82525050565b616ea581615934565b82525050565b60006bffffffffffffffffffffffff82169050919050565b616ecc81616eab565b82525050565b606082016000820151616ee86000850182616e8d565b506020820151616efb6020850182616e9c565b506040820151616f0e6040850182616ec3565b50505050565b6000606082019050616f296000830184616ed2565b92915050565b60008060408385031215616f4657616f45615705565b5b6000616f5485828601615cdf565b9250506020616f6585828601615730565b9150509250929050565b600080600080600060a08688031215616f8b57616f8a615705565b5b6000616f9988828901615cdf565b9550506020616faa88828901615cdf565b9450506040616fbb88828901615730565b9350506060616fcc88828901615730565b925050608086013567ffffffffffffffff811115616fed57616fec61570a565b5b616ff988828901615ae5565b9150509295509295909350565b6000819050919050565b600061702b61702661702184615781565b617006565b615781565b9050919050565b600061703d82617010565b9050919050565b600061704f82617032565b9050919050565b61705f81617044565b82525050565b600060208201905061707a6000830184617056565b92915050565b600081905092915050565b60006170978385617080565b93506170a4838584615a94565b82840190509392505050565b60006170bd82848661708b565b91508190509392505050565b6170d281615934565b82525050565b600060a0820190506170ed60008301886160c3565b6170fa6020830187615772565b61710760408301866170c9565b61711460608301856160c3565b61712160808301846160c3565b9695505050505050565b7f476f7665726e6f723a206f6e6c79476f7665726e616e63650000000000000000600082015250565b6000617161601883615c32565b915061716c8261712b565b602082019050919050565b6000602082019050818103600083015261719081617154565b9050919050565b7f4e487b7100000000000000000000000000000000000000000000000000000000600052602260045260246000fd5b600060028204905060018216806171de57607f821691505b6020821081036171f1576171f0617197565b5b50919050565b7f476f7665726e6f723a2070726f706f73616c206e6f742073756363657373667560008201527f6c00000000000000000000000000000000000000000000000000000000000000602082015250565b6000617253602183615c32565b915061725e826171f7565b604082019050919050565b6000602082019050818103600083015261728281617246565b9050919050565b60008151905061729881615719565b92915050565b6000602082840312156172b4576172b3615705565b5b60006172c284828501617289565b91505092915050565b6000819050919050565b60008160001b9050919050565b60006172fd6172f86172f3846172cb565b6172d5565b615b13565b9050919050565b61730d816172e2565b82525050565b600060a082019050818103600083015261732d818861614d565b90508181036020830152617341818761620b565b905081810360408301526173558186616417565b90506173646060830185617304565b61737160808301846160c3565b9695505050505050565b60008151905061738a81615b1d565b92915050565b6000602082840312156173a6576173a5615705565b5b60006173b48482850161737b565b91505092915050565b600060c08201905081810360008301526173d7818961614d565b905081810360208301526173eb818861620b565b905081810360408301526173ff8187616417565b905061740e6060830186617304565b61741b60808301856160c3565b61742860a0830184615772565b979650505050505050565b7f4e487b7100000000000000000000000000000000000000000000000000000000600052601160045260246000fd5b600061746d8261570f565b91506174788361570f565b92508282019050808211156174905761748f617433565b5b92915050565b60006040820190506174ab6000830185615772565b6174b86020830184615772565b9392505050565b60006174ca826169c9565b91506174d5836169c9565b9250828203905065ffffffffffff8111156174f3576174f2617433565b5b92915050565b600060608201905061750e60008301866160c3565b61751b6020830185615772565b61752860408301846170c9565b949350505050565b600061754361753e84616792565b615a48565b90508281526020810184848401111561755f5761755e6159d2565b5b61756a848285615c43565b509392505050565b600082601f8301126175875761758661596d565b5b8151617597848260208601617530565b91505092915050565b6000602082840312156175b6576175b5615705565b5b600082015167ffffffffffffffff8111156175d4576175d361570a565b5b6175e084828501617572565b91505092915050565b60006175f48261570f565b91506175ff8361570f565b925082820390508181111561761757617616617433565b5b92915050565b7f4e487b7100000000000000000000000000000000000000000000000000000000600052603260045260246000fd5b617655816169c9565b811461766057600080fd5b50565b6000815190506176728161764c565b92915050565b60006020828403121561768e5761768d615705565b5b600061769c84828501617663565b91505092915050565b600060808201905081810360008301526176bf818761614d565b905081810360208301526176d3818661620b565b905081810360408301526176e78185616417565b90506176f660608301846160c3565b95945050505050565b7f476f7665726e6f723a20766f7465206e6f742063757272656e746c792061637460008201527f6976650000000000000000000000000000000000000000000000000000000000602082015250565b600061775b602383615c32565b9150617766826176ff565b604082019050919050565b6000602082019050818103600083015261778a8161774e565b9050919050565b60006080820190506177a66000830187615772565b6177b360208301866170c9565b6177c06040830185615772565b81810360608301526177d28184615c6d565b905095945050505050565b600082825260208201905092915050565b60006177f9826163a1565b61780381856177dd565b9350617813818560208601615c43565b61781c816159d7565b840191505092915050565b600060a08201905061783c6000830188615772565b61784960208301876170c9565b6178566040830186615772565b81810360608301526178688185615c6d565b9050818103608083015261787c81846177ee565b90509695505050505050565b7f476f7665726e6f72566f74657351756f72756d4672616374696f6e3a2071756f60008201527f72756d4e756d657261746f72206f7665722071756f72756d44656e6f6d696e6160208201527f746f720000000000000000000000000000000000000000000000000000000000604082015250565b600061790a604383615c32565b915061791582617888565b606082019050919050565b60006020820190508181036000830152617939816178fd565b9050919050565b600061794b8261570f565b91507fffffffffffffffffffffffffffffffffffffffffffffffffffffffffffffffff820361797d5761797c617433565b5b600182019050919050565b617991816157c2565b811461799c57600080fd5b50565b6000815190506179ae81617988565b92915050565b6000602082840312156179ca576179c9615705565b5b60006179d88482850161799f565b91505092915050565b7f476f7665726e6f72427261766f3a2070726f706f7365722061626f766520746860008201527f726573686f6c6400000000000000000000000000000000000000000000000000602082015250565b6000617a3d602783615c32565b9150617a48826179e1565b604082019050919050565b60006020820190508181036000830152617a6c81617a30565b9050919050565b7f53616665436173743a2076616c756520646f65736e27742066697420696e203360008201527f3220626974730000000000000000000000000000000000000000000000000000602082015250565b6000617acf602683615c32565b9150617ada82617a73565b604082019050919050565b60006020820190508181036000830152617afe81617ac2565b9050919050565b7f53616665436173743a2076616c756520646f65736e27742066697420696e203460008201527f3820626974730000000000000000000000000000000000000000000000000000602082015250565b6000617b61602683615c32565b9150617b6c82617b05565b604082019050919050565b60006020820190508181036000830152617b9081617b54565b9050919050565b6000604082019050617bac60008301856157b3565b617bb96020830184615772565b9392505050565b6000604082019050617bd560008301856157b3565b617be260208301846157b3565b9392505050565b6000819050919050565b617c04617bff82615879565b617be9565b82525050565b6000617c15826163a1565b617c1f8185617080565b9350617c2f818560208601615c43565b80840191505092915050565b6000617c478285617bf3565b600482019150617c578284617c0a565b91508190509392505050565b6000617c6e8261570f565b9150617c798361570f565b9250828202617c878161570f565b91508282048414831517617c9e57617c9d617433565b5b5092915050565b7f4e487b7100000000000000000000000000000000000000000000000000000000600052601260045260246000fd5b6000617cdf8261570f565b9150617cea8361570f565b925082617cfa57617cf9617ca5565b5b828204905092915050565b6000608082019050617d1a60008301876160c3565b617d2760208301866170c9565b617d3460408301856160c3565b617d4160608301846160c3565b95945050505050565b7f45434453413a20696e76616c6964207369676e61747572650000000000000000600082015250565b6000617d80601883615c32565b9150617d8b82617d4a565b602082019050919050565b60006020820190508181036000830152617daf81617d73565b9050919050565b7f45434453413a20696e76616c6964207369676e6174757265206c656e67746800600082015250565b6000617dec601f83615c32565b9150617df782617db6565b602082019050919050565b60006020820190508181036000830152617e1b81617ddf565b9050919050565b7f45434453413a20696e76616c6964207369676e6174757265202773272076616c60008201527f7565000000000000000000000000000000000000000000000000000000000000602082015250565b6000617e7e602283615c32565b9150617e8982617e22565b604082019050919050565b60006020820190508181036000830152617ead81617e71565b9050919050565b7f476f7665726e6f72436f6d7061746962696c697479427261766f3a20766f746560008201527f20616c7265616479206361737400000000000000000000000000000000000000602082015250565b6000617f10602d83615c32565b9150617f1b82617eb4565b604082019050919050565b60006020820190508181036000830152617f3f81617f03565b9050919050565b7f476f7665726e6f72436f6d7061746962696c697479427261766f3a20696e766160008201527f6c696420766f7465207479706500000000000000000000000000000000000000602082015250565b6000617fa2602d83615c32565b9150617fad82617f46565b604082019050919050565b60006020820190508181036000830152617fd181617f95565b9050919050565b7f53616665436173743a2076616c756520646f65736e27742066697420696e203260008201527f3234206269747300000000000000000000000000000000000000000000000000602082015250565b6000618034602783615c32565b915061803f82617fd8565b604082019050919050565b6000602082019050818103600083015261806381618027565b9050919050565b7f476f7665726e6f723a20756e6b6e6f776e2070726f706f73616c206964000000600082015250565b60006180a0601d83615c32565b91506180ab8261806a565b602082019050919050565b600060208201905081810360008301526180cf81618093565b9050919050565b7f476f7665726e6f723a2070726f706f73657220766f7465732062656c6f77207060008201527f726f706f73616c207468726573686f6c64000000000000000000000000000000602082015250565b6000618132603183615c32565b915061813d826180d6565b604082019050919050565b6000602082019050818103600083015261816181618125565b9050919050565b7f476f7665726e6f723a20696e76616c69642070726f706f73616c206c656e677460008201527f6800000000000000000000000000000000000000000000000000000000000000602082015250565b60006181c4602183615c32565b91506181cf82618168565b604082019050919050565b600060208201905081810360008301526181f3816181b7565b9050919050565b7f476f7665726e6f723a20656d7074792070726f706f73616c0000000000000000600082015250565b6000618230601883615c32565b915061823b826181fa565b602082019050919050565b6000602082019050818103600083015261825f81618223565b9050919050565b7f476f7665726e6f723a2070726f706f73616c20616c726561647920657869737460008201527f7300000000000000000000000000000000000000000000000000000000000000602082015250565b60006182c2602183615c32565b91506182cd82618266565b604082019050919050565b600060208201905081810360008301526182f1816182b5565b9050919050565b60006101208201905061830e600083018c615772565b61831b602083018b6157b3565b818103604083015261832d818a61614d565b90508181036060830152618341818961620b565b905081810360808301526183558188616300565b905081810360a08301526183698187616417565b905061837860c0830186615772565b61838560e0830185615772565b8181036101008301526183988184615c6d565b90509a9950505050505050505050565b600060a0820190506183bd60008301886160c3565b6183ca60208301876160c3565b6183d760408301866160c3565b6183e46060830185615772565b6183f160808301846157b3565b9695505050505050565b7f53616665436173743a2076616c756520646f65736e27742066697420696e203960008201527f3620626974730000000000000000000000000000000000000000000000000000602082015250565b6000618457602683615c32565b9150618462826183fb565b604082019050919050565b600060208201905081810360008301526184868161844a565b9050919050565b7f436865636b706f696e743a2064656372656173696e67206b6579730000000000600082015250565b60006184c3601b83615c32565b91506184ce8261848d565b602082019050919050565b600060208201905081810360008301526184f2816184b6565b9050919050565b7f53616665436173743a2076616c756520646f65736e27742066697420696e203660008201527f3420626974730000000000000000000000000000000000000000000000000000602082015250565b6000618555602683615c32565b9150618560826184f9565b604082019050919050565b6000602082019050818103600083015261858481618548565b9050919050565b7f476f7665726e6f723a2070726f706f73616c206e6f7420616374697665000000600082015250565b60006185c1601d83615c32565b91506185cc8261858b565b602082019050919050565b600060208201905081810360008301526185f0816185b4565b9050919050565b60008190508160005260206000209050919050565b60006020601f8301049050919050565b600082821b905092915050565b6000600883026186597fffffffffffffffffffffffffffffffffffffffffffffffffffffffffffffffff8261861c565b618663868361861c565b95508019841693508086168417925050509392505050565b600061869661869161868c8461570f565b617006565b61570f565b9050919050565b6000819050919050565b6186b08361867b565b6186c46186bc8261869d565b848454618629565b825550505050565b600090565b6186d96186cc565b6186e48184846186a7565b505050565b5b81811015618708576186fd6000826186d1565b6001810190506186ea565b5050565b601f82111561874d5761871e816185f7565b6187278461860c565b81016020851015618736578190505b61874a6187428561860c565b8301826186e9565b50505b505050565b600082821c905092915050565b600061877060001984600802618752565b1980831691505092915050565b6000618789838361875f565b9150826002028217905092915050565b6187a282615c27565b67ffffffffffffffff8111156187bb576187ba6159e8565b5b6187c582546171c6565b6187d082828561870c565b600060209050601f83116001811461880357600084156187f1578287015190505b6187fb858261877d565b865550618863565b601f198416618811866185f7565b60005b8281101561883957848901518255600182019150602085019450602081019050618814565b868310156188565784890151618852601f89168261875f565b8355505b6001600288020188555050505b505050505050565b60008190508160005260206000209050919050565b601f8211156188c1576188928161886b565b61889b8461860c565b810160208510156188aa578190505b6188be6188b68561860c565b8301826186e9565b50505b505050565b6188cf826163a1565b67ffffffffffffffff8111156188e8576188e76159e8565b5b6188f282546171c6565b6188fd828285618880565b600060209050601f831160018114618930576000841561891e578287015190505b618928858261877d565b865550618990565b601f19841661893e8661886b565b60005b8281101561896657848901518255600182019150602085019450602081019050618941565b86831015618983578489015161897f601f89168261875f565b8355505b6001600288020188555050505b50505050505056fe476f7665726e6f723a2072656c617920726576657274656420776974686f7574206d657373616765a26469706673582212203e8a3a9cde54708e4f883c8ef92a6a3492040b5446dc52026251986ddb81adce64736f6c63430008130033",
  "immutableReferences": {
    "8104": [
      {
        "length": 32,
        "start": 6475
      },
      {
        "length": 32,
        "start": 7663
      },
      {
        "length": 32,
        "start": 9466
      },
      {
        "length": 32,
        "start": 13414
      },
      {
        "length": 32,
        "start": 14498
      }
    ],
    "32652": [
      {
        "length": 32,
        "start": 15251
      }
    ],
    "32654": [
      {
        "length": 32,
        "start": 15210
      }
    ],
    "32656": [
      {
        "length": 32,
        "start": 15124
      }
    ],
    "32659": [
      {
        "length": 32,
        "start": 7420
      }
    ],
    "32662": [
      {
        "length": 32,
        "start": 7472
      }
    ],
    "32668": [
      {
        "length": 32,
        "start": 19345
      }
    ],
    "32670": [
      {
        "length": 32,
        "start": 19378
      }
    ]
  },
  "source": "// SPDX-License-Identifier: MIT\r\npragma solidity ^0.8.2;\r\n\r\nimport \"../../governance/Governor.sol\";\r\nimport \"../../governance/compatibility/GovernorCompatibilityBravo.sol\";\r\nimport \"../../governance/extensions/GovernorVotes.sol\";\r\nimport \"../../governance/extensions/GovernorVotesQuorumFraction.sol\";\r\nimport \"../../governance/extensions/GovernorTimelockControl.sol\";\r\n\r\ncontract MyGovernor is\r\n    Governor,\r\n    GovernorTimelockControl,\r\n    GovernorCompatibilityBravo,\r\n    GovernorVotes,\r\n    GovernorVotesQuorumFraction\r\n{\r\n    constructor(\r\n        IVotes _token,\r\n        TimelockController _timelock\r\n    ) Governor(\"MyGovernor\") GovernorVotes(_token) GovernorVotesQuorumFraction(4) GovernorTimelockControl(_timelock) {}\r\n\r\n    function votingDelay() public pure override returns (uint256) {\r\n        return 1; // 1 block\r\n    }\r\n\r\n    function votingPeriod() public pure override returns (uint256) {\r\n        return 45818; // 1 week\r\n    }\r\n\r\n    function proposalThreshold() public pure override returns (uint256) {\r\n        return 1000e18;\r\n    }\r\n\r\n    // The following functions are overrides required by Solidity.\r\n\r\n    function quorum(\r\n        uint256 blockNumber\r\n    ) public view override(IGovernor, GovernorVotesQuorumFraction) returns (uint256) {\r\n        return super.quorum(blockNumber);\r\n    }\r\n\r\n    function state(\r\n        uint256 proposalId\r\n    ) public view override(Governor, IGovernor, GovernorTimelockControl) returns (ProposalState) {\r\n        return super.state(proposalId);\r\n    }\r\n\r\n    function propose(\r\n        address[] memory targets,\r\n        uint256[] memory values,\r\n        bytes[] memory calldatas,\r\n        string memory description\r\n    ) public override(Governor, GovernorCompatibilityBravo, IGovernor) returns (uint256) {\r\n        return super.propose(targets, values, calldatas, description);\r\n    }\r\n\r\n    function cancel(\r\n        address[] memory targets,\r\n        uint256[] memory values,\r\n        bytes[] memory calldatas,\r\n        bytes32 descriptionHash\r\n    ) public override(Governor, GovernorCompatibilityBravo, IGovernor) returns (uint256) {\r\n        return super.cancel(targets, values, calldatas, descriptionHash);\r\n    }\r\n\r\n    function _execute(\r\n        uint256 proposalId,\r\n        address[] memory targets,\r\n        uint256[] memory values,\r\n        bytes[] memory calldatas,\r\n        bytes32 descriptionHash\r\n    ) internal override(Governor, GovernorTimelockControl) {\r\n        super._execute(proposalId, targets, values, calldatas, descriptionHash);\r\n    }\r\n\r\n    function _cancel(\r\n        address[] memory targets,\r\n        uint256[] memory values,\r\n        bytes[] memory calldatas,\r\n        bytes32 descriptionHash\r\n    ) internal override(Governor, GovernorTimelockControl) returns (uint256) {\r\n        return super._cancel(targets, values, calldatas, descriptionHash);\r\n    }\r\n\r\n    function _executor() internal view override(Governor, GovernorTimelockControl) returns (address) {\r\n        return super._executor();\r\n    }\r\n\r\n    function supportsInterface(\r\n        bytes4 interfaceId\r\n    ) public view override(Governor, IERC165, GovernorTimelockControl) returns (bool) {\r\n        return super.supportsInterface(interfaceId);\r\n    }\r\n}\r\n",
  "sourcePath": "C:\\Users\\SSAFY\\Desktop\\S08P22A308\\smart-contracts\\contracts\\mocks\\wizard\\MyGovernor3.sol",
  "compiler": {
    "name": "solc",
    "version": "0.8.19+commit.7dd6d404.Emscripten.clang"
  },
  "schemaVersion": "3.4.13",
  "updatedAt": "2023-03-23T05:45:08.532Z",
  "devdoc": {
    "errors": {
      "Empty()": [
        {
          "details": "An operation (e.g. {front}) couldn't be completed due to the queue being empty."
        }
      ]
    },
    "events": {
      "EIP712DomainChanged()": {
        "details": "MAY be emitted to signal that the domain could have changed."
      },
      "ProposalCanceled(uint256)": {
        "details": "Emitted when a proposal is canceled."
      },
      "ProposalCreated(uint256,address,address[],uint256[],string[],bytes[],uint256,uint256,string)": {
        "details": "Emitted when a proposal is created."
      },
      "ProposalExecuted(uint256)": {
        "details": "Emitted when a proposal is executed."
      },
      "TimelockChange(address,address)": {
        "details": "Emitted when the timelock controller used for proposal execution is modified."
      },
      "VoteCast(address,uint256,uint8,uint256,string)": {
        "details": "Emitted when a vote is cast without params. Note: `support` values should be seen as buckets. Their interpretation depends on the voting module used."
      },
      "VoteCastWithParams(address,uint256,uint8,uint256,string,bytes)": {
        "details": "Emitted when a vote is cast with params. Note: `support` values should be seen as buckets. Their interpretation depends on the voting module used. `params` are additional encoded parameters. Their interpepretation also depends on the voting module used."
      }
    },
    "kind": "dev",
    "methods": {
      "CLOCK_MODE()": {
        "details": "Machine-readable description of the clock as specified in EIP-6372."
      },
      "COUNTING_MODE()": {
        "details": "A description of the possible `support` values for {castVote} and the way these votes are counted, meant to be consumed by UIs to show correct vote options and interpret the results. The string is a URL-encoded sequence of key-value pairs that each describe one aspect, for example `support=bravo&quorum=for,abstain`. There are 2 standard keys: `support` and `quorum`. - `support=bravo` refers to the vote options 0 = Against, 1 = For, 2 = Abstain, as in `GovernorBravo`. - `quorum=bravo` means that only For votes are counted towards quorum. - `quorum=for,abstain` means that both For and Abstain votes are counted towards quorum. If a counting module makes use of encoded `params`, it should  include this under a `params` key with a unique name that describes the behavior. For example: - `params=fractional` might refer to a scheme where votes are divided fractionally between for/against/abstain. - `params=erc721` might refer to a scheme where specific NFTs are delegated to vote. NOTE: The string can be decoded by the standard https://developer.mozilla.org/en-US/docs/Web/API/URLSearchParams[`URLSearchParams`] JavaScript class."
      },
      "cancel(uint256)": {
        "details": "Cancel a proposal with GovernorBravo logic."
      },
      "castVote(uint256,uint8)": {
        "details": "See {IGovernor-castVote}."
      },
      "castVoteBySig(uint256,uint8,uint8,bytes32,bytes32)": {
        "details": "See {IGovernor-castVoteBySig}."
      },
      "castVoteWithReason(uint256,uint8,string)": {
        "details": "See {IGovernor-castVoteWithReason}."
      },
      "castVoteWithReasonAndParams(uint256,uint8,string,bytes)": {
        "details": "See {IGovernor-castVoteWithReasonAndParams}."
      },
      "castVoteWithReasonAndParamsBySig(uint256,uint8,string,bytes,uint8,bytes32,bytes32)": {
        "details": "See {IGovernor-castVoteWithReasonAndParamsBySig}."
      },
      "clock()": {
        "details": "Clock (as specified in EIP-6372) is set to match the token's clock. Fallback to block numbers if the token does not implement EIP-6372."
      },
      "eip712Domain()": {
        "details": "See {EIP-5267}."
      },
      "execute(address[],uint256[],bytes[],bytes32)": {
        "details": "See {IGovernor-execute}."
      },
      "execute(uint256)": {
        "details": "See {IGovernorCompatibilityBravo-execute}."
      },
      "getActions(uint256)": {
        "details": "See {IGovernorCompatibilityBravo-getActions}."
      },
      "getReceipt(uint256,address)": {
        "details": "See {IGovernorCompatibilityBravo-getReceipt}."
      },
      "getVotes(address,uint256)": {
        "details": "See {IGovernor-getVotes}."
      },
      "getVotesWithParams(address,uint256,bytes)": {
        "details": "See {IGovernor-getVotesWithParams}."
      },
      "hasVoted(uint256,address)": {
        "details": "See {IGovernor-hasVoted}."
      },
      "hashProposal(address[],uint256[],bytes[],bytes32)": {
        "details": "See {IGovernor-hashProposal}. The proposal id is produced by hashing the ABI encoded `targets` array, the `values` array, the `calldatas` array and the descriptionHash (bytes32 which itself is the keccak256 hash of the description string). This proposal id can be produced from the proposal data which is part of the {ProposalCreated} event. It can even be computed in advance, before the proposal is submitted. Note that the chainId and the governor address are not part of the proposal id computation. Consequently, the same proposal (with same operation and same description) will have the same id if submitted on multiple governors across multiple networks. This also means that in order to execute the same operation twice (on the same governor) the proposer will have to change the description in order to avoid proposal id conflicts."
      },
      "name()": {
        "details": "See {IGovernor-name}."
      },
      "onERC1155BatchReceived(address,address,uint256[],uint256[],bytes)": {
        "details": "See {IERC1155Receiver-onERC1155BatchReceived}."
      },
      "onERC1155Received(address,address,uint256,uint256,bytes)": {
        "details": "See {IERC1155Receiver-onERC1155Received}."
      },
      "onERC721Received(address,address,uint256,bytes)": {
        "details": "See {IERC721Receiver-onERC721Received}."
      },
      "proposalDeadline(uint256)": {
        "details": "See {IGovernor-proposalDeadline}."
      },
      "proposalEta(uint256)": {
        "details": "Public accessor to check the eta of a queued proposal"
      },
      "proposalSnapshot(uint256)": {
        "details": "See {IGovernor-proposalSnapshot}."
      },
      "proposalThreshold()": {
        "details": "Part of the Governor Bravo's interface: _\"The number of votes required in order for a voter to become a proposer\"_."
      },
      "proposals(uint256)": {
        "details": "See {IGovernorCompatibilityBravo-proposals}."
      },
      "propose(address[],uint256[],string[],bytes[],string)": {
        "details": "See {IGovernorCompatibilityBravo-propose}."
      },
      "queue(address[],uint256[],bytes[],bytes32)": {
        "details": "Function to queue a proposal to the timelock."
      },
      "queue(uint256)": {
        "details": "See {IGovernorCompatibilityBravo-queue}."
      },
      "quorumDenominator()": {
        "details": "Returns the quorum denominator. Defaults to 100, but may be overridden."
      },
      "quorumNumerator()": {
        "details": "Returns the current quorum numerator. See {quorumDenominator}."
      },
      "quorumNumerator(uint256)": {
        "details": "Returns the quorum numerator at a specific timepoint. See {quorumDenominator}."
      },
      "quorumVotes()": {
        "details": "See {IGovernorCompatibilityBravo-quorumVotes}."
      },
      "relay(address,uint256,bytes)": {
        "details": "Relays a transaction or function call to an arbitrary target. In cases where the governance executor is some contract other than the governor itself, like when using a timelock, this function can be invoked in a governance proposal to recover tokens or Ether that was sent to the governor contract by mistake. Note that if the executor is simply the governor itself, use of `relay` is redundant."
      },
      "timelock()": {
        "details": "Public accessor to check the address of the timelock"
      },
      "updateQuorumNumerator(uint256)": {
        "details": "Changes the quorum numerator. Emits a {QuorumNumeratorUpdated} event. Requirements: - Must be called through a governance proposal. - New numerator must be smaller or equal to the denominator."
      },
      "updateTimelock(address)": {
        "details": "Public endpoint to update the underlying timelock instance. Restricted to the timelock itself, so updates must be proposed, scheduled, and executed through governance proposals. CAUTION: It is not recommended to change the timelock while there are other queued governance proposals."
      },
      "version()": {
        "details": "See {IGovernor-version}."
      },
      "votingDelay()": {
        "details": "Delay, between the proposal is created and the vote starts. The unit this duration is expressed in depends on the clock (see EIP-6372) this contract uses. This can be increased to leave time for users to buy voting power, or delegate it, before the voting of a proposal starts."
      },
      "votingPeriod()": {
        "details": "Delay, between the vote start and vote ends. The unit this duration is expressed in depends on the clock (see EIP-6372) this contract uses. NOTE: The {votingDelay} can delay the start of the vote. This must be considered when setting the voting duration compared to the voting delay."
      }
    },
    "version": 1
  },
  "userdoc": {
    "kind": "user",
    "methods": {
      "COUNTING_MODE()": {
        "notice": "module:voting"
      },
      "votingDelay()": {
        "notice": "module:user-config"
      },
      "votingPeriod()": {
        "notice": "module:user-config"
      }
    },
    "version": 1
  }
}