{
  "contractName": "SampleChild",
  "abi": [
    {
      "anonymous": false,
      "inputs": [
        {
          "indexed": false,
          "internalType": "uint8",
          "name": "version",
          "type": "uint8"
        }
      ],
      "name": "Initialized",
      "type": "event"
    },
    {
      "inputs": [],
      "name": "child",
      "outputs": [
        {
          "internalType": "uint256",
          "name": "",
          "type": "uint256"
        }
      ],
      "stateMutability": "view",
      "type": "function"
    },
    {
      "inputs": [],
      "name": "father",
      "outputs": [
        {
          "internalType": "uint256",
          "name": "",
          "type": "uint256"
        }
      ],
      "stateMutability": "view",
      "type": "function"
    },
    {
      "inputs": [],
      "name": "gramps",
      "outputs": [
        {
          "internalType": "string",
          "name": "",
          "type": "string"
        }
      ],
      "stateMutability": "view",
      "type": "function"
    },
    {
      "inputs": [],
      "name": "isHuman",
      "outputs": [
        {
          "internalType": "bool",
          "name": "",
          "type": "bool"
        }
      ],
      "stateMutability": "view",
      "type": "function"
    },
    {
      "inputs": [],
      "name": "mother",
      "outputs": [
        {
          "internalType": "uint256",
          "name": "",
          "type": "uint256"
        }
      ],
      "stateMutability": "view",
      "type": "function"
    },
    {
      "inputs": [
        {
          "internalType": "uint256",
          "name": "_mother",
          "type": "uint256"
        },
        {
          "internalType": "string",
          "name": "_gramps",
          "type": "string"
        },
        {
          "internalType": "uint256",
          "name": "_father",
          "type": "uint256"
        },
        {
          "internalType": "uint256",
          "name": "_child",
          "type": "uint256"
        }
      ],
      "name": "initialize",
      "outputs": [],
      "stateMutability": "nonpayable",
      "type": "function"
    },
    {
      "inputs": [],
      "name": "initialize",
      "outputs": [],
      "stateMutability": "nonpayable",
      "type": "function"
    },
    {
      "inputs": [
        {
          "internalType": "string",
          "name": "_gramps",
          "type": "string"
        },
        {
          "internalType": "uint256",
          "name": "_father",
          "type": "uint256"
        }
      ],
      "name": "initialize",
      "outputs": [],
      "stateMutability": "nonpayable",
      "type": "function"
    },
    {
      "inputs": [
        {
          "internalType": "string",
          "name": "value",
          "type": "string"
        }
      ],
      "name": "initialize",
      "outputs": [],
      "stateMutability": "nonpayable",
      "type": "function"
    },
    {
      "inputs": [
        {
          "internalType": "uint256",
          "name": "value",
          "type": "uint256"
        }
      ],
      "name": "initialize",
      "outputs": [],
      "stateMutability": "nonpayable",
      "type": "function"
    }
  ],
  "bytecode": "0x608060405234801561001057600080fd5b5061151e806100206000396000f3fe608060405234801561001057600080fd5b506004361061009e5760003560e01c80638beaf7d7116100665780638beaf7d714610123578063ed7dfee31461013f578063f62d18881461015d578063fa39851f14610179578063fe4b84df146101975761009e565b80631c8aca3b146100a3578063237b5e96146100c15780634a6c9db6146100df5780636f2edbd2146100fd5780638129fc1c14610119575b600080fd5b6100ab6101b3565b6040516100b89190610cb6565b60405180910390f35b6100c96101b9565b6040516100d69190610cb6565b60405180910390f35b6100e76101bf565b6040516100f49190610cec565b60405180910390f35b61011760048036038101906101129190610e8d565b6101d2565b005b610121610318565b005b61013d60048036038101906101389190610f10565b610456565b005b610147610598565b6040516101549190610cb6565b60405180910390f35b61017760048036038101906101729190610f6c565b61059e565b005b6101816106de565b60405161018e9190611034565b60405180910390f35b6101b160048036038101906101ac9190611056565b61076c565b005b60035481565b60045481565b600060029054906101000a900460ff1681565b60008060019054906101000a900460ff161590508080156102035750600160008054906101000a900460ff1660ff16105b806102305750610212306108ac565b15801561022f5750600160008054906101000a900460ff1660ff16145b5b61026f576040517f08c379a0000000000000000000000000000000000000000000000000000000008152600401610266906110f5565b60405180910390fd5b60016000806101000a81548160ff021916908360ff16021790555080156102ac576001600060016101000a81548160ff0219169083151502179055505b6102b8858585856108cf565b80156103115760008060016101000a81548160ff0219169083151502179055507f7f26b83ff96e1f2b6a682f133852f6798a09c465da95921460cefb384740249860016040516103089190611167565b60405180910390a15b5050505050565b60008060019054906101000a900460ff161590508080156103495750600160008054906101000a900460ff1660ff16105b806103765750610358306108ac565b1580156103755750600160008054906101000a900460ff1660ff16145b5b6103b5576040517f08c379a00000000000000000000000000000000000000000000000000000000081526004016103ac906110f5565b60405180910390fd5b60016000806101000a81548160ff021916908360ff16021790555080156103f2576001600060016101000a81548160ff0219169083151502179055505b6103fa610940565b80156104535760008060016101000a81548160ff0219169083151502179055507f7f26b83ff96e1f2b6a682f133852f6798a09c465da95921460cefb3847402498600160405161044a9190611167565b60405180910390a15b50565b60008060019054906101000a900460ff161590508080156104875750600160008054906101000a900460ff1660ff16105b806104b45750610496306108ac565b1580156104b35750600160008054906101000a900460ff1660ff16145b5b6104f3576040517f08c379a00000000000000000000000000000000000000000000000000000000081526004016104ea906110f5565b60405180910390fd5b60016000806101000a81548160ff021916908360ff1602179055508015610530576001600060016101000a81548160ff0219169083151502179055505b61053a8383610999565b80156105935760008060016101000a81548160ff0219169083151502179055507f7f26b83ff96e1f2b6a682f133852f6798a09c465da95921460cefb3847402498600160405161058a9190611167565b60405180910390a15b505050565b60015481565b60008060019054906101000a900460ff161590508080156105cf5750600160008054906101000a900460ff1660ff16105b806105fc57506105de306108ac565b1580156105fb5750600160008054906101000a900460ff1660ff16145b5b61063b576040517f08c379a0000000000000000000000000000000000000000000000000000000008152600401610632906110f5565b60405180910390fd5b60016000806101000a81548160ff021916908360ff1602179055508015610678576001600060016101000a81548160ff0219169083151502179055505b610681826109fe565b80156106da5760008060016101000a81548160ff0219169083151502179055507f7f26b83ff96e1f2b6a682f133852f6798a09c465da95921460cefb384740249860016040516106d19190611167565b60405180910390a15b5050565b600280546106eb906111b1565b80601f0160208091040260200160405190810160405280929190818152602001828054610717906111b1565b80156107645780601f1061073957610100808354040283529160200191610764565b820191906000526020600020905b81548152906001019060200180831161074757829003601f168201915b505050505081565b60008060019054906101000a900460ff1615905080801561079d5750600160008054906101000a900460ff1660ff16105b806107ca57506107ac306108ac565b1580156107c95750600160008054906101000a900460ff1660ff16145b5b610809576040517f08c379a0000000000000000000000000000000000000000000000000000000008152600401610800906110f5565b60405180910390fd5b60016000806101000a81548160ff021916908360ff1602179055508015610846576001600060016101000a81548160ff0219169083151502179055505b61084f82610a61565b80156108a85760008060016101000a81548160ff0219169083151502179055507f7f26b83ff96e1f2b6a682f133852f6798a09c465da95921460cefb3847402498600160405161089f9190611167565b60405180910390a15b5050565b6000808273ffffffffffffffffffffffffffffffffffffffff163b119050919050565b600060019054906101000a900460ff1661091e576040517f08c379a000000000000000000000000000000000000000000000000000000000815260040161091590611254565b60405180910390fd5b61092784610a61565b6109318383610999565b61093a81610ac4565b50505050565b600060019054906101000a900460ff1661098f576040517f08c379a000000000000000000000000000000000000000000000000000000000815260040161098690611254565b60405180910390fd5b610997610b1d565b565b600060019054906101000a900460ff166109e8576040517f08c379a00000000000000000000000000000000000000000000000000000000081526004016109df90611254565b60405180910390fd5b6109f1826109fe565b6109fa81610b89565b5050565b600060019054906101000a900460ff16610a4d576040517f08c379a0000000000000000000000000000000000000000000000000000000008152600401610a4490611254565b60405180910390fd5b610a55610940565b610a5e81610be2565b50565b600060019054906101000a900460ff16610ab0576040517f08c379a0000000000000000000000000000000000000000000000000000000008152600401610aa790611254565b60405180910390fd5b610ab8610940565b610ac181610c44565b50565b600060019054906101000a900460ff16610b13576040517f08c379a0000000000000000000000000000000000000000000000000000000008152600401610b0a90611254565b60405180910390fd5b8060048190555050565b600060019054906101000a900460ff16610b6c576040517f08c379a0000000000000000000000000000000000000000000000000000000008152600401610b6390611254565b60405180910390fd5b6001600060026101000a81548160ff021916908315150217905550565b600060019054906101000a900460ff16610bd8576040517f08c379a0000000000000000000000000000000000000000000000000000000008152600401610bcf90611254565b60405180910390fd5b8060038190555050565b600060019054906101000a900460ff16610c31576040517f08c379a0000000000000000000000000000000000000000000000000000000008152600401610c2890611254565b60405180910390fd5b8060029081610c409190611416565b5050565b600060019054906101000a900460ff16610c93576040517f08c379a0000000000000000000000000000000000000000000000000000000008152600401610c8a90611254565b60405180910390fd5b8060018190555050565b6000819050919050565b610cb081610c9d565b82525050565b6000602082019050610ccb6000830184610ca7565b92915050565b60008115159050919050565b610ce681610cd1565b82525050565b6000602082019050610d016000830184610cdd565b92915050565b6000604051905090565b600080fd5b600080fd5b610d2481610c9d565b8114610d2f57600080fd5b50565b600081359050610d4181610d1b565b92915050565b600080fd5b600080fd5b6000601f19601f8301169050919050565b7f4e487b7100000000000000000000000000000000000000000000000000000000600052604160045260246000fd5b610d9a82610d51565b810181811067ffffffffffffffff82111715610db957610db8610d62565b5b80604052505050565b6000610dcc610d07565b9050610dd88282610d91565b919050565b600067ffffffffffffffff821115610df857610df7610d62565b5b610e0182610d51565b9050602081019050919050565b82818337600083830152505050565b6000610e30610e2b84610ddd565b610dc2565b905082815260208101848484011115610e4c57610e4b610d4c565b5b610e57848285610e0e565b509392505050565b600082601f830112610e7457610e73610d47565b5b8135610e84848260208601610e1d565b91505092915050565b60008060008060808587031215610ea757610ea6610d11565b5b6000610eb587828801610d32565b945050602085013567ffffffffffffffff811115610ed657610ed5610d16565b5b610ee287828801610e5f565b9350506040610ef387828801610d32565b9250506060610f0487828801610d32565b91505092959194509250565b60008060408385031215610f2757610f26610d11565b5b600083013567ffffffffffffffff811115610f4557610f44610d16565b5b610f5185828601610e5f565b9250506020610f6285828601610d32565b9150509250929050565b600060208284031215610f8257610f81610d11565b5b600082013567ffffffffffffffff811115610fa057610f9f610d16565b5b610fac84828501610e5f565b91505092915050565b600081519050919050565b600082825260208201905092915050565b60005b83811015610fef578082015181840152602081019050610fd4565b60008484015250505050565b600061100682610fb5565b6110108185610fc0565b9350611020818560208601610fd1565b61102981610d51565b840191505092915050565b6000602082019050818103600083015261104e8184610ffb565b905092915050565b60006020828403121561106c5761106b610d11565b5b600061107a84828501610d32565b91505092915050565b7f496e697469616c697a61626c653a20636f6e747261637420697320616c72656160008201527f647920696e697469616c697a6564000000000000000000000000000000000000602082015250565b60006110df602e83610fc0565b91506110ea82611083565b604082019050919050565b6000602082019050818103600083015261110e816110d2565b9050919050565b6000819050919050565b600060ff82169050919050565b6000819050919050565b600061115161114c61114784611115565b61112c565b61111f565b9050919050565b61116181611136565b82525050565b600060208201905061117c6000830184611158565b92915050565b7f4e487b7100000000000000000000000000000000000000000000000000000000600052602260045260246000fd5b600060028204905060018216806111c957607f821691505b6020821081036111dc576111db611182565b5b50919050565b7f496e697469616c697a61626c653a20636f6e7472616374206973206e6f74206960008201527f6e697469616c697a696e67000000000000000000000000000000000000000000602082015250565b600061123e602b83610fc0565b9150611249826111e2565b604082019050919050565b6000602082019050818103600083015261126d81611231565b9050919050565b60008190508160005260206000209050919050565b60006020601f8301049050919050565b600082821b905092915050565b6000600883026112d67fffffffffffffffffffffffffffffffffffffffffffffffffffffffffffffffff82611299565b6112e08683611299565b95508019841693508086168417925050509392505050565b600061131361130e61130984610c9d565b61112c565b610c9d565b9050919050565b6000819050919050565b61132d836112f8565b6113416113398261131a565b8484546112a6565b825550505050565b600090565b611356611349565b611361818484611324565b505050565b5b818110156113855761137a60008261134e565b600181019050611367565b5050565b601f8211156113ca5761139b81611274565b6113a484611289565b810160208510156113b3578190505b6113c76113bf85611289565b830182611366565b50505b505050565b600082821c905092915050565b60006113ed600019846008026113cf565b1980831691505092915050565b600061140683836113dc565b9150826002028217905092915050565b61141f82610fb5565b67ffffffffffffffff81111561143857611437610d62565b5b61144282546111b1565b61144d828285611389565b600060209050601f831160018114611480576000841561146e578287015190505b61147885826113fa565b8655506114e0565b601f19841661148e86611274565b60005b828110156114b657848901518255600182019150602085019450602081019050611491565b868310156114d357848901516114cf601f8916826113dc565b8355505b6001600288020188555050505b50505050505056fea26469706673582212203fef733bfbb71a75ff9d101a9d9d9d843e312d70b3d12fbb57e98ea841fb3b3c64736f6c63430008130033",
  "immutableReferences": {},
  "source": "// SPDX-License-Identifier: MIT\r\n\r\npragma solidity ^0.8.0;\r\n\r\nimport \"../proxy/utils/Initializable.sol\";\r\n\r\n// Sample contracts showing upgradeability with multiple inheritance.\r\n// Child contract inherits from Father and Mother contracts, and Father extends from Gramps.\r\n//\r\n//         Human\r\n//       /       \\\r\n//      |       Gramps\r\n//      |         |\r\n//    Mother    Father\r\n//      |         |\r\n//      -- Child --\r\n\r\n/**\r\n * Sample base initializable contract that is a human\r\n */\r\ncontract SampleHuman is Initializable {\r\n    bool public isHuman;\r\n\r\n    function initialize() public initializer {\r\n        __SampleHuman_init();\r\n    }\r\n\r\n    // solhint-disable-next-line func-name-mixedcase\r\n    function __SampleHuman_init() internal onlyInitializing {\r\n        __SampleHuman_init_unchained();\r\n    }\r\n\r\n    // solhint-disable-next-line func-name-mixedcase\r\n    function __SampleHuman_init_unchained() internal onlyInitializing {\r\n        isHuman = true;\r\n    }\r\n}\r\n\r\n/**\r\n * Sample base initializable contract that defines a field mother\r\n */\r\ncontract SampleMother is Initializable, SampleHuman {\r\n    uint256 public mother;\r\n\r\n    function initialize(uint256 value) public initializer {\r\n        __SampleMother_init(value);\r\n    }\r\n\r\n    // solhint-disable-next-line func-name-mixedcase\r\n    function __SampleMother_init(uint256 value) internal onlyInitializing {\r\n        __SampleHuman_init();\r\n        __SampleMother_init_unchained(value);\r\n    }\r\n\r\n    // solhint-disable-next-line func-name-mixedcase\r\n    function __SampleMother_init_unchained(uint256 value) internal onlyInitializing {\r\n        mother = value;\r\n    }\r\n}\r\n\r\n/**\r\n * Sample base initializable contract that defines a field gramps\r\n */\r\ncontract SampleGramps is Initializable, SampleHuman {\r\n    string public gramps;\r\n\r\n    function initialize(string memory value) public initializer {\r\n        __SampleGramps_init(value);\r\n    }\r\n\r\n    // solhint-disable-next-line func-name-mixedcase\r\n    function __SampleGramps_init(string memory value) internal onlyInitializing {\r\n        __SampleHuman_init();\r\n        __SampleGramps_init_unchained(value);\r\n    }\r\n\r\n    // solhint-disable-next-line func-name-mixedcase\r\n    function __SampleGramps_init_unchained(string memory value) internal onlyInitializing {\r\n        gramps = value;\r\n    }\r\n}\r\n\r\n/**\r\n * Sample base initializable contract that defines a field father and extends from gramps\r\n */\r\ncontract SampleFather is Initializable, SampleGramps {\r\n    uint256 public father;\r\n\r\n    function initialize(string memory _gramps, uint256 _father) public initializer {\r\n        __SampleFather_init(_gramps, _father);\r\n    }\r\n\r\n    // solhint-disable-next-line func-name-mixedcase\r\n    function __SampleFather_init(string memory _gramps, uint256 _father) internal onlyInitializing {\r\n        __SampleGramps_init(_gramps);\r\n        __SampleFather_init_unchained(_father);\r\n    }\r\n\r\n    // solhint-disable-next-line func-name-mixedcase\r\n    function __SampleFather_init_unchained(uint256 _father) internal onlyInitializing {\r\n        father = _father;\r\n    }\r\n}\r\n\r\n/**\r\n * Child extends from mother, father (gramps)\r\n */\r\ncontract SampleChild is Initializable, SampleMother, SampleFather {\r\n    uint256 public child;\r\n\r\n    function initialize(uint256 _mother, string memory _gramps, uint256 _father, uint256 _child) public initializer {\r\n        __SampleChild_init(_mother, _gramps, _father, _child);\r\n    }\r\n\r\n    // solhint-disable-next-line func-name-mixedcase\r\n    function __SampleChild_init(\r\n        uint256 _mother,\r\n        string memory _gramps,\r\n        uint256 _father,\r\n        uint256 _child\r\n    ) internal onlyInitializing {\r\n        __SampleMother_init(_mother);\r\n        __SampleFather_init(_gramps, _father);\r\n        __SampleChild_init_unchained(_child);\r\n    }\r\n\r\n    // solhint-disable-next-line func-name-mixedcase\r\n    function __SampleChild_init_unchained(uint256 _child) internal onlyInitializing {\r\n        child = _child;\r\n    }\r\n}\r\n",
  "sourcePath": "C:\\Users\\SSAFY\\Desktop\\S08P22A308\\smart-contracts\\contracts\\mocks\\MultipleInheritanceInitializableMocks.sol",
  "compiler": {
    "name": "solc",
    "version": "0.8.19+commit.7dd6d404.Emscripten.clang"
  },
  "schemaVersion": "3.4.13",
  "updatedAt": "2023-03-23T05:45:08.268Z",
  "devdoc": {
    "events": {
      "Initialized(uint8)": {
        "details": "Triggered when the contract has been initialized or reinitialized."
      }
    },
    "kind": "dev",
    "methods": {},
    "version": 1
  },
  "userdoc": {
    "kind": "user",
    "methods": {},
    "notice": "Child extends from mother, father (gramps)",
    "version": 1
  }
}