{
  "contractName": "SampleMother",
  "abi": [
    {
      "anonymous": false,
      "inputs": [
        {
          "indexed": false,
          "internalType": "uint8",
          "name": "version",
          "type": "uint8"
        }
      ],
      "name": "Initialized",
      "type": "event"
    },
    {
      "inputs": [],
      "name": "isHuman",
      "outputs": [
        {
          "internalType": "bool",
          "name": "",
          "type": "bool"
        }
      ],
      "stateMutability": "view",
      "type": "function"
    },
    {
      "inputs": [],
      "name": "mother",
      "outputs": [
        {
          "internalType": "uint256",
          "name": "",
          "type": "uint256"
        }
      ],
      "stateMutability": "view",
      "type": "function"
    },
    {
      "inputs": [],
      "name": "initialize",
      "outputs": [],
      "stateMutability": "nonpayable",
      "type": "function"
    },
    {
      "inputs": [
        {
          "internalType": "uint256",
          "name": "value",
          "type": "uint256"
        }
      ],
      "name": "initialize",
      "outputs": [],
      "stateMutability": "nonpayable",
      "type": "function"
    }
  ],
  "bytecode": "0x608060405234801561001057600080fd5b5061078e806100206000396000f3fe608060405234801561001057600080fd5b506004361061004c5760003560e01c80634a6c9db6146100515780638129fc1c1461006f578063ed7dfee314610079578063fe4b84df14610097575b600080fd5b6100596100b3565b6040516100669190610509565b60405180910390f35b6100776100c6565b005b610081610204565b60405161008e919061053d565b60405180910390f35b6100b160048036038101906100ac9190610589565b61020a565b005b600060029054906101000a900460ff1681565b60008060019054906101000a900460ff161590508080156100f75750600160008054906101000a900460ff1660ff16105b8061012457506101063061034a565b1580156101235750600160008054906101000a900460ff1660ff16145b5b610163576040517f08c379a000000000000000000000000000000000000000000000000000000000815260040161015a90610639565b60405180910390fd5b60016000806101000a81548160ff021916908360ff16021790555080156101a0576001600060016101000a81548160ff0219169083151502179055505b6101a861036d565b80156102015760008060016101000a81548160ff0219169083151502179055507f7f26b83ff96e1f2b6a682f133852f6798a09c465da95921460cefb384740249860016040516101f891906106ab565b60405180910390a15b50565b60015481565b60008060019054906101000a900460ff1615905080801561023b5750600160008054906101000a900460ff1660ff16105b80610268575061024a3061034a565b1580156102675750600160008054906101000a900460ff1660ff16145b5b6102a7576040517f08c379a000000000000000000000000000000000000000000000000000000000815260040161029e90610639565b60405180910390fd5b60016000806101000a81548160ff021916908360ff16021790555080156102e4576001600060016101000a81548160ff0219169083151502179055505b6102ed826103c6565b80156103465760008060016101000a81548160ff0219169083151502179055507f7f26b83ff96e1f2b6a682f133852f6798a09c465da95921460cefb3847402498600160405161033d91906106ab565b60405180910390a15b5050565b6000808273ffffffffffffffffffffffffffffffffffffffff163b119050919050565b600060019054906101000a900460ff166103bc576040517f08c379a00000000000000000000000000000000000000000000000000000000081526004016103b390610738565b60405180910390fd5b6103c4610429565b565b600060019054906101000a900460ff16610415576040517f08c379a000000000000000000000000000000000000000000000000000000000815260040161040c90610738565b60405180910390fd5b61041d61036d565b61042681610495565b50565b600060019054906101000a900460ff16610478576040517f08c379a000000000000000000000000000000000000000000000000000000000815260040161046f90610738565b60405180910390fd5b6001600060026101000a81548160ff021916908315150217905550565b600060019054906101000a900460ff166104e4576040517f08c379a00000000000000000000000000000000000000000000000000000000081526004016104db90610738565b60405180910390fd5b8060018190555050565b60008115159050919050565b610503816104ee565b82525050565b600060208201905061051e60008301846104fa565b92915050565b6000819050919050565b61053781610524565b82525050565b6000602082019050610552600083018461052e565b92915050565b600080fd5b61056681610524565b811461057157600080fd5b50565b6000813590506105838161055d565b92915050565b60006020828403121561059f5761059e610558565b5b60006105ad84828501610574565b91505092915050565b600082825260208201905092915050565b7f496e697469616c697a61626c653a20636f6e747261637420697320616c72656160008201527f647920696e697469616c697a6564000000000000000000000000000000000000602082015250565b6000610623602e836105b6565b915061062e826105c7565b604082019050919050565b6000602082019050818103600083015261065281610616565b9050919050565b6000819050919050565b600060ff82169050919050565b6000819050919050565b600061069561069061068b84610659565b610670565b610663565b9050919050565b6106a58161067a565b82525050565b60006020820190506106c0600083018461069c565b92915050565b7f496e697469616c697a61626c653a20636f6e7472616374206973206e6f74206960008201527f6e697469616c697a696e67000000000000000000000000000000000000000000602082015250565b6000610722602b836105b6565b915061072d826106c6565b604082019050919050565b6000602082019050818103600083015261075181610715565b905091905056fea2646970667358221220593b1c1390fd4cc0a73dbebddf466255e2a68dc1806a68225109e67ab9ecb9f464736f6c63430008130033",
  "immutableReferences": {},
  "source": "// SPDX-License-Identifier: MIT\r\n\r\npragma solidity ^0.8.0;\r\n\r\nimport \"../proxy/utils/Initializable.sol\";\r\n\r\n// Sample contracts showing upgradeability with multiple inheritance.\r\n// Child contract inherits from Father and Mother contracts, and Father extends from Gramps.\r\n//\r\n//         Human\r\n//       /       \\\r\n//      |       Gramps\r\n//      |         |\r\n//    Mother    Father\r\n//      |         |\r\n//      -- Child --\r\n\r\n/**\r\n * Sample base initializable contract that is a human\r\n */\r\ncontract SampleHuman is Initializable {\r\n    bool public isHuman;\r\n\r\n    function initialize() public initializer {\r\n        __SampleHuman_init();\r\n    }\r\n\r\n    // solhint-disable-next-line func-name-mixedcase\r\n    function __SampleHuman_init() internal onlyInitializing {\r\n        __SampleHuman_init_unchained();\r\n    }\r\n\r\n    // solhint-disable-next-line func-name-mixedcase\r\n    function __SampleHuman_init_unchained() internal onlyInitializing {\r\n        isHuman = true;\r\n    }\r\n}\r\n\r\n/**\r\n * Sample base initializable contract that defines a field mother\r\n */\r\ncontract SampleMother is Initializable, SampleHuman {\r\n    uint256 public mother;\r\n\r\n    function initialize(uint256 value) public initializer {\r\n        __SampleMother_init(value);\r\n    }\r\n\r\n    // solhint-disable-next-line func-name-mixedcase\r\n    function __SampleMother_init(uint256 value) internal onlyInitializing {\r\n        __SampleHuman_init();\r\n        __SampleMother_init_unchained(value);\r\n    }\r\n\r\n    // solhint-disable-next-line func-name-mixedcase\r\n    function __SampleMother_init_unchained(uint256 value) internal onlyInitializing {\r\n        mother = value;\r\n    }\r\n}\r\n\r\n/**\r\n * Sample base initializable contract that defines a field gramps\r\n */\r\ncontract SampleGramps is Initializable, SampleHuman {\r\n    string public gramps;\r\n\r\n    function initialize(string memory value) public initializer {\r\n        __SampleGramps_init(value);\r\n    }\r\n\r\n    // solhint-disable-next-line func-name-mixedcase\r\n    function __SampleGramps_init(string memory value) internal onlyInitializing {\r\n        __SampleHuman_init();\r\n        __SampleGramps_init_unchained(value);\r\n    }\r\n\r\n    // solhint-disable-next-line func-name-mixedcase\r\n    function __SampleGramps_init_unchained(string memory value) internal onlyInitializing {\r\n        gramps = value;\r\n    }\r\n}\r\n\r\n/**\r\n * Sample base initializable contract that defines a field father and extends from gramps\r\n */\r\ncontract SampleFather is Initializable, SampleGramps {\r\n    uint256 public father;\r\n\r\n    function initialize(string memory _gramps, uint256 _father) public initializer {\r\n        __SampleFather_init(_gramps, _father);\r\n    }\r\n\r\n    // solhint-disable-next-line func-name-mixedcase\r\n    function __SampleFather_init(string memory _gramps, uint256 _father) internal onlyInitializing {\r\n        __SampleGramps_init(_gramps);\r\n        __SampleFather_init_unchained(_father);\r\n    }\r\n\r\n    // solhint-disable-next-line func-name-mixedcase\r\n    function __SampleFather_init_unchained(uint256 _father) internal onlyInitializing {\r\n        father = _father;\r\n    }\r\n}\r\n\r\n/**\r\n * Child extends from mother, father (gramps)\r\n */\r\ncontract SampleChild is Initializable, SampleMother, SampleFather {\r\n    uint256 public child;\r\n\r\n    function initialize(uint256 _mother, string memory _gramps, uint256 _father, uint256 _child) public initializer {\r\n        __SampleChild_init(_mother, _gramps, _father, _child);\r\n    }\r\n\r\n    // solhint-disable-next-line func-name-mixedcase\r\n    function __SampleChild_init(\r\n        uint256 _mother,\r\n        string memory _gramps,\r\n        uint256 _father,\r\n        uint256 _child\r\n    ) internal onlyInitializing {\r\n        __SampleMother_init(_mother);\r\n        __SampleFather_init(_gramps, _father);\r\n        __SampleChild_init_unchained(_child);\r\n    }\r\n\r\n    // solhint-disable-next-line func-name-mixedcase\r\n    function __SampleChild_init_unchained(uint256 _child) internal onlyInitializing {\r\n        child = _child;\r\n    }\r\n}\r\n",
  "sourcePath": "C:\\Users\\akqjq\\Desktop\\S08P22A308\\smart-contracts\\contracts\\mocks\\MultipleInheritanceInitializableMocks.sol",
  "compiler": {
    "name": "solc",
    "version": "0.8.19+commit.7dd6d404.Emscripten.clang"
  },
  "schemaVersion": "3.4.13",
  "updatedAt": "2023-03-22T16:34:02.758Z",
  "devdoc": {
    "events": {
      "Initialized(uint8)": {
        "details": "Triggered when the contract has been initialized or reinitialized."
      }
    },
    "kind": "dev",
    "methods": {},
    "version": 1
  },
  "userdoc": {
    "kind": "user",
    "methods": {},
    "notice": "Sample base initializable contract that defines a field mother",
    "version": 1
  }
}