{
  "contractName": "StorageSlotMock",
  "abi": [
    {
      "inputs": [
        {
          "internalType": "uint256",
          "name": "",
          "type": "uint256"
        }
      ],
      "name": "bytesMap",
      "outputs": [
        {
          "internalType": "bytes",
          "name": "",
          "type": "bytes"
        }
      ],
      "stateMutability": "view",
      "type": "function"
    },
    {
      "inputs": [
        {
          "internalType": "uint256",
          "name": "",
          "type": "uint256"
        }
      ],
      "name": "stringMap",
      "outputs": [
        {
          "internalType": "string",
          "name": "",
          "type": "string"
        }
      ],
      "stateMutability": "view",
      "type": "function"
    },
    {
      "inputs": [
        {
          "internalType": "bytes32",
          "name": "slot",
          "type": "bytes32"
        },
        {
          "internalType": "bool",
          "name": "value",
          "type": "bool"
        }
      ],
      "name": "setBoolean",
      "outputs": [],
      "stateMutability": "nonpayable",
      "type": "function"
    },
    {
      "inputs": [
        {
          "internalType": "bytes32",
          "name": "slot",
          "type": "bytes32"
        },
        {
          "internalType": "address",
          "name": "value",
          "type": "address"
        }
      ],
      "name": "setAddress",
      "outputs": [],
      "stateMutability": "nonpayable",
      "type": "function"
    },
    {
      "inputs": [
        {
          "internalType": "bytes32",
          "name": "slot",
          "type": "bytes32"
        },
        {
          "internalType": "bytes32",
          "name": "value",
          "type": "bytes32"
        }
      ],
      "name": "setBytes32",
      "outputs": [],
      "stateMutability": "nonpayable",
      "type": "function"
    },
    {
      "inputs": [
        {
          "internalType": "bytes32",
          "name": "slot",
          "type": "bytes32"
        },
        {
          "internalType": "uint256",
          "name": "value",
          "type": "uint256"
        }
      ],
      "name": "setUint256",
      "outputs": [],
      "stateMutability": "nonpayable",
      "type": "function"
    },
    {
      "inputs": [
        {
          "internalType": "bytes32",
          "name": "slot",
          "type": "bytes32"
        }
      ],
      "name": "getBoolean",
      "outputs": [
        {
          "internalType": "bool",
          "name": "",
          "type": "bool"
        }
      ],
      "stateMutability": "view",
      "type": "function"
    },
    {
      "inputs": [
        {
          "internalType": "bytes32",
          "name": "slot",
          "type": "bytes32"
        }
      ],
      "name": "getAddress",
      "outputs": [
        {
          "internalType": "address",
          "name": "",
          "type": "address"
        }
      ],
      "stateMutability": "view",
      "type": "function"
    },
    {
      "inputs": [
        {
          "internalType": "bytes32",
          "name": "slot",
          "type": "bytes32"
        }
      ],
      "name": "getBytes32",
      "outputs": [
        {
          "internalType": "bytes32",
          "name": "",
          "type": "bytes32"
        }
      ],
      "stateMutability": "view",
      "type": "function"
    },
    {
      "inputs": [
        {
          "internalType": "bytes32",
          "name": "slot",
          "type": "bytes32"
        }
      ],
      "name": "getUint256",
      "outputs": [
        {
          "internalType": "uint256",
          "name": "",
          "type": "uint256"
        }
      ],
      "stateMutability": "view",
      "type": "function"
    },
    {
      "inputs": [
        {
          "internalType": "bytes32",
          "name": "slot",
          "type": "bytes32"
        },
        {
          "internalType": "string",
          "name": "value",
          "type": "string"
        }
      ],
      "name": "setString",
      "outputs": [],
      "stateMutability": "nonpayable",
      "type": "function"
    },
    {
      "inputs": [
        {
          "internalType": "uint256",
          "name": "key",
          "type": "uint256"
        },
        {
          "internalType": "string",
          "name": "value",
          "type": "string"
        }
      ],
      "name": "setStringStorage",
      "outputs": [],
      "stateMutability": "nonpayable",
      "type": "function"
    },
    {
      "inputs": [
        {
          "internalType": "bytes32",
          "name": "slot",
          "type": "bytes32"
        }
      ],
      "name": "getString",
      "outputs": [
        {
          "internalType": "string",
          "name": "",
          "type": "string"
        }
      ],
      "stateMutability": "view",
      "type": "function"
    },
    {
      "inputs": [
        {
          "internalType": "uint256",
          "name": "key",
          "type": "uint256"
        }
      ],
      "name": "getStringStorage",
      "outputs": [
        {
          "internalType": "string",
          "name": "",
          "type": "string"
        }
      ],
      "stateMutability": "view",
      "type": "function"
    },
    {
      "inputs": [
        {
          "internalType": "bytes32",
          "name": "slot",
          "type": "bytes32"
        },
        {
          "internalType": "bytes",
          "name": "value",
          "type": "bytes"
        }
      ],
      "name": "setBytes",
      "outputs": [],
      "stateMutability": "nonpayable",
      "type": "function"
    },
    {
      "inputs": [
        {
          "internalType": "uint256",
          "name": "key",
          "type": "uint256"
        },
        {
          "internalType": "bytes",
          "name": "value",
          "type": "bytes"
        }
      ],
      "name": "setBytesStorage",
      "outputs": [],
      "stateMutability": "nonpayable",
      "type": "function"
    },
    {
      "inputs": [
        {
          "internalType": "bytes32",
          "name": "slot",
          "type": "bytes32"
        }
      ],
      "name": "getBytes",
      "outputs": [
        {
          "internalType": "bytes",
          "name": "",
          "type": "bytes"
        }
      ],
      "stateMutability": "view",
      "type": "function"
    },
    {
      "inputs": [
        {
          "internalType": "uint256",
          "name": "key",
          "type": "uint256"
        }
      ],
      "name": "getBytesStorage",
      "outputs": [
        {
          "internalType": "bytes",
          "name": "",
          "type": "bytes"
        }
      ],
      "stateMutability": "view",
      "type": "function"
    }
  ],
  "bytecode": "0x608060405234801561001057600080fd5b506114c7806100206000396000f3fe608060405234801561001057600080fd5b50600436106101165760003560e01c80635a46e25d116100a2578063a6ed563e11610071578063a6ed563e14610313578063c031a18014610343578063ca446dd914610373578063df6e58d61461038f578063f8715b3e146103bf57610116565b80635a46e25d146102675780636e89955014610297578063986e791a146102b35780639b22f343146102e357610116565b806333598b00116100e957806333598b00146101b35780633848207a146101e35780633e60bd78146102135780634e91db081461022f5780634f3029c21461024b57610116565b80630afb30ba1461011b5780631e133d0f1461013757806321f8a721146101675780632e28d08414610197575b600080fd5b61013560048036038101906101309190610a78565b6103db565b005b610151600480360381019061014c9190610ad8565b61040e565b60405161015e9190610b95565b60405180910390f35b610181600480360381019061017c9190610bed565b6104ae565b60405161018e9190610c5b565b60405180910390f35b6101b160048036038101906101ac9190610c76565b6104e4565b005b6101cd60048036038101906101c89190610bed565b610505565b6040516101da9190610ce5565b60405180910390f35b6101fd60048036038101906101f89190610bed565b61051b565b60405161020a9190610d1b565b60405180910390f35b61022d60048036038101906102289190610d8c565b61053e565b005b61024960048036038101906102449190610dec565b610570565b005b61026560048036038101906102609190610e2c565b610585565b005b610281600480360381019061027c9190610ad8565b61059a565b60405161028e9190610ec1565b60405180910390f35b6102b160048036038101906102ac9190610ee3565b61063a565b005b6102cd60048036038101906102c89190610bed565b61065b565b6040516102da9190610b95565b60405180910390f35b6102fd60048036038101906102f89190610ad8565b6106f9565b60405161030a9190610ec1565b60405180910390f35b61032d60048036038101906103289190610bed565b6107a9565b60405161033a9190610f52565b60405180910390f35b61035d60048036038101906103589190610bed565b6107bf565b60405161036a9190610ec1565b60405180910390f35b61038d60048036038101906103889190610f99565b61085d565b005b6103a960048036038101906103a49190610ad8565b6108ac565b6040516103b69190610b95565b60405180910390f35b6103d960048036038101906103d49190611005565b61095b565b005b81816103f860016000878152602001908152602001600020610983565b600001918261040892919061128b565b50505050565b6000602052806000526040600020600091509050805461042d906110ae565b80601f0160208091040260200160405190810160405280929190818152602001828054610459906110ae565b80156104a65780601f1061047b576101008083540402835291602001916104a6565b820191906000526020600020905b81548152906001019060200180831161048957829003601f168201915b505050505081565b60006104b98261098d565b60000160009054906101000a900473ffffffffffffffffffffffffffffffffffffffff169050919050565b81816104ef85610997565b60000191826104ff92919061128b565b50505050565b6000610510826109a1565b600001549050919050565b6000610526826109ab565b60000160009054906101000a900460ff169050919050565b818161055a6000808781526020019081526020016000206109b5565b600001918261056a9291906113c1565b50505050565b8061057a836109bf565b600001819055505050565b8061058f836109a1565b600001819055505050565b600160205280600052604060002060009150905080546105b9906110ae565b80601f01602080910402602001604051908101604052809291908181526020018280546105e5906110ae565b80156106325780601f1061060757610100808354040283529160200191610632565b820191906000526020600020905b81548152906001019060200180831161061557829003601f168201915b505050505081565b8181610645856109c9565b60000191826106559291906113c1565b50505050565b6060610666826109c9565b6000018054610674906110ae565b80601f01602080910402602001604051908101604052809291908181526020018280546106a0906110ae565b80156106ed5780601f106106c2576101008083540402835291602001916106ed565b820191906000526020600020905b8154815290600101906020018083116106d057829003601f168201915b50505050509050919050565b606061071660016000848152602001908152602001600020610983565b6000018054610724906110ae565b80601f0160208091040260200160405190810160405280929190818152602001828054610750906110ae565b801561079d5780601f106107725761010080835404028352916020019161079d565b820191906000526020600020905b81548152906001019060200180831161078057829003601f168201915b50505050509050919050565b60006107b4826109bf565b600001549050919050565b60606107ca82610997565b60000180546107d8906110ae565b80601f0160208091040260200160405190810160405280929190818152602001828054610804906110ae565b80156108515780601f1061082657610100808354040283529160200191610851565b820191906000526020600020905b81548152906001019060200180831161083457829003601f168201915b50505050509050919050565b806108678361098d565b60000160006101000a81548173ffffffffffffffffffffffffffffffffffffffff021916908373ffffffffffffffffffffffffffffffffffffffff1602179055505050565b60606108c86000808481526020019081526020016000206109b5565b60000180546108d6906110ae565b80601f0160208091040260200160405190810160405280929190818152602001828054610902906110ae565b801561094f5780601f106109245761010080835404028352916020019161094f565b820191906000526020600020905b81548152906001019060200180831161093257829003601f168201915b50505050509050919050565b80610965836109ab565b60000160006101000a81548160ff0219169083151502179055505050565b6000819050919050565b6000819050919050565b6000819050919050565b6000819050919050565b6000819050919050565b6000819050919050565b6000819050919050565b6000819050919050565b600080fd5b600080fd5b6000819050919050565b6109f0816109dd565b81146109fb57600080fd5b50565b600081359050610a0d816109e7565b92915050565b600080fd5b600080fd5b600080fd5b60008083601f840112610a3857610a37610a13565b5b8235905067ffffffffffffffff811115610a5557610a54610a18565b5b602083019150836001820283011115610a7157610a70610a1d565b5b9250929050565b600080600060408486031215610a9157610a906109d3565b5b6000610a9f868287016109fe565b935050602084013567ffffffffffffffff811115610ac057610abf6109d8565b5b610acc86828701610a22565b92509250509250925092565b600060208284031215610aee57610aed6109d3565b5b6000610afc848285016109fe565b91505092915050565b600081519050919050565b600082825260208201905092915050565b60005b83811015610b3f578082015181840152602081019050610b24565b60008484015250505050565b6000601f19601f8301169050919050565b6000610b6782610b05565b610b718185610b10565b9350610b81818560208601610b21565b610b8a81610b4b565b840191505092915050565b60006020820190508181036000830152610baf8184610b5c565b905092915050565b6000819050919050565b610bca81610bb7565b8114610bd557600080fd5b50565b600081359050610be781610bc1565b92915050565b600060208284031215610c0357610c026109d3565b5b6000610c1184828501610bd8565b91505092915050565b600073ffffffffffffffffffffffffffffffffffffffff82169050919050565b6000610c4582610c1a565b9050919050565b610c5581610c3a565b82525050565b6000602082019050610c706000830184610c4c565b92915050565b600080600060408486031215610c8f57610c8e6109d3565b5b6000610c9d86828701610bd8565b935050602084013567ffffffffffffffff811115610cbe57610cbd6109d8565b5b610cca86828701610a22565b92509250509250925092565b610cdf816109dd565b82525050565b6000602082019050610cfa6000830184610cd6565b92915050565b60008115159050919050565b610d1581610d00565b82525050565b6000602082019050610d306000830184610d0c565b92915050565b60008083601f840112610d4c57610d4b610a13565b5b8235905067ffffffffffffffff811115610d6957610d68610a18565b5b602083019150836001820283011115610d8557610d84610a1d565b5b9250929050565b600080600060408486031215610da557610da46109d3565b5b6000610db3868287016109fe565b935050602084013567ffffffffffffffff811115610dd457610dd36109d8565b5b610de086828701610d36565b92509250509250925092565b60008060408385031215610e0357610e026109d3565b5b6000610e1185828601610bd8565b9250506020610e2285828601610bd8565b9150509250929050565b60008060408385031215610e4357610e426109d3565b5b6000610e5185828601610bd8565b9250506020610e62858286016109fe565b9150509250929050565b600081519050919050565b600082825260208201905092915050565b6000610e9382610e6c565b610e9d8185610e77565b9350610ead818560208601610b21565b610eb681610b4b565b840191505092915050565b60006020820190508181036000830152610edb8184610e88565b905092915050565b600080600060408486031215610efc57610efb6109d3565b5b6000610f0a86828701610bd8565b935050602084013567ffffffffffffffff811115610f2b57610f2a6109d8565b5b610f3786828701610d36565b92509250509250925092565b610f4c81610bb7565b82525050565b6000602082019050610f676000830184610f43565b92915050565b610f7681610c3a565b8114610f8157600080fd5b50565b600081359050610f9381610f6d565b92915050565b60008060408385031215610fb057610faf6109d3565b5b6000610fbe85828601610bd8565b9250506020610fcf85828601610f84565b9150509250929050565b610fe281610d00565b8114610fed57600080fd5b50565b600081359050610fff81610fd9565b92915050565b6000806040838503121561101c5761101b6109d3565b5b600061102a85828601610bd8565b925050602061103b85828601610ff0565b9150509250929050565b600082905092915050565b7f4e487b7100000000000000000000000000000000000000000000000000000000600052604160045260246000fd5b7f4e487b7100000000000000000000000000000000000000000000000000000000600052602260045260246000fd5b600060028204905060018216806110c657607f821691505b6020821081036110d9576110d861107f565b5b50919050565b60008190508160005260206000209050919050565b60006020601f8301049050919050565b600082821b905092915050565b6000600883026111417fffffffffffffffffffffffffffffffffffffffffffffffffffffffffffffffff82611104565b61114b8683611104565b95508019841693508086168417925050509392505050565b6000819050919050565b600061118861118361117e846109dd565b611163565b6109dd565b9050919050565b6000819050919050565b6111a28361116d565b6111b66111ae8261118f565b848454611111565b825550505050565b600090565b6111cb6111be565b6111d6818484611199565b505050565b5b818110156111fa576111ef6000826111c3565b6001810190506111dc565b5050565b601f82111561123f57611210816110df565b611219846110f4565b81016020851015611228578190505b61123c611234856110f4565b8301826111db565b50505b505050565b600082821c905092915050565b600061126260001984600802611244565b1980831691505092915050565b600061127b8383611251565b9150826002028217905092915050565b6112958383611045565b67ffffffffffffffff8111156112ae576112ad611050565b5b6112b882546110ae565b6112c38282856111fe565b6000601f8311600181146112f257600084156112e0578287013590505b6112ea858261126f565b865550611352565b601f198416611300866110df565b60005b8281101561132857848901358255600182019150602085019450602081019050611303565b868310156113455784890135611341601f891682611251565b8355505b6001600288020188555050505b50505050505050565b600082905092915050565b60008190508160005260206000209050919050565b601f8211156113bc5761138d81611366565b611396846110f4565b810160208510156113a5578190505b6113b96113b1856110f4565b8301826111db565b50505b505050565b6113cb838361135b565b67ffffffffffffffff8111156113e4576113e3611050565b5b6113ee82546110ae565b6113f982828561137b565b6000601f8311600181146114285760008415611416578287013590505b611420858261126f565b865550611488565b601f19841661143686611366565b60005b8281101561145e57848901358255600182019150602085019450602081019050611439565b8683101561147b5784890135611477601f891682611251565b8355505b6001600288020188555050505b5050505050505056fea2646970667358221220b476b1f2b248bf081658991ac9b5aca4d501b2e2dc87e85a5b90359752300e3864736f6c63430008130033",
  "immutableReferences": {},
  "source": "// SPDX-License-Identifier: MIT\r\n\r\npragma solidity ^0.8.0;\r\n\r\nimport \"../utils/StorageSlot.sol\";\r\n\r\ncontract StorageSlotMock {\r\n    using StorageSlot for *;\r\n\r\n    function setBoolean(bytes32 slot, bool value) public {\r\n        slot.getBooleanSlot().value = value;\r\n    }\r\n\r\n    function setAddress(bytes32 slot, address value) public {\r\n        slot.getAddressSlot().value = value;\r\n    }\r\n\r\n    function setBytes32(bytes32 slot, bytes32 value) public {\r\n        slot.getBytes32Slot().value = value;\r\n    }\r\n\r\n    function setUint256(bytes32 slot, uint256 value) public {\r\n        slot.getUint256Slot().value = value;\r\n    }\r\n\r\n    function getBoolean(bytes32 slot) public view returns (bool) {\r\n        return slot.getBooleanSlot().value;\r\n    }\r\n\r\n    function getAddress(bytes32 slot) public view returns (address) {\r\n        return slot.getAddressSlot().value;\r\n    }\r\n\r\n    function getBytes32(bytes32 slot) public view returns (bytes32) {\r\n        return slot.getBytes32Slot().value;\r\n    }\r\n\r\n    function getUint256(bytes32 slot) public view returns (uint256) {\r\n        return slot.getUint256Slot().value;\r\n    }\r\n\r\n    mapping(uint256 => string) public stringMap;\r\n\r\n    function setString(bytes32 slot, string calldata value) public {\r\n        slot.getStringSlot().value = value;\r\n    }\r\n\r\n    function setStringStorage(uint256 key, string calldata value) public {\r\n        stringMap[key].getStringSlot().value = value;\r\n    }\r\n\r\n    function getString(bytes32 slot) public view returns (string memory) {\r\n        return slot.getStringSlot().value;\r\n    }\r\n\r\n    function getStringStorage(uint256 key) public view returns (string memory) {\r\n        return stringMap[key].getStringSlot().value;\r\n    }\r\n\r\n    mapping(uint256 => bytes) public bytesMap;\r\n\r\n    function setBytes(bytes32 slot, bytes calldata value) public {\r\n        slot.getBytesSlot().value = value;\r\n    }\r\n\r\n    function setBytesStorage(uint256 key, bytes calldata value) public {\r\n        bytesMap[key].getBytesSlot().value = value;\r\n    }\r\n\r\n    function getBytes(bytes32 slot) public view returns (bytes memory) {\r\n        return slot.getBytesSlot().value;\r\n    }\r\n\r\n    function getBytesStorage(uint256 key) public view returns (bytes memory) {\r\n        return bytesMap[key].getBytesSlot().value;\r\n    }\r\n}\r\n",
  "sourcePath": "C:\\Users\\akqjq\\Desktop\\S08P22A308\\smart-contracts\\contracts\\mocks\\StorageSlotMock.sol",
  "compiler": {
    "name": "solc",
    "version": "0.8.19+commit.7dd6d404.Emscripten.clang"
  },
  "schemaVersion": "3.4.13",
  "updatedAt": "2023-03-22T16:34:02.783Z",
  "devdoc": {
    "kind": "dev",
    "methods": {},
    "version": 1
  },
  "userdoc": {
    "kind": "user",
    "methods": {},
    "version": 1
  }
}