{
  "contractName": "UUPSUpgradeableUnsafeMock",
  "abi": [
    {
      "anonymous": false,
      "inputs": [
        {
          "indexed": false,
          "internalType": "address",
          "name": "previousAdmin",
          "type": "address"
        },
        {
          "indexed": false,
          "internalType": "address",
          "name": "newAdmin",
          "type": "address"
        }
      ],
      "name": "AdminChanged",
      "type": "event"
    },
    {
      "anonymous": false,
      "inputs": [
        {
          "indexed": true,
          "internalType": "address",
          "name": "beacon",
          "type": "address"
        }
      ],
      "name": "BeaconUpgraded",
      "type": "event"
    },
    {
      "anonymous": false,
      "inputs": [
        {
          "indexed": true,
          "internalType": "address",
          "name": "implementation",
          "type": "address"
        }
      ],
      "name": "Upgraded",
      "type": "event"
    },
    {
      "inputs": [],
      "name": "current",
      "outputs": [
        {
          "internalType": "uint256",
          "name": "",
          "type": "uint256"
        }
      ],
      "stateMutability": "view",
      "type": "function"
    },
    {
      "inputs": [],
      "name": "increment",
      "outputs": [],
      "stateMutability": "nonpayable",
      "type": "function"
    },
    {
      "inputs": [],
      "name": "proxiableUUID",
      "outputs": [
        {
          "internalType": "bytes32",
          "name": "",
          "type": "bytes32"
        }
      ],
      "stateMutability": "view",
      "type": "function"
    },
    {
      "inputs": [
        {
          "internalType": "address",
          "name": "newImplementation",
          "type": "address"
        }
      ],
      "name": "upgradeTo",
      "outputs": [],
      "stateMutability": "nonpayable",
      "type": "function"
    },
    {
      "inputs": [
        {
          "internalType": "address",
          "name": "newImplementation",
          "type": "address"
        },
        {
          "internalType": "bytes",
          "name": "data",
          "type": "bytes"
        }
      ],
      "name": "upgradeToAndCall",
      "outputs": [],
      "stateMutability": "payable",
      "type": "function"
    }
  ],
  "bytecode": "0x60a06040523073ffffffffffffffffffffffffffffffffffffffff1660809073ffffffffffffffffffffffffffffffffffffffff1681525034801561004357600080fd5b50608051610a9761005f60003960006101330152610a976000f3fe60806040526004361061004a5760003560e01c80633659cfe61461004f5780634f1ef2861461007857806352d1902d146100945780639fa6a6e3146100bf578063d09de08a146100ea575b600080fd5b34801561005b57600080fd5b5061007660048036038101906100719190610574565b610101565b005b610092600480360381019061008d91906106e7565b61011f565b005b3480156100a057600080fd5b506100a961012f565b6040516100b6919061075c565b60405180910390f35b3480156100cb57600080fd5b506100d46101e8565b6040516100e19190610790565b60405180910390f35b3480156100f657600080fd5b506100ff6101f9565b005b61011c81604051806020016040528060008152506000610205565b50565b61012b82826000610205565b5050565b60007f000000000000000000000000000000000000000000000000000000000000000073ffffffffffffffffffffffffffffffffffffffff163073ffffffffffffffffffffffffffffffffffffffff16146101bf576040517f08c379a00000000000000000000000000000000000000000000000000000000081526004016101b69061082e565b60405180910390fd5b7f360894a13ba1a3210667c828492db98dca3e2076cc3735a920a3ca505d382bbc60001b905090565b60006101f46000610231565b905090565b610203600061023f565b565b61020e83610255565b60008251118061021b5750805b1561022c5761022a83836102a4565b505b505050565b600081600001549050919050565b6001816000016000828254019250508190555050565b61025e816102d1565b8073ffffffffffffffffffffffffffffffffffffffff167fbc7cd75a20ee27fd9adebab32041f755214dbc6bffa90cc0225b39da2e5c2d3b60405160405180910390a250565b60606102c98383604051806060016040528060278152602001610a3b6027913961038a565b905092915050565b6102da81610410565b610319576040517f08c379a0000000000000000000000000000000000000000000000000000000008152600401610310906108c0565b60405180910390fd5b806103467f360894a13ba1a3210667c828492db98dca3e2076cc3735a920a3ca505d382bbc60001b610433565b60000160006101000a81548173ffffffffffffffffffffffffffffffffffffffff021916908373ffffffffffffffffffffffffffffffffffffffff16021790555050565b60606000808573ffffffffffffffffffffffffffffffffffffffff16856040516103b49190610951565b600060405180830381855af49150503d80600081146103ef576040519150601f19603f3d011682016040523d82523d6000602084013e6103f4565b606091505b50915091506104058683838761043d565b925050509392505050565b6000808273ffffffffffffffffffffffffffffffffffffffff163b119050919050565b6000819050919050565b6060831561049f5760008351036104975761045785610410565b610496576040517f08c379a000000000000000000000000000000000000000000000000000000000815260040161048d906109b4565b60405180910390fd5b5b8290506104aa565b6104a983836104b2565b5b949350505050565b6000825111156104c55781518083602001fd5b806040517f08c379a00000000000000000000000000000000000000000000000000000000081526004016104f99190610a18565b60405180910390fd5b6000604051905090565b600080fd5b600080fd5b600073ffffffffffffffffffffffffffffffffffffffff82169050919050565b600061054182610516565b9050919050565b61055181610536565b811461055c57600080fd5b50565b60008135905061056e81610548565b92915050565b60006020828403121561058a5761058961050c565b5b60006105988482850161055f565b91505092915050565b600080fd5b600080fd5b6000601f19601f8301169050919050565b7f4e487b7100000000000000000000000000000000000000000000000000000000600052604160045260246000fd5b6105f4826105ab565b810181811067ffffffffffffffff82111715610613576106126105bc565b5b80604052505050565b6000610626610502565b905061063282826105eb565b919050565b600067ffffffffffffffff821115610652576106516105bc565b5b61065b826105ab565b9050602081019050919050565b82818337600083830152505050565b600061068a61068584610637565b61061c565b9050828152602081018484840111156106a6576106a56105a6565b5b6106b1848285610668565b509392505050565b600082601f8301126106ce576106cd6105a1565b5b81356106de848260208601610677565b91505092915050565b600080604083850312156106fe576106fd61050c565b5b600061070c8582860161055f565b925050602083013567ffffffffffffffff81111561072d5761072c610511565b5b610739858286016106b9565b9150509250929050565b6000819050919050565b61075681610743565b82525050565b6000602082019050610771600083018461074d565b92915050565b6000819050919050565b61078a81610777565b82525050565b60006020820190506107a56000830184610781565b92915050565b600082825260208201905092915050565b7f555550535570677261646561626c653a206d757374206e6f742062652063616c60008201527f6c6564207468726f7567682064656c656761746563616c6c0000000000000000602082015250565b60006108186038836107ab565b9150610823826107bc565b604082019050919050565b600060208201905081810360008301526108478161080b565b9050919050565b7f455243313936373a206e657720696d706c656d656e746174696f6e206973206e60008201527f6f74206120636f6e747261637400000000000000000000000000000000000000602082015250565b60006108aa602d836107ab565b91506108b58261084e565b604082019050919050565b600060208201905081810360008301526108d98161089d565b9050919050565b600081519050919050565b600081905092915050565b60005b838110156109145780820151818401526020810190506108f9565b60008484015250505050565b600061092b826108e0565b61093581856108eb565b93506109458185602086016108f6565b80840191505092915050565b600061095d8284610920565b915081905092915050565b7f416464726573733a2063616c6c20746f206e6f6e2d636f6e7472616374000000600082015250565b600061099e601d836107ab565b91506109a982610968565b602082019050919050565b600060208201905081810360008301526109cd81610991565b9050919050565b600081519050919050565b60006109ea826109d4565b6109f481856107ab565b9350610a048185602086016108f6565b610a0d816105ab565b840191505092915050565b60006020820190508181036000830152610a3281846109df565b90509291505056fe416464726573733a206c6f772d6c6576656c2064656c65676174652063616c6c206661696c6564a26469706673582212209f2b6f4d2e579a9c3803473cd1da80a5d3ebaa84e83956f6e6f17527c62b5f2664736f6c63430008130033",
  "immutableReferences": {
    "18911": [
      {
        "length": 32,
        "start": 307
      }
    ]
  },
  "source": "// SPDX-License-Identifier: MIT\r\n\r\npragma solidity ^0.8.0;\r\n\r\nimport \"../../proxy/utils/UUPSUpgradeable.sol\";\r\nimport \"../../utils/Counters.sol\";\r\n\r\ncontract NonUpgradeableMock {\r\n    Counters.Counter internal _counter;\r\n\r\n    function current() external view returns (uint256) {\r\n        return Counters.current(_counter);\r\n    }\r\n\r\n    function increment() external {\r\n        return Counters.increment(_counter);\r\n    }\r\n}\r\n\r\ncontract UUPSUpgradeableMock is NonUpgradeableMock, UUPSUpgradeable {\r\n    // Not having any checks in this function is dangerous! Do not do this outside tests!\r\n    function _authorizeUpgrade(address) internal override {}\r\n}\r\n\r\ncontract UUPSUpgradeableUnsafeMock is UUPSUpgradeableMock {\r\n    function upgradeTo(address newImplementation) public override {\r\n        ERC1967Upgrade._upgradeToAndCall(newImplementation, bytes(\"\"), false);\r\n    }\r\n\r\n    function upgradeToAndCall(address newImplementation, bytes memory data) public payable override {\r\n        ERC1967Upgrade._upgradeToAndCall(newImplementation, data, false);\r\n    }\r\n}\r\n",
  "sourcePath": "C:\\Users\\SSAFY\\Desktop\\S08P22A308\\smart-contracts\\contracts\\mocks\\proxy\\UUPSUpgradeableMock.sol",
  "compiler": {
    "name": "solc",
    "version": "0.8.19+commit.7dd6d404.Emscripten.clang"
  },
  "schemaVersion": "3.4.13",
  "updatedAt": "2023-03-23T05:45:08.391Z",
  "devdoc": {
    "events": {
      "AdminChanged(address,address)": {
        "details": "Emitted when the admin account has changed."
      },
      "BeaconUpgraded(address)": {
        "details": "Emitted when the beacon is upgraded."
      },
      "Upgraded(address)": {
        "details": "Emitted when the implementation is upgraded."
      }
    },
    "kind": "dev",
    "methods": {
      "proxiableUUID()": {
        "details": "Implementation of the ERC1822 {proxiableUUID} function. This returns the storage slot used by the implementation. It is used to validate the implementation's compatibility when performing an upgrade. IMPORTANT: A proxy pointing at a proxiable contract should not be considered proxiable itself, because this risks bricking a proxy that upgrades to it, by delegating to itself until out of gas. Thus it is critical that this function revert if invoked through a proxy. This is guaranteed by the `notDelegated` modifier."
      },
      "upgradeTo(address)": {
        "details": "Upgrade the implementation of the proxy to `newImplementation`. Calls {_authorizeUpgrade}. Emits an {Upgraded} event."
      },
      "upgradeToAndCall(address,bytes)": {
        "details": "Upgrade the implementation of the proxy to `newImplementation`, and subsequently execute the function call encoded in `data`. Calls {_authorizeUpgrade}. Emits an {Upgraded} event."
      }
    },
    "version": 1
  },
  "userdoc": {
    "kind": "user",
    "methods": {},
    "version": 1
  }
}