{
  "contractName": "UUPSUpgradeableMock",
  "abi": [
    {
      "anonymous": false,
      "inputs": [
        {
          "indexed": false,
          "internalType": "address",
          "name": "previousAdmin",
          "type": "address"
        },
        {
          "indexed": false,
          "internalType": "address",
          "name": "newAdmin",
          "type": "address"
        }
      ],
      "name": "AdminChanged",
      "type": "event"
    },
    {
      "anonymous": false,
      "inputs": [
        {
          "indexed": true,
          "internalType": "address",
          "name": "beacon",
          "type": "address"
        }
      ],
      "name": "BeaconUpgraded",
      "type": "event"
    },
    {
      "anonymous": false,
      "inputs": [
        {
          "indexed": true,
          "internalType": "address",
          "name": "implementation",
          "type": "address"
        }
      ],
      "name": "Upgraded",
      "type": "event"
    },
    {
      "inputs": [],
      "name": "current",
      "outputs": [
        {
          "internalType": "uint256",
          "name": "",
          "type": "uint256"
        }
      ],
      "stateMutability": "view",
      "type": "function"
    },
    {
      "inputs": [],
      "name": "increment",
      "outputs": [],
      "stateMutability": "nonpayable",
      "type": "function"
    },
    {
      "inputs": [],
      "name": "proxiableUUID",
      "outputs": [
        {
          "internalType": "bytes32",
          "name": "",
          "type": "bytes32"
        }
      ],
      "stateMutability": "view",
      "type": "function"
    },
    {
      "inputs": [
        {
          "internalType": "address",
          "name": "newImplementation",
          "type": "address"
        }
      ],
      "name": "upgradeTo",
      "outputs": [],
      "stateMutability": "nonpayable",
      "type": "function"
    },
    {
      "inputs": [
        {
          "internalType": "address",
          "name": "newImplementation",
          "type": "address"
        },
        {
          "internalType": "bytes",
          "name": "data",
          "type": "bytes"
        }
      ],
      "name": "upgradeToAndCall",
      "outputs": [],
      "stateMutability": "payable",
      "type": "function"
    }
  ],
  "bytecode": "0x60a06040523073ffffffffffffffffffffffffffffffffffffffff1660809073ffffffffffffffffffffffffffffffffffffffff1681525034801561004357600080fd5b506080516111a061007b60003960008181610103015281816101910152818161028b0152818161031901526103c901526111a06000f3fe60806040526004361061004a5760003560e01c80633659cfe61461004f5780634f1ef2861461007857806352d1902d146100945780639fa6a6e3146100bf578063d09de08a146100ea575b600080fd5b34801561005b57600080fd5b50610076600480360381019061007191906109dc565b610101565b005b610092600480360381019061008d9190610b4f565b610289565b005b3480156100a057600080fd5b506100a96103c5565b6040516100b69190610bc4565b60405180910390f35b3480156100cb57600080fd5b506100d461047e565b6040516100e19190610bf8565b60405180910390f35b3480156100f657600080fd5b506100ff61048f565b005b7f000000000000000000000000000000000000000000000000000000000000000073ffffffffffffffffffffffffffffffffffffffff163073ffffffffffffffffffffffffffffffffffffffff160361018f576040517f08c379a000000000000000000000000000000000000000000000000000000000815260040161018690610c96565b60405180910390fd5b7f000000000000000000000000000000000000000000000000000000000000000073ffffffffffffffffffffffffffffffffffffffff166101ce61049b565b73ffffffffffffffffffffffffffffffffffffffff1614610224576040517f08c379a000000000000000000000000000000000000000000000000000000000815260040161021b90610d28565b60405180910390fd5b61022d816104f2565b61028681600067ffffffffffffffff81111561024c5761024b610a24565b5b6040519080825280601f01601f19166020018201604052801561027e5781602001600182028036833780820191505090505b5060006104f5565b50565b7f000000000000000000000000000000000000000000000000000000000000000073ffffffffffffffffffffffffffffffffffffffff163073ffffffffffffffffffffffffffffffffffffffff1603610317576040517f08c379a000000000000000000000000000000000000000000000000000000000815260040161030e90610c96565b60405180910390fd5b7f000000000000000000000000000000000000000000000000000000000000000073ffffffffffffffffffffffffffffffffffffffff1661035661049b565b73ffffffffffffffffffffffffffffffffffffffff16146103ac576040517f08c379a00000000000000000000000000000000000000000000000000000000081526004016103a390610d28565b60405180910390fd5b6103b5826104f2565b6103c1828260016104f5565b5050565b60007f000000000000000000000000000000000000000000000000000000000000000073ffffffffffffffffffffffffffffffffffffffff163073ffffffffffffffffffffffffffffffffffffffff1614610455576040517f08c379a000000000000000000000000000000000000000000000000000000000815260040161044c90610dba565b60405180910390fd5b7f360894a13ba1a3210667c828492db98dca3e2076cc3735a920a3ca505d382bbc60001b905090565b600061048a6000610663565b905090565b6104996000610671565b565b60006104c97f360894a13ba1a3210667c828492db98dca3e2076cc3735a920a3ca505d382bbc60001b610687565b60000160009054906101000a900473ffffffffffffffffffffffffffffffffffffffff16905090565b50565b6105217f4910fdfa16fed3260ed0e7147f7cc6da11a60208b5b9406d12a635614ffd914360001b610691565b60000160009054906101000a900460ff1615610545576105408361069b565b61065e565b8273ffffffffffffffffffffffffffffffffffffffff166352d1902d6040518163ffffffff1660e01b8152600401602060405180830381865afa9250505080156105ad57506040513d601f19601f820116820180604052508101906105aa9190610e06565b60015b6105ec576040517f08c379a00000000000000000000000000000000000000000000000000000000081526004016105e390610ea5565b60405180910390fd5b7f360894a13ba1a3210667c828492db98dca3e2076cc3735a920a3ca505d382bbc60001b8114610651576040517f08c379a000000000000000000000000000000000000000000000000000000000815260040161064890610f37565b60405180910390fd5b5061065d838383610754565b5b505050565b600081600001549050919050565b6001816000016000828254019250508190555050565b6000819050919050565b6000819050919050565b6106a481610780565b6106e3576040517f08c379a00000000000000000000000000000000000000000000000000000000081526004016106da90610fc9565b60405180910390fd5b806107107f360894a13ba1a3210667c828492db98dca3e2076cc3735a920a3ca505d382bbc60001b610687565b60000160006101000a81548173ffffffffffffffffffffffffffffffffffffffff021916908373ffffffffffffffffffffffffffffffffffffffff16021790555050565b61075d836107a3565b60008251118061076a5750805b1561077b5761077983836107f2565b505b505050565b6000808273ffffffffffffffffffffffffffffffffffffffff163b119050919050565b6107ac8161069b565b8073ffffffffffffffffffffffffffffffffffffffff167fbc7cd75a20ee27fd9adebab32041f755214dbc6bffa90cc0225b39da2e5c2d3b60405160405180910390a250565b606061081783836040518060600160405280602781526020016111446027913961081f565b905092915050565b60606000808573ffffffffffffffffffffffffffffffffffffffff1685604051610849919061105a565b600060405180830381855af49150503d8060008114610884576040519150601f19603f3d011682016040523d82523d6000602084013e610889565b606091505b509150915061089a868383876108a5565b925050509392505050565b606083156109075760008351036108ff576108bf85610780565b6108fe576040517f08c379a00000000000000000000000000000000000000000000000000000000081526004016108f5906110bd565b60405180910390fd5b5b829050610912565b610911838361091a565b5b949350505050565b60008251111561092d5781518083602001fd5b806040517f08c379a00000000000000000000000000000000000000000000000000000000081526004016109619190611121565b60405180910390fd5b6000604051905090565b600080fd5b600080fd5b600073ffffffffffffffffffffffffffffffffffffffff82169050919050565b60006109a98261097e565b9050919050565b6109b98161099e565b81146109c457600080fd5b50565b6000813590506109d6816109b0565b92915050565b6000602082840312156109f2576109f1610974565b5b6000610a00848285016109c7565b91505092915050565b600080fd5b600080fd5b6000601f19601f8301169050919050565b7f4e487b7100000000000000000000000000000000000000000000000000000000600052604160045260246000fd5b610a5c82610a13565b810181811067ffffffffffffffff82111715610a7b57610a7a610a24565b5b80604052505050565b6000610a8e61096a565b9050610a9a8282610a53565b919050565b600067ffffffffffffffff821115610aba57610ab9610a24565b5b610ac382610a13565b9050602081019050919050565b82818337600083830152505050565b6000610af2610aed84610a9f565b610a84565b905082815260208101848484011115610b0e57610b0d610a0e565b5b610b19848285610ad0565b509392505050565b600082601f830112610b3657610b35610a09565b5b8135610b46848260208601610adf565b91505092915050565b60008060408385031215610b6657610b65610974565b5b6000610b74858286016109c7565b925050602083013567ffffffffffffffff811115610b9557610b94610979565b5b610ba185828601610b21565b9150509250929050565b6000819050919050565b610bbe81610bab565b82525050565b6000602082019050610bd96000830184610bb5565b92915050565b6000819050919050565b610bf281610bdf565b82525050565b6000602082019050610c0d6000830184610be9565b92915050565b600082825260208201905092915050565b7f46756e6374696f6e206d7573742062652063616c6c6564207468726f7567682060008201527f64656c656761746563616c6c0000000000000000000000000000000000000000602082015250565b6000610c80602c83610c13565b9150610c8b82610c24565b604082019050919050565b60006020820190508181036000830152610caf81610c73565b9050919050565b7f46756e6374696f6e206d7573742062652063616c6c6564207468726f7567682060008201527f6163746976652070726f78790000000000000000000000000000000000000000602082015250565b6000610d12602c83610c13565b9150610d1d82610cb6565b604082019050919050565b60006020820190508181036000830152610d4181610d05565b9050919050565b7f555550535570677261646561626c653a206d757374206e6f742062652063616c60008201527f6c6564207468726f7567682064656c656761746563616c6c0000000000000000602082015250565b6000610da4603883610c13565b9150610daf82610d48565b604082019050919050565b60006020820190508181036000830152610dd381610d97565b9050919050565b610de381610bab565b8114610dee57600080fd5b50565b600081519050610e0081610dda565b92915050565b600060208284031215610e1c57610e1b610974565b5b6000610e2a84828501610df1565b91505092915050565b7f45524331393637557067726164653a206e657720696d706c656d656e7461746960008201527f6f6e206973206e6f742055555053000000000000000000000000000000000000602082015250565b6000610e8f602e83610c13565b9150610e9a82610e33565b604082019050919050565b60006020820190508181036000830152610ebe81610e82565b9050919050565b7f45524331393637557067726164653a20756e737570706f727465642070726f7860008201527f6961626c65555549440000000000000000000000000000000000000000000000602082015250565b6000610f21602983610c13565b9150610f2c82610ec5565b604082019050919050565b60006020820190508181036000830152610f5081610f14565b9050919050565b7f455243313936373a206e657720696d706c656d656e746174696f6e206973206e60008201527f6f74206120636f6e747261637400000000000000000000000000000000000000602082015250565b6000610fb3602d83610c13565b9150610fbe82610f57565b604082019050919050565b60006020820190508181036000830152610fe281610fa6565b9050919050565b600081519050919050565b600081905092915050565b60005b8381101561101d578082015181840152602081019050611002565b60008484015250505050565b600061103482610fe9565b61103e8185610ff4565b935061104e818560208601610fff565b80840191505092915050565b60006110668284611029565b915081905092915050565b7f416464726573733a2063616c6c20746f206e6f6e2d636f6e7472616374000000600082015250565b60006110a7601d83610c13565b91506110b282611071565b602082019050919050565b600060208201905081810360008301526110d68161109a565b9050919050565b600081519050919050565b60006110f3826110dd565b6110fd8185610c13565b935061110d818560208601610fff565b61111681610a13565b840191505092915050565b6000602082019050818103600083015261113b81846110e8565b90509291505056fe416464726573733a206c6f772d6c6576656c2064656c65676174652063616c6c206661696c6564a26469706673582212203a9fd46230f653223f7ba3c75033c7b1bcdf7f07dff617aa01d3d3950b25a67e64736f6c63430008130033",
  "immutableReferences": {
    "18797": [
      {
        "length": 32,
        "start": 259
      },
      {
        "length": 32,
        "start": 401
      },
      {
        "length": 32,
        "start": 651
      },
      {
        "length": 32,
        "start": 793
      },
      {
        "length": 32,
        "start": 969
      }
    ]
  },
  "source": "// SPDX-License-Identifier: MIT\r\n\r\npragma solidity ^0.8.0;\r\n\r\nimport \"../../proxy/utils/UUPSUpgradeable.sol\";\r\nimport \"../../utils/Counters.sol\";\r\n\r\ncontract NonUpgradeableMock {\r\n    Counters.Counter internal _counter;\r\n\r\n    function current() external view returns (uint256) {\r\n        return Counters.current(_counter);\r\n    }\r\n\r\n    function increment() external {\r\n        return Counters.increment(_counter);\r\n    }\r\n}\r\n\r\ncontract UUPSUpgradeableMock is NonUpgradeableMock, UUPSUpgradeable {\r\n    // Not having any checks in this function is dangerous! Do not do this outside tests!\r\n    function _authorizeUpgrade(address) internal override {}\r\n}\r\n\r\ncontract UUPSUpgradeableUnsafeMock is UUPSUpgradeableMock {\r\n    function upgradeTo(address newImplementation) public override {\r\n        ERC1967Upgrade._upgradeToAndCall(newImplementation, bytes(\"\"), false);\r\n    }\r\n\r\n    function upgradeToAndCall(address newImplementation, bytes memory data) public payable override {\r\n        ERC1967Upgrade._upgradeToAndCall(newImplementation, data, false);\r\n    }\r\n}\r\n",
  "sourcePath": "C:\\Users\\akqjq\\Desktop\\S08P22A308\\smart-contracts\\contracts\\mocks\\proxy\\UUPSUpgradeableMock.sol",
  "compiler": {
    "name": "solc",
    "version": "0.8.19+commit.7dd6d404.Emscripten.clang"
  },
  "schemaVersion": "3.4.13",
  "updatedAt": "2023-03-22T16:34:02.852Z",
  "devdoc": {
    "events": {
      "AdminChanged(address,address)": {
        "details": "Emitted when the admin account has changed."
      },
      "BeaconUpgraded(address)": {
        "details": "Emitted when the beacon is upgraded."
      },
      "Upgraded(address)": {
        "details": "Emitted when the implementation is upgraded."
      }
    },
    "kind": "dev",
    "methods": {
      "proxiableUUID()": {
        "details": "Implementation of the ERC1822 {proxiableUUID} function. This returns the storage slot used by the implementation. It is used to validate the implementation's compatibility when performing an upgrade. IMPORTANT: A proxy pointing at a proxiable contract should not be considered proxiable itself, because this risks bricking a proxy that upgrades to it, by delegating to itself until out of gas. Thus it is critical that this function revert if invoked through a proxy. This is guaranteed by the `notDelegated` modifier."
      },
      "upgradeTo(address)": {
        "custom:oz-upgrades-unsafe-allow-reachable": "delegatecall",
        "details": "Upgrade the implementation of the proxy to `newImplementation`. Calls {_authorizeUpgrade}. Emits an {Upgraded} event."
      },
      "upgradeToAndCall(address,bytes)": {
        "custom:oz-upgrades-unsafe-allow-reachable": "delegatecall",
        "details": "Upgrade the implementation of the proxy to `newImplementation`, and subsequently execute the function call encoded in `data`. Calls {_authorizeUpgrade}. Emits an {Upgraded} event."
      }
    },
    "version": 1
  },
  "userdoc": {
    "kind": "user",
    "methods": {},
    "version": 1
  }
}